:020000040800F2
:10000000B01B00206D020008C1090008B9090008F2
:10001000BD090008D30600085F19000800000000B1
:10002000000000000000000000000000D90B0008E4
:100030004507000800000000510A0008DD0B000819
:10004000870200088702000887020008870200086C
:10005000870200088702000887020008870200085C
:10006000870200088702000887020008870200084C
:10007000870200088702000887020008870200083C
:10008000870200088702000887020008870200082C
:10009000870200088702000887020008870200081C
:1000A000870200088702000887020008870200080C
:1000B00087020008870200085D0C0008870200081C
:1000C00087020008870200088702000887020008EC
:1000D0008702000851160008C516000887020008AC
:1000E00087020008870200088702000887020008CC
:1000F0008702000887020008C50E00088702000872
:100100008702000887020008750E000887020008B1
:10011000DD15000887020008870200088702000832
:10012000870200088702000887020008870200088B
:10013000870200088702000887020008870200087B
:10014000870200088702000887020008870200086B
:10015000870200088702000887020008870200085B
:10016000870200088702000887020008870200084B
:10017000870200088702000887020008870200083B
:10018000870200088702000800F002F800F05EF81D
:100190000AA090E8000C82448344AAF10107DA45E2
:1001A00001D100F053F8AFF2090EBAE80F0013F0D6
:1001B000010F18BFFB1A43F0010318478CCD000054
:1001C000ACCD00000A444FF0000C10F8013B13F0D6
:1001D000070408BF10F8014B1D1108BF10F8015BA0
:1001E000641E05D010F8016B641E01F8016BF9D193
:1001F00013F0080F1EBF10F8014BAD1C0C1B09D1EA
:100200006D1E58BF01F801CBFAD505E014F8016B5B
:1002100001F8016B6D1EF9D59142D6D370470000ED
:100220000023002400250026103A28BF78C1FBD8FF
:10023000520728BF30C148BF0B6070471FB50CF094
:1002400010F800F0B3F81FBD10B510BD00F04AF96A
:100250001146FFF7F3FF0AF0E7FF00F068F903B477
:10026000FFF7F2FF03BC00F069F90000094880477E
:1002700009480047FEE7FEE7FEE7FEE7FEE7FEE788
:10028000FEE7FEE7FEE7FEE704480549054A064BA0
:1002900070470000F50B000889010008B015002028
:1002A000B01B0020B0170020B017002010B54C1074
:1002B00084EA530404D54042C1F1000138BF491E0D
:1002C0001B4204D55242C3F1000338BF5B1E00F04D
:1002D0007FF814F0804F04D04042C1F1000138BFD4
:1002E000491E14F0004F04D05242C3F1000338BF3E
:1002F0005B1E10BD10B5203AC0F00B80B1E818505D
:10030000203AA0E81850B1E81850A0E81850BFF4FF
:10031000F5AF5FEA027C24BFB1E81850A0E818509E
:1003200044BF18C918C0BDE810405FEA827C24BFF2
:1003300051F8043B40F8043B08BF7047D20728BF80
:1003400031F8023B48BF11F8012B28BF20F8023BCF
:1003500048BF00F8012B70474FF0000200B513466C
:1003600094469646203922BFA0E80C50A0E80C50D5
:10037000B1F12001BFF4F7AF090728BFA0E80C5086
:1003800048BF0CC05DF804EB890028BF40F8042B7F
:1003900008BF704748BF20F8022B11F0804F18BFEC
:1003A00000F8012B704770477047704770B5064CD6
:1003B0007C44064D7D4403E0206820448047241D92
:1003C000AC42F9D170BD0000B4CB0000D8CB000026
:1003D00053EA020C00F069802DE9F04B4FF0000663
:1003E000002B1FBFB3FA83F503FA05F424FA05F6D0
:1003F0005E4012BF1643B2FA82F502FA05F4C5F167
:1004000020051EBF22FA05FC44EA0C04203556EAFA
:10041000044C4FEA144418BF641C4FF000084FF01E
:100420000009904271EB030C39D3002919BFB1FACE
:1004300081F701FA07F6B0FA80F700FA07F6C7F17C
:1004400020071EBF20FA07FC46EA0C062037B6FB41
:10045000F4FCA7EB0507103F07F01F0BCBF12006BC
:100460000CFA0BFB2CFA06F644BFB3460026202FED
:10047000A4BF5E464FF0000B5BEA060C08BF4FF0CE
:10048000010B19EB0B09ABFB027C48EB0608C01B08
:1004900006FB02CC0BFB03CC71EB0C01C1E70B4656
:1004A000024641464846BDE8F08B13B54FF00000C8
:1004B0004FF00001AFF30080BDE81C40704710B55D
:1004C00000F008F8006810BD10B5044600F002F80E
:1004D000046010BD00487047501500200048704768
:1004E000501500207546FFF7F9FFAE460500694636
:1004F000534620F00700854618B020B5FFF7C4FE2C
:10050000BDE820404FF000064FF000074FF0000814
:100510004FF0000B21F00701AC46ACE8C009ACE895
:10052000C009ACE8C009ACE8C0098D467047044674
:10053000AFF300802046FFF792FE0000014918202B
:10054000ABBEFEE726000200704721B1826842F090
:100550000102826003E0826822F00102826070473B
:100560000021084A1168084A1140D0E900231A43C3
:1005700083681A43C3681A431143044AC2F8041338
:100580007047000004230140E030FCFF00200140E0
:1005900021B1826842F48072826003E0826822F4B2
:1005A00080728260704721B1826842F4007282607A
:1005B00003E0826822F400728260704730B5024620
:1005C000002000235068104C20400D790C6844EA4C
:1005D00005242043506090680C4C2040D1E903541E
:1005E0002C438D682C434D7944EA450420439060A8
:1005F000D06A20F470000C7D641EE4B2234340EA0C
:100600000350D06230BD0000FFFEFFFCFDF7FFC0CD
:10061000F0B504460D4600200021092D11DDE068EB
:10062000A5F10A0606EB4607072606FA07F18843F6
:10063000A5F10A0606EB460603FA06F10843E06058
:100640000CE0206905EB4507072606FA07F1884309
:1006500005EB450603FA06F108432061072A0FDA85
:10066000606B561E06EB86071F2606FA07F18843C5
:10067000561E06EB860605FA06F10843606322E083
:100680000D2A0FDA206BD61F06EB86071F2606FA07
:1006900007F18843D61F06EB860605FA06F10843E4
:1006A000206310E0E06AA2F10D0606EB86071F2624
:1006B00006FA07F18843A2F10D0606EB860605FA55
:1006C00006F10843E062F0BD816841F0804181603D
:1006D000704700BFFEE721B1026842F001020260EC
:1006E00003E0026822F001020260704710B50022A8
:1006F0000268134B1A40CC680B6823434C692343B0
:100700008C692343CC6923430C6A23434C6A2343FB
:100710008C6A23434C6B23438C6B23431A43026044
:10072000426922F00702D1E90B3423431A434261A4
:100730000B6943604B6883608B68C36010BD000029
:100740003F801CF0704700000149086070470000BE
:100750000C3C024070B504460A460026092502B941
:1007600009E0012A01D1160205E0022A01D1160290
:1007700001E04FF4407600F09FF80546092D28D19E
:100780001548006820F44070134908600846006866
:10079000304308600846006820F0F800086008460A
:1007A000006844F0020108430B49086008460068ED
:1007B00040F48030086000F07FF805460648006885
:1007C00020F00200044908600846006820F0F800A4
:1007D0000860284670BD0000103C02400920134903
:1007E000096801F48031B1F5803F01D101201CE09E
:1007F0000E49096801F0100109B1062015E00B4906
:10080000096801F4807109B102200EE00749096806
:1008100001F0E00109B1072007E00449096801F08F
:10082000020109B1082000E0092070470C3C024099
:100830000348006840F0004001490860704700002C
:10084000103C024030B502460C46092500F034F851
:100850000546092D19D10E48006820F440700C4956
:1008600008600846006840F40070086008460068A8
:1008700040F001000860146000F01EF805460448CE
:10088000006820F0010002490860284630BD0000E1
:10089000103C02400548006800F0004028B10448C0
:1008A00002490C390860034808607047103C024058
:1008B00023016745AB89EFCD08B509200090FFF70C
:1008C0008DFF009002E0FFF789FF00909DF8000087
:1008D0000128F8D09DF8000008BDF0B50A460021B7
:1008E0000023002400BF3DE0012505FA01F315684F
:1008F00005EA03049C4234D105684F000326BE403C
:10090000B543056015794E00B5400668354305606E
:100910001579012D02D01579022D16D185684F0069
:100920000326BE40B543856055794E00B5408668C4
:1009300035438560456801268E40B543456045686E
:1009400096798E40B6B235434560C5684F000326A0
:10095000BE40B543C560D5794E00B540C668354345
:10096000C560491C1029BFD3F0BDF0B50023002499
:100970004D07ED0E02FA05F3CE1000F1200555F8F3
:1009800026504E07F70E0F26BE40B543CF1000F19C
:10099000200646F82750CE1000F1200555F82650C5
:1009A00045EA0304CE1000F1200545F82640F0BDCD
:1009B000418370470183704700BFFEE700BFFEE739
:1009C0007047000070B5002100230F22C4781CB3CB
:1009D000174C246804F4E064C4F5E064C4F3072110
:1009E000C1F10404E3B20A4144789C40E1B2847846
:1009F000144021430C07210E0E4C057861550478F4
:100A000004F01F050124AC4005786D11AD0005F11F
:100A1000E025C5F8004109E0047804F01F05012431
:100A2000AC40054D0678761145F8264070BD0000B3
:100A30000CED00E000E400E080E100E00249014349
:100A4000024A1160704700000000FA050CED00E05A
:100A50007047000029B1064A12680243044B1A602D
:100A600004E0034A12688243014B1A607047000099
:100A70003038024029B1064A12680243044B1A601A
:100A800004E0034A12688243014B1A607047000079
:100A90004038024029B1064A12680243044B1A60EA
:100AA00004E0034A12688243014B1A607047000059
:100AB0002038024029B1064A12680243044B1A60EA
:100AC00004E0034A12688243014B1A607047000039
:100AD0004438024029B1064A12680243044B1A60A6
:100AE00004E0034A12688243014B1A607047000019
:100AF00024380240F0B500210022002402250026FF
:100B00000223324F3F6807F00C0121B1042905D0C0
:100B1000082937D105E02E4F076036E02C4F0760DB
:100B200033E02A4F3F1F3F68C7F38056274F3F1FD0
:100B30003F6807F03F036EB1254FB7FBF3F7DFF8CF
:100B40008CC0ACF1040CDCF800C0CCF3881C07FBB3
:100B50000CF40CE01E4FB7FBF3F7DFF870C0ACF1FC
:100B6000040CDCF800C0CCF3881C07FB0CF4174F16
:100B70003F1F3F68C7F301477F1C7D00B4FBF5F7BB
:100B8000076002E0124F076000BF00BF0F4F3F68D1
:100B900007F0F00109090F4F7A5C0768D7404760FA
:100BA0000A4F3F6807F4E051890A0A4F7A5C4768A8
:100BB000D7408760054F3F6807F46041490B054FF8
:100BC0007A5C4768D740C760F0BD00000838024033
:100BD0000024F400500B0020704700000448036814
:100BE00040685A1C40F1000001490A6048607047A3
:100BF000500A002010B51548006840F470001349F1
:100C000008601348006840F00100114908600020A6
:100C10000F49083108600E4800680E4908400C4929
:100C200008600D48091D0860081F006820F4802036
:100C3000091F0860002006490C31086001F088F99E
:100C40004FF0006001498039086010BD88ED00E078
:100C500000380240FFFFF6FE1030002410B50221DC
:100C60007C4800F0A7FA012839D10221794800F028
:100C7000BDF97948006800F04000402810D175485F
:100C800000F08CFA7549088072482030008840F0E6
:100C900002007049203108800020714908801EE060
:100CA0006C4800F07BFA84B26C480088844205DD11
:100CB0006A480088201A6B49888007E04FF6FF7069
:100CC000204466490988401A664988806148203076
:100CD000008820F002005F492031088000BF042115
:100CE0005C4800F067FA012836D10421594800F029
:100CF0007DF95948006800F0800080280DD15548E2
:100D000000F04FFA5849088052482030008840F0DF
:100D100020005049203108801EE04E4800F041FA82
:100D200084B251480088844205DD4F480088201A6B
:100D30004C49C88007E04FF6FF7020444A490988B3
:100D4000401A4849C88043482030008820F02000DD
:100D500040492031088000BF08213E4800F02AFAAF
:100D6000012837D108213B4800F040F93A48006893
:100D700000F48070B0F5807F0DD1364800F014FA91
:100D80003A49088033482030008840F400703149E7
:100D9000203108801EE02F4800F006FA84B2334864
:100DA0000088844205DD31480088201A2D490881D9
:100DB00007E04FF6FF7020442C490988401A294962
:100DC000088124482030008820F400702149203117
:100DD000088000BF10211F4800F0ECF9012837D12E
:100DE00010211C4800F002F91B48006800F4007054
:100DF000B0F5007F0DD1174800F0D9F91C490880E3
:100E000014482030008840F40050124920310880F6
:100E10001EE0104800F0CBF984B2154800888442E7
:100E200005DD13480088201A0E49488107E04FF677
:100E3000FF7020440E490988401A0A494881054834
:100E40002030008820F4005002492031088000BF83
:100E500010BD00000008004010040240B80A002045
:100E6000A00A002064100020BA0A0020BC0A00205A
:100E7000BE0A002010B50121104800F09BF901289E
:100E800016D10F48007810B101280FD106E006F006
:100E900015FB012801D10A49087008E006F08AFA1A
:100EA000012802D102200649087000E000BF00BFFF
:100EB0000121024800F09AF810BD0000000C00402B
:100EC000240A002010B508213D4800F073F90128DC
:100ED00037D108213A4800F089F83A48006800F410
:100EE0008070B0F5807F0DD1354800F05DF936494E
:100EF000088033482030008840F4007030492031A9
:100F000008801EE02E4800F04FF984B22E48008879
:100F1000844205DD2C480088201A2C49088007E00F
:100F20004FF6FF70204428490988401A2749088055
:100F300023482030008820F40070214920310880A7
:100F400000BF10211E4800F035F9012837D11021CB
:100F50001B4800F04BF81B48006800F40070B0F527
:100F6000007F0DD1164800F022F919490880144875
:100F70002030008840F400501149203108801EE0E4
:100F80000F4800F014F984B211480088844205DD4E
:100F90000F480088201A0D49488007E04FF6FF707F
:100FA00020440B490988401A0849488004482030E9
:100FB000008820F4005002492031088000BF10BD95
:100FC0000004014010080240C00A00206410002004
:100FD000C20A002021B1028842F08002028004E0AF
:100FE00002884FF67F731A4002807047CA4302821C
:100FF000704721B1028842F00102028004E00288B9
:101000004FF6FE731A4002807047000010B5044688
:101010005548844208D101210846FFF75BFD0021B5
:101020000120FFF757FD9DE0B4F1804F08D1012169
:101030000846FFF72FFD00210120FFF72BFD91E06F
:101040004A48844208D101210220FFF723FD0021F4
:101050000220FFF71FFD85E04548844208D10121A9
:101060000420FFF717FD00210420FFF713FD79E0AE
:101070004048844208D101210820FFF70BFD0021E0
:101080000820FFF707FD6DE03B48844208D10121AD
:101090001020FFF7FFFC00211020FFF7FBFC61E0B0
:1010A0003648844208D101212020FFF7F3FC0021BB
:1010B0002020FFF7EFFC55E03148844208D10121A0
:1010C0000220FFF707FD00210220FFF703FD49E0A2
:1010D0002C48844209D101210804FFF7FBFC0021C0
:1010E0004FF48030FFF7F6FC3CE02748844209D1FA
:1010F00001214804FFF7EEFC00214FF40030FFF718
:10110000E9FC2FE02148844209D101218804FFF73E
:10111000E1FC00214FF48020FFF7DCFC22E01C48BA
:10112000844208D101214020FFF7B4FC0021402077
:10113000FFF7B0FC16E01748844208D10121802057
:10114000FFF7A8FC00218020FFF7A4FC0AE012486A
:10115000844207D101218015FFF79CFC0021A015D6
:10116000FFF798FC10BD00000000014000040040A3
:1011700000080040000C0040001000400014004037
:10118000000401400040014000440140004801408B
:1011900000180040001C0040002000400146486B41
:1011A00070470146886B70470146C86B704701461F
:1011B000086C704730B50246002000230024158AD1
:1011C00005EA0103958905EA010413B10CB1012078
:1011D00000E0002030BD70B505460C46208850B9AF
:1011E0002389A2886188284600F060FDE1882846AE
:1011F00000F085F925E0208804280AD12389A288F7
:101200006188284600F06FFDE188284600F080F9EB
:1012100017E0208808280AD12389A28861882846F7
:1012200000F089FDE188284600F07FF909E0238974
:10123000A2886188284600F0A2FDE188284600F0D7
:101240007DF970BD1AB183890B43838102E08389E4
:101250008B4383817047000070B500240022002377
:10126000058C4FF6FE7635400584028C8388048B0E
:101270004FF68F752C40B51E2C400D882C43751EE3
:101280002A408D892A434D882A43104DA84202D016
:101290000F4DA84213D14FF6F7752A40CD892A4346
:1012A0004FF6FB752A408D882A434FF6FF652B4089
:1012B0004FF6FF552B400D8A2B434D8A2B438380DD
:1012C00004838D684563028470BD00000000014006
:1012D000000401400A460021018B4FF6F7731940C4
:1012E000114301837047000070B5002400220023E1
:1012F000058C4FF6EF7635400584028C8388048B8D
:1013000048F6FF752C404FF6FF452C400D884FF6F0
:10131000FF7606EA05252C434FF6DF752A408D89B6
:1013200006EA05152A434D8806EA05152A43154D98
:10133000A84202D0144DA8421DD14FF67F752A4015
:10134000CD894FF6FF7606EA05152A434FF6BF759D
:101350002A408D8806EA05152A434FF6FF352B40B3
:101360004FF2FF752B400D8A06EA85052B434D8A07
:1013700006EA85052B43838004838D688563028498
:1013800070BD000000000140000401400A46002139
:10139000018B4FF2FF7319404FF6FF7303EA0223EC
:1013A000194301837047000070B500240022002318
:1013B000058C4FF6FF6635400584028C8388848B4C
:1013C0004FF68F752C404FF6FC752C400D882C4342
:1013D0004FF6FF552A408D894FF6FF7606EA052520
:1013E0002A434D8806EA05252A43154DA84202D016
:1013F000144DA8421DD14FF2FF752A40CD894FF6FA
:10140000FF7606EA05252A434FF6FF352A408D88E8
:1014100006EA05252A434EF6FF752B404DF6FF756B
:101420002B400D8A06EA05152B434D8A06EA051561
:101430002B43838084838D68C563028470BD000064
:1014400000000140000401400A460021818B4FF654
:10145000F7731940114381837047000070B5002273
:1014600000230024058C4EF6FF7635400584038C5E
:101470008488828B48F6FF752A404FF6FF452A4044
:101480000D884FF6FF7606EA05252A434DF6FF75CF
:101490002B408D8906EA05352B434D8806EA053534
:1014A0002B430A4DA84202D0094DA84208D14BF661
:1014B000FF752C400D8A4FF6FF7606EA85152C4302
:1014C000848082838D680564038470BD00000140C0
:1014D000000401400A460021818B4FF2FF7319403E
:1014E0004FF6FF7303EA0223194381837047416378
:1014F000704781637047C163704701647047028B16
:101500004FF6F3731A400283028B0A43028370473B
:10151000028B4FF2FF331A400283028B4FF6FF73A8
:1015200003EA01231A4302837047828B4FF6F37359
:101530001A408283828B0A4382837047828B4FF2E8
:10154000FF331A408283828B4FF6FF7303EA012335
:101550001A4382837047000000220288184B984289
:101560000ED0184B98420BD0B0F1804F08D0164BDC
:10157000984205D0154B984202D0154B984204D1A1
:101580004FF68F731A404B881A43124B984207D07C
:10159000114B984204D04FF6FF431A400B891A436F
:1015A00002804B68C3620B880385054B984202D0CA
:1015B000044B984201D18B7A0386012383827047C2
:1015C0000000014000040140000400400008004009
:1015D000000C0040001000400014004008B540F22C
:1015E0002771174800F0F8F890B11648164982683C
:1015F00068469047012805D19DF80010104800F07A
:10160000AAF905E0002240F227710D4800F00EF91A
:1016100040F225510A4800F0DFF878B1084800F0A0
:1016200095F9C0B2009040F22551054800F0ACF8A1
:101630000448064942689DF80000904708BD000034
:10164000004C00400C0B00207C120020881200206F
:1016500008B540F22771174800F0BEF890B116485F
:101660001649826868469047012805D19DF8001008
:10167000104800F070F905E0002240F227710D4893
:1016800000F0D4F840F225510A4800F0A5F878B1EE
:10169000084800F05BF9C0B2009040F225510548BF
:1016A00000F072F80448064942689DF8000090472F
:1016B00008BD0000001001400C0B00209414002015
:1016C000A014002010B50821274800F078F810B1C8
:1016D000254800F03BF92021234800F070F801284C
:1016E00040D1214800F032F9C4B22049486880470F
:1016F0001F490968401A022810D900201D490870A6
:101700001D480078012803D100201B49087002E021
:1017100001201949087001201849087016480078FE
:10172000012808D1134801780078401C114A107034
:101730001348445407E00F4801780078401C0D4AD4
:1017400010701048445409494868804708490860A7
:1017500008480078192804D106480078401E054939
:10176000087000BF10BD000000440040580A00206F
:10177000340B0020380B0020190B0020180B002020
:10178000AC140020C514002010B50022002340F640
:101790006A14A14200D100BF0A1201249440A3B2EE
:1017A000DC43048010BD21B1828942F40052828161
:1017B00004E082894DF6FF731A4082817047024629
:1017C0000020B1F5007F00D100BF13880B400BB1A2
:1017D000012000E00020704770B50246002400237D
:1017E0000025002040F66A16B14200D100BFC1F3C7
:1017F000421501F01F03012606FA03F3012D02D161
:101800009689334006E0022D02D1168A334001E06A
:10181000968A33400C12012606FA04F416883440E6
:1018200013B10CB1012000E0002070BDF0B50346FB
:10183000002400260025002040F66A17B94200D196
:1018400000BF1846C1F3421401F01F06012707FA32
:1018500006F5012C01D10C3004E0022C01D110302E
:1018600000E014301AB107682F43076002E00768F0
:10187000AF430760F0BD00002DE9FF4705460E4667
:101880000024A14600BFA046B08900B100BF2C8A49
:1018900024F44054F08804432C82AC8941F20C605B
:1018A0008443B08831890843718908430443AC817B
:1018B000AC8A24F44074B0890443AC826846FFF7D4
:1018C00019F92048854202D01F48854202D1DDF82F
:1018D0000C9001E0DDF80890A88900F4004040B1C8
:1018E00009EBC90000EB091031684900B0FBF1F7C2
:1018F00007E009EBC90000EB091031688900B0FB73
:10190000F1F76420B7FBF0F004012009642101FB2A
:101910001078A88900F4004040B1322000EBC800E4
:10192000B0FBF1F000F00700044308E0322000EBC8
:1019300008106421B0FBF1F000F00F0004432C818B
:10194000BDE8FF870010014000140140014688886F
:10195000C0F308007047C1F308028280704700BFDF
:10196000FEE70000DFED0C0AB0EE600A0B480088CD
:1019700000EE900AF8EE600ADFED091A80EEA11A77
:10198000DFED080A61EE200AB1EE001A60EE810A6E
:101990000548C0ED000A704700000000C40A00209E
:1019A00000F07F4533335340C80A002010B54FF490
:1019B00080510248FEF7FCFF10BD00000008024005
:1019C00010B504460748816A204688470649C8681A
:1019D00080470648816820468847044801692046B8
:1019E000884710BD70090020F4090020200900205C
:1019F00010B504460749C86880470749C86880474A
:101A000006484168204688470448C1682046884700
:101A100010BD0000D80900203C090020200900204A
:101A200010B540F206414FF08040FFF764FD40F2F0
:101A300006410C48FFF761FD40F206410948FFF7F7
:101A40005AFD40F206410748FFF753FD40F20641B8
:101A50000448FFF74CFD40F206414FF08040FFF78D
:101A60004CFD10BD0004004010B503F02BF902F04E
:101A7000A1FA00F001F810BD10B54FF461701249E1
:101A8000086048608860C8600861486101460007D6
:101A9000FFF731FD4FF461710C48FFF72EFD4FF455
:101AA00061710A48FFF727FD4FF461710748FFF79E
:101AB00020FD4FF461710548FFF719FD4FF4617186
:101AC0000807FFF71AFD10BD4C100020000400406D
:101AD000002100EE901A0549415800EE901AB8EE28
:101AE000E01ADFED031A81EE210A704700000E08AC
:101AF0000000C84238B5002000900124AA222146E7
:101B0000641C674842542146641C42540322214607
:101B1000641C425400222146641C42540F20009051
:101B20009DF801202146641C5D4842549DF8002028
:101B30002146641C4254002000909DF8012021465B
:101B4000641C574842549DF800202146601CC4B2D2
:101B500053484254002000909DF801202046611C0B
:101B6000CCB24F490A549DF800202046611CCCB2EB
:101B70004B490A54002000909DF801202046611C2A
:101B8000CCB247490A549DF800202046611CCCB2D3
:101B900043490A5443480068008800909DF801209A
:101BA0002046611CCCB23E490A549DF800202046D4
:101BB000611CCCB23A490A543A4800684088009007
:101BC0009DF801202046611CCCB235490A549DF88D
:101BD00000202046611CCCB231490A5431480068CB
:101BE000808800909DF801202046611CCCB22C49D1
:101BF0000A549DF800202046611CCCB228490A54A2
:101C000028480068C08800909DF801202046611C8B
:101C1000CCB223490A549DF800202046611CCCB266
:101C20001F490A541F480068008900909DF8012050
:101C30002046611CCCB21A490A549DF80020204667
:101C4000611CCCB216490A541648006840890090BD
:101C50009DF801202046611CCCB211490A549DF820
:101C600000202046611CCCB20D490A54601F087147
:101C70000025012005E00A49095C2944CDB2411C38
:101C8000C8B2A042F7DB2046611CCCB204490D5417
:101C9000601E08700448214642680148904738BDDC
:101CA000C00B0020A40A0020000B0020F0B50C4659
:101CB000154600210022068C4FF6FE773E40068432
:101CC000018B028C4FF60C7631407E1C06EA03161F
:101CD0002E4331434FF6F576324044F0010632434D
:101CE00001830284F0BDF0B50C46154600210022A8
:101CF0000026078C4FF6EF7C07EA0C070784018B60
:101D0000028C4FF6FF7707EA041640F6FF4739408A
:101D10004FF6FF7707EA033739434FF6FF7707EAB5
:101D2000052739434FF65F773A4046F010073A43AC
:101D300001830284F0BDF0B50C4615460021002257
:101D40000026078C4FF6FF6C07EA0C070784818B8F
:101D5000028C4FF6FF7707EA04264FF60C773940DE
:101D60004FF6FF7707EA03172F4339434FF2FF5728
:101D70003A4046F480773A4381830284F0BDF0B55F
:101D80000C461546002100220026078C4EF6FF7CEB
:101D900007EA0C070784818B028C4FF6FF7707EA6E
:101DA000043640F6FF4739404FF6FF7707EA05272C
:101DB00039434FF6FF7707EA0337394345F6FF7794
:101DC0003A4046F480573A4381830284F0BD0000D4
:101DD0000149086849687047500A00202DE9F0471A
:101DE0002448046845684FF0E020866900272148B0
:101DF0000168426884EA010085EA020108431CD1B7
:101E00001D480023026830463946FEF74FFA4FF46A
:101E10007A734FF0000CA4FB032805FB038304FB3B
:101E20000C3C1346181A6CEB01014FF47A7C10EB52
:101E30000C0041F10001BDE8F0874FF0E02080691F
:101E40000D490968B0FBF1F000220A4B19685B6884
:101E50004FF47A78A1FB089A03FB08A301FB023137
:101E60001346B9EB000261EB030112EB080041F1EC
:101E70000001E0E7500A0020400A00201CB50121C3
:101E80000420FEF7E7FD01208DF8040000208DF806
:101E900006008DF805008DF807004FF48050009083
:101EA00069460448FEF719FD4FF480510148FEF7DA
:101EB0007FFD1CBD0008024010B500F031FD03F0AD
:101EC0007DF9012010BD000070B506460C460025C6
:101ED0000A48C079A04201DA002070BD002509E05F
:101EE000701907498A680549904708B90020F4E746
:101EF000681C85B2A542F3DB0120EEE788120020C2
:101F00000C0B002070B504460D460B49486880470D
:101F1000064604F40050B0F5005F0CD10748006895
:101F2000864208D90648006880F4005004490860D9
:101F300070190249086070BD580A0020840A002008
:101F400014080240704700B500F05EFC00BD0000C0
:101F50000CB50020019000903448006840F48030B7
:101F60003249086000BF3148006800F4003000903A
:101F70000198401C0190009818B90198B0F5A04F45
:101F8000F1D12A48006800F4003010B1012000901F
:101F900001E0002000900098012846D123484030FD
:101FA000006840F0805021494031086020480068B6
:101FB00040F440401E4908601C48083000681B4936
:101FC000083108600846006840F400400860084690
:101FD000006840F4A05008601648091F0860081FF8
:101FE000006840F08070091F086000BF0F4800685B
:101FF00000F000700028F9D040F205700E4908602A
:102000000A480830006820F00300084908310860D9
:102010000846006840F00200086000BF034808302E
:10202000006800F00C000828F8D10CBD0038024010
:102030000070004010544007003C024000B50246CA
:10204000FFF7C6FE034600BFFFF7C2FE991888429D
:10205000FAD300BD70B50446FFF7C0FE054600BFC9
:10206000FFF7BCFE2A19801A71F10001F8DB70BD80
:1020700010B50124FEF70EFCF320FEF765FB0221EC
:102080005820FEF767FB3B4890ED0C0ADFED3A0A5B
:1020900020EE200ABDEEC00A10EE101A3748FEF7F7
:1020A000D1FB092800D00024324890ED0D0ADFED65
:1020B000320A20EE200ABDEEC00A10EE101A2F4898
:1020C000001DFEF7BFFB092800D00024294890ED31
:1020D0000E0ADFED290A20EE200ABDEEC00A10EE3E
:1020E000101A26480830FEF7ADFB092800D000245E
:1020F000204890ED0F0ADFED200A20EE200ABDEE09
:10210000C00A10EE101A1D480C30FEF79BFB092880
:1021100000D00024174890ED100ADFED170A20EEDA
:10212000200ABDEEC00A10EE101A14481030FEF757
:1021300089FB092800D000240E4890ED110ADFED3C
:102140000E0A20EE200ABDEEC00A10EE101A0B484F
:102150001430FEF777FB092800D0002464210748DB
:102160001830FEF76FFB092800D00024FEF760FB53
:10217000204610BDF40E00200000C84200000E08EA
:1021800010B58AB0044601210846FEF763FC012120
:102190001020FEF78FFC072209212F48FEF7E5FBF0
:1021A00007220A212C48FEF7E0FB02208DF82400CC
:1021B0008DF8250000208DF8260001208DF82700DD
:1021C0004002089008A92448FEF787FB4FF480607E
:1021D000089008A92048FEF780FB25208DF80C0008
:1021E00000208DF80D0001208DF80E008DF80F00F5
:1021F00003A8FEF7E7FB04940020ADF81400ADF847
:102200001600ADF81800ADF81C000C20ADF81A004F
:1022100004A91248FFF730FB1148124AFF21036856
:102220006846984710489DE80E000EC00C480F4ABB
:10223000FF210368684698470D489DE80E000EC0D0
:10224000012240F225510548FFF7F0FA0121034829
:10225000FFF7A9FA0AB010BD0000024000100140CB
:102260000C0B0020941200209414002093130020E3
:10227000A014002070B506460C4600250F480079D2
:102280000E49C979401AA04201DA002070BD00252C
:1022900009E0705D0A494A680849904708B900207A
:1022A000F4E7681C85B2A542F3DB012240F22771F6
:1022B0000448FFF7BBFA0120E8E70000941400206F
:1022C0000C0B00200010014000B58FB001218805E3
:1022D000FEF7C0FB012004900020009003900B90BB
:1022E0001048029000200D904FF400500890C0104C
:1022F0000690801009900C48019000200E904FF439
:1023000000600790002005904FF400300A90694665
:102310000648FEF7EBF901210448FEF7DCF90FB09F
:1023200000BD0000C40A00204C200140106402409F
:1023300010B50D4806F07CFE7C2300223C210A48A3
:1023400006F030FE202301223C21074806F02AFE39
:10235000802302223C21044806F024FE0348C16881
:102360000A20884710BD0000540F0020580A0020A2
:1023700010B51C4806F05CFE1B48C1683220884737
:1023800080236B22D021174806F00CFE1648C16846
:102390000520884700231922D021124806F002FEAA
:1023A00000236B22D0210F4806F0FCFD00233722CA
:1023B000D0210C4806F0F6FD06231A22D021094848
:1023C00006F0F0FD18231B22D021064806F0EAFD96
:1023D00010231C22D021034806F0E4FD04F072F81B
:1023E00010BD0000700E0020580A002010B50C48E7
:1023F00006F081FE08B9002010BDEE21084806F065
:10240000F5FE074806F0A2FE1E21054806F0EEFE86
:10241000034806F09BFE024806F02FFE0120EBE782
:10242000D00F002010B52DED048B86B00446012C92
:102430007DD1AC49086809F080FA41EC190BAA4932
:102440009FEDAA2B9FEDAB1BB0EE490AF0EE690A97
:1024500008688047B0EE408AF0EE608A51EC180BB5
:1024600009F00EFA00909F49486809F066FA41ECBD
:10247000190B9D499FED9D2B9FED9E1BB0EE490AC8
:10248000F0EE690A08688047B0EE408AF0EE608A94
:1024900051EC180B09F0F4F901909249886809F0A1
:1024A0004CFA41EC190B90499FED902B9FED911B3D
:1024B000B0EE490AF0EE690A08688047B0EE408A3B
:1024C000F0EE608A51EC180B09F0DAF902908549B8
:1024D000C86809F032FA41EC190B83499FED832B50
:1024E0009FED841BB0EE490AF0EE690A0868804748
:1024F000B0EE408AF0EE608A51EC180B09F0C0F99A
:1025000003907849086909F018FA41EC190B7649EB
:102510009FED762B9FED771BB0EE490AF0EE690A2E
:1025200008688047B0EE408AF0EE608A00E01FE065
:1025300051EC180B09F0A4F904906A49486909F0B4
:10254000FCF941EC190B68499FED682B9FED691B65
:10255000B0EE490AF0EE690A08688047B0EE408A9A
:10256000F0EE608A51EC180B09F08AF905909BE0B7
:102570005C49086809F0E1F941EC190B5A499FEDF3
:102580005F2B9FED5C1BB0EE490AF0EE690A08680C
:102590008047B0EE408AF0EE608A51EC180B09F0EB
:1025A0006FF900904F49486809F0C7F941EC190BE1
:1025B0004D499FED522B9FED4F1BB0EE490AF0EEB7
:1025C000690A08688047B0EE408AF0EE608A51ECF4
:1025D000180B09F055F901904249886809F0ADF9E6
:1025E00041EC190B40499FED452B9FED421BB0EE8E
:1025F000490AF0EE690A08688047B0EE408AF0EEBA
:10260000608A51EC180B09F03BF902903549C86813
:1026100009F093F941EC190B33499FED382B9FEDED
:10262000351BB0EE490AF0EE690A08688047B0EE43
:10263000408AF0EE608A51EC180B09F021F9039002
:102640002849086909F079F941EC190B26499FEDF1
:102650002B2B9FED281BB0EE490AF0EE690A0868A3
:102660008047B0EE408AF0EE608A51EC180B09F01A
:1026700007F904901B49486909F05FF941EC190B0F
:1026800019499FED1E2B9FED1B1BB0EE490AF0EE82
:10269000690A08688047B0EE408AF0EE608A51EC23
:1026A000180B09F0EDF805904FF080400099FEF707
:1026B00022FF14480199FEF720FF12480299FEF705
:1026C0001AFF10480399FEF714FF0E480499FEF70D
:1026D0000EFF4FF080400599FEF70FFF06B0BDECEE
:1026E000048B10BD4C100020C40900200000000025
:1026F000001890400000000000B09D400000000065
:1027000000208C400004004010B52DED048B0446E1
:10271000294890F8FC08012805D1284806F0B8FAA5
:10272000BDEC048B10BD244890F8FF08E8B922489E
:10273000D0F8E80800EE100AB8EEC00ADFED200A73
:1027400020EE200A1F480068808800EE900AF8EE0C
:10275000600A9FED1D1A01EE200ABDEEC00A10EEC0
:10276000100A1549C1F8E808DAE7184890ED080A98
:1027700010EE101A084609F0D3FC104AC2E9020113
:102780002146104606F034F9B0EE409AF0EE609A19
:102790000F499FED102B9FED111B08688047B0EE8D
:1027A000408AF0EE608A51EC180B09F069F8024992
:1027B000C1F8E80800BFB3E720000020E0040020D3
:1027C000CCCC4C3EA40A0020CDCC4C3F700900205C
:1027D000C409002000000000000000000000800C80
:1027E00000C0824070B504460D4603F0EFFE03F0D2
:1027F0003FFF03F0C1F8B6EE000A024880ED000A80
:1028000070BD00009C0A002070B587B03448007885
:10281000012862D13348007801280AD1002005E060
:102820003149095C0DF80010411CC8B21928F7DBCA
:1028300009E0002005E02D49095C0DF80010411C5D
:10284000C8B21928F7DB00202549087000BF39E01D
:102850000024002316E000EB4002254D05EB820228
:1028600002EB83018A785AB10D786D1C1DF80520A2
:102870004D78EA408D782A40CD78AA40144300BFB5
:10288000591CCBB2032BE6DBB4F5AF7F14D9A4F50A
:10289000AF7100EE101AF8EE400A9FED161A9FED88
:1028A000160A00EE810ABCEEC00A10EE101A8AB2B7
:1028B000124921F8102003E00022104921F81020CD
:1028C000411CC8B20C28C3DB9DF818009DF81710F6
:1028D00040EA01200A49088000BF07B070BD00002F
:1028E000180B0020190B0020C5140020AC14002088
:1028F000B2C400082FA13D3F00006144F61400203F
:102900001C0B0020014640F21450814201DA0220E3
:102910007047B1F5E16F01DD0020F9E70120F7E72D
:1029200010B5134801780078401C114A1070062039
:1029300091FBF0F200FB1210062816D2DFE800F03F
:102940000306090C0F1200F083FC0FE001F02CFFCE
:102950000CE0FFF7CFF809E000F03AFD06E003F0E5
:10296000CBFA03E002F07EFA00E000BF00BF10BD2A
:102970001D00002010B50446204604F0E1FE20466C
:1029800002F0F2FA204604F08BFF10BD70B52DED79
:10299000048B00BF1C498868804704460D461B49CC
:1029A00003C9221A65EB0101104609F041F89FEDB9
:1029B000180B53EC102B09F0BDF841EC180B134A1F
:1029C00030C2154B5868154B5B6803F11801134B67
:1029D0005B68B0EE485AF0EE685A90ED024AD0EDCE
:1029E000013A90ED003AD1ED022A91ED012AD1EDA4
:1029F000001A93ED0B1AD3ED0A0A93ED090A03F0BE
:102A000057FEBDEC048B70BD580A002068090020F9
:102A10008DEDB5A0F7C6B03EF4090020D80900201E
:102A20000146B5EEC00AF1EE10FA05DBF1EEC00A80
:102A3000C1ED000A00207047DFED030AC1ED000A76
:102A40004FF0FF30F7E70000000000001CB5012147
:102A50000846FDF7FFFF03208DF8040004200090D6
:102A600000208DF8070003208DF805006946024814
:102A7000FDF733FF1CBD00000000024010B5034904
:102A80008868804702498868804710BDD8090020BF
:102A9000F409002000B52DED060B2DED068B83B05B
:102AA000B0EE618AF0EE428A684606F005FA9FEDC4
:102AB0002F0A28EE000AB0EE408A9FED2C0A28EE7D
:102AC000800AF0EE408AB0EE680A08F013FBB0EE20
:102AD000409AB0EE480A08F00DFBF0EE409AB0EED6
:102AE000680A08F04FFBF0EE40AAB0EE480A08F082
:102AF00049FBB0EE40AA2AEE8A0ADDED0A0A20EE72
:102B0000200ADDED090A09EEA00A69EE0A0A9DED28
:102B10000B1A00EE810A8DED000A9DED0A0A20EEE7
:102B2000090ADDED0B0A0AEEE00A8DED010A2AEE34
:102B3000A90ADDED0A0A20EE200ADDED090AB1EE50
:102B40004A1A01EE200A69EE290A9DED0B1A00EEE1
:102B5000810A8DED020A9DED000ADDED010A9DED71
:102B6000021A03B0BDEC068B06B000BD34FA8E3CF1
:102B70002DE9F0412DED088B07469FED4D0BB0EE92
:102B8000408AF0EE608A9FED4A0BB0EE409AF0EE7C
:102B9000609A3D4600240026285D2D2801D1601C46
:102BA000C4B221E00A2C02DC285D2A2805D19FED61
:102BB000400BBDEC088BBDE8F081295DA1F1300030
:102BC00008F0BBFE41EC1B0B53EC182B08F008FC83
:102BD00041EC1A0B9FED380B53EC102B08F0AAFFB9
:102BE00041EC180B601CC4B2285D2E2802D0285D71
:102BF0002C28D7D19FED320B53EC102B51EC180B36
:102C000008F098FF41EC180B285D2E2801D1601CBC
:102C1000C4B220E0142C02DC285D2A2802D19FEDEA
:102C2000240BC6E7295DA1F1300008F086FE41ECD7
:102C30001B0B53EC192B08F0D3FB41EC1A0B9FED47
:102C40001E0B53EC102B08F075FF41EC190B701C98
:102C5000C6B2601CC4B2285D2C28DBD1701CC6B281
:102C60000BE09FED170B53EC102B51EC190B08F0F8
:102C700061FF41EC190B701EC6B2002EF1DC287802
:102C80002D280CD153EC192B51EC180B08F0A8FB94
:102C900041EC1A0B08F066FB41EC100B89E753EC92
:102CA000192B51EC180B08F09BFB41EC100B80E743
:102CB00000000000000000000000000000002440B0
:102CC0009A9999999999B93F10B58AB0044601210A
:102CD0000846FDF7BFFE0121C804FDF7CBFE082220
:102CE00000212F48FDF741FE082201212C48FDF765
:102CF0003CFE02208DF824008DF8250000208DF880
:102D0000260001208DF82700089008A92448FDF727
:102D1000E4FD0220089008A92148FDF7DEFD3420DB
:102D20008DF80C0000208DF80D0002208DF80E00AB
:102D300001208DF80F0003A8FDF744FE0494002045
:102D4000ADF81400ADF81600ADF81800ADF81C0091
:102D50000C20ADF81A0004A91248FEF78DFD1248A8
:102D6000124AFF2103686846984711489DE80E0003
:102D70000EC00D480F4AFF210368684698470E4869
:102D80009DE80E000EC0012240F225510548FEF7D5
:102D90004DFD01210348FEF706FD0AB010BD0000FD
:102DA00000000240004C00400C0B00207C10002072
:102DB0007C1200207B1100208812002010B50948E9
:102DC00006F036F9FFF712FB0748C1683220884742
:102DD00002F092FD0448C168C820884700F006F858
:102DE00010BD0000D00F0020580A00202DE9F04F40
:102DF0002DED088B85B000208046814604460546AF
:102E000006460746CF48007810B101280FD106E0EA
:102E100004F054FB012801D1CA49087008E004F00D
:102E2000C9FA012802D10220C649087000E000BF9B
:102E300000BFC4480078022804D005B0BDEC088B60
:102E4000BDE8F08FC04840890102C048D0E90020A9
:102E5000511A60F10000BD4AC2E90010BA488089E9
:102E6000002113460CCBA0FB02CA01FB02A100FB10
:102E70000310410241EADC5000F5FA60C117B44A80
:102E800003C2B148808801040022AF480089AF4BDB
:102E9000D3E900CBA0FB0C3E02FB0CEC00FB0BCCFF
:102EA000D80940EA4C60081842EBEC12A94905C168
:102EB000A54840884FEAC0314FF00002A248C088C0
:102EC000A24BD3E900CBA0FB0C3E02FB0CEC00FBB9
:102ED0000BCC4FEA132040EA0C60081842EB2C227E
:102EE0009D4905C19A48D0E900304FF4FA61591A5A
:102EF00070F100007EDA9548D0E90010A1FB0123B3
:102F000000FB013301FB0030D10F41EA40084FEADA
:102F1000E0798F48D0E900A04FF4FA61BAEB0102E2
:102F200060F10001104608F01FFD41EC1B0B9FED06
:102F30008B1BB0EE4B0AF0EE6B0A07F0FBFCB0EE19
:102F400040AAF0EE60AA9FED870B53EC102B51ECDA
:102F50001A0B08F0EFFD09F08FF9CDE90201DDE968
:102F600002014D104FEA3004DDE902014FEA900002
:102F700040EA81764FEAA1077548D0E900107B4B03
:102F8000C91A70F1FF303BDA7148D0E900205B428A
:102F9000D21840F100011046CDE9002108F0E4FC10
:102FA00041EC1A0B9FED6D1BB0EE4A0AF0EE6A0A77
:102FB00007F0C0FCB0EE409AF0EE609A51EC190BAD
:102FC00009F05AF982468B4607210022AAFB010329
:102FD0000BFB01310AFB0211024614194D410B2073
:102FE00000215246A2FB00CE0BFB00E00AFB0100D1
:102FF000401000E005E04FEA3C029619474100BF4F
:1030000000BF5348D0E90010B1EB080160EB0900A4
:103010004F4AC2E900104F48D0E90010091B60EB8D
:1030200005004C4AC2E900104B48D0E90010891B4A
:1030300060EB0700484AC2E900104D4800680021D3
:10304000D2E9003CA0FB032A01FB03A100FB0C1109
:10305000500D40EAC12248153E49D1E90031D21A4B
:1030600060EB0101D00B40EA4140C913384AC2E984
:1030700002011046D0E902200023D21A984100DA5A
:10308000DBE63349D1E90221104609F077F800EE7A
:10309000100ADFED380A80EE201AB0EE419ADFED1B
:1030A000360AB0EE490A07F03FF9F7EE000A30EEB3
:1030B000C00ADFED320A20EE200A254880ED040A1E
:1030C0002F494868804700EE100AB8EE408A204831
:1030D000D0ED040AB0EE600A2A4804F075FDF0EE67
:1030E000408A294903C909F049F800EE100A38EE70
:1030F000400A1748D0ED040A78EEE00A80EE801A04
:1031000011EE10AA504609F00BF89FED200B53EC7E
:10311000102B08F00FFD08F031F90D4948619FEDC3
:103120001D0A38EEC00A084680ED040A18EE100A9F
:1031300009F004F9144A03C200200249087000BFD4
:103140007BE60000240A0020F80F0020080A002077
:10315000E00F0020180A0020100A002000000000E4
:1031600000000040000000000000144024FAFFFFAF
:10317000200A002080E6C547AEDC423E002A2D47EB
:10318000580A002008100020380A00200000000023
:1031900000408F40000082C210B52DED028B044626
:1031A000204608F032FC41EC180B9FED1A0B53EC53
:1031B000102B08F083FC03D20320BDEC028B10BD62
:1031C000204608F022FC41EC180B9FED140B53EC49
:1031D000102B08F0ADFD01D20120EEE7204608F0EB
:1031E00014FC41EC180B9FED0F0B53EC102B08F067
:1031F00065FC0DD2204608F008FC41EC180B9FED51
:103200000B0B53EC102B08F093FD01D20220D4E7F6
:103210000020D2E70000000000406F4000000000E6
:10322000007087400000000000C0824000000000E5
:103230000000794010B50449486880470348016898
:103240004FF41650884710BD280A0020E00A0020DD
:103250007CB50020019000900124AA222146641C24
:10326000554842542146641C425401222146641CA4
:10327000425400222146641C42545048406890ED5C
:10328000000ADFED4F0A20EE200ABDEEC00A10EE64
:10329000100A80B201909DF805202146641C464822
:1032A00042549DF804202146641C4254434840681F
:1032B00090ED010ADFED420A20EE200ABDEEC00AC1
:1032C00010EE100A80B201909DF805202146641C82
:1032D000394842549DF804202046611CCCB236493E
:1032E0000A543648406890ED020ADFED350A20EEB8
:1032F000200ABDEEC00A10EE100A80B201909DF8BF
:1033000005202046611CCCB22B490A549DF80420AC
:103310002046611CCCB228490A542A4890ED020A82
:10332000DFED270A20EE200ABCEEC00A8DED000A70
:103330009DF803202046611CCCB21F490A549DF819
:1033400002202046611CCCB21B490A549DF8012082
:103350002046611CCCB218490A549DF80020204632
:10336000611CCCB214490A54174802782046611CEB
:10337000CCB211490A5400222046611CCCB20E493D
:103380000A54601F08710025012005E00A49095C04
:103390002944CDB2411CC8B2A042F7DB2046611CD3
:1033A000CCB205490D54601E087008482146426899
:1033B000014890477CBD0000C00B00203C09002064
:1033C0000000C84270090020D8090020000B00202E
:1033D00038B5002000900124AA222146641C4548EB
:1033E00042542146641C425406222146641C425425
:1033F00000222146641C42543F480068008880B285
:1034000000909DF801202146641C3A4842549DF8E2
:1034100000202146641C425437480068808880B2EE
:1034200000909DF801202146641C324842549DF8CA
:1034300000202046611CCCB22E490A542E48006858
:10344000008980B200909DF801202046611CCCB21A
:1034500028490A549DF800202046611CCCB2254919
:103460000A5425480068808980B200909DF80120A8
:103470002046611CCCB21F490A549DF8002020460A
:10348000611CCCB21B490A541C48006890ED000A2C
:10349000DFED1B0A20EE200ABCEEC00A10EE100A77
:1034A00080B200909DF801202046611CCCB21149E9
:1034B0000A549DF800202046611CCCB20D490A54E4
:1034C000601F08710025012005E00A49095C2944B4
:1034D000CDB2411CC8B2A042F7DB2046611CCCB281
:1034E00004490D54601E0870064821464268014890
:1034F000904738BDC00B0020880A0020D00A002069
:103500000000C842000B002070B504460D4607209D
:103510000F490870AA2048708870EF20C8700220F8
:103520000871084645718C710026012005E00849A4
:10353000095C3144CEB2411CC8B20728F7DB04480D
:10354000C6710448082142680148904770BD0000D8
:10355000C00B0020000B002010B52DED028B86B0B3
:10356000044603A805F0A8FC684605F0A5FC7048D1
:1035700090F8FC08012810D16D4805F089FB6C48D3
:10358000983005F085FB6B4805F082FB6A49C868F6
:10359000804706B0BDEC028B10BD6848006890ED16
:1035A000000A10EE101A084608F0BAFD604AC2E997
:1035B00002016248006890ED010A10EE101A0846F8
:1035C00008F0AEFD5A4A9832C2E902015B48006831
:1035D00090ED020A10EE101A084608F0A1FD554AB7
:1035E000C2E902012146524805F0C6F8B0EE408A11
:1035F000F0EE608A51EC180B07F0C0FE00902146F7
:103600004B48983005F0B8F8B0EE408AF0EE608A8A
:1036100051EC180B07F0B2FE01902146454805F029
:10362000ABF8B0EE408AF0EE608A51EC180B07F070
:10363000A5FE02909DED000AB1EE400ADDED010A03
:1036400030EE600ADDED020A70EE200A3848D0F84C
:10365000E80800EE100AB8EEC00A30EE800ADFED8E
:10366000380A30EE200ABDEEC00A3348006880ED0B
:10367000000A9DED000AB1EE400ADDED010A30EED0
:10368000200ADDED020A70EE600A2948D0F8E80849
:1036900000EE100AB8EEC00A30EE800ADFED280A0C
:1036A00030EE200ABDEEC00A2348006880ED010A12
:1036B0009DED000ADDED010A30EE200ADDED020A83
:1036C00070EE200A1A48D0F8E80800EE100AB8EEAA
:1036D000C00A30EE800ADFED1A0A30EE200ABDEE95
:1036E000C00A1548006880ED020A9DED000ADDED74
:1036F000010A30EE600ADDED020A70EE600A0C4845
:10370000D0F8E80800EE100AB8EEC00A30EE800AE1
:10371000DFED0B0A30EE200ABDEEC00A0648006855
:1037200080ED030A044881680120884700BF30E724
:103730002000002050010020880A00203C090020C1
:1037400000002F44F0B52DED108B8BB005469FED9A
:10375000FE0B8DED080B05A805F0AEFB02A805F0E9
:10376000ABFBFB4890F8FC08012825D1F94805F08F
:103770008FFAF848983005F08BFAF74805F088FA88
:10378000F648406890ED020AF54880ED3B0AF348A0
:103790004068D0ED020AB0EE600A03F03FFF10EE81
:1037A000106A304608F0BCFCE94A02F53E7203C2DA
:1037B0000BB0BDEC108BF0BDE848406890ED020AFC
:1037C000E748D0ED3B0A30EE608A9FEDE60AB4EEA2
:1037D000C08AF1EE10FA06DD9FEDE30A38EE400AEA
:1037E000B0EE408A18E09FEDE10AB4EEC08AF1EE37
:1037F00010FA06D29FEDDC0A38EE000AB0EE408ADD
:103800000AE000BFB0EEC80ADFEDD60AB4EEE00A67
:10381000F1EE10FA00D200BFD5490968488808F0D7
:10382000F4F841EC1E0B9FEDD30B53EC102B08F07A
:10383000B5FA41EC1D0B07F0A1FD09EE100ACF49C6
:10384000F2EE040AB0EE490A4868804710EE106AAA
:10385000304608F065FC41EC1C0B9FEDC90B53ECA6
:10386000102B07F079FE41EC1B0B9FEDC70B53ECBF
:10387000102B08F05FF941EC1A0B07F07FFD08EE02
:10388000900AB0EE680A03F0C9FE8DED050AB8494A
:103890000968088808F0B9F841EC1E0B9FEDB50BDC
:1038A00053EC102B08F07AFA41EC1D0B07F066FD83
:1038B00009EE100AB149F2EE040AB0EE490A48686E
:1038C000804710EE106A304608F02AFC41EC1C0BD1
:1038D0009FEDAB0B53EC102B07F03EFE41EC1B0BA6
:1038E0009FEDA90B53EC102B08F024F941EC1A0BB7
:1038F00007F044FD08EE900AB0EE680A03F08EFE71
:103900008DED060A9DED061AF0EE410A9DED051AB1
:10391000B0EE410A9949B0EE481AC86880478DED6B
:10392000050ACDED060A8DED071A9DED050ADFEDBE
:10393000980A20EE200A10EE101A084608F0F0FB54
:1039400041EC190B824890ED721BB0EE410AF0EE8B
:10395000610A53EC102B9FED8F1B51EC110B08F0FB
:10396000E9F841EC1A0B53EC192B07F039FD784AB2
:1039700002F5E47203C29DED060ADFED850A20EE32
:10398000200A10EE101A084608F0CAFB41EC190B89
:103990006F4890ED981BB0EE410AF0EE610A53ECCF
:1039A000102B9FED7C1B51EC110B08F0C3F841EC80
:1039B0001A0B53EC192B07F013FD654A02F5187228
:1039C00003C266484068D0ED000AB0EE600A03F01A
:1039D00025FE10EE106A304608F0A2FB5D4AC2E9EF
:1039E00002015E484068D0ED010AB0EE600A03F0C3
:1039F00015FE10EE106A304608F092FB554A9832D8
:103A0000C2E902012946534804F0B6FEB0EE40AACE
:103A1000F0EE60AA59499FED612B9FED621B08688B
:103A20008047B0EE409AF0EE609A51EC190B07F027
:103A3000A5FC029029464748983004F09DFEB0EE60
:103A400040AAF0EE60AA4D499FED542B9FED551B07
:103A500008688047B0EE409AF0EE609A51EC190B7E
:103A600007F08CFC03909DED020ADFED490A20EE81
:103A7000200A10EE101A084608F052FB41EC190B10
:103A8000334890ED001BB0EE410AF0EE610A53ECB2
:103A9000102B9FED401B51EC110B08F04BF841EC43
:103AA0001A0B53EC192B07F09BFC294A03C29DED1E
:103AB000030ADFED370A20EE200A10EE101A08463E
:103AC00008F02EFB41EC190B214890ED261BB0EEBF
:103AD000410AF0EE610A53EC102B9FED2E1B51ECC6
:103AE000110B08F027F841EC1A0B53EC192B07F0D7
:103AF00077FC174A983203C218484068D0ED020A92
:103B0000B0EE600A03F08AFD10EE106A304608F04D
:103B100007FB114AC2E902010D4890EDC00B8DED83
:103B2000080B90EDC02BB0EE420AF0EE620A90ED69
:103B3000BE2BB0EE421AF0EE621A53EC102B51EC91
:103B4000110B08F003FA31E0000000000000000053
:103B500020000020E8010020180300203C0900207C
:103B600020080020000034430000B443000034C3A8
:103B7000A40A00200000000000407F40C40900208B
:103B80000000000000408F400000000000003440B2
:103B9000CDCCCC3D000000C0CCCCEC3F00000020E0
:103BA000FB21E9BF00000020FB21E93F41EC190B9C
:103BB0009FED790B53EC102B08F0BAF812D278482D
:103BC00090EDC01BB0EE410AF0EE610A9FED751B4F
:103BD00053EC112B51EC100B07F002FC734AC2E9B5
:103BE00002012DE06E4890EDC02BB0EE420AF0EEDF
:103BF000620A90EDBE2BB0EE421AF0EE621A53EC60
:103C0000102B51EC110B08F0A1F941EC190B9FEDB1
:103C1000680B53EC102B07F051FF11D2604890ED68
:103C2000C01BB0EE410AF0EE610A9FED5E1B53EC43
:103C3000112B51EC100B08F089F95C4AC2E9020122
:103C400029465A4804F098FDB0EE40AAF0EE60AA6A
:103C500059491FED2E2B1FED2D1B08688047B0EE34
:103C6000409AF0EE609A51EC190B07F087FB049034
:103C7000524A1268D088514AD16888470446022CBB
:103C800061D09DED080B464880EDBE0B4B4909689D
:103C9000C88807F0BAFE41EC1F0B1FED4A0B53EC2E
:103CA000102B08F07BF841EC1E0B07F067FB08EEC9
:103CB000900A4149F2EE040AB0EE680A486880476B
:103CC00010EE107A384608F02BFA41EC1D0B1FED70
:103CD000540B53EC102B07F03FFC41EC1C0B1FED79
:103CE000560B53EC102B07F025FF41EC1B0B07F094
:103CF00045FB01909DED010A03F090FC5FED5C0A2D
:103D000020EE200A10EE106A304608F009FA41EC65
:103D1000190B234890ED4C1BB0EE410AF0EE610AFE
:103D200053EC102B1FED651B51EC110B07F002FF3C
:103D300041EC1A0B53EC192B07F052FB184A02F511
:103D4000987203C225E09DED040A5FED6F0A20EE34
:103D5000200A10EE101A084608F0E2F941EC190B9F
:103D60000F4890ED4C1BB0EE410AF0EE610A53ECA7
:103D7000102B1FED781B51EC110B07F0DBFE41EC13
:103D80001A0B53EC192B07F02BFB054A02F598721E
:103D900003C200BF0CE5000000000060FB210940E9
:103DA0002000002000000060FB21194018030020C3
:103DB00000000060FB2109C0C4090020A40A002003
:103DC00010B586B0734805F096F93C21714805F0AE
:103DD0000DFA704805F0BAF903216E4805F006FAAD
:103DE0006C4805F0B3F96B4805F085F93D21694849
:103DF00005F0FCF9674805F0A9F9002409E06548D9
:103E000005F0CDF904A90855624805F0F6F8601CE4
:103E1000C4B2052CF3DB5F4805F0C1F98DF815003D
:103E20005C4805F04DF95B4805F027F99DF8110055
:103E30009DF8101040EA012000B2404200EE100A46
:103E4000B8EEC00A5448406880ED030A9DF813009C
:103E50009DF8121040EA012000B2404200EE100A24
:103E6000B8EEC00A4C48406880ED050A9DF8150080
:103E70009DF8141040EA012000B200EE100AB8EEDE
:103E8000C00A4548406880ED040A4348406800F194
:103E90000C014148406800F10C0291ED021AD1ED8D
:103EA000010A91ED000A3D48144603F0ECFF84ED51
:103EB000000AC4ED010A84ED021A01A804F0FCFF17
:103EC0003548406890ED030A33484068D0ED090A50
:103ED00030EE600A30484068D0ED060A80EE201AC5
:103EE0008DED011A2C48406890ED040A2A4840687C
:103EF000D0ED0A0A30EE600A27484068D0ED070A84
:103F000080EE201A8DED021A2348406890ED050AD4
:103F100021484068D0ED0B0A30EE600A1E48406828
:103F2000D0ED080A80EE201A8DED031A9DED010AEE
:103F300020EE000ADDED020A9DED021A00EE810A74
:103F4000DDED030A9DED031A00EE810A1248406878
:103F500080ED0C0A10484068D0ED0C0AB7EE001A4C
:103F600030EEC10AF0EEC00A9FED0D0AF4EEC00A71
:103F7000F1EE10FA08D200200749087008464068A0
:103F800001A90EC90EC002E001200349087006B065
:103F900010BD0000540F0020F4090020600F002025
:103FA000B81E053E10B501F07BFB01F00FFC02F0DE
:103FB00085F910BD00B589B001210846FCF75AFD0E
:103FC0004FF08040FDF722F84FF4FA60029053481A
:103FD0000068400800EE100AB8EE400A9FED501A43
:103FE000C0EE010A9FED4F0A80EE801ABCEEC10AB6
:103FF00010EE100A401E80B2ADF804000020ADF8AB
:104000000C00ADF8060001A94FF08040FDF7A4FABE
:104010006020ADF810000120ADF812004FF461707F
:1040200006900020ADF81C0004A94FF08040FDF779
:10403000BBF90821C806FDF707FA04A94FF0804034
:10404000FDF70CFA0821C806FDF744FA012188079C
:10405000FCF7C0FF01218807FCF7CBFF01210220FC
:10406000FCF708FD3048FCF7D1FF4FF4FA600290EE
:104070002A480068400800EE100AF8EE400A9FED5A
:10408000281A80EE810ADFED270A80EE201ABCEEA6
:10409000C10A10EE100A401E80B2ADF804000020E4
:1040A000ADF80C00ADF8060001A91F48FDF754FA61
:1040B0006020ADF810000120ADF812004FF46170DF
:1040C00006900020ADF81C0004A91748FDF7C4F8BD
:1040D00008211548FDF7FEF804A91348FDF704F977
:1040E00008211148FDF752F904A90F48FDF75CF9C2
:1040F00008210D48FDF7A8F904A90B48FDF7AEF912
:1041000008210948FDF7E6F901210748FCF762FF9D
:1041100001210548FCF76DFF09B000BD3C0B0020F4
:104120000000FA430000FA440004004010B52DEDF1
:10413000048B84B0044601A804F0BEFE2F4890F81A
:10414000FC08012806D12E4804F0A2FD04B0BDEC05
:10415000048B10BD294890F8FF0818B9284804F0CE
:1041600097FDF3E7274890ED050A10EE101A084670
:1041700007F0D6FF224AC2E902012146104604F0A8
:10418000FBFAB0EE409AF0EE609A1F499FED1F2BAC
:104190009FED201B08688047B0EE408AF0EE608AF1
:1041A00051EC180B07F0EAF803909DED030ADFEDE0
:1041B0001B0A20EE200A10EE101A084607F0B0FF86
:1041C00041EC180B164890ED301BB0EE410AF0EEB2
:1041D000610A53EC102B9FED131B51EC110B07F0F0
:1041E000A9FC41EC190B53EC182B07F0F9F8034A22
:1041F00002F5986203C200BFA8E70000200000207B
:10420000A806002070090020C4090020000000005A
:1042100000004EC00000000000004E40CDCC4C3FDE
:1042200020040020000000809999C93F30B52DED91
:104230000E8B83B00546684604F03EFE8B4890F82E
:10424000FC0801281DD18A4804F022FD884830303E
:10425000884BD3E900219B68C0E91D1302677030C9
:1042600090ED020A10EE101A084607F059FF0A46B0
:1042700001467F485038C0E9141203B0BDEC0E8BE4
:1042800030BD7A4890F8FF0888B97A4890ED020A64
:1042900010EE101A084607F043FF0A46014674481C
:1042A0005038C0E91412503004F0F2FCE5E77048D1
:1042B000A03090ED020A10EE101A084607F030FF09
:1042C00041EC180B6A48A03090ED020ADFED6A0A53
:1042D00030EE200A10EE101A084607F021FF41ECDC
:1042E000190B6349503991ED141BB0EE410AF0EE01
:1042F000610A6249B0EE482AF0EE682AB0EE491A27
:10430000F0EE691A086880475948503880ED140B60
:10431000584890ED020A10EE101A084607F000FF08
:10432000534AC2E902012946104604F025FAB0EECC
:10433000409AF0EE609A51499FED512B9FED521B30
:1043400008688047B0EE408AF0EE608A51EC180BA6
:1043500007F014F802904E4A126890884C4AD168CF
:1043600088470446022C56D0424890ED020A10EECF
:10437000101A084607F0D4FE3D4A503AC2E914012B
:1043800043490968888807F040FB41EC1E0B9FED0C
:10439000410B53EC102B07F0D9FD41EC1D0B9FEDA9
:1043A0003F0B53EC102B07F0D7F841EC1C0B9FEDA3
:1043B0003D0B53EC102B07F0BDFB41EC1B0B9FEDAD
:1043C000320B53EC102B07F0B5FB41EC1A0B9FEDB1
:1043D000370B53EC102B07F0ADFB41EC180B3548B5
:1043E00090EDA21BB0EE410AF0EE610A53EC102BE7
:1043F0009FED311B51EC110B07F09CFB41EC190BAD
:1044000053EC182B06F0ECFF0A460146174800F55E
:10441000D16006C027E09DED020ADFED290A20EEFB
:10442000200A10EE101A084607F07AFE41EC180B2D
:10443000204890EDA21BB0EE410AF0EE610A53EC69
:10444000102B9FED1D1B51EC110B07F073FB41EC82
:10445000190B53EC182B06F0C3FF0A46014603481C
:1044600000F5D16006C000BF07E700002000002073
:10447000700800207009002000007A43C409002061
:1044800000000000000044C00000000000004440A4
:10449000A40A00200000000000407F40000000004F
:1044A00000408F400000000000000040000000A01D
:1044B0009999B93F20040020000000C0CCCCEC3F0B
:1044C000CDCCCC3D10B52DED0A8BAE49088807F058
:1044D0009CFA41EC180B9FEDAC0B53EC102B07F042
:1044E00027FC26D8AA48006807F01AFE41EC1A0BF0
:1044F000A449088807F089FA41EC1C0B9FEDA20B38
:1045000053EC102B07F022FD41EC1B0B53EC1A2B44
:1045100007F010FB41EC190B9FED9E0B53EC102B99
:1045200006F05EFF41EC180B07F0DAF99B490880B2
:1045300002E00020994908809249488807F065FA0E
:1045400041EC180B9FED900B53EC102B07F0F0FB98
:1045500026D88F48006807F0E3FD41EC1A0B894923
:10456000488807F052FA41EC1C0B9FED870B53EC87
:10457000102B07F0EBFC41EC1B0B53EC1A2B07F054
:10458000D9FA41EC190B9FED830B53EC102B06F07D
:1045900027FF41EC180B07F0A3F98049488002E09F
:1045A00000207E4948807749888807F02EFA41EC40
:1045B000180B9FED750B53EC102B07F0B9FB26D8A9
:1045C0007348006807F0ACFD41EC1A0B6D49888810
:1045D00007F01BFA41EC1C0B9FED6B0B53EC102BFF
:1045E00007F0B4FC41EC1B0B53EC1A2B07F0A2FABA
:1045F00041EC190B9FED670B53EC102B06F0F0FE0E
:1046000041EC180B07F06CF96449888002E0002047
:10461000624988805B49C88807F0F7F941EC180BBC
:104620009FED590B53EC102B07F082FB26D858480E
:10463000006807F075FD41EC1A0B5249C88807F075
:10464000E4F941EC1C0B9FED500B53EC102B07F0E1
:104650007DFC41EC1B0B53EC1A2B07F06BFA41EC81
:10466000190B9FED4C0B53EC102B06F0B9FE41ECEF
:10467000180B07F035F94949C88002E00020474986
:10468000C8804049088907F0C0F941EC180B9FED3C
:104690003E0B53EC102B07F04BFB26D83C48006830
:1046A00007F03EFD41EC1A0B3649088907F0ADF9D9
:1046B00041EC1C0B9FED340B53EC102B07F046FC28
:1046C00041EC1B0B53EC1A2B07F034FA41EC190B9D
:1046D0009FED300B53EC102B06F082FE41EC180BD3
:1046E00007F0FEF82D49088102E000202B490881DF
:1046F0002449488907F089F941EC180B9FED220BFA
:1047000053EC102B07F014FB26D82148006807F063
:1047100007FD41EC1A0B1B49488907F076F941EC7B
:104720001C0B9FED190B53EC102B07F00FFC41EC09
:104730001B0B53EC1A2B07F0FDF941EC190B9FED05
:10474000150B53EC102B06F04BFE41EC180B07F049
:10475000C7F81249488102E00020104948811048FA
:1047600000880A2803DD00200E49087407E00C4881
:104770000088401C0A49088001200A490874BDECE1
:104780000A8B10BD641000200000000000409F4014
:104790009C0A0020000000000000000070100020B3
:1047A000A00A0020A40A00207CB5002001900090FF
:1047B0000124AA222146641C834842542146641CD9
:1047C000425402222146641C425400222146641CA9
:1047D00042547E48406890ED060ABDEEC00A10EED5
:1047E000100A00B201909DF805202146641C76480D
:1047F00042549DF804202146641C4254734840688A
:1048000090ED070ABDEEC00A10EE100A00B201904A
:104810009DF805202146641C6B4842549DF80420F5
:104820002046611CCCB268490A546848406890ED43
:10483000080ABDEEC00A10EE100A00B201909DF801
:1048400005202046611CCCB25F490A549DF8042023
:104850002046611CCCB25C490A545C48406890ED2B
:10486000090ABDEEC00A10EE100A00B201909DF8D0
:1048700005202046611CCCB253490A549DF80420FF
:104880002046611CCCB250490A545048406890ED13
:104890000A0ABDEEC00A10EE100A00B201909DF89F
:1048A00005202046611CCCB247490A549DF80420DB
:1048B0002046611CCCB244490A544448406890EDFB
:1048C0000B0ABDEEC00A10EE100A00B201909DF86E
:1048D00005202046611CCCB23B490A549DF80420B7
:1048E0002046611CCCB238490A543948406890EDE2
:1048F000000ADFED380A20EE200ABDEEC00A10EEF5
:10490000100A00B201909DF805202046611CCCB22F
:104910002D490A549DF804202046611CCCB22A4936
:104920000A542B48406890ED010ADFED2A0A20EE78
:10493000200ABDEEC00A10EE100A00B201909DF8E8
:1049400005202046611CCCB21F490A549DF8042062
:104950002046611CCCB21C490A541D48406890EDA9
:10496000020ADFED1C0A20EE200ABDEEC00A10EE9E
:10497000100A00B201909DF805202046611CCCB2BF
:1049800011490A549DF804202046611CCCB20E49FE
:104990000A54601F08710025012005E00A49095CDE
:1049A0002944CDB2411CC8B2A042F7DB2046611CAD
:1049B000CCB205490D54601E087007482146426874
:1049C000014890477CBD0000C00B0020D8090020A2
:1049D000F40900200000C842000B002070B5064614
:1049E0000C4600250A48C079A04201DA002070BDBB
:1049F000002509E0701907498A680549904708B9F8
:104A00000020F4E7681C85B2A542F3DB0120EEE745
:104A1000A01400200C0B002031B52DED040B2DED62
:104A2000108B86B005469FED910AB0EE40FA9FEDDF
:104A30008F0AF0EE408A9FED8D0A8DED040A002466
:104A40008B480088401C8A490880284606F0DDFF14
:104A500041EC1A0B9FED870B53EC102B06F07CFDFD
:104A600041EC190B06F08AFC08EE100A8348006836
:104A700090ED040A10EE101A084607F051FB41ECC5
:104A80001A0B9FED7F0B53EC102B07F053F841EC02
:104A9000190B06F073FC04909DED180A10EE101A25
:104AA000084607F03DFB41EC1A0B9FED750B53ECEC
:104AB000102B07F03FF841EC190B06F05FFC0FEEEE
:104AC000900A7148D0ED3C0A9DED040A30EE600A70
:104AD000F0EE408A9FED6D0A68EE800A6C4890ED1A
:104AE000000A00EE880A80ED000A9FED6A0A68EE6F
:104AF000800A694890ED000A00EE880A80ED000AFD
:104B00009FED660A68EE800A654890ED000A00EEA7
:104B1000880A80ED000A634890ED080A624880ED3B
:104B2000000A5B4890ED000A3FEE800A5D4880ED88
:104B3000080A90ED080A5C48D0ED000A30EE200A21
:104B400020EE080A10EE101A084607F0E9FA41ECC8
:104B50001A0B9FED560B53EC102B06F0FDFC41ECAD
:104B6000190B06F00BFC0FEE100A18EE100A07F0F6
:104B7000D7FA41EC1C0B1FEE100A07F0D1FA9FED9B
:104B80004D0B53EC102BCDE900019DED000B51ECCA
:104B9000100B06F0CFFF41EC1E0B424890ED050ACA
:104BA00010EE101A084607F0BBFA53EC1E2BCDE9A5
:104BB00002019DED020B51EC100B06F011FC41ECD3
:104BC0001D0B53EC1C2B06F0B5FF41EC1A0B3B48B8
:104BD000006807F0A5FA41EC1B0B53EC1A2B06F00A
:104BE000FFFB41EC190B06F0C9FB3449086008468D
:104BF00090ED000A2A48D0ED000A30EE200A29483C
:104C000080ED020A2E4890ED000A30EE0F0A80ED8A
:104C1000000A90ED000A2048D0ED000A30EE200A8C
:104C2000204880ED050A12480088012819DB3C2441
:104C30000CE0601E144901EB800090ED000A08466C
:104C400000EB840080ED000A601E84B2002CF0DCD2
:104C5000144890ED020A0C4880ED000A0020044937
:104C6000088006B0BDEC108B05B030BD0000000020
:104C7000B40900200000000000408F40280A0020F6
:104C80000000000000005940BC0C002026B4173D75
:104C90009C090020ABAAAA3EA0090020ABAA2A3F8B
:104CA000A409002070090020A809002000000000CD
:104CB00000000040000000000000E03FB0090020BC
:104CC000AC0900201CB501210846FBF7C3FE0121F9
:104CD0000220FBF7BFFEC820009002208DF80400E0
:104CE00003208DF8050000208DF8060001208DF8C6
:104CF000070069461A48FBF7F0FD01220321184816
:104D0000FBF733FE022206211548FBF72EFE022296
:104D100007211348FBF729FE40F2034000900220D0
:104D20008DF8040003208DF8050000208DF80600A2
:104D300001208DF8070069460A48FBF7CEFD0222E4
:104D400000210848FBF711FE022201210548FBF76C
:104D50000CFE01220A210348FBF707FE1CBD0000E0
:104D600000000240000402403EB5044668469FED44
:104D7000370A80ED000A9FED350A80ED010A9FEDAC
:104D8000330A80ED020A00BF314A526892ED000AF0
:104D9000B0EE402A2E4A526892ED010AF0EE401A17
:104DA0002C4A526802F118002B4A916890ED021AC1
:104DB000D0ED010A90ED000A88478DED000ACDED97
:104DC000010A8DED021A9DED000ADFED240A80EE46
:104DD000201A8DED001A9DED000ADFED210A20EE6C
:104DE000200A8DED000A9DED010ADFED1C0A80EE20
:104DF000201A8DED011A9DED010ADFED190A20EE52
:104E0000200A8DED010A9DED020ADFED140A30EE55
:104E1000600A8DED020A9DED020ADFED100A80EEB8
:104E2000201A8DED021A9DED020ADFED0D0A20EE2B
:104E3000200A8DED020A9DED021ADDED010A9DEDBD
:104E4000000A2046FFF7E8FD3EBD0000000000001C
:104E50003C090020D8090020C409002000F07F454B
:104E6000CDCC1C4138B5002000900124AA22214657
:104E7000641C394842542146641C4254072221468E
:104E8000641C425400222146641C4254334800688A
:104E900090ED040ADFED320A20EE200ABDEEC00AD2
:104EA0008DED000A9DF803202146641C2A484254D7
:104EB0009DF802202146641C42549DF801202146A1
:104EC000641C42549DF800202046611CCCB222494B
:104ED0000A542248006890ED050ADFED210A20EE11
:104EE000200ABDEEC00A8DED000A9DF80320204681
:104EF000611CCCB218490A549DF802202046611C5E
:104F0000CCB215490A549DF801202046611CCCB250
:104F100011490A549DF800202046611CCCB20E496C
:104F20000A54601F08710025012005E00A49095C48
:104F30002944CDB2411CC8B2A042F7DB2046611C17
:104F4000CCB205490D54601E0870064821464268DF
:104F50000148904738BD0000C00B0020280A0020FF
:104F600000401C46000B002070B52DED028B04465E
:104F700085490968488906F048FD41EC180B9FED0A
:104F8000830B53EC102B06F099FD1BD2814800686F
:104F900090F8FF0858B1804800880A2807DD0020F3
:104FA0007C49096881F8FF087B49088028E0794836
:104FB000006890F8FF0818B377480088401C7649CD
:104FC00008801DE07348006890F8FF0801280CD0A5
:104FD000714800880A2808DD01206E49096881F8B7
:104FE000FF0800206C4908800AE06A48006890F8D1
:104FF000FF08012804D068480088401C66490880E2
:105000006448006890F8FC08012843D100206349F7
:1050100008805D490968888806F0F7FC41EC180BA8
:105020009FED5F0B53EC102B06F048FD01D20125DC
:1050300000E0002554490968C88806F0E6FC41EC08
:10504000180B9FED590B53EC102B06F071FE01D29B
:10505000012000E0002028404E49096891F8FD1821
:1050600009B9012100E00021084078B150480088CA
:1050700020444F49088008460088B0F5FA6F4EDD9D
:1050800000204449096881F8FC0848E000204849AC
:10509000088044E03F48006890F8FD08012804D1EA
:1050A0003C49096881F8FC0839E000204049088043
:1050B00035490968888806F0A8FC41EC180B9FED7B
:1050C000380B53EC102B06F0F9FC01D2012500E05F
:1050D00000252D490968C88806F097FC41EC180B9B
:1050E0009FED310B53EC102B06F022FE01D2012074
:1050F00000E0002005402DB12848008820442749C1
:10510000088002E000202549088024480088B0F586
:10511000FA6F04DD01201F49096881F8FC081D4869
:10512000006890F8FC0860B92248008840F001004F
:10513000204908802048C82102694FF40050904758
:105140000CE01C48008820F001001A4908801A4829
:105150004FF4FA7102694FF4005090470D4800680F
:1051600090F8FD0830B11348008840F00200114962
:10517000088005E00F48008820F002000D490880F3
:10518000BDEC028B70BD0000A40A002000000000EE
:105190000000594020090020C2090020BE0900205B
:1051A0000000000000C062400000000000908A4043
:1051B000C009002010000020700A00202DE9F043F3
:1051C00089B00025002400270026A046FE482021A3
:1051D000826801A8904701287ED100BF18E01F2DEA
:1051E00002D109B0BDE8F08301A8405DAA2801D131
:1051F000012000E0002001AA691C515CAF2901D107
:10520000012100E00021084000B103E0681CC5B2A4
:10521000202DE4DB00BF01A9E81C085C001DC7B21B
:105220002C46A81C11F80080002506E0601901A991
:10523000085C3044C6B2681CC5B2BD42F6DBE0195A
:1052400001A9085CB042C7D1B8F1120F7ED00CDCC6
:10525000B8F1010F13D0B8F1020F14D0B8F1100F4C
:1052600021D0B8F1110F72D1F6E0B8F1130F6FD061
:10527000B8F1140F6DD0B8F1150FF4D105E201208B
:10528000D249087007E2D24908780978491CD04B06
:10529000197000F00BFCCE480078032802DD0120D5
:1052A000CB490870F7E101AA601D125C01AB201D1B
:1052B000185C42EA002000EE100AB8EEC00A10EEB8
:1052C000101A084606F02CFFC24A1268C2E906010D
:1052D00001AAE01D125C00E0DEE101ABA01D185C3C
:1052E00042EA002000EE100AB8EEC00A10EE101AD2
:1052F000084606F015FFB74A1268C2E9080101AA7C
:1053000004F10900125C01AB401E185C42EA002067
:1053100000EE100AB8EEC00A10EE101A084606F0A9
:10532000FFFEAC4A1268C2E90A0101AA04F10B00AF
:10533000125C01AB401E185C42EA002000EE100A2D
:10534000B8EEC00A10EE101A084603E08EE1A1E1A3
:1053500091E195E106F0E4FE9E4A12689832C2E9B6
:10536000060101AA04F10D00125C01AB401E185C9D
:1053700042EA002000EE100AB8EEC00A10EE101A41
:10538000084606F0CDFE934A12689832C2E9080139
:1053900001AA04F10F00125C01AB401E185C42EA46
:1053A000002000EE100AB8EEC00A10EE101A0846EF
:1053B00006F0B6FE874A12689832C2E90A0101AACD
:1053C00004F11100125C01AB401E185C42EA00209F
:1053D00000EE100AB8EEC00A10EE101A084606F0E9
:1053E0009FFE7C4A126802F59872C2E9060101AA82
:1053F00004F11300125C01AB401E185C42EA00206D
:1054000000EE100AB8EEC00A10EE101A084606F0B8
:1054100087FE704A126802F59872C2E9080101AA73
:1054200004F11500125C01AB401E185C42EA00203A
:1054300000EE100AB8EEC00A10EE101A084606F088
:105440006FFE644A126802F59872C2E90A011021DF
:105450003046FEF759F81EE101A9601D095C01AA5A
:10546000201D105C41EA002000EE100AB8EEC00AD0
:10547000DFED590A80EE201A11EE109A484606F028
:105480004FFE544A126802F5E472C2E9060101A90E
:10549000E01D095C01AAA01D105C41EA002000EE9D
:1054A000100AB8EEC00ADFED4C0A80EE201A11EEA9
:1054B000109A484606F034FE464A126802F5E47235
:1054C000C2E9080101A904F10900095C01AA401E12
:1054D000105C41EA002000EE100AB8EEC00ADFEDD1
:1054E0003E0A80EE201A11EE109A484606F018FE89
:1054F000384A126802F5E472C2E90A0101A904F10E
:105500000B00095C01AA401E105C41EA002000EE7D
:10551000100AB8EEC00ADFED300A80EE201A11EE54
:10552000109A484606F0FCFD2A4A126802F51872E5
:10553000C2E9060101A904F10D00095C01AA401E9F
:10554000105C41EA002000EE100AB8EEC00ADFED60
:10555000220A80EE201A11EE109A484606F0E0FD6D
:105560001C4A126802F51872C2E9080101A904F187
:105570000F00095C01AA401E105C41EA002000EE09
:10558000100AB8EEC00ADFED140A80EE201A11EE00
:10559000109A484606F0C4FD0E4A126802F51872C9
:1055A000C2E90A0101A904F11100095C01AA401E27
:1055B000105C41EA002000EE100AB8EEC00ADFEDF0
:1055C000060A80EE201A09E0000B0020D80900200E
:1055D0001C000020200900200000C84211EE109A93
:1055E000484606F09DFD2D4A126802F53E72C2E95A
:1055F000060101A904F11300095C01AA401E105C18
:1056000041EA002000EE100AB8EEC00A5FED0E0A73
:1056100080EE201A11EE109A484606F081FD1F4ACE
:10562000126802F53E72C2E9080101A904F11500F1
:10563000095C01AA401E105C41EA002000EE100A3D
:10564000B8EEC00A5FED1C0A80EE201A11EE109A27
:10565000484606F065FD114A126802F53E72C2E93D
:105660000A0111213046FDF74FFF14E012213046A8
:10567000FDF74AFF00BF13213046FDF745FF0AE062
:1056800014213046FDF740FF05E015213046FDF7B7
:105690003BFF00E000BF00BF00BFA2E520090020E3
:1056A0001FB53C22D021464803F047FCC0B28DF81C
:1056B00008003B22D021424803F03FFCC0B28DF8E5
:1056C00009009DF808009DF8091040EA012000B289
:1056D000ADF800003E22D021394803F02EFCC0B2C4
:1056E0008DF80A003D22D021354803F026FCC0B2D7
:1056F0008DF80B009DF80A009DF80B1040EA012080
:1057000000B2ADF802004022D0212D4803F015FC74
:10571000C0B28DF80C003F22D021294803F00DFCC7
:10572000C0B28DF80D009DF80C009DF80D1040EAF8
:10573000012000B2ADF80400BDF9000000EE100A2F
:10574000B8EEC00A1F4880ED000ABDF9020000EE65
:10575000100AB8EEC00A1B4880ED010ABDF904002A
:1057600000EE100AB8EEC00A164880ED020A90ED6D
:10577000000AD0ED0C0A30EE600A80ED060A90EDCA
:10578000010AD0ED0D0A30EE600A80ED070A90EDB7
:10579000020AD0ED0E0A30EE600A80ED080A90EDA4
:1057A000081AD0ED070A90ED060A074802F086F9BC
:1057B000044880ED060AC0ED070A80ED081A1FBDF7
:1057C000700E0020F40E00207C0E00201FB5442235
:1057D000D021464803F0B1FBC0B28DF80800432247
:1057E000D021424803F0A9FBC0B28DF809009DF812
:1057F00008009DF8091040EA012000B2ADF8000051
:105800004622D021394803F098FBC0B28DF80A0037
:105810004522D021354803F090FBC0B28DF80B0033
:105820009DF80A009DF80B1040EA012000B2ADF887
:1058300002004822D0212D4803F07FFBC0B28DF832
:105840000C004722D021294803F077FBC0B28DF825
:105850000D009DF80C009DF80D1040EA012000B2EB
:10586000ADF80400BDF9000000EE100AB8EEC00A61
:105870001F4880ED030ABDF9020000EE100AB8EEE1
:10588000C00A1B4880ED040ABDF9040000EE100AAE
:10589000B8EEC00A164880ED050A90ED030AD0ED77
:1058A0000F0A30EE600A80ED090A90ED040AD0ED8F
:1058B000100A30EE600A80ED0A0A90ED050AD0ED7C
:1058C000110A30EE600A80ED0B0A90ED0B1AD0ED54
:1058D0000A0A90ED090A074802F0D5FA044880ED5B
:1058E000090AC0ED0A0A80ED0B1A1FBD700E0020D8
:1058F000F40E0020C00E002070B5002435E01C48D6
:1059000003F0F9FBEE211A4803F070FC184803F08D
:105910001DFCA02000EB4400C1B2154803F066FC5A
:10592000134803F013FC124803F0E5FBEF21104885
:1059300003F05CFC0E4803F009FC0D4803F02FFC5B
:1059400005460B4803F059FB094803F028FC0646BE
:10595000074803F0B5FB064803F08FFB46EA052035
:10596000044921F81400601CC4B2062CC7DD70BDC8
:10597000D00F0020F80F002000B587B001210420CF
:10598000FBF778F84748FBF741FB4FF6FF700290B2
:105990002920ADF804000020ADF80C00ADF8060099
:1059A00001A94048FBF7D8FD0020ADF81200012006
:1059B000ADF814000020ADF81600ADF81800ADF8F1
:1059C000100004A93748FBF706FC0420ADF81000CE
:1059D00004A93448FBF7FFFB0820ADF8100004A928
:1059E0003048FBF7F8FB0C20ADF8100004A92D4857
:1059F000FBF7F1FB01212B48FBF7FBFA0122022107
:105A00002848FBF71FFC012204212648FBF71AFC5B
:105A1000012208212348FBF715FC0122102121480F
:105A2000FBF710FC01210220FBF744F81E48FBF7AE
:105A3000EDFA4FF6FF7002905320ADF804000020FD
:105A4000ADF80C00ADF8060001A91748FBF784FD7E
:105A50000020ADF812000120ADF814000020ADF8D0
:105A60001600ADF818000820ADF8100004A90E4883
:105A7000FBF7B1FB0C20ADF8100004A90A48FBF7B6
:105A8000AAFB01210848FBF7B4FA012208210648C5
:105A9000FBF7D8FB012210210348FBF7D3FB07B02B
:105AA00000BD0000000800400004014070B5F4B0E3
:105AB000054601240020729003239822FB49684682
:105AC00003F031FC012D04D0022D39D0032D7CD1FF
:105AD000E1E0F748006890ED060B8DED060BF44809
