:020000040800F2
:10000000201300206D020008E10A0008D90A000848
:10001000DD0A000823060008BB1A000800000000E3
:10002000000000000000000000000000690D000852
:100030009506000800000000710B0008AD0D0008D7
:10004000870200088702000887020008870200086C
:10005000870200088702000887020008870200085C
:100060008702000887020008990600088702000836
:10007000870200088702000887020008870200083C
:10008000870200088702000887020008870200082C
:10009000870200088702000887020008870200081C
:1000A000870200088702000887020008870200080C
:1000B00087020008870200082D0E0008870200084A
:1000C00087020008870200088702000887020008EC
:1000D00087020008AD1700082118000887020008F1
:1000E00087020008870200088702000887020008CC
:1000F00087020008870200089510000887020008A0
:1001000087020008870200084510000887020008DF
:10011000870200088702000887020008870200089B
:10012000870200088702000887020008870200088B
:10013000870200088702000887020008870200087B
:10014000870200088702000887020008870200086B
:10015000870200088702000887020008870200085B
:10016000870200088702000887020008870200084B
:10017000870200088702000887020008870200083B
:10018000870200088702000800F002F800F05EF81D
:100190000AA090E8000C82448344AAF10107DA45E2
:1001A00001D100F053F8AFF2090EBAE80F0013F0D6
:1001B000010F18BFFB1A43F0010318477CB700007A
:1001C0009CB700000A444FF0000C10F8013B13F0FC
:1001D000070408BF10F8014B1D1108BF10F8015BA0
:1001E000641E05D010F8016B641E01F8016BF9D193
:1001F00013F0080F1EBF10F8014BAD1C0C1B09D1EA
:100200006D1E58BF01F801CBFAD505E014F8016B5B
:1002100001F8016B6D1EF9D59142D6D370470000ED
:100220000023002400250026103A28BF78C1FBD8FF
:10023000520728BF30C148BF0B6070471FB50AF096
:1002400006FD00F05BF81FBD10B510BD00F0F2F820
:100250001146FFF7F3FF09F007FD00F010F903B4B2
:10026000FFF7F2FF03BC00F011F9000009488047D6
:1002700009480047FEE7FEE7FEE7FEE7FEE7FEE788
:10028000FEE7FEE7FEE7FEE704480549054A064BA0
:1002900070470000C50D000889010008200D0020EE
:1002A00020130020200F0020200F002010B54C103C
:1002B00084EA530404D54042C1F1000138BF491E0D
:1002C0001B4204D55242C3F1000338BF5B1E00F04D
:1002D00027F814F0804F04D04042C1F1000138BF2C
:1002E000491E14F0004F04D05242C3F1000338BF3E
:1002F0005B1E10BD704770477047000070B5064C1C
:100300007C44064D7D4403E0206820448047241D42
:10031000AC42F9D170BD000054B6000074B60000C4
:1003200053EA020C00F069802DE9F04B4FF0000613
:10033000002B1FBFB3FA83F503FA05F424FA05F680
:100340005E4012BF1643B2FA82F502FA05F4C5F117
:1003500020051EBF22FA05FC44EA0C04203556EAAB
:10036000044C4FEA144418BF641C4FF000084FF0CF
:100370000009904271EB030C39D3002919BFB1FA7F
:1003800081F701FA07F6B0FA80F700FA07F6C7F12D
:1003900020071EBF20FA07FC46EA0C062037B6FBF2
:1003A000F4FCA7EB0507103F07F01F0BCBF120066D
:1003B0000CFA0BFB2CFA06F644BFB3460026202F9E
:1003C000A4BF5E464FF0000B5BEA060C08BF4FF07F
:1003D000010B19EB0B09ABFB027C48EB0608C01BB9
:1003E00006FB02CC0BFB03CC71EB0C01C1E70B4607
:1003F000024641464846BDE8F08B13B54FF0000079
:100400004FF00001AFF30080BDE81C40704710B50D
:1004100000F008F8006810BD10B5044600F002F8BE
:10042000046010BD00487047C00C002000487047B1
:10043000C00C00207546FFF7F9FFAE46050069467F
:10044000534620F00700854618B020B5FFF71CFF83
:10045000BDE820404FF000064FF000074FF00008C5
:100460004FF0000B21F00701AC46ACE8C009ACE846
:10047000C009ACE8C009ACE8C0098D467047044625
:10048000AFF300802046FFF7EAFE00000149182084
:10049000ABBEFEE726000200704721B1826842F041
:1004A0000102826003E0826822F0010282607047EC
:1004B0000021084A1168084A1140D0E900231A4374
:1004C00083681A43C3681A431143044AC2F80413E9
:1004D0007047000004230140E030FCFF0020014091
:1004E00021B1826842F48072826003E0826822F463
:1004F00080728260704721B1826842F4007282602B
:1005000003E0826822F400728260704730B50246D0
:10051000002000235068104C20400D790C6844EAFC
:1005200005242043506090680C4C2040D1E90354CE
:100530002C438D682C434D7944EA45042043906058
:10054000D06A20F470000C7D641EE4B2234340EABC
:100550000350D06230BD0000FFFEFFFCFDF7FFC07E
:10056000F0B504460D4600200021092D11DDE0689C
:10057000A5F10A0606EB4607072606FA07F18843A7
:10058000A5F10A0606EB460603FA06F10843E06009
:100590000CE0206905EB4507072606FA07F18843BA
:1005A00005EB450603FA06F108432061072A0FDA36
:1005B000606B561E06EB86071F2606FA07F1884376
:1005C000561E06EB860605FA06F10843606322E034
:1005D0000D2A0FDA206BD61F06EB86071F2606FAB8
:1005E00007F18843D61F06EB860605FA06F1084395
:1005F000206310E0E06AA2F10D0606EB86071F26D5
:1006000006FA07F18843A2F10D0606EB860605FA05
:1006100006F10843E062F0BD816841F080418160ED
:10062000704700BFFEE721B1026842F0010202609C
:1006300003E0026822F001020260704710B5002258
:100640000268134B1A40CC680B6823434C69234360
:100650008C692343CC6923430C6A23434C6A2343AC
:100660008C6A23434C6B23438C6B23431A430260F5
:10067000426922F00702D1E90B3423431A43426155
:100680000B6943604B6883608B68C36010BD0000DA
:100690003F801CF07047000010B588B0102000F0BB
:1006A0008DF8002871D03B48007802283AD12020EC
:1006B00039490880072004F05FFD044621462720C1
:1006C00005F096FB04F0400038B320226946612013
:1006D00004F034FDFF21E22005F08AFB2F4800786A
:1006E00001280ED1002007E01DF800202C490968E0
:1006F00020310A54411CC8B22028F5DB00202749CC
:1007000008702848007838B920222749A82005F029
:1007100051FB01202349087000BF20201E49891E7B
:10072000088032E020201C49088020226946612090
:1007300004F004FDFF21E22005F05AFB1748007881
:1007400001280ED1002007E01DF800201449096897
:1007500020310A54411CC8B22028F5DB00200F4983
:100760000870072004F008FD04462146272005F004
:100770003FFBFF21E12005F03BFB01200B49087006
:1007800020200549891E088000BF102000F010F8C5
:1007900008B010BD7A0500201A0802407D0500202F
:1007A000800500207B050020460A00207C050020F3
:1007B0000149086070470000143C014001460020D8
:1007C000034A12680A400AB1012000E00020704785
:1007D000143C0140002123498279002A3AD00A467C
:1007E000126803689A430B461A600A1D1268036870
:1007F0009A430B1D1A60027911440A6803681A4370
:100800000A60184A0832126803689A43154B083385
:100810001A601A1D126803689A43124B0C331A604F
:100820004279102A0ED11A1F126803681A430D4B21
:1008300008331A601A1D126803681A43094B0C33F7
:100840001A600DE00749427911440A6803681A43A7
:100850000A6005E0027911440A6803689A430A6055
:1008600070470000003C01400149086070470000EB
:100870000C3C024070B504460A460026092502B920
:1008800009E0012A01D1160205E0022A01D116026F
:1008900001E04FF4407600F09FF80546092D28D17D
:1008A0001548006820F44070134908600846006845
:1008B000304308600846006820F0F80008600846E9
:1008C000006844F0020108430B49086008460068CC
:1008D00040F48030086000F07FF805460648006864
:1008E00020F00200044908600846006820F0F80083
:1008F0000860284670BD0000103C024009201349E2
:10090000096801F48031B1F5803F01D101201CE07C
:100910000E49096801F0100109B1062015E00B49E4
:10092000096801F4807109B102200EE007490968E5
:1009300001F0E00109B1072007E00449096801F06E
:10094000020109B1082000E0092070470C3C024078
:100950000348006840F0004001490860704700000B
:10096000103C024030B502460C46092500F034F830
:100970000546092D19D10E48006820F440700C4935
:1009800008600846006840F4007008600846006887
:1009900040F001000860146000F01EF805460448AD
:1009A000006820F0010002490860284630BD0000C0
:1009B000103C02400548006800F0004028B104489F
:1009C00002490C390860034808607047103C024037
:1009D00023016745AB89EFCD08B509200090FFF7EB
:1009E0008DFF009002E0FFF789FF00909DF8000066
:1009F0000128F8D09DF8000008BDF0B50A46002196
:100A00000023002400BF3DE0012505FA01F315682D
:100A100005EA03049C4234D105684F000326BE401A
:100A2000B543056015794E00B5400668354305604D
:100A30001579012D02D01579022D16D185684F0048
:100A40000326BE40B543856055794E00B5408668A3
:100A500035438560456801268E40B543456045684D
:100A600096798E40B6B235434560C5684F0003267F
:100A7000BE40B543C560D5794E00B540C668354324
:100A8000C560491C1029BFD3F0BDF0B50023002478
:100A90004D07ED0E02FA05F3CE1000F1200555F8D2
:100AA00026504E07F70E0F26BE40B543CF1000F17B
:100AB000200646F82750CE1000F1200555F82650A4
:100AC00045EA0304CE1000F1200545F82640F0BDAC
:100AD000418370470183704700BFFEE700BFFEE718
:100AE0007047000070B5002100230F22C4781CB3AA
:100AF000174C246804F4E064C4F5E064C4F30721EF
:100B0000C1F10404E3B20A4144789C40E1B2847824
:100B1000144021430C07210E0E4C057861550478D2
:100B200004F01F050124AC4005786D11AD0005F1FE
:100B3000E025C5F8004109E0047804F01F05012410
:100B4000AC40054D0678761145F8264070BD000092
:100B50000CED00E000E400E080E100E00249014328
:100B6000024A1160704700000000FA050CED00E039
:100B70007047000029B1064A12680243044B1A600C
:100B800004E0034A12688243014B1A607047000078
:100B90003038024029B1064A12680243044B1A60F9
:100BA00004E0034A12688243014B1A607047000058
:100BB0004038024029B1064A12680243044B1A60C9
:100BC00004E0034A12688243014B1A607047000038
:100BD0002038024029B1064A12680243044B1A60C9
:100BE00004E0034A12688243014B1A607047000018
:100BF0004438024029B1064A12680243044B1A6085
:100C000004E0034A12688243014B1A6070470000F7
:100C100024380240F0B500210022002402250026DD
:100C20000223324F3F6807F00C0121B1042905D09F
:100C3000082937D105E02E4F076036E02C4F0760BA
:100C400033E02A4F3F1F3F68C7F38056274F3F1FAF
:100C50003F6807F03F036EB1254FB7FBF3F7DFF8AE
:100C60008CC0ACF1040CDCF800C0CCF3881C07FB92
:100C70000CF40CE01E4FB7FBF3F7DFF870C0ACF1DB
:100C8000040CDCF800C0CCF3881C07FB0CF4174FF5
:100C90003F1F3F68C7F301477F1C7D00B4FBF5F79A
:100CA000076002E0124F076000BF00BF0F4F3F68B0
:100CB00007F0F00109090F4F7A5C0768D7404760D9
:100CC0000A4F3F6807F4E051890A0A4F7A5C476887
:100CD000D7408760054F3F6807F46041490B054FD7
:100CE0007A5C4768D740C760F0BD00000838024012
:100CF0000024F4001C06002021B1028842F04002CA
:100D0000028004E002884FF6BF731A4002807047E9
:100D10000246002013890B400BB1012000E00020A7
:100D200070470146888970478181704710B500225D
:100D3000028802F441520B884C8823438C88234359
:100D4000CC8823430C8923434C8923438C89234338
:100D5000CC8923431A430280838B4FF2FF742340D4
:100D600083830B8A038210BD7047000030B50022D8
:100D70008B071C0F0F2303FA04F20B4B8C1053F854
:100D800024309343084C8D1044F8253023468C10B2
:100D900053F824308C07240F00FA04F42343024C48
:100DA0008D1044F8253030BD0838014004480368F0
:100DB00040685A1C40F1000001490A6048607047D1
:100DC000D804002010B51548006840F4700013499D
:100DD00008601348006840F00100114908600020D5
:100DE0000F49083108600E4800680E4908400C4958
:100DF00008600D48091D0860081F006820F4802065
:100E0000091F0860002006490C31086001F03CF918
:100E10004FF0006001498039086010BD88ED00E0A6
:100E200000380240FFFFF6FE1030002410B502210A
:100E30007C4800F0A7FA012839D10221794800F056
:100E4000BDF97948006800F04000402810D175488D
:100E500000F08CFA7549088072482030008840F014
:100E600002007049203108800020714908801EE08E
:100E70006C4800F07BFA84B26C480088844205DD3F
:100E80006A480088201A6B49888007E04FF6FF7097
:100E9000204466490988401A6649888061482030A4
:100EA000008820F002005F492031088000BF042143
:100EB0005C4800F067FA012836D10421594800F057
:100EC0007DF95948006800F0800080280DD1554810
:100ED00000F04FFA5849088052482030008840F00E
:100EE00020005049203108801EE04E4800F041FAB1
:100EF00084B251480088844205DD4F480088201A9A
:100F00004C49C88007E04FF6FF7020444A490988E1
:100F1000401A4849C88043482030008820F020000B
:100F200040492031088000BF08213E4800F02AFADD
:100F3000012837D108213B4800F040F93A480068C1
:100F400000F48070B0F5807F0DD1364800F014FABF
:100F50003A49088033482030008840F40070314915
:100F6000203108801EE02F4800F006FA84B2334892
:100F70000088844205DD31480088201A2D49088107
:100F800007E04FF6FF7020442C490988401A294990
:100F9000088124482030008820F400702149203145
:100FA000088000BF10211F4800F0ECF9012837D15C
:100FB00010211C4800F002F91B48006800F4007082
:100FC000B0F5007F0DD1174800F0D9F91C49088011
:100FD00014482030008840F4005012492031088025
:100FE0001EE0104800F0CBF984B215480088844216
:100FF00005DD13480088201A0E49488107E04FF6A6
:10100000FF7020440E490988401A0A494881054862
:101010002030008820F4005002492031088000BFB1
:1010200010BD0000000800401004024064050020CC
:101030004C050020EE090020660500206805002010
:101040006A05002010B50121104800F09BF9012825
:1010500016D10F48007810B101280FD106E005F035
:1010600041FE012801D10A49087008E005F090FD11
:10107000012802D102200649087000E000BF00BF2D
:101080000121024800F09AF810BD0000000C004059
:10109000AC04002010B508213D4800F073F9012888
:1010A00037D108213A4800F089F83A48006800F43E
:1010B0008070B0F5807F0DD1354800F05DF936497C
:1010C000088033482030008840F4007030492031D7
:1010D00008801EE02E4800F04FF984B22E480088A8
:1010E000844205DD2C480088201A2C49088007E03E
:1010F0004FF6FF70204428490988401A2749088084
:1011000023482030008820F40070214920310880D5
:1011100000BF10211E4800F035F9012837D11021F9
:101120001B4800F04BF81B48006800F40070B0F555
:10113000007F0DD1164800F022F9194908801448A3
:101140002030008840F400501149203108801EE012
:101150000F4800F014F984B211480088844205DD7C
:101160000F480088201A0D49488007E04FF6FF70AD
:1011700020440B490988401A084948800448203017
:10118000008820F4005002492031088000BF10BDC3
:1011900000040140100802406C050020EE09002008
:1011A0006E05002021B1028842F08002028004E036
:1011B00002884FF67F731A4002807047CA4302824A
:1011C000704721B1028842F00102028004E00288E7
:1011D0004FF6FE731A4002807047000010B50446B7
:1011E0005548844208D101210846FFF703FD00213C
:1011F0000120FFF7FFFC9DE0B4F1804F08D10121F1
:101200000846FFF7D7FC00210120FFF7D3FC91E04F
:101210004A48844208D101210220FFF7CBFC00217B
:101220000220FFF7C7FC85E04548844208D1012130
:101230000420FFF7BFFC00210420FFF7BBFC79E08E
:101240004048844208D101210820FFF7B3FC002167
:101250000820FFF7AFFC6DE03B48844208D1012134
:101260001020FFF7A7FC00211020FFF7A3FC61E08E
:101270003648844208D101212020FFF79BFC002141
:101280002020FFF797FC55E03148844208D1012126
:101290000220FFF7AFFC00210220FFF7ABFC49E082
:1012A0002C48844209D101210804FFF7A3FC002146
:1012B0004FF48030FFF79EFC3CE02748844209D180
:1012C00001214804FFF796FC00214FF40030FFF79E
:1012D00091FC2FE02148844209D101218804FFF7C5
:1012E00089FC00214FF48020FFF784FC22E01C4899
:1012F000844208D101214020FFF75CFC00214020FE
:10130000FFF758FC16E01748844208D101218020DD
:10131000FFF750FC00218020FFF74CFC0AE0124848
:10132000844207D101218015FFF744FC0021A0155C
:10133000FFF740FC10BD0000000001400004004029
:1013400000080040000C0040001000400014004065
:1013500000040140004001400044014000480140B9
:1013600000180040001C0040002000400146486B6F
:1013700070470146886B70470146C86B704701464D
:10138000086C704730B50246002000230024158AFF
:1013900005EA0103958905EA010413B10CB10120A6
:1013A00000E0002030BD70B505460C46208850B9DD
:1013B0002389A2886188284600F02AFDE188284612
:1013C00000F085F925E0208804280AD12389A28825
:1013D0006188284600F039FDE188284600F080F950
:1013E00017E0208808280AD12389A2886188284626
:1013F00000F053FDE188284600F07FF909E02389D9
:10140000A2886188284600F06CFDE188284600F03B
:101410007DF970BD1AB183890B43838102E0838912
:101420008B4383817047000070B5002400220023A5
:10143000058C4FF6FE7635400584028C8388048B3C
:101440004FF68F752C40B51E2C400D882C43751E11
:101450002A408D892A434D882A43104DA84202D044
:101460000F4DA84213D14FF6F7752A40CD892A4374
:101470004FF6FB752A408D882A434FF6FF652B40B7
:101480004FF6FF552B400D8A2B434D8A2B4383800B
:1014900004838D684563028470BD00000000014034
:1014A000000401400A460021018B4FF6F7731940F2
:1014B000114301837047000070B50024002200230F
:1014C000058C4FF6EF7635400584028C8388048BBB
:1014D00048F6FF752C404FF6FF452C400D884FF61F
:1014E000FF7606EA05252C434FF6DF752A408D89E5
:1014F00006EA05152A434D8806EA05152A43154DC7
:10150000A84202D0144DA8421DD14FF67F752A4043
:10151000CD894FF6FF7606EA05152A434FF6BF75CB
:101520002A408D8806EA05152A434FF6FF352B40E1
:101530004FF2FF752B400D8A06EA85052B434D8A35
:1015400006EA85052B43838004838D6885630284C6
:1015500070BD000000000140000401400A46002167
:10156000018B4FF2FF7319404FF6FF7303EA02231A
:10157000194301837047000070B500240022002346
:10158000058C4FF6FF6635400584028C8388848B7A
:101590004FF68F752C404FF6FC752C400D882C4370
:1015A0004FF6FF552A408D894FF6FF7606EA05254E
:1015B0002A434D8806EA05252A43154DA84202D044
:1015C000144DA8421DD14FF2FF752A40CD894FF628
:1015D000FF7606EA05252A434FF6FF352A408D8817
:1015E00006EA05252A434EF6FF752B404DF6FF759A
:1015F0002B400D8A06EA05152B434D8A06EA051590
:101600002B43838084838D68C563028470BD000092
:1016100000000140000401400A460021818B4FF682
:10162000F7731940114381837047000070B50022A1
:1016300000230024058C4EF6FF7635400584038C8C
:101640008488828B48F6FF752A404FF6FF452A4072
:101650000D884FF6FF7606EA05252A434DF6FF75FD
:101660002B408D8906EA05352B434D8806EA053562
:101670002B430A4DA84202D0094DA84208D14BF68F
:10168000FF752C400D8A4FF6FF7606EA85152C4330
:10169000848082838D680564038470BD00000140EE
:1016A000000401400A460021818B4FF2FF7319406C
:1016B0004FF6FF7303EA02231943818370474163A6
:1016C000704781637047C163704701647047028B44
:1016D0004FF6F3731A400283028B0A43028370476A
:1016E000028B4FF2FF331A400283028B4FF6FF73D7
:1016F00003EA01231A4302837047828B4FF6F37388
:101700001A408283828B0A4382837047828B4FF216
:10171000FF331A408283828B4FF6FF7303EA012363
:101720001A4382837047000000220288184B9842B7
:101730000ED0184B98420BD0B0F1804F08D0164B0A
:10174000984205D0154B984202D0154B984204D1CF
:101750004FF68F731A404B881A43124B984207D0AA
:10176000114B984204D04FF6FF431A400B891A439D
:1017700002804B68C3620B880385054B984202D0F8
:10178000044B984201D18B7A0386012383827047F0
:101790000000014000040140000400400008004037
:1017A000000C0040001000400014004008B540F25A
:1017B0002771174800F0BEF890B1164816498268A4
:1017C00068469047012805D19DF80010104800F0A8
:1017D00070F905E0002240F227710D4800F0D4F8BE
:1017E00040F225510A4800F0A5F878B1084800F009
:1017F0005BF9C0B2009040F22551054800F072F844
:101800000448064942689DF80000904708BD000062
:1018100000100140FC050020A80C0020B40C0020A2
:1018200010B50821274800F078F810B1254800F0DD
:101830003BF92021234800F070F8012840D12148CD
:1018400000F032F9C4B22049486880471F4909684E
:10185000401A022810D900201D4908701D48007840
:10186000012803D100201B49087002E0012019491A
:10187000087001201849087016480078012808D11E
:10188000134801780078401C114A107013484454E2
:1018900007E00F4801780078401C0D4A107010488E
:1018A0004454094948688047084908600848007856
:1018B000192804D106480078401E0549087000BF69
:1018C00010BD000000440040E0040020400500205E
:1018D0004405002025050020240500208C09002057
:1018E000A509002010B50022002340F66A14A14289
:1018F00000D100BF0A1201249440A3B2DC4304804B
:1019000010BD21B1828942F40052828104E08289B3
:101910004DF6FF731A408281704702460020B1F5F0
:10192000007F00D100BF13880B400BB1012000E005
:101930000020704770B502460024002300250020D7
:1019400040F66A16B14200D100BFC1F3421501F062
:101950001F03012606FA03F3012D02D196893340B5
:1019600006E0022D02D1168A334001E0968A334008
:101970000C12012606FA04F41688344013B10CB197
:10198000012000E0002070BDF0B5034600240026D1
:101990000025002040F66A17B94200D100BF184662
:1019A000C1F3421401F01F06012707FA06F5012CC6
:1019B00001D10C3004E0022C01D1103000E01430D1
:1019C0001AB107682F43076002E00768AF4307605A
:1019D000F0BD00002DE9FF4705460E460024A14654
:1019E00000BFA046B08900B100BF2C8A24F4405447
:1019F000F08804432C82AC8941F20C608443B088A7
:101A000031890843718908430443AC81AC8A24F4CA
:101A10004074B0890443AC826846FFF7FBF8204865
:101A2000854202D01F48854202D1DDF80C9001E0CA
:101A3000DDF80890A88900F4004040B109EBC90026
:101A400000EB091031684900B0FBF1F707E009EB42
:101A5000C90000EB091031688900B0FBF1F7642080
:101A6000B7FBF0F004012009642101FB1078A8897C
:101A700000F4004040B1322000EBC800B0FBF1F0B0
:101A800000F00700044308E0322000EB0810642156
:101A9000B0FBF1F000F00F0004432C81BDE8FF879C
:101AA000001001400014014001468888C0F308007E
:101AB0007047C1F308028280704700BFFEE7000054
:101AC000DFED0C0AB0EE600A0B48008800EE900AC9
:101AD000F8EE600ADFED091A80EEA11ADFED080AC0
:101AE00061EE200AB1EE001A60EE810A0548C0EDF1
:101AF000000A7047000000009805002000F07F45B4
:101B0000333353409C05002010B54FF480510248F8
:101B1000FEF7DEFF10BD00000008024010B50446CD
:101B20000349C8688047034881682046884710BD3C
:101B30007C040020F003002010B504460549C86865
:101B4000804705498868804704484168204688479F
:101B500010BD0000600400201C040020F0030020E1
:101B600010B54FF47A71C806FFF7ADFD4FF47A71E6
:101B70000B48FFF7AAFD4FF47A710948FFF7A3FD60
:101B80004FF47A710648FFF79CFD4FF47A710448D0
:101B9000FFF795FD4FF47A71C806FFF796FD10BD6B
:101BA0000004004010B502F0DBFD02F017F800F071
:101BB00001F810BD10B54FF461701249086048601B
:101BC0008860C8600861486101460007FFF77BFD37
:101BD0004FF461710C48FFF778FD4FF461710A48CA
:101BE000FFF771FD4FF461710748FFF76AFD4FF48D
:101BF00061710548FFF763FD4FF461710807FFF756
:101C000064FD10BD7409002000040040002100EEB6
:101C1000901A0549415800EE901AB8EEE01ADFED2F
:101C2000031A81EE210A704700000E080000C84226
:101C300038B50020009001247148016900208847D0
:101C400000B938BDAA222046611CCCB26D490A54A5
:101C50002046611CCCB26B490A5403222146601C09
:101C6000C4B26848425400222046611CCCB2654987
:101C70000A540F2000909DF801202046611CCCB230
:101C800060490A549DF800202046611CCCB25D4991
:101C90000A54002000909DF801202046611CCCB21F
:101CA00058490A549DF800202046611CCCB2554981
:101CB0000A54002000909DF801202046611CCCB2FF
:101CC00050490A549DF800202046611CCCB24D4971
:101CD0000A54002000909DF801202046611CCCB2DF
:101CE00048490A549DF800202046611CCCB2454961
:101CF0000A5445480068008800909DF8012020465D
:101D0000611CCCB23F490A549DF800202046611C5A
:101D1000CCB23C490A543C480068408800909DF889
:101D200001202046611CCCB236490A549DF800209F
:101D30002046611CCCB233490A543348006880887D
:101D400000909DF801202046611CCCB22D490A5418
:101D50009DF800202046611CCCB22A490A542A482A
:101D60000068C08800909DF801202046611CCCB21C
:101D700024490A549DF800202046611CCCB2214918
:101D80000A5421480068008900909DF801202046EF
:101D9000611CCCB21B490A549DF800202046611CEE
:101DA000CCB218490A5418480068408900909DF840
:101DB00001202046611CCCB212490A549DF8002033
:101DC0002046611CCCB20F490A54601F08710025DF
:101DD000012005E00B49095C2944CDB2411CC8B281
:101DE000A042F7DB2046611CCCB206490D54601EB0
:101DF00008700648214642680248904700BF20E725
:101E0000800500209006002050050020F0050020ED
:101E1000F0B50C46154600210022068C4FF6FE77E1
:101E20003E400684018B028C4FF60C7631407E1CBE
:101E300006EA03162E4331434FF6F576324044F05E
:101E40000106324301830284F0BDF0B50C4615460D
:101E5000002100220026078C4FF6EF7C07EA0C07D2
:101E60000784018B028C4FF6FF7707EA041640F6D1
:101E7000FF4739404FF6FF7707EA033739434FF6FC
:101E8000FF7707EA052739434FF65F773A4046F078
:101E900010073A4301830284F0BDF0B50C461546A5
:101EA000002100220026078C4FF6FF6C07EA0C0782
:101EB0000784818B028C4FF6FF7707EA04264FF6E2
:101EC0000C7739404FF6FF7707EA03172F43394362
:101ED0004FF2FF573A4046F480773A4381830284B9
:101EE000F0BDF0B50C461546002100220026078CF7
:101EF0004EF6FF7C07EA0C070784818B028C4FF6B5
:101F0000FF7707EA043640F6FF4739404FF6FF7780
:101F100007EA052739434FF6FF7707EA03373943C6
:101F200045F6FF773A4046F480573A43818302846E
:101F3000F0BD00000149086849687047D8040020D6
:101F40002DE9F0472448046845684FF0E020866991
:101F5000002721480168426884EA010085EA0201FD
:101F600008431CD11D480023026830463946FEF75D
:101F70009DF94FF47A734FF0000CA4FB032805FB86
:101F8000038304FB0C3C1346181A6CEB01014FF45D
:101F90007A7C10EB0C0041F10001BDE8F0874FF0B6
:101FA000E02080690D490968B0FBF1F000220A4B7E
:101FB00019685B684FF47A78A1FB089A03FB08A3C1
:101FC00001FB02311346B9EB000261EB030112EB96
:101FD000080041F10001E0E7D8040020C804002017
:101FE00010B5024805F028FE10BD0000680A002068
:101FF0001CB501210420FEF7BDFD01208DF8040071
:1020000000208DF806008DF805008DF807004FF4CC
:102010008050009069460448FEF7EFFC4FF4805171
:102020000148FEF755FD1CBD0008024010B500F048
:10203000A5FC02F0A3FC012010BD000070B5044611
:102040000D460B4948688047064604F40050B0F539
:10205000005F0CD107480068864208D9064800682E
:1020600080F400500449086070190249086070BD8E
:10207000E00400200C05002014080240704700B561
:1020800000F0F0FB00BD00000CB5002001900090B6
:102090003448006840F480303249086000BF31485D
:1020A000006800F4003000900198401C01900098F6
:1020B00018B90198B0F5A04FF1D12A48006800F492
:1020C000003010B10120009001E000200090009845
:1020D000012846D123484030006840F08050214913
:1020E000403108602048006840F440401E490860C4
:1020F0001C48083000681B49083108600846006821
:1021000040F4004008600846006840F4A0500860B1
:102110001648091F0860081F006840F08070091FFA
:10212000086000BF0F48006800F000700028F9D078
:1021300040F205700E4908600A480830006820F037
:1021400003000849083108600846006840F00200B2
:10215000086000BF03480830006800F00C00082841
:10216000F8D10CBD00380240007000401054400708
:10217000003C024000B50246FFF7DCFE034600BF0C
:10218000FFF7D8FE99188842FAD300BD70B504460F
:10219000FFF7D6FE054600BFFFF7D2FE2A19801AC8
:1021A00071F10001F8DB70BD10B50124FEF702FCEF
:1021B000F320FEF759FB02215820FEF75BFB3B485A
:1021C00090ED0C0ADFED3A0A20EE200ABDEEC00ABF
:1021D00010EE101A3748FEF7C5FB092800D000247E
:1021E000324890ED0D0ADFED320A20EE200ABDEEF6
:1021F000C00A10EE101A2F48001DFEF7B3FB092885
:1022000000D00024294890ED0E0ADFED290A20EEC7
:10221000200ABDEEC00A10EE101A26480830FEF75C
:10222000A1FB092800D00024204890ED0F0ADFED23
:10223000200A20EE200ABDEEC00A10EE101A1D483A
:102240000C30FEF78FFB092800D00024174890EDD2
:10225000100ADFED170A20EE200ABDEEC00A10EECC
:10226000101A14481030FEF77DFB092800D0002416
:102270000E4890ED110ADFED0E0A20EE200ABDEEA9
:10228000C00A10EE101A0B481430FEF76BFB092839
:1022900000D00024642107481830FEF763FB0928AA
:1022A00000D00024FEF754FB204610BD1C0800207F
:1022B0000000C84200000E0810B58AB00446012193
:1022C0000846FEF757FC01211020FEF783FC072289
:1022D00009212F48FEF7D9FB07220A212C48FEF7D7
:1022E000D4FB02208DF824008DF8250000208DF805
:1022F000260001208DF827004002089008A92448F4
:10230000FEF77BFB4FF48060089008A92048FEF799
:1023100074FB25208DF80C0000208DF80D000120A5
:102320008DF80E008DF80F0003A8FEF7DBFB049478
:102330000020ADF81400ADF81600ADF81800ADF8A7
:102340001C000C20ADF81A0004A91248FFF742FB4C
:102350001148124AFF2103686846984710489DE8D3
:102360000E000EC00C480F4AFF21036868469847CC
:102370000D489DE80E000EC0012240F2255105488F
:10238000FFF702FB01210348FFF7BBFA0AB010BDBB
:102390000000024000100140FC050020A80A0020B7
:1023A000A80C0020A70B0020B40C002070B5064636
:1023B0000C4600250F4800790E49C979401AA04201
:1023C00001DA002070BD002509E0705D0A494A6805
:1023D0000849904708B90020F4E7681C85B2A54277
:1023E000F3DB012240F227710448FFF7CDFA012008
:1023F000E8E70000A80C0020FC05002000100140C8
:1024000000B58FB001218805FEF7B4FB01200490D0
:102410000020009003900B901048029000200D9037
:102420004FF400500890C0100690801009900C489E
:10243000019000200E904FF400600790002005905E
:102440004FF400300A9069460648FEF7F7F801217C
:102450000448FEF7E8F80FB000BD00009805002022
:102460004C2001401064024010B50D4805F0E4FB1B
:102470007C2300223C210A4805F098FB20230122FE
:102480003C21074805F092FB802302223C210448AE
:1024900005F08CFB0348C1680A20884710BD000086
:1024A0007C080020E004002010B51C4805F0C4FBA7
:1024B0001B48C1683220884780236B22D0211748EF
:1024C00005F074FB1648C1680520884700231922CF
:1024D000D021124805F06AFB00236B22D0210F485F
:1024E00005F064FB00233722D0210C4805F05EFB89
:1024F00006231A22D021094805F058FB18231B2275
:10250000D021064805F052FB10231C22D02103489D
:1025100005F04CFB03F04CFB10BD000098070020B9
:10252000E004002010B50C4805F0E9FB08B90020D4
:1025300010BDEE21084805F05DFC074805F00AFCD7
:102540001E21054805F056FC034805F003FC02482F
:1025500005F097FB0120EBE7F808002010B52DED02
:10256000048B86B00446012C7DD1AC49086807F085
:10257000DAFE41EC190BAA499FEDAA2B9FEDAB1B8C
:10258000B0EE490AF0EE690A08688047B0EE408A6A
:10259000F0EE608A51EC180B07F096FE00909F4910
:1025A000486807F0C0FE41EC190B9D499FED9D2B3B
:1025B0009FED9E1BB0EE490AF0EE690A086880475D
:1025C000B0EE408AF0EE608A51EC180B07F07CFE0A
:1025D00001909249886807F0A6FE41EC190B9049DA
:1025E0009FED902B9FED911BB0EE490AF0EE690A2A
:1025F00008688047B0EE408AF0EE608A51EC180B14
:1026000007F062FE02908549C86807F08CFE41EC35
:10261000190B83499FED832B9FED841BB0EE490A74
:10262000F0EE690A08688047B0EE408AF0EE608AF2
:1026300051EC180B07F048FE03907849086907F041
:1026400072FE41EC190B76499FED762B9FED771BBF
:10265000B0EE490AF0EE690A08688047B0EE408A99
:10266000F0EE608A00E01FE051EC180B07F02CFE42
:1026700004906A49486907F056FE41EC190B684915
:102680009FED682B9FED691BB0EE490AF0EE690AD9
:1026900008688047B0EE408AF0EE608A51EC180B73
:1026A00007F012FE05909BE05C49086807F03BFECE
:1026B00041EC190B5A499FED5F2B9FED5C1BB0EE6F
:1026C000490AF0EE690A08688047B0EE408AF0EEE9
:1026D000608A51EC180B07F0F7FD00904F494868ED
:1026E00007F021FE41EC190B4D499FED522B9FED58
:1026F0004F1BB0EE490AF0EE690A08688047B0EE59
:10270000408AF0EE608A51EC180B07F0DDFD019075
:102710004249886807F007FE41EC190B40499FEDDC
:10272000452B9FED421BB0EE490AF0EE690A08689E
:102730008047B0EE408AF0EE608A51EC180B07F04B
:10274000C3FD02903549C86807F0EDFD41EC190B57
:1027500033499FED382B9FED351BB0EE490AF0EE63
:10276000690A08688047B0EE408AF0EE608A51EC52
:10277000180B07F0A9FD03902849086907F0D3FD5D
:1027800041EC190B26499FED2B2B9FED281BB0EE3A
:10279000490AF0EE690A08688047B0EE408AF0EE18
:1027A000608A51EC180B07F08FFD04901B494869B3
:1027B00007F0B9FD41EC190B19499FED1E2B9FED58
:1027C0001B1BB0EE490AF0EE690A08688047B0EEBC
:1027D000408AF0EE608A51EC180B07F075FD059009
:1027E0004FF080400099FEF76EFF14480199FEF704
:1027F0006CFF12480299FEF766FF10480399FEF736
:1028000060FF0E480499FEF75AFF4FF0804005998B
:10281000FEF75BFF06B0BDEC048B10BD7409002011
:10282000480400200000000000408F40000000002D
:1028300000B09D400000000000208C4000040040DB
:1028400070B504460D4603F0E7FA03F037FB02F0DB
:10285000A7FCB6EE000A024880ED000A70BD000039
:102860004805002070B587B034480078012862D14F
:102870003348007801280AD1002005E03149095C7D
:102880000DF80010411CC8B21928F7DB09E0002040
:1028900005E02D49095C0DF80010411CC8B219284B
:1028A000F7DB00202549087000BF39E00024002331
:1028B00016E000EB4002254D05EB820202EB83019E
:1028C0008A785AB10D786D1C1DF805204D78EA40C4
:1028D0008D782A40CD78AA40144300BF591CCBB252
:1028E000032BE6DBB4F5AF7F14D9A4F5AF7100EE8E
:1028F000101AF8EE400A9FED161A9FED160A00EE28
:10290000810ABCEEC00A10EE101A8AB2124921F8F0
:10291000102003E00022104921F81020411CC8B209
:102920000C28C3DB9DF818009DF8171040EA012021
:102930000A49088000BF07B070BD000024050020D0
:1029400025050020A50900208C0900209EAE000866
:102950002FA13D3F00006144D6090020280500203A
:10296000014640F21450814201DA02207047B1F56D
:10297000E16F01DD0020F9E70120F7E710B512480B
:1029800001780078401C104A1070052091FBF0F28D
:1029900000FB1210052813D2DFE800F00306090C33
:1029A0000F0000F019FC0CE001F0C0FC09E0FFF79B
:1029B0003FF906E000F0A6FC03E002F0AFFE00E005
:1029C00000BF00BF10BD00001C00002010B5044671
:1029D000204604F0ADFA204604F052FB204601F0F8
:1029E0002DFF10BD70B52DED068B82B000BF3E49A6
:1029F0008868804704460D463C48007850B9B023AB
:102A00000222E8213A4805F0D1F83A4830C00120C6
:102A100036490870374903C9221A65EB01004FF4A3
:102A20007A7300219A1A81415AD23348006800F41F
:102A30000050002854D00222E8212D4805F081F8EA
:102A4000C0B28DF804000322E821294805F079F886
:102A5000C0B28DF805009DF805009DF8041000EB4C
:102A6000012000EE100AB8EEC00ADFED240A80EE65
:102A7000201A234880ED001A00201C4908702048C5
:102A8000D0ED000AB0EE600A1E4804F045FEB0EE3C
:102A9000408A1D48D0E90010621A65EB000110461B
:102AA00008F05FF800EE100A1548D0ED000A70EE4D
:102AB000C80A80EE801A11EE106A304608F026F837
:102AC0009FED120B53EC102B07F02AFD07F07AF95B
:102AD0000B494860084680ED008A0B4830C000BFB3
:102AE00002B0BDEC068B70BDE0040020D8050020CC
:102AF000680A0020E00500201004024000007A442B
:102B0000C8050020740A0020E8050020000000002D
:102B100080842E4170B52DED048B00BF1C49886860
:102B2000804704460D461B4903C9221A65EB010183
:102B3000104607F073FC9FED180B53EC102B07F0B9
:102B4000EFFC41EC180B134A30C2154B5868154B7B
:102B50005B6803F11801134B5B68B0EE485AF0EE66
:102B6000685A90ED024AD0ED013A90ED003AD1ED6D
:102B7000022A91ED012AD1ED001A93ED0B1AD3ED43
:102B80000A0A93ED090A03F0B9F9BDEC048B70BD94
:102B9000E0040020400400208DEDB5A0F7C6B03E53
:102BA0007C040020600400200146B5EEC00AF1EE6E
:102BB00010FA05DBF1EEC00AC1ED000A00207047F3
:102BC000DFED030AC1ED000A4FF0FF30F7E7000028
:102BD000000000001CB501210846FDF7CBFF0320D3
:102BE0008DF804000420009000208DF807000320D9
:102BF0008DF8050069460248FDF7FFFE1CBD000088
:102C00000000024010B502494868804710BD00002E
:102C1000B004002000B52DED060B2DED068B83B022
:102C2000B0EE618AF0EE428A68469FED360A80ED8A
:102C3000000A9FED340A80ED010A9FED320A80ED13
:102C4000020A00BF9FED300A28EE000AB0EE408A6B
:102C50009FED2D0A28EE800AF0EE408AB0EE680A59
:102C600006F068FFB0EE409AB0EE480A06F062FF48
:102C7000F0EE409AB0EE680A06F0A4FFB0EE40AA6B
:102C8000B0EE480A06F09EFFF0EE40AA2AEE2A0AAD
:102C9000DDED0A0A20EE200ADDED090A09EEA00AA0
:102CA00069EE2A0A9DED0B1A00EE810A8DED000AED
:102CB0009DED0A0A20EE090ADDED0B0A0AEE600A14
:102CC0008DED010A2AEE290ADDED0A0A20EE200A1E
:102CD000DDED090AB1EE6A1A01EE200A69EE290A51
:102CE0009DED0B1A00EE810A8DED020A9DED000AA2
:102CF000DDED010A9DED021A03B0BDEC068B06B0B6
:102D000000BD00000000000034FA8E3C10B50948F8
:102D100004F092FFFFF706FC0748C168322088479D
:102D200002F0C2F90448C168C820884700F006F8DC
:102D300010BD0000F8080020E00400202DE9F04F4D
:102D40002DED088B85B0002080468146044605465F
:102D500006460746CD48007810B101280FD106E09D
:102D600003F0C0FF012801D1C849087008E003F052
:102D70000FFF012802D10220C449087000E000BF03
:102D800000BFC2480078022804D005B0BDEC088B13
:102D9000BDE8F08FBE4840890102BE48D0E900304E
:102DA000591A60F10000BB4AC2E90010B848808996
:102DB00000231146D1E9002CA0FB021A03FB02A25A
:102DC00000FB0C20420242EAD15000F5FA60C11724
:102DD000B14A03C2AE48808801040022AC48008991
:102DE000AC4BD3E900CBA0FB0C3E02FB0CEC00FB90
:102DF0000BCCD80940EA4C60081842EBEC12A7490A
:102E000005C1A34840884FEAC0314FF00002A048F6
:102E1000C088A04BD3E900A3A0FB0ABE02FB0AECCA
:102E200000FB03C34FEA1B2040EA0360081842EB93
:102E300023229B4905C19848D0E900104FF4FA635A
:102E4000C91A70F100007DDA9248D0E90010A1FBA8
:102E5000012300FB013301FB0030D10F41EA4008A0
:102E60004FEAE0798C48D0E900104FF4FA6AB1EBF0
:102E70000A0260F10001104607F06CFA41EC1B0BEE
:102E80009FED881BB0EE4B0AF0EE6B0A06F04AFB92
:102E9000B0EE40AAF0EE60AA9FED840B53EC102B2D
:102EA00051EC1A0B07F03CFB07F0DCFECDE9020108
:102EB000DDE9021045104FEA3104DDE902014FEA75
:102EC000900040EA81764FEAA1077348D0E90010EC
:102ED000784BC91A70F1FF303BDA6F48D0E9001027
:102EE0005B42CA1840F100011046CDE9002107F00D
:102EF00031FA41EC1A0B9FED6B1BB0EE4A0AF0EE73
:102F00006A0A06F00FFBB0EE409AF0EE609A51ECC0
:102F1000190B07F0A7FE82468B4607210022AAFB69
:102F200001030BFB01310AFB0211024614194D414A
:102F30000B2100205246A2FB01CE0BFB01E10AFB54
:102F4000001000E006E040104FEA3C0296194741AD
:102F500000BF00BF5048D0E90010B1EB080160EBA2
:102F600009004D4AC2E900104C48D0E90010091B85
:102F700060EB0500494AC2E900104948D0E9001059
:102F8000891B60EB0700464AC2E900104A48006806
:102F90000021D2E9003CA0FB032A01FB03A100FBB6
:102FA0000C11500D40EAC12248153C49D1E90031CD
:102FB000D21A60EB0101D00B40EA4140C913364AF6
:102FC000C2E902011046D0E902200023D21A98413A
:102FD00000DADAE63049D1E90221104607F0C4FDF3
:102FE00000EE100ADFED350A80EE201AB0EE419AAD
:102FF000DFED330AB0EE490A05F08EFFF7EE000A66
:1030000030EEC00ADFED2F0A20EE200A224880EDC4
:10301000040A2D494868804700EE100AB8EE408A3D
:103020001D48D0ED040AB0EE600A284804F0C4F947
:10303000F0EE408A264903C907F096FD00EE100A1B
:1030400038EE400A1448D0ED040A78EEE00A80EE2B
:10305000801A11EE10AA504607F058FD9FED1D0B87
:1030600053EC102B07F05CFA06F0ACFE0A494861FD
:103070000846C0ED048A18EE100A07F055FE144AFF
:1030800003C200200149087000BF7EE6AC040020A6
:10309000200900209004002008090020A00400203E
:1030A0009804002000000000000000400000000024
:1030B0000000144024FAFFFFA804002080E6C54762
:1030C000AEDC423E002A2D47E004002030090020FB
:1030D000C00400200000000000408F4070B504468E
:1030E000002503F07FFD02F0E7FD02F00DFE202039
:1030F0002F490880072002F03FF806463146272076
:1031000002F076FEFF21E12002F072FEFF21E220B4
:1031100002F06EFE05222749302002F04BFE052208
:1031200024492A2002F046FE0321232002F060FEFB
:103130000121212002F05CFE0121222002F058FE34
:1031400006213D2002F054FE1D2002F015F838B98A
:103150001C2002F011F818B97321502002F048FE2B
:1031600006213D2002F044FE01213C2002F040FEF9
:10317000F221242002F03CFE3221252002F038FE0C
:103180000E21262002F034FE012C04D10E21202035
:1031900002F02EFE03E00F21202002F029FE202065
:1031A0000349891E088004480470284670BD000049
:1031B0001A080240700500207A0500200146FA290D
:1031C00001DA0220704740F2EE20814201DD00204A
:1031D000F8E70120F6E7000038B500200090012450
:1031E000AA222146641C424842542146641C42548F
:1031F00001222146641C425400222146641C425490
:103200003C48406890ED000ADFED3B0A20EE200AC2
:10321000BDEEC00A10EE100A80B200909DF80120A9
:103220002146641C324842549DF800202146641C0B
:1032300042543048406890ED010ADFED2F0A20EE3D
:10324000200ABDEEC00A10EE100A80B200909DF870
:1032500001202146641C264842549DF80020204647
:10326000611CCCB222490A542248406890ED020AFF
:10327000DFED210A20EE200ABDEEC00A10EE100A92
:1032800080B200909DF801202046611CCCB2184904
:103290000A549DF800202046611CCCB214490A54FF
:1032A000164802782046611CCCB211490A5401220A
:1032B0002046611CCCB20E490A54601F08710025DB
:1032C000012005E00A49095C2944CDB2411CC8B27D
:1032D000A042F7DB2046611CCCB205490D54601EAC
:1032E00008700748214642680148904738BD0000F1
:1032F000900600201C0400200000C842600400204A
:10330000F005002038B5002000900124AA222146B3
:10331000641C454842542146641C425406222146FE
:10332000641C425400222146641C42543F480068F9
:10333000008880B200909DF801202146641C3A4824
:1033400042549DF800202146641C425437480068CE
:10335000808880B200909DF801202146641C32488C
:1033600042549DF800202046611CCCB22E490A54DC
:103370002E480068008980B200909DF80120204608
:10338000611CCCB228490A549DF800202046611CDB
:10339000CCB225490A5425480068808980B2009043
:1033A0009DF801202046611CCCB21F490A549DF8AB
:1033B00000202046611CCCB21B490A541C480068FE
:1033C00090ED000ADFED1B0A20EE200ABCEEC00AD9
:1033D00010EE100A80B200909DF801202046611C7A
:1033E000CCB211490A549DF800202046611CCCB291
:1033F0000D490A54601F08710025012005E00A49A3
:10340000095C2944CDB2411CC8B2A042F7DB20467A
:10341000611CCCB204490D54601E08700648214658
:1034200042680148904738BD9006002010050020F2
:10343000A40500200000C842F005002070B5044635
:103440000D4607200F490870AA2048708870EF20A9
:10345000C87002200871084645718C710026012051
:1034600005E00849095C3144CEB2411CC8B20728C6
:10347000F7DB0448C67104480821426801489047B8
:1034800070BD000090060020F005002010B52DED65
:10349000028B86B0044603A804F012FB684604F0D1
:1034A0000FFB694890F8C803012811D1664804F061
:1034B00093FA6548503004F08FFA6348A03004F066
:1034C0008BFA6249C868804706B0BDEC028B10BD1C
:1034D0005F48006890ED000A10EE101A084607F0E9
:1034E00015FB594AC2E902015948006890ED010AEA
:1034F00010EE101A084607F009FB534AC2E91601FC
:103500005348006890ED020A10EE101A084607F0C2
:10351000FDFA4D4AA032C2E9020121464A4804F0B0
:103520001FF9B0EE408AF0EE608A51EC180B06F0FD
:1035300049FC009021464448503004F011F9B0EEA7
:10354000408AF0EE608A51EC180B06F03BFC0190CB
:1035500021463D48A03004F003F9B0EE408AF0EE79
:10356000608A51EC180B06F02DFC02903948006877
:10357000808800F5FA703449C1F8C0039DED000A57
:10358000B1EE400ADDED010A30EE600ADDED020A1F
:1035900070EE200A084690EDF00AB8EEC00A30EE50
:1035A000800ABDEEC00A2948006880ED000A9DED42
:1035B000000AB1EE400ADDED010A30EE200ADDED31
:1035C000020A70EE600A084690EDF00AB8EEC00AF2
:1035D00030EE800ABDEEC00A1C48006880ED010A8A
:1035E0009DED000ADDED010A30EE200ADDED020A54
:1035F00070EE200A084690EDF00AB8EEC00A30EEF0
:10360000800ABDEEC00A1148006880ED020A9DEDF7
:10361000000ADDED010A30EE600ADDED020A70EE0F
:10362000600A084690EDF00AB8EEC00A30EE800A53
:10363000BDEEC00A0548006880ED030A03488168B2
:103640000120884700BF3FE7200000201005002030
:103650001C0400205005002070B52DED088B044699
:10366000D64890F8C80301280DD1D448F03004F0B2
:10367000B3F9D34804F0B0F9D148503004F0ACF9B4
:10368000BDEC088B70BDCF4909684988C1F5FA7057
:10369000CD494A680A21904700EE100AB8EEC00AE8
:1036A000DFEDCA0A80EE201AB3EE040A21EE000A0A
:1036B000F0EE409A03F0D4FBF7EE000A20EE200A69
:1036C00010EE105A284607F021FA41EC1A0BBB48BD
:1036D00090ED3C1BB0EE410AF0EE610A53EC102B6A
:1036E0009FEDBB1B51EC110B06F01AFF41EC1B0BBD
:1036F00053EC1A2B06F098FBB14A503A03C2B14979
:1037000009680988C1F5FA70AF494A680A219047EB
:1037100000EE100AB8EEC00A9FEDAC1AC0EE010A26
:10372000B3EE040A20EE800AF0EE409A03F098FB14
:10373000F7EE000A20EE200A10EE105A284607F095
:10374000E5F941EC1A0B9D4890ED501BB0EE410A93
:10375000F0EE610A53EC102B9FED9D1B51EC110B09
:1037600006F0DEFE41EC1B0B53EC1A2B06F05CFB63
:10377000924A02F5A07203C292490968C988C1F54C
:10378000FA7091494A680A21904700EE100AB8EE93
:10379000C00A9FED8E1AC0EE010AB3EE040A20EEB5
:1037A000800AF0EE409A03F05BFBF7EE000A20EE91
:1037B000200A10EE105A284607F0A8F941EC1A0B1F
:1037C0007E4890ED641BB0EE410AF0EE610A53ECC6
:1037D000102B9FED7F1B51EC110B06F0A1FE41EC6D
:1037E0001B0B53EC1A2B06F01FFB744A02F5C87230
:1037F00003C279484068D0ED000AB0EE600A03F0D9
:103800002FFB10EE105A284607F080F96C4A503A08
:10381000C2E9020170484068D0ED010AB0EE600ACA
:1038200003F01EFB10EE105A284607F06FF9644AA9
:10383000C2E902016848006890ED020A10EE101A11
:10384000084607F063F95E4A5032C2E90201214698
:10385000A2F1A00003F084FFB0EE40BAF0EE60BA2F
:1038600059499FED5E2B9FED5F1B08688047B0EEC6
:1038700040AAF0EE60AA51EC1A0B06F0A3FA08EE8B
:10388000100A21464E4803F06BFFB0EE40BAF0EE4E
:1038900060BA4D499FED512B9FED521B0868804740
:1038A000B0EE40AAF0EE60AA51EC1A0B06F08AFACC
:1038B00008EE900A21464248503003F051FFB0EE26
:1038C00040BAF0EE60BA40499FED442B9FED451B96
:1038D00008688047B0EE40AAF0EE60AA51EC1A0BDF
:1038E00006F070FA09EE100AB7EE000A28EE000A98
:1038F00010EE101A084607F009F941EC1A0B2F4890
:1039000090ED001BB0EE410AF0EE610A53EC102B73
:103910009FED2F1B51EC110B06F002FE41EC1B0B2F
:1039200053EC1A2B06F080FA244A03C2B7EE000AC1
:1039300028EE800A10EE101A084607F0E7F841EC6E
:103940001A0B1E4890ED141BB0EE410AF0EE610A0E
:1039500053EC102B9FED1E1B51EC110B06F0E0FDFC
:1039600041EC1B0B53EC1A2B06F05EFA134AC2E92A
:103970001401B7EE000A29EE000A10EE101A0846EC
:1039800007F0C4F841EC1A0B0C4890ED281BB0EE80
:10399000410AF0EE610A53EC102B9FED0D1B51EC28
:1039A000110B06F0BDFD41EC1B0B53EC1A2B06F07E
:1039B0003BFA024AA03203C200BF61E620000020A9
:1039C00060010020500500204804002000007A44D7
:1039D00000000000000000001C0400200000002087
:1039E000FB21E9BF00000020FB21E93F10B586B0B4
:1039F000724804F084F93C21704804F0FBF96F48E8
:103A000004F0A8F903216D4804F0F4F96B4804F0C0
:103A1000A1F96A4804F073F93D21684804F0EAF915
:103A2000664804F097F9002409E0644804F0BBF903
:103A300004A90855614804F0E4F8601CC4B2052CE0
:103A4000F3DB5E4804F0AFF98DF815005B4804F035
:103A50003BF95A4804F015F99DF811009DF8101033
:103A600040EA012000B200EE100AB8EEC00A544845
:103A7000406880ED030A9DF813009DF8121040EA9B
:103A8000012000B200EE100AB8EEC00A4C484068AF
:103A900080ED050A9DF815009DF8141040EA0120FC
:103AA00000B200EE100AB8EEC00A4548406880ED4A
:103AB000040A4348406800F10C014148406800F1A5
:103AC0000C0291ED021AD1ED010A91ED000A3D4878
:103AD000144603F0CCFD84ED000AC4ED010A84ED28
:103AE000021A01A803F0ECFF3548406890ED030A84
:103AF00033484068D0ED090A30EE600A304840682B
:103B0000D0ED060A80EE201A8DED011A2C4840688F
:103B100090ED040A2A484068D0ED0A0A30EE600AA7
:103B200027484068D0ED070A80EE201A8DED021A72
:103B30002348406890ED050A21484068D0ED0B0A03
:103B400030EE600A1E484068D0ED080A80EE201A68
:103B50008DED031A9DED010A20EE000ADDED020A4B
:103B60009DED021A00EE810ADDED030A9DED031AB8
:103B700000EE810A1248406880ED0C0A1048406847
:103B8000D0ED0C0AB7EE001A30EEC10AF0EEC00A12
:103B90009FED0D0AF4EEC00AF1EE10FA08D20020F3
:103BA000074908700846406801A90EC90EC002E026
:103BB00001200349087006B010BD00007C080020F9
:103BC0007C04002088080020CDCC4C3E10B501F0CC
:103BD0003FF901F0D3F901F0E7FE10BD00B589B05F
:103BE00001210846FCF7D6FF4FF08040FDF7F6FABA
:103BF0004FF4FA60029053480068400800EE100A43
:103C0000B8EE400A9FED501AC0EE010A9FED4F0A30
:103C100080EE801ABCEEC10A10EE100A401E80B27F
:103C2000ADF804000020ADF80C00ADF8060001A9C5
:103C30004FF08040FDF778FD6020ADF810000120C6
:103C4000ADF812004FF4617006900020ADF81C0032
:103C500004A94FF08040FDF78FFC0821C806FDF74E
:103C6000DBFC04A94FF08040FDF7E0FC0821C8060A
:103C7000FDF718FD01218807FDF794FA0121880757
:103C8000FDF79FFA01210220FCF784FF3048FDF781
:103C9000A5FA4FF4FA6002902A480068400800EE46
:103CA000100AF8EE400A9FED281A80EE810ADFED37
:103CB000270A80EE201ABCEEC10A10EE100A401E40
:103CC00080B2ADF804000020ADF80C00ADF806009D
:103CD00001A91F48FDF728FD6020ADF81000012064
:103CE000ADF812004FF4617006900020ADF81C0092
:103CF00004A91748FDF798FB08211548FDF7D2FBEA
:103D000004A91348FDF7D8FB08211148FDF726FC4C
:103D100004A90F48FDF730FC08210D48FDF77CFC95
:103D200004A90B48FDF782FC08210948FDF7BAFCFD
:103D300001210748FDF736FA01210548FDF741FA50
:103D400009B000BD080600200000FA430000FA4454
:103D50000004004010B52DED088B84B00446944853
:103D600090F8C80301280BD1924803F035FE4FF4B8
:103D700061708F49C1F8C00304B0BDEC088B10BD61
:103D80008B4890F8CB0330B98B488068808B88498A
:103D9000C1F8C00340E0894890ED010A10EE101A06
:103DA000084606F0B3FE834AC2E9020182498968E7
:103DB000888B06F020FB41EC1B0B81499FED812B8A
:103DC0009FED821BB0EE4B0AF0EE6B0A086880474D
:103DD000B0EE409AF0EE609A2146764803F0C0FCBF
:103DE000B0EE40BAF0EE60BA75499FED762B9FEDCC
:103DF000791B08688047B0EE40AAF0EE60AA53EC49
:103E0000192B51EC1A0B06F00FF841EC180B06F0C9
:103E10005BFA6749C1F8C00301A89FED700ADFEDA6
:103E20006F0A9FED6E1A80ED000AC0ED010A80ED69
:103E3000021A00BF5E4890F8C903D8BB5E49896882
:103E4000C98BA1F5AF605E494A680221904700EE38
:103E5000100AB8EEC00ADFED620A80EE201AB3EE57
:103E6000040A21EE000A8DED010A53498968498B45
:103E7000C1F5AF6052494A680221904700EE100A2E
:103E8000F8EEC00A9FED561A80EE810AF3EE040A9E
:103E900020EE200A8DED020A47498968098BA1F5B9
:103EA000AF6047494A680221904700EE100AF8EED9
:103EB000C00A00E009E09FED4A1A80EE810ADFEDBA
:103EC000490A20EE200A8DED030A9DED010AF7EE66
:103ED000000A20EE200A10EE101A084606F016FE20
:103EE00041EC180B324890ED3C1BB0EE410AF0EE6D
:103EF000610A53EC102B9FED331B51EC110B06F0B4
:103F00000FFB41EC190B53EC182B05F08DFF284AE1
:103F1000F03203C29DED020AF7EE000A20EE200AFD
:103F200010EE101A084606F0F1FD41EC180B20487F
:103F300090ED501BB0EE410AF0EE610A53EC102BED
:103F40009FED201B51EC110B06F0EAFA41EC190B26
:103F500053EC182B05F068FF154A02F5A07203C256
:103F60009DED030AF7EE000A20EE200A10EE101A6B
:103F7000084606F0CBFD41EC180B0D4890ED641B94
:103F8000B0EE410AF0EE610A53EC102B9FED0D1BD1
:103F900051EC110B06F0C4FA41EC190B53EC182B41
:103FA00005F042FF024A02F5C87203C200BFE3E611
:103FB00020000020A002002028050020040400208A
:103FC0004804002000000000000000000000000085
:103FD00000E0954000000000000089400000000063
:103FE0000000FA43D90F493F70B52DED048B04460C
:103FF0005A4890F8C803012817D1594803F0ECFC3F
:10400000584890ED000A554880EDF10A554890ED6A
:10401000000A10EE101A084606F078FD4F4A02F525
:104020005C7203C2BDEC048B70BD4C4890F8CB03AE
:1040300060B94C4890ED000A10EE101A084606F0E0
:1040400065FD464A02F55C7203C2EBE7434890F80F
:10405000C903002863D144498968898BA1F5AF6001
:1040600042494A680221904700EE100AB8EEC00AA1
:104070009FED3F1AC0EE010AB0EE000A60EE800A22
:1040800000EE104AB8EE400A20EE800ADFED390A51
:1040900080EE201A11EE105A284606F037FD41EC4A
:1040A000180B2E4890EDDC1BB0EE410AF0EE610AD1
:1040B00053EC102B51EC180B05F0B6FE274A02F515
:1040C0005C7203C2254890EDF10A10EE101A084602
:1040D00006F01CFD41EC180B204890EDF10AF2EEC1
:1040E000040A30EE200A10EE101A084606F00EFD03
:1040F00041EC190B194991EDDC1BB0EE410AF0EED1
:10410000610A1A49B0EE482AF0EE682AB0EE491A60
:10411000F0EE691A08688047104880EDDC0B114802
:1041200090ED000A10EE101A084606F0EFFC0C4A5B
:10413000C2E902012146104603F012FBB0EE408AAC
:10414000F0EE608A09499FED0C2B9FED0D1B08686E
:104150008047024880EDA00B00BF63E720000020ED
:1041600090030020040400202805002048040020BB
:104170000000FA4300007A4400000000000000C084
:10418000000000000000004062480088B0F5FA6FAF
:1041900015DB60480088A0F5FA6000EE100AF8EE22
:1041A000C00A5D4890ED001A9FED5C0A00EE810A9E
:1041B000BCEEC00A10EE100A5949088002E0002047
:1041C0005749088053484088B0F5FA6F15DB5148CD
:1041D0004088A0F5FA6000EE100AF8EEC00A4E48DA
:1041E00090ED001A9FED4D0A00EE810ABCEEC00A68
:1041F00010EE100A4A49488002E0002048494880F1
:1042000044488088B0F5FA6F15DB42488088A0F5F5
:10421000FA6000EE100AF8EEC00A3F4890ED001A6E
:104220009FED3E0A00EE810ABCEEC00A10EE100AB5
:104230003B49888002E00020394988803548C088A1
:10424000B0F5FA6F15DB3348C088A0F5FA6000EED0
:10425000100AF8EEC00A304890ED001A9FED2F0AC0
:1042600000EE810ABCEEC00A10EE100A2C49C8808C
:1042700002E000202A49C88026480089B0F5FA6F7C
:1042800015DB24480089A0F5FA6000EE100AF8EE6C
:10429000C00A214890ED001A9FED200A00EE810A25
:1042A000BCEEC00A10EE100A1D49088102E0002091
:1042B0001B49088117484089B0F5FA6F15DB15488E
:1042C0004089A0F5FA6000EE100AF8EEC00A124824
:1042D00090ED001A9FED110A00EE810ABCEEC00AB3
:1042E00010EE100A0E49488102E000200C49488176
:1042F0000C4800880A2803DD00200B49087407E0F9
:1043000008480088401C07490880012006490874B5
:1043100070470000EE090020480500200000000062
:10432000FA0900204C050020500500207CB5002033
:10433000019000900124AA222146641C8548425421
:104340002146641C425402222146641C425400222D
:104350002146641C42548048406890ED060ABDEE38
:10436000C00A10EE100A00B201909DF80520214607
:10437000641C784842549DF804202146641C425431
:104380007548406890ED070ABDEEC00A10EE100AAD
:1043900000B201909DF805202146641C6D484254EE
:1043A0009DF804202046611CCCB26A490A546A4830
:1043B000406890ED080ABDEEC00A10EE100A00B287
:1043C00001909DF805202046611CCCB261490A5439
:1043D0009DF804202046611CCCB25E490A545E4818
:1043E000406890ED090ABDEEC00A10EE100A00B256
:1043F00001909DF805202046611CCCB255490A5415
:104400009DF804202046611CCCB252490A545248FF
:10441000406890ED0A0ABDEEC00A10EE100A00B224
:1044200001909DF805202046611CCCB249490A54F0
:104430009DF804202046611CCCB246490A544748E6
:10444000406890ED0C0ADFED460A20EE200ABDEE32
:10445000C00A10EE100A00B201909DF80520204617
:10446000611CCCB23B490A549DF804202046611CD3
:10447000CCB238490A543948406890ED000ADFED63
:10448000380A20EE200ABDEEC00A10EE100A00B273
:1044900001909DF805202046611CCCB22D490A549C
:1044A0009DF804202046611CCCB22A490A542B48AE
:1044B000406890ED010ADFED2A0A20EE200ABDEEE9
:1044C000C00A10EE100A00B201909DF805202046A7
:1044D000611CCCB21F490A549DF804202046611C7F
:1044E000CCB21C490A541D48406890ED020ADFED29
:1044F0001C0A20EE200ABDEEC00A10EE100A00B21F
:1045000001909DF805202046611CCCB211490A5447
:104510009DF804202046611CCCB20E490A54601F4D
:1045200008710025012005E00A49095C2944CDB243
:10453000411CC8B2A042F7DB2046611CCCB2054941
:104540000D54601E08700748214642680148904794
:104550007CBD000090060020600400207C04002048
:104560000000C842F005002070B506460C46002544
:104570000A48C079A04201DA002070BD002509E098
:10458000701907498A680549904708B90020F4E77F
:10459000681C85B2A542F3DB0120EEE7B40C0020D5
:1045A000FC05002070B52DED048B04469FED5D0ADF
:1045B000F0EE408A5C4890ED000AF0EE408A90ED03
:1045C000010AB0EE408A594A526892ED000AB0EEF4
:1045D000402A564A526892ED010AF0EE401A544AB7
:1045E000526802F11800534A916890ED021AD0ED1A
:1045F000010A90ED000A88474F4880ED000AC0ED9F
:10460000010A80ED021A90ED020ADFED4C0A30EE4D
:10461000600A80ED020A90ED020ADFED480A80EEA2
:10462000201A80ED021A90ED020ADFED450A20EE15
:10463000200A80ED020A00EE104AB8EE400ADFEDD3
:10464000410A80EE201A11EE105A284606F05EFA52
:1046500041EC190B3848D0ED020AB0EE600AB0EE1A
:10466000491AF0EE691AF0EE480A374802F035FFB1
:10467000B0EE408A00EE104AB8EE400ADFED310A93
:1046800080EE201A11EE105A284606F03FFA41EC4F
:10469000190BB0EE491AF0EE691AF0EE680AB0EEA6
:1046A000480A2A4802F019FFF0EE408A284890EDA7
:1046B000000A78EEC00A00EE104AB8EE400A80EE1A
:1046C000801A9FED200A21EE000A80ED010AC0ED5C
:1046D000008A9FED200A28EE000A1F4880ED010A9B
:1046E0001E48006890ED050ADFED1A0A20EE200A48
:1046F000194880ED000A164890ED010ADFED150A11
:1047000020EE200A144880ED020A114890ED000ABC
:10471000DFED100A20EE200A0F4880ED030ABDEC01
:10472000048B70BD00000000C80500201C040020A0
:1047300060040020480400206407002000F07F454A
:10474000CDCC1C4100007A444407002054070020CF
:10475000040400200000C842D0060020B00400205D
:104760001CB501210846FCF705FA01210220FCF7DF
:1047700001FAC820009002208DF8040003208DF873
:10478000050000208DF8060001208DF8070069461D
:104790001A48FCF732F9012203211848FCF775F991
:1047A000022206211548FCF770F90222072113485E
:1047B000FCF76BF940F20340009002208DF80400F2
:1047C00003208DF8050000208DF8060001208DF8EB
:1047D000070069460A48FCF710F902220021084840
:1047E000FCF753F9022201210548FCF74EF901229A
:1047F0000A210348FCF749F91CBD000000000240F3
:104800000004024010B5044600BF02210A48FCF72C
:104810007FFA0028F9D021460748FCF785FA00BF47
:1048200001210548FCF774FA0028F9D00248FCF78A
:1048300078FAC0B210BD00000030014010B5044647
:104840004848006890F8C803012833D10020464941
:104850000880464800688088962801DA012000E038
:10486000002042490968C98840F25232914201DD74
:10487000012100E0002108403A49096891F8C91374
:1048800009B9012100E00021084078B138480088CA
:1048900020443749088008460088B0F5FA6F30DDBB
:1048A00000203049096881F8C8032AE00020304917
:1048B000088026E02B48006890F8C903012804D13D
:1048C0002849096881F8C8031BE0002028490880AE
:1048D000264800688088962805DA23480088204406
:1048E0002149088002E000201F4908801E480088F6
:1048F00042F21071884204DD01201A49096881F8EA
:10490000C8031848006890F8C80360B919480088BF
:1049100040F00100174908801748C82102694FF488
:10492000005090470AE01348008820F00100114928
:1049300008801148C1684FF4005088470948006852
:1049400090F8C90330B10B48008840F002000949D3
:10495000088005E00748008820F00200054908802B
:1049600010BD0000F00300205A0400205005002074
:104970005C04002010000020F80400202DE9F04322
:1049800089B00025002400270026A046FE482021EB
:10499000826801A8904701287ED100BF18E01F2D32
:1049A00002D109B0BDE8F08301A8405DAA2801D179
:1049B000012000E0002001AA691C515CAF2901D14F
:1049C000012100E00021084000B103E0681CC5B2ED
:1049D000202DE4DB00BF01A9E81C085C001DC7B264
:1049E0002C46A81C11F80080002506E0601901A9DA
:1049F000085C3044C6B2681CC5B2BD42F6DBE019A3
:104A000001A9085CB042C7D1B8F1120F7ED00CDC0E
:104A1000B8F1010F13D0B8F1020F14D0B8F1100F94
:104A200021D0B8F1110F72D1F0E0B8F1130F6FD0AF
:104A3000B8F1140F6DD0B8F1150FF4D1FCE10120DD
:104A4000D2490870FEE1D24908780978491CD04B58
:104A5000197000F03FFCCE480078032802DD0120E9
:104A6000CB490870EEE101AA601D125C01AB201D6C
:104A7000185C42EA002000EE100AB8EEC00A10EE00
:104A8000101A084606F042F8C24A1268C2E9060146
:104A900001AAE01D125C00E0D5E101ABA01D185C8D
:104AA00042EA002000EE100AB8EEC00A10EE101A1A
:104AB000084606F02BF8B74A1268C2E9080101AAB5
:104AC00004F10900125C01AB401E185C42EA0020B0
:104AD00000EE100AB8EEC00A10EE101A084606F0F2
:104AE00015F8AC4A1268C2E90A0101AA04F10B00E8
:104AF000125C01AB401E185C42EA002000EE100A76
:104B0000B8EEC00A10EE101A084603E085E198E1FD
:104B100088E18CE105F0FAFF9E4A1268C2E91A01A9
:104B200001AA04F10D00125C01AB401E185C42EAC0
:104B3000002000EE100AB8EEC00A10EE101A084667
:104B400005F0E4FF934A1268C2E91C0101AA04F1CE
:104B50000F00125C01AB401E185C42EA002000EE20
:104B6000100AB8EEC00A10EE101A084605F0CEFF83
:104B7000884A1268C2E91E0101AA04F11100125C00
:104B800001AB401E185C42EA002000EE100AB8EEAD
:104B9000C00A10EE101A084605F0B8FF7D4A1268E8
:104BA000A032C2E9060101AA04F11300125C01ABB4
:104BB000401E185C42EA002000EE100AB8EEC00A5F
:104BC00010EE101A084605F0A1FF724A1268A032D2
:104BD000C2E9080101AA04F11500125C01AB401EF4
:104BE000185C42EA002000EE100AB8EEC00A10EE8F
:104BF000101A084605F08AFF664A1268A032C2E918
:104C00000A0110213046FEF719FC1BE101A9601DC5
:104C1000095C01AA201D105C41EA002000EE100A88
:104C2000B8EEC00ADFED5C0A80EE201A11EE109A91
:104C3000484605F06BFF574A1268F032C2E9060198
:104C400001A9E01D095C01AAA01D105C41EA002039
:104C500000EE100AB8EEC00ADFED4F0A80EE201A0F
:104C600011EE109A484605F051FF4A4A1268F03298
:104C7000C2E9080101A904F10900095C01AA401E6A
:104C8000105C41EA002000EE100AB8EEC00ADFED29
:104C9000420A80EE201A11EE109A484605F036FFBF
:104CA0003C4A1268F032C2E90A0101A904F10B0082
:104CB000095C01AA401E105C41EA002000EE100AC7
:104CC000B8EEC00ADFED340A80EE201A11EE109A19
:104CD000484605F01BFF2F4A126802F5A072C2E990
:104CE000060101A904F10D00095C01AA401E105C37
:104CF00041EA002000EE100AB8EEC00ADFED260AF5
:104D000080EE201A11EE109A484605F0FFFE214A67
:104D1000126802F5A072C2E9080101A904F10F00AE
:104D2000095C01AA401E105C41EA002000EE100A56
:104D3000B8EEC00ADFED180A80EE201A11EE109AC4
:104D4000484605F0E3FE134A126802F5A072C2E974
:104D50000A0101A904F11100095C01AA401E105CBE
:104D600041EA002000EE100AB8EEC00ADFED0A0AA0
:104D700080EE201A11EE109A484605F0C7FE054A4B
:104D8000126802F5C87209E0F005002060040020F6
:104D90001D000020F00300200000C842C2E9060107
:104DA00001A904F11300095C01AA401E105C41EA4C
:104DB000002000EE100AB8EEC00A5FED090A80EE8E
:104DC000201A11EE109A484605F0A0FE1F4A1268FC
:104DD00002F5C872C2E9080101A904F11500095CD5
:104DE00001AA401E105C41EA002000EE100AB8EE55
:104DF000C00A5FED170A80EE201A11EE109A48469D
:104E000005F084FE114A126802F5C872C2E90A016F
:104E100011213046FEF712FB14E012213046FEF756
:104E20000DFB00BF13213046FEF708FB0AE01421FA
:104E30003046FEF703FB05E015213046FEF7FEFA8B
:104E400000E000BF00BF00BFABE50000F0030020A2
:104E50001FB53C22D021464802F073FEC0B28DF847
:104E600008003B22D021424802F06BFEC0B28DF810
:104E700009009DF808009DF8091040EA012000B2E1
:104E8000ADF800003E22D021394802F05AFEC0B2EF
:104E90008DF80A003D22D021354802F052FEC0B202
:104EA0008DF80B009DF80A009DF80B1040EA0120D8
:104EB00000B2ADF802004022D0212D4802F041FEA0
:104EC000C0B28DF80C003F22D021294802F039FEF3
:104ED000C0B28DF80D009DF80C009DF80D1040EA51
:104EE000012000B2ADF80400BDF9000000EE100A88
:104EF000B8EEC00A1F4880ED000ABDF9020000EEBE
:104F0000100AB8EEC00A1B4880ED010ABDF9040082
:104F100000EE100AB8EEC00A164880ED020A90EDC5
:104F2000000AD0ED0C0A30EE600A80ED060A90ED22
:104F3000010AD0ED0D0A30EE600A80ED070A90ED0F
:104F4000020AD0ED0E0A30EE600A80ED080A90EDFC
:104F5000081AD0ED070A90ED060A074802F0A6F9F4
:104F6000044880ED060AC0ED070A80ED081A1FBD4F
:104F7000980700201C080020A40700201FB5442229
:104F8000D021464802F0DDFDC0B28DF80800432272
:104F9000D021424802F0D5FDC0B28DF809009DF83D
:104FA00008009DF8091040EA012000B2ADF80000A9
:104FB0004622D021394802F0C4FDC0B28DF80A0063
:104FC0004522D021354802F0BCFDC0B28DF80B005F
:104FD0009DF80A009DF80B1040EA012000B2ADF8E0
:104FE00002004822D0212D4802F0ABFDC0B28DF85E
:104FF0000C004722D021294802F0A3FDC0B28DF851
:105000000D009DF80C009DF80D1040EA012000B243
:10501000ADF80400BDF9000000EE100AB8EEC00AB9
:105020001F4880ED030ABDF9020000EE100AB8EE39
:10503000C00A1B4880ED040ABDF9040000EE100A06
:10504000B8EEC00A164880ED050A90ED030AD0EDCF
:105050000F0A30EE600A80ED090A90ED040AD0EDE7
:10506000100A30EE600A80ED0A0A90ED050AD0EDD4
:10507000110A30EE600A80ED0B0A90ED0B1AD0EDAC
:105080000A0A90ED090A074802F0F1FA044880ED97
:10509000090AC0ED0A0A80ED0B1A1FBD980700200F
:1050A0001C080020E807002070B5002435E01C48EB
:1050B00002F025FEEE211A4802F09CFE184802F08C
:1050C00049FEA02000EB4400C1B2154802F092FE58
:1050D000134802F03FFE124802F011FEEF21104883
:1050E00002F088FE0E4802F035FE0D4802F05BFE2D
:1050F00005460B4802F085FD094802F054FE0646BD
:10510000074802F0E1FD064802F0BBFD46EA052033
:10511000044921F81400601CC4B2062CC7DD70BD20
:10512000F8080020200900200348007808B9012071
:1051300070470020FCE700007D0500202DE9F041CC
:1051400007460D46164610200A4948833846FFF7A1
:1051500059FB8046002405E0FF20FFF753FB28554C
:10516000601CC4B2B442F7DB1020024908834046F9
:10517000BDE8F0810000024070B5044610200749E8
:1051800048832046FFF73EFBFF20FFF73BFB054629
:10519000102002490883284670BD0000000002402C
:1051A00000B587B001210420FBF7F4FC4748FCF769
:1051B00015F84FF6FF7002902920ADF8040000208A
:1051C000ADF80C00ADF8060001A94048FCF7ACFAB8
:1051D0000020ADF812000120ADF814000020ADF859
:1051E0001600ADF81800ADF8100004A93748FCF718
:1051F000DAF80420ADF8100004A93448FCF7D3F81D
:105200000820ADF8100004A93048FCF7CCF80C20B9
:10521000ADF8100004A92D48FCF7C5F801212B4872
:10522000FBF7CFFF012202212848FCF7F3F8012207
:1052300004212648FCF7EEF8012208212348FCF758
:10524000E9F8012210212148FCF7E4F801210220AD
:10525000FBF7C0FC1E48FBF7C1FF4FF6FF70029042
:105260005320ADF804000020ADF80C00ADF80600A6
:1052700001A91748FCF758FA0020ADF812000120E8
:10528000ADF814000020ADF81600ADF818000820A5
:10529000ADF8100004A90E48FCF785F80C20ADF815
:1052A000100004A90A48FCF77EF801210848FBF722
:1052B00088FF012208210648FCF7ACF801221021E2
:1052C0000348FCF7A7F807B000BD00000008004045
:1052D0000004014070B5BEB00546012400203C909A
:1052E00003235022FA49684602F021FE012D04D022
:1052F000022D39D0032D7CD1DEE0F648006890ED18
:10530000060B8DED060BF348006890ED080B8DED54
:10531000080BF048006890ED0A0B8DED0A0BED4884
:10532000006890ED1A0B8DED1A0BEA48006890EDBD
:105330001C0B8DED1C0BE748006890ED1E0B8DEDEE
:105340001E0BE448006890ED2E0B8DED2E0BE1480E
:10535000006890ED300B8DED300BDE48006890ED6D
:10536000320B8DED320BA9E0DA48006890ED421B5C
:10537000B0EE410AF0EE610A9FEDD71B53EC112B02
:1053800051EC100B05F0CCF8CDE90601D1480068CE
:1053900090ED441BB0EE410AF0EE610A9FEDCE1B8A
:1053A00053EC112B51EC100B05F0BAF8CDE90801C4
:1053B000C848006890ED461BB0EE410AF0EE610A65
:1053C0009FEDC51B53EC112B51EC100B05F0A8F809
:1053D000CDE90A01BF48006890ED561BB0EE410AC6
:1053E000F0EE610A9FEDBC1B53EC112B51EC100B3E
:1053F00000E062E005F094F8CDE91A01B5480068D4
:1054000090ED581BB0EE410AF0EE610A9FEDB21B21
:1054100053EC112B51EC100B05F082F8CDE91C0177
:10542000AC48006890ED5A1BB0EE410AF0EE610AFC
:105430009FEDA91B53EC112B51EC100B05F070F8EC
:10544000CDE91E01A348006890ED6A1BB0EE410A49
:10545000F0EE610A9FEDA01B53EC112B51EC100BE9
:1054600005F05EF828AAC2E906019A48006890EDA6
:105470006C1BB0EE410AF0EE610A9FED971B53ECF6
:10548000112B51EC100B05F04BF828AAC2E90801CA
:105490009048006890ED6E1BB0EE410AF0EE610A94
:1054A0009FED8D1B53EC112B51EC100B05F038F8D0
:1054B00028AAC2E90A0101E000E000BF00BFAA2259
:1054C0002046611CCCB286490A542046611CCCB2ED
:1054D00083490A5405F10F00C2B22046611CCCB2C8
:1054E0007F490A5400222046611CCCB27C490A54F0
:1054F0009DED061BB0EE410AF0EE610A51EC100B77
:1055000004F0E2FE00B23C909DF8F1202046611CC0
:10551000CCB273490A549DF8F0202046611CCCB2ED
:105520006F490A549DED081BB0EE410AF0EE610A86
:1055300051EC100B04F0C8FE00B23C909DF8F12035
:105540002046611CCCB266490A549DF8F0202046E2
:10555000611CCCB262490A549DED0A1BB0EE410AAF
:10556000F0EE610A51EC100B04F0AEFE00B23C907C
:105570009DF8F1202046611CCCB259490A549DF88F
:10558000F0202046611CCCB255490A549DED1A1BEF
:10559000B0EE410AF0EE610A51EC100B04F094FEFB
:1055A00000B23C909DF8F1202046611CCCB24C49E1
:1055B0000A549DF8F0202046611CCCB248490A5498
:1055C0009DED1C1BB0EE410AF0EE610A51EC100B90
:1055D00004F07AFE00B23C909DF8F1202046611C58
:1055E000CCB23F490A549DF8F0202046611CCCB251
:1055F0003B490A549DED1E1BB0EE410AF0EE610AD4
:1056000051EC100B04F060FE00B23C909DF8F120CC
:105610002046611CCCB232490A549DF8F020204645
:10562000611CCCB22E490A549DED2E1BB0EE410AEE
:10563000F0EE610A51EC100B04F046FE00B23C9013
:105640009DF8F1202046611CCCB225490A549DF8F2
:10565000F0202046611CCCB221490A549DED301B3C
:10566000B0EE410AF0EE610A51EC100B04F02CFE92
:1056700000B23C909DF8F1202046611CCCB2184944
:105680000A549DF8F0202046611CCCB214490A54FB
:105690009DED321BB0EE410AF0EE610A51EC100BA9
:1056A00004F012FE00B23C909DF8F1202046611CEF
:1056B000CCB20B490A549DF8F0202046611CCCB2B4
:1056C00007490A54601F08710026012010E00000FD
:1056D000657A0008F0030020000000000000594037
:1056E000900600200B49095C3144CEB2411CC8B27F
:1056F000A042F7DB2046611CCCB206490E54601E66
:1057000008700548214642680248904701203EB093
:1057100070BD000090060020F005002038B501247F
:1057200000200090AA222146641C9C484254214635
:10573000641C4254F1222146641C4254002221463A
:10574000641C4254964890ED000ABDEEC00A10EE6B
:10575000100A00B200909DF801202146641C8F4879
:1057600042549DF800202146641C42548C4890ED20
:10577000010ABDEEC00A10EE100A00B200909DF8BA
:1057800001202146641C854842549DF80020204693
:10579000611CCCB281490A54814890ED020ABDEEE9
:1057A000C00A10EE100A00B200909DF801202046B9
:1057B000611CCCB279490A549DF800202046611C36
:1057C000CCB276490A54764890ED030ABDEEC00A81
:1057D00010EE100A00B200909DF801202046611CD6
:1057E000CCB26E490A549DF800202046611CCCB210
:1057F0006A490A546A4890ED040ABDEEC00A10EEE8
:10580000100A00B200909DF801202046611CCCB225
:1058100062490A549DF800202046611CCCB25F49C1
:105820000A545F4890ED050ABDEEC00A10EE100A5A
:1058300000B200909DF801202046611CCCB257496F
:105840000A549DF800202046611CCCB253490A54EA
:10585000534890ED060ABDEEC00A10EE100A00B2E1
:1058600000909DF801202046611CCCB24B490A549F
:105870009DF800202046611CCCB248490A54484893
:1058800090ED070ABDEEC00A10EE100A00B20090BB
:105890009DF801202046611CCCB240490A549DF875
:1058A00000202046611CCCB23C490A543C4890ED93
:1058B000080ABDEEC00A10EE100A00B200909DF872
:1058C00001202046611CCCB234490A549DF80020C6
:1058D0002046611CCCB231490A54314890ED090A86
:1058E000BDEEC00A10EE100A00B200909DF8012033
:1058F0002046611CCCB229490A549DF8002020465C
:10590000611CCCB225490A54254890ED0A0ABDEE27
:10591000C00A10EE100A00B200909DF80120204647
:10592000611CCCB21D490A549DF800202046611C20
:10593000CCB21A490A541A4890ED0B0ABDEEC00ABF
:1059400010EE100A00B200909DF801202046611C64
:10595000CCB212490A549DF800202046611CCCB2FA
:105960000E490A54601F08710025012005E00B490B
:10597000095C2944CDB2411CC8B2A042F7DB2046E5
:10598000611CCCB205490D54601E087005482146C3
:10599000426802489047012038BD00009006002070
:1059A000D0060020F005002010B57748007800F000
:1059B000010048B9744802F0CCFA28B1734802F0EB
:1059C0007FF87148AFF300807148007800F0010063
:1059D00048B96F4802F0BDFA28B16E4802F070F87D
:1059E0006B48AFF300806C480078012868D16B48A1
:1059F0000068E0B99FED6A0A6A4880ED0C0A9FEDE5
:105A0000680A80ED0D0A9FED660A80ED0E0A9FED93
:105A1000640A80ED0F0A9FED620A80ED100A9FED87
:105A2000600A80ED110A01205C49086010BD5B48E6
:105A3000006840F6B831884243DC58480068401C92
:105A400056490860514890ED000A5648D0ED000ACA
:105A500030EE200A4D4880ED000A90ED010A5148D1
:105A6000D0ED010A30EE200A484880ED010A90EDA1
:105A7000020A4C48D0ED020A30EE200A434880ED7D
:105A8000020A444890ED000A4648D0ED030A30EE81
:105A9000200A404880ED000A90ED010A4148D0ED0F
:105AA000040A30EE200A3B4880ED010A90ED020A1C
:105AB0003C48D0ED050A30EE200A364880ED020A57
:105AC00060E0002035490860334908702F4890EDA8
:105AD000000ADFED350A80EE201A324880ED0C1AFC
