:020000040800F2
:10000000181C00206D020008C1090008B909000889
:10001000BD090008D30600085F19000800000000B1
:10002000000000000000000000000000D90B0008E4
:100030004507000800000000510A0008DD0B000819
:10004000870200088702000887020008870200086C
:10005000870200088702000887020008870200085C
:10006000870200088702000887020008870200084C
:10007000870200088702000887020008870200083C
:10008000870200088702000887020008870200082C
:10009000870200088702000887020008870200081C
:1000A000870200088702000887020008870200080C
:1000B00087020008870200085D0C0008870200081C
:1000C00087020008870200088702000887020008EC
:1000D0008702000851160008C516000887020008AC
:1000E00087020008870200088702000887020008CC
:1000F0008702000887020008C50E00088702000872
:100100008702000887020008750E000887020008B1
:10011000DD15000887020008870200088702000832
:10012000870200088702000887020008870200088B
:10013000870200088702000887020008870200087B
:10014000870200088702000887020008870200086B
:10015000870200088702000887020008870200085B
:10016000870200088702000887020008870200084B
:10017000870200088702000887020008870200083B
:10018000870200088702000800F002F800F05EF81D
:100190000AA090E8000C82448344AAF10107DA45E2
:1001A00001D100F053F8AFF2090EBAE80F0013F0D6
:1001B000010F18BFFB1A43F001031847E4BC00000D
:1001C00004BD00000A444FF0000C10F8013B13F08E
:1001D000070408BF10F8014B1D1108BF10F8015BA0
:1001E000641E05D010F8016B641E01F8016BF9D193
:1001F00013F0080F1EBF10F8014BAD1C0C1B09D1EA
:100200006D1E58BF01F801CBFAD505E014F8016B5B
:1002100001F8016B6D1EF9D59142D6D370470000ED
:100220000023002400250026103A28BF78C1FBD8FF
:10023000520728BF30C148BF0B6070471FB50AF096
:10024000BAFF00F0B3F81FBD10B510BD00F04AF9B9
:100250001146FFF7F3FF09F08DFF00F068F903B4D2
:10026000FFF7F2FF03BC00F069F90000094880477E
:1002700009480047FEE7FEE7FEE7FEE7FEE7FEE788
:10028000FEE7FEE7FEE7FEE704480549054A064BA0
:1002900070470000F50B00088901000818160020BF
:1002A000181C0020181800201818002010B54C1039
:1002B00084EA530404D54042C1F1000138BF491E0D
:1002C0001B4204D55242C3F1000338BF5B1E00F04D
:1002D0007FF814F0804F04D04042C1F1000138BFD4
:1002E000491E14F0004F04D05242C3F1000338BF3E
:1002F0005B1E10BD10B5203AC0F00B80B1E818505D
:10030000203AA0E81850B1E81850A0E81850BFF4FF
:10031000F5AF5FEA027C24BFB1E81850A0E818509E
:1003200044BF18C918C0BDE810405FEA827C24BFF2
:1003300051F8043B40F8043B08BF7047D20728BF80
:1003400031F8023B48BF11F8012B28BF20F8023BCF
:1003500048BF00F8012B70474FF0000200B513466C
:1003600094469646203922BFA0E80C50A0E80C50D5
:10037000B1F12001BFF4F7AF090728BFA0E80C5086
:1003800048BF0CC05DF804EB890028BF40F8042B7F
:1003900008BF704748BF20F8022B11F0804F18BFEC
:1003A00000F8012B704770477047704770B5064CD6
:1003B0007C44064D7D4403E0206820448047241D92
:1003C000AC42F9D170BD00000CBB000030BB000096
:1003D00053EA020C00F069802DE9F04B4FF0000663
:1003E000002B1FBFB3FA83F503FA05F424FA05F6D0
:1003F0005E4012BF1643B2FA82F502FA05F4C5F167
:1004000020051EBF22FA05FC44EA0C04203556EAFA
:10041000044C4FEA144418BF641C4FF000084FF01E
:100420000009904271EB030C39D3002919BFB1FACE
:1004300081F701FA07F6B0FA80F700FA07F6C7F17C
:1004400020071EBF20FA07FC46EA0C062037B6FB41
:10045000F4FCA7EB0507103F07F01F0BCBF12006BC
:100460000CFA0BFB2CFA06F644BFB3460026202FED
:10047000A4BF5E464FF0000B5BEA060C08BF4FF0CE
:10048000010B19EB0B09ABFB027C48EB0608C01B08
:1004900006FB02CC0BFB03CC71EB0C01C1E70B4656
:1004A000024641464846BDE8F08B13B54FF00000C8
:1004B0004FF00001AFF30080BDE81C40704710B55D
:1004C00000F008F8006810BD10B5044600F002F80E
:1004D000046010BD00487047B41500200048704704
:1004E000B41500207546FFF7F9FFAE4605006946D2
:1004F000534620F00700854618B020B5FFF7C4FE2C
:10050000BDE820404FF000064FF000074FF0000814
:100510004FF0000B21F00701AC46ACE8C009ACE895
:10052000C009ACE8C009ACE8C0098D467047044674
:10053000AFF300802046FFF792FE0000014918202B
:10054000ABBEFEE726000200704721B1826842F090
:100550000102826003E0826822F00102826070473B
:100560000021084A1168084A1140D0E900231A43C3
:1005700083681A43C3681A431143044AC2F8041338
:100580007047000004230140E030FCFF00200140E0
:1005900021B1826842F48072826003E0826822F4B2
:1005A00080728260704721B1826842F4007282607A
:1005B00003E0826822F400728260704730B5024620
:1005C000002000235068104C20400D790C6844EA4C
:1005D00005242043506090680C4C2040D1E903541E
:1005E0002C438D682C434D7944EA450420439060A8
:1005F000D06A20F470000C7D641EE4B2234340EA0C
:100600000350D06230BD0000FFFEFFFCFDF7FFC0CD
:10061000F0B504460D4600200021092D11DDE068EB
:10062000A5F10A0606EB4607072606FA07F18843F6
:10063000A5F10A0606EB460603FA06F10843E06058
:100640000CE0206905EB4507072606FA07F1884309
:1006500005EB450603FA06F108432061072A0FDA85
:10066000606B561E06EB86071F2606FA07F18843C5
:10067000561E06EB860605FA06F10843606322E083
:100680000D2A0FDA206BD61F06EB86071F2606FA07
:1006900007F18843D61F06EB860605FA06F10843E4
:1006A000206310E0E06AA2F10D0606EB86071F2624
:1006B00006FA07F18843A2F10D0606EB860605FA55
:1006C00006F10843E062F0BD816841F0804181603D
:1006D000704700BFFEE721B1026842F001020260EC
:1006E00003E0026822F001020260704710B50022A8
:1006F0000268134B1A40CC680B6823434C692343B0
:100700008C692343CC6923430C6A23434C6A2343FB
:100710008C6A23434C6B23438C6B23431A43026044
:10072000426922F00702D1E90B3423431A434261A4
:100730000B6943604B6883608B68C36010BD000029
:100740003F801CF0704700000149086070470000BE
:100750000C3C024070B504460A460026092502B941
:1007600009E0012A01D1160205E0022A01D1160290
:1007700001E04FF4407600F09FF80546092D28D19E
:100780001548006820F44070134908600846006866
:10079000304308600846006820F0F800086008460A
:1007A000006844F0020108430B49086008460068ED
:1007B00040F48030086000F07FF805460648006885
:1007C00020F00200044908600846006820F0F800A4
:1007D0000860284670BD0000103C02400920134903
:1007E000096801F48031B1F5803F01D101201CE09E
:1007F0000E49096801F0100109B1062015E00B4906
:10080000096801F4807109B102200EE00749096806
:1008100001F0E00109B1072007E00449096801F08F
:10082000020109B1082000E0092070470C3C024099
:100830000348006840F0004001490860704700002C
:10084000103C024030B502460C46092500F034F851
:100850000546092D19D10E48006820F440700C4956
:1008600008600846006840F40070086008460068A8
:1008700040F001000860146000F01EF805460448CE
:10088000006820F0010002490860284630BD0000E1
:10089000103C02400548006800F0004028B10448C0
:1008A00002490C390860034808607047103C024058
:1008B00023016745AB89EFCD08B509200090FFF70C
:1008C0008DFF009002E0FFF789FF00909DF8000087
:1008D0000128F8D09DF8000008BDF0B50A460021B7
:1008E0000023002400BF3DE0012505FA01F315684F
:1008F00005EA03049C4234D105684F000326BE403C
:10090000B543056015794E00B5400668354305606E
:100910001579012D02D01579022D16D185684F0069
:100920000326BE40B543856055794E00B5408668C4
:1009300035438560456801268E40B543456045686E
:1009400096798E40B6B235434560C5684F000326A0
:10095000BE40B543C560D5794E00B540C668354345
:10096000C560491C1029BFD3F0BDF0B50023002499
:100970004D07ED0E02FA05F3CE1000F1200555F8F3
:1009800026504E07F70E0F26BE40B543CF1000F19C
:10099000200646F82750CE1000F1200555F82650C5
:1009A00045EA0304CE1000F1200545F82640F0BDCD
:1009B000418370470183704700BFFEE700BFFEE739
:1009C0007047000070B5002100230F22C4781CB3CB
:1009D000174C246804F4E064C4F5E064C4F3072110
:1009E000C1F10404E3B20A4144789C40E1B2847846
:1009F000144021430C07210E0E4C057861550478F4
:100A000004F01F050124AC4005786D11AD0005F11F
:100A1000E025C5F8004109E0047804F01F05012431
:100A2000AC40054D0678761145F8264070BD0000B3
:100A30000CED00E000E400E080E100E00249014349
:100A4000024A1160704700000000FA050CED00E05A
:100A50007047000029B1064A12680243044B1A602D
:100A600004E0034A12688243014B1A607047000099
:100A70003038024029B1064A12680243044B1A601A
:100A800004E0034A12688243014B1A607047000079
:100A90004038024029B1064A12680243044B1A60EA
:100AA00004E0034A12688243014B1A607047000059
:100AB0002038024029B1064A12680243044B1A60EA
:100AC00004E0034A12688243014B1A607047000039
:100AD0004438024029B1064A12680243044B1A60A6
:100AE00004E0034A12688243014B1A607047000019
:100AF00024380240F0B500210022002402250026FF
:100B00000223324F3F6807F00C0121B1042905D0C0
:100B1000082937D105E02E4F076036E02C4F0760DB
:100B200033E02A4F3F1F3F68C7F38056274F3F1FD0
:100B30003F6807F03F036EB1254FB7FBF3F7DFF8CF
:100B40008CC0ACF1040CDCF800C0CCF3881C07FBB3
:100B50000CF40CE01E4FB7FBF3F7DFF870C0ACF1FC
:100B6000040CDCF800C0CCF3881C07FB0CF4174F16
:100B70003F1F3F68C7F301477F1C7D00B4FBF5F7BB
:100B8000076002E0124F076000BF00BF0F4F3F68D1
:100B900007F0F00109090F4F7A5C0768D7404760FA
:100BA0000A4F3F6807F4E051890A0A4F7A5C4768A8
:100BB000D7408760054F3F6807F46041490B054FF8
:100BC0007A5C4768D740C760F0BD00000838024033
:100BD0000024F400600B0020704700000448036804
:100BE00040685A1C40F1000001490A6048607047A3
:100BF000600A002010B51548006840F470001349E1
:100C000008601348006840F00100114908600020A6
:100C10000F49083108600E4800680E4908400C4929
:100C200008600D48091D0860081F006820F4802036
:100C3000091F0860002006490C31086001F0B2F875
:100C40004FF0006001498039086010BD88ED00E078
:100C500000380240FFFFF6FE1030002410B50221DC
:100C60007C4800F0A7FA012839D10221794800F028
:100C7000BDF97948006800F04000402810D175485F
:100C800000F08CFA7549088072482030008840F0E6
:100C900002007049203108800020714908801EE060
:100CA0006C4800F07BFA84B26C480088844205DD11
:100CB0006A480088201A6B49888007E04FF6FF7069
:100CC000204466490988401A664988806148203076
:100CD000008820F002005F492031088000BF042115
:100CE0005C4800F067FA012836D10421594800F029
:100CF0007DF95948006800F0800080280DD15548E2
:100D000000F04FFA5849088052482030008840F0DF
:100D100020005049203108801EE04E4800F041FA82
:100D200084B251480088844205DD4F480088201A6B
:100D30004C49C88007E04FF6FF7020444A490988B3
:100D4000401A4849C88043482030008820F02000DD
:100D500040492031088000BF08213E4800F02AFAAF
:100D6000012837D108213B4800F040F93A48006893
:100D700000F48070B0F5807F0DD1364800F014FA91
:100D80003A49088033482030008840F400703149E7
:100D9000203108801EE02F4800F006FA84B2334864
:100DA0000088844205DD31480088201A2D490881D9
:100DB00007E04FF6FF7020442C490988401A294962
:100DC000088124482030008820F400702149203117
:100DD000088000BF10211F4800F0ECF9012837D12E
:100DE00010211C4800F002F91B48006800F4007054
:100DF000B0F5007F0DD1174800F0D9F91C490880E3
:100E000014482030008840F40050124920310880F6
:100E10001EE0104800F0CBF984B2154800888442E7
:100E200005DD13480088201A0E49488107E04FF677
:100E3000FF7020440E490988401A0A494881054834
:100E40002030008820F4005002492031088000BF83
:100E500010BD00000008004010040240C80A002035
:100E6000B00A002094100020CA0A0020CC0A0020FA
:100E7000CE0A002010B50121104800F09BF901288E
:100E800016D10F48007810B101280FD106E005F007
:100E9000A7FA012801D10A49087008E005F01CFAF8
:100EA000012802D102200649087000E000BF00BFFF
:100EB0000121024800F09AF810BD0000000C00402B
:100EC000340A002010B508213D4800F073F90128CC
:100ED00037D108213A4800F089F83A48006800F410
:100EE0008070B0F5807F0DD1354800F05DF936494E
:100EF000088033482030008840F4007030492031A9
:100F000008801EE02E4800F04FF984B22E48008879
:100F1000844205DD2C480088201A2C49088007E00F
:100F20004FF6FF70204428490988401A2749088055
:100F300023482030008820F40070214920310880A7
:100F400000BF10211E4800F035F9012837D11021CB
:100F50001B4800F04BF81B48006800F40070B0F527
:100F6000007F0DD1164800F022F919490880144875
:100F70002030008840F400501149203108801EE0E4
:100F80000F4800F014F984B211480088844205DD4E
:100F90000F480088201A0D49488007E04FF6FF707F
:100FA00020440B490988401A0849488004482030E9
:100FB000008820F4005002492031088000BF10BD95
:100FC0000004014010080240D00A002094100020C4
:100FD000D20A002021B1028842F08002028004E09F
:100FE00002884FF67F731A4002807047CA4302821C
:100FF000704721B1028842F00102028004E00288B9
:101000004FF6FE731A4002807047000010B5044688
:101010005548844208D101210846FFF75BFD0021B5
:101020000120FFF757FD9DE0B4F1804F08D1012169
:101030000846FFF72FFD00210120FFF72BFD91E06F
:101040004A48844208D101210220FFF723FD0021F4
:101050000220FFF71FFD85E04548844208D10121A9
:101060000420FFF717FD00210420FFF713FD79E0AE
:101070004048844208D101210820FFF70BFD0021E0
:101080000820FFF707FD6DE03B48844208D10121AD
:101090001020FFF7FFFC00211020FFF7FBFC61E0B0
:1010A0003648844208D101212020FFF7F3FC0021BB
:1010B0002020FFF7EFFC55E03148844208D10121A0
:1010C0000220FFF707FD00210220FFF703FD49E0A2
:1010D0002C48844209D101210804FFF7FBFC0021C0
:1010E0004FF48030FFF7F6FC3CE02748844209D1FA
:1010F00001214804FFF7EEFC00214FF40030FFF718
:10110000E9FC2FE02148844209D101218804FFF73E
:10111000E1FC00214FF48020FFF7DCFC22E01C48BA
:10112000844208D101214020FFF7B4FC0021402077
:10113000FFF7B0FC16E01748844208D10121802057
:10114000FFF7A8FC00218020FFF7A4FC0AE012486A
:10115000844207D101218015FFF79CFC0021A015D6
:10116000FFF798FC10BD00000000014000040040A3
:1011700000080040000C0040001000400014004037
:10118000000401400040014000440140004801408B
:1011900000180040001C0040002000400146486B41
:1011A00070470146886B70470146C86B704701461F
:1011B000086C704730B50246002000230024158AD1
:1011C00005EA0103958905EA010413B10CB1012078
:1011D00000E0002030BD70B505460C46208850B9AF
:1011E0002389A2886188284600F08CFCE188284683
:1011F00000F085F925E0208804280AD12389A288F7
:101200006188284600F09BFCE188284600F080F9C0
:1012100017E0208808280AD12389A28861882846F7
:1012200000F0B5FCE188284600F07FF909E0238949
:10123000A2886188284600F0CEFCE188284600F0AC
:101240007DF970BD1AB183890B43838102E08389E4
:101250008B4383817047000070B500240022002377
:10126000058C4FF6FE7635400584028C8388048B0E
:101270004FF68F752C40B51E2C400D882C43751EE3
:101280002A408D892A434D882A43104DA84202D016
:101290000F4DA84213D14FF6F7752A40CD892A4346
:1012A0004FF6FB752A408D882A434FF6FF652B4089
:1012B0004FF6FF552B400D8A2B434D8A2B438380DD
:1012C00004838D684563028470BD00000000014006
:1012D000000401400A460021018B4FF6F7731940C4
:1012E000114301837047000070B5002400220023E1
:1012F000058C4FF6EF7635400584028C8388048B8D
:1013000048F6FF752C404FF6FF452C400D884FF6F0
:10131000FF7606EA05252C434FF6DF752A408D89B6
:1013200006EA05152A434D8806EA05152A43154D98
:10133000A84202D0144DA8421DD14FF67F752A4015
:10134000CD894FF6FF7606EA05152A434FF6BF759D
:101350002A408D8806EA05152A434FF6FF352B40B3
:101360004FF2FF752B400D8A06EA85052B434D8A07
:1013700006EA85052B43838004838D688563028498
:1013800070BD000000000140000401400A46002139
:10139000018B4FF2FF7319404FF6FF7303EA0223EC
:1013A000194301837047000070B500240022002318
:1013B000058C4FF6FF6635400584028C8388848B4C
:1013C0004FF68F752C404FF6FC752C400D882C4342
:1013D0004FF6FF552A408D894FF6FF7606EA052520
:1013E0002A434D8806EA05252A43154DA84202D016
:1013F000144DA8421DD14FF2FF752A40CD894FF6FA
:10140000FF7606EA05252A434FF6FF352A408D88E8
:1014100006EA05252A434EF6FF752B404DF6FF756B
:101420002B400D8A06EA05152B434D8A06EA051561
:101430002B43838084838D68C563028470BD000064
:1014400000000140000401400A460021818B4FF654
:10145000F7731940114381837047000070B5002273
:1014600000230024058C4EF6FF7635400584038C5E
:101470008488828B48F6FF752A404FF6FF452A4044
:101480000D884FF6FF7606EA05252A434DF6FF75CF
:101490002B408D8906EA05352B434D8806EA053534
:1014A0002B430A4DA84202D0094DA84208D14BF661
:1014B000FF752C400D8A4FF6FF7606EA85152C4302
:1014C000848082838D680564038470BD00000140C0
:1014D000000401400A460021818B4FF2FF7319403E
:1014E0004FF6FF7303EA0223194381837047416378
:1014F000704781637047C163704701647047028B16
:101500004FF6F3731A400283028B0A43028370473B
:10151000028B4FF2FF331A400283028B4FF6FF73A8
:1015200003EA01231A4302837047828B4FF6F37359
:101530001A408283828B0A4382837047828B4FF2E8
:10154000FF331A408283828B4FF6FF7303EA012335
:101550001A4382837047000000220288184B984289
:101560000ED0184B98420BD0B0F1804F08D0164BDC
:10157000984205D0154B984202D0154B984204D1A1
:101580004FF68F731A404B881A43124B984207D07C
:10159000114B984204D04FF6FF431A400B891A436F
:1015A00002804B68C3620B880385054B984202D0CA
:1015B000044B984201D18B7A0386012383827047C2
:1015C0000000014000040140000400400008004009
:1015D000000C0040001000400014004008B540F22C
:1015E0002771174800F0F8F890B11648164982683C
:1015F00068469047012805D19DF80010104800F07A
:10160000AAF905E0002240F227710D4800F00EF91A
:1016100040F225510A4800F0DFF878B1084800F0A0
:1016200095F9C0B2009040F22551054800F0ACF8A1
:101630000448064942689DF80000904708BD000034
:10164000004C00401C0B0020E0120020EC12002097
:1016500008B540F22771174800F0BEF890B116485F
:101660001649826868469047012805D19DF8001008
:10167000104800F070F905E0002240F227710D4893
:1016800000F0D4F840F225510A4800F0A5F878B1EE
:10169000084800F05BF9C0B2009040F225510548BF
:1016A00000F072F80448064942689DF8000090472F
:1016B00008BD0000001001401C0B0020F8140020A1
:1016C0000415002010B50821274800F078F810B163
:1016D000254800F03BF92021234800F070F801284C
:1016E00040D1214800F032F9C4B22049486880470F
:1016F0001F490968401A022810D900201D490870A6
:101700001D480078012803D100201B49087002E021
:1017100001201949087001201849087016480078FE
:10172000012808D1134801780078401C114A107034
:101730001348445407E00F4801780078401C0D4AD4
:1017400010701048445409494868804708490860A7
:1017500008480078192804D106480078401E054939
:10176000087000BF10BD000000440040680A00205F
:10177000440B0020480B0020290B0020280B0020E0
:10178000101500202915002010B50022002340F676
:101790006A14A14200D100BF0A1201249440A3B2EE
:1017A000DC43048010BD21B1828942F40052828161
:1017B00004E082894DF6FF731A4082817047024629
:1017C0000020B1F5007F00D100BF13880B400BB1A2
:1017D000012000E00020704770B50246002400237D
:1017E0000025002040F66A16B14200D100BFC1F3C7
:1017F000421501F01F03012606FA03F3012D02D161
:101800009689334006E0022D02D1168A334001E06A
:10181000968A33400C12012606FA04F416883440E6
:1018200013B10CB1012000E0002070BDF0B50346FB
:10183000002400260025002040F66A17B94200D196
:1018400000BF1846C1F3421401F01F06012707FA32
:1018500006F5012C01D10C3004E0022C01D110302E
:1018600000E014301AB107682F43076002E00768F0
:10187000AF430760F0BD00002DE9FF4705460E4667
:101880000024A14600BFA046B08900B100BF2C8A49
:1018900024F44054F08804432C82AC8941F20C605B
:1018A0008443B08831890843718908430443AC817B
:1018B000AC8A24F44074B0890443AC826846FFF7D4
:1018C00019F92048854202D01F48854202D1DDF82F
:1018D0000C9001E0DDF80890A88900F4004040B1C8
:1018E00009EBC90000EB091031684900B0FBF1F7C2
:1018F00007E009EBC90000EB091031688900B0FB73
:10190000F1F76420B7FBF0F004012009642101FB2A
:101910001078A88900F4004040B1322000EBC800E4
:10192000B0FBF1F000F00700044308E0322000EBC8
:1019300008106421B0FBF1F000F00F0004432C818B
:10194000BDE8FF870010014000140140014688886F
:10195000C0F308007047C1F308028280704700BFDF
:10196000FEE70000DFED0C0AB0EE600A0B480088CD
:1019700000EE900AF8EE600ADFED091A80EEA11A77
:10198000DFED080A61EE200AB1EE001A60EE810A6E
:101990000548C0ED000A704700000000D40A00208E
:1019A00000F07F4533335340D80A002010B54FF480
:1019B00080510248FEF7FCFF10BD00000008024005
:1019C00010B5044601498868804710BD380A0020D8
:1019D00010B504460748816A204688470649C8680A
:1019E00080470648816820468847044801692046A8
:1019F000884710BD80090020040A00202809002023
:101A000010B504460749C86880470749C868804739
:101A100006484168204688470448C16820468847F0
:101A200010BD0000E80900204C0900202809002012
:101A300010B540F206414FF08040FFF75CFD40F2E8
:101A400006410C48FFF759FD40F206410948FFF7EF
:101A500052FD40F206410748FFF74BFD40F20641B8
:101A60000448FFF744FD40F206414FF08040FFF785
:101A700044FD10BD0004004010B502F037FE02F036
:101A80006BF800F001F810BD10B54FF46170124909
:101A9000086048608860C8600861486101460007C6
:101AA000FFF729FD4FF461710C48FFF726FD4FF455
:101AB00061710A48FFF71FFD4FF461710748FFF796
:101AC00018FD4FF461710548FFF711FD4FF4617186
:101AD0000807FFF712FD10BD7C1000200004004035
:101AE000002100EE901A0549415800EE901AB8EE18
:101AF000E01ADFED031A81EE210A704700000E089C
:101B00000000C842F0B50C46154600210022068CA4
:101B10004FF6FE773E400684018B028C4FF60C7622
:101B200031407E1C06EA03162E4331434FF6F5760C
:101B3000324044F00106324301830284F0BDF0B527
:101B40000C461546002100220026078C4FF6EF7C3C
:101B500007EA0C070784018B028C4FF6FF7707EA30
:101B6000041640F6FF4739404FF6FF7707EA033780
:101B700039434FF6FF7707EA052739434FF65F777A
:101B80003A4046F010073A4301830284F0BDF0B5B5
:101B90000C461546002100220026078C4FF6FF6CEC
:101BA00007EA0C070784818B028C4FF6FF7707EA60
:101BB00004264FF60C7739404FF6FF7707EA0317F4
:101BC0002F4339434FF2FF573A4046F480773A4368
:101BD00081830284F0BDF0B50C4615460021002239
:101BE0000026078C4EF6FF7C07EA0C070784818BE2
:101BF000028C4FF6FF7707EA043640F6FF4739407C
:101C00004FF6FF7707EA052739434FF6FF7707EAD4
:101C10000337394345F6FF773A4046F480573A4355
:101C200081830284F0BD000001490868496870475B
:101C3000600A00202DE9F0472448046845684FF009
:101C4000E0208669002721480168426884EA010093
:101C500085EA020108431CD11D4800230268304672
:101C60003946FEF723FB4FF47A734FF0000CA4FBC8
:101C7000032805FB038304FB0C3C1346181A6CEB8A
:101C800001014FF47A7C10EB0C0041F10001BDE83A
:101C9000F0874FF0E02080690D490968B0FBF1F052
:101CA00000220A4B19685B684FF47A78A1FB089A06
:101CB00003FB08A301FB02311346B9EB000261EB01
:101CC000030112EB080041F10001E0E7600A002087
:101CD000500A00201CB501210420FEF7BBFE0120A4
:101CE0008DF8040000208DF806008DF805008DF8B1
:101CF00007004FF48050009069460448FEF7EDFD60
:101D00004FF480510148FEF753FE1CBD000802400D
:101D100010B504F067F9012010BD000070B506464B
:101D20000C4600250A48C079A04201DA002070BDA7
:101D3000002509E0701907498A680549904708B9E4
:101D40000020F4E7681C85B2A542F3DB0120EEE732
:101D5000EC1200201C0B002070B504460D460B4908
:101D600048688047064604F40050B0F5005F0CD187
:101D700007480068864208D90648006880F4005089
:101D80000449086070190249086070BD680A0020A3
:101D9000940A002014080240704700B500F0C6FC09
:101DA00000BD00000CB50020019000903448006890
:101DB00040F480303249086000BF3148006800F4C8
:101DC000003000900198401C0190009818B90198CB
:101DD000B0F5A04FF1D12A48006800F4003010B1EE
:101DE0000120009001E0002000900098012846D1D9
:101DF00023484030006840F080502149403108605D
:101E00002048006840F440401E4908601C480830E3
:101E100000681B49083108600846006840F400402B
:101E200008600846006840F4A05008601648091F82
:101E30000860081F006840F08070091F086000BF3C
:101E40000F48006800F000700028F9D040F20570DB
:101E50000E4908600A480830006820F0030008496D
:101E6000083108600846006840F00200086000BFC2
:101E700003480830006800F00C000828F8D10CBDB9
:101E8000003802400070004010544007003C0240FF
:101E900000B50246FFF7C8FE034600BFFFF7C4FEC9
:101EA00099188842FAD300BD70B50446FFF7C2FE08
:101EB000054600BFFFF7BEFE2A19801A71F1000126
:101EC000F8DB70BD10B50124FEF7E4FCF320FEF74B
:101ED0003BFC02215820FEF73DFC3B4890ED0C0AEC
:101EE000DFED3A0A20EE200ABDEEC00A10EE101A0D
:101EF0003748FEF7A7FC092800D00024324890EDAF
:101F00000D0ADFED320A20EE200ABDEEC00A10EE07
:101F1000101A2F48001DFEF795FC092800D0002458
:101F2000294890ED0E0ADFED290A20EE200ABDEEC9
:101F3000C00A10EE101A26480830FEF783FC092864
:101F400000D00024204890ED0F0ADFED200A20EE9B
:101F5000200ABDEEC00A10EE101A1D480C30FEF724
:101F600071FC092800D00024174890ED100ADFED1D
:101F7000170A20EE200ABDEEC00A10EE101A14480F
:101F80001030FEF75FFC092800D000240E4890EDC9
:101F9000110ADFED0E0A20EE200ABDEEC00A10EE97
:101FA000101A0B481430FEF74DFC092800D000240D
:101FB000642107481830FEF745FC092800D00024AA
:101FC000FEF736FC204610BD240F00200000C8425A
:101FD00000000E0810B58AB0044601210846FEF73D
:101FE00039FD01211020FEF765FD072209212F4848
:101FF000FEF7BBFC07220A212C48FEF7B6FC0220A4
:102000008DF824008DF8250000208DF82600012091
:102010008DF827004002089008A92448FEF75DFCCF
:102020004FF48060089008A92048FEF756FC252050
:102030008DF80C0000208DF80D0001208DF80E00A9
:102040008DF80F0003A8FEF7BDFC04940020ADF846
:102050001400ADF81600ADF81800ADF81C000C2007
:10206000ADF81A0004A91248FFF706FC1148124AFD
:10207000FF2103686846984710489DE80E000EC08F
:102080000C480F4AFF210368684698470D489DE8B1
:102090000E000EC0012240F225510548FFF7C6FB95
:1020A00001210348FFF77FFB0AB010BD000002408A
:1020B000001001401C0B0020F8120020F814002032
:1020C000F71300200415002070B506460C460025C5
:1020D0000F4800790E49C979401AA04201DA002060
:1020E00070BD002509E0705D0A494A6808499047BB
:1020F00008B90020F4E7681C85B2A542F3DB012291
:1021000040F227710448FFF791FB0120E8E7000047
:10211000F81400201C0B00200010014000B58FB007
:1021200001218805FEF796FC012004900020009014
:1021300003900B901048029000200D904FF4005037
:102140000890C0100690801009900C480190002063
:102150000E904FF400600790002005904FF400307F
:102160000A9069460648FEF7C1FA01210448FEF7C5
:10217000B2FA0FB000BD0000D40A00204C2001408C
:102180001064024010B50D4805F0D6FE7C230022F5
:102190003C210A4805F08AFE202301223C21074801
:1021A00005F084FE802302223C21044805F07EFED7
:1021B0000348C1680A20884710BD0000840F002032
:1021C000680A002010B51C4805F0B6FE1B48C1681F
:1021D0003220884780236B22D021174805F066FE05
:1021E0001648C1680520884700231922D0211248CB
:1021F00005F05CFE00236B22D0210F4805F056FE4F
:1022000000233722D0210C4805F050FE06231A2265
:10221000D021094805F04AFE18231B22D021064888
:1022200005F044FE10231C22D021034805F03EFE99
:1022300002F060FF10BD0000A00E0020680A002020
:1022400010B50C4805F0DBFE08B9002010BDEE21EA
:10225000084805F04FFF074805F0FCFE1E21054821
:1022600005F048FF034805F0F5FE024805F089FE39
:102270000120EBE70010002010B52DED048B86B097
:102280000446012C7BD1B849096801F5617008F05A
:10229000FEFA41EC190BB5499FEDB52B9FEDB61B2E
:1022A000B0EE490AF0EE690A08688047B0EE408A4D
:1022B000F0EE608A51EC180B08F08CFA0090AA49F5
:1022C000496801F5617008F0E2FA41EC190BA74981
:1022D0009FEDA72B9FEDA81BB0EE490AF0EE690A0F
:1022E00008688047B0EE408AF0EE608A51EC180B27
:1022F00008F070FA01909C49896801F5617008F056
:10230000C6FA41EC190B99499FED992B9FED9A1B49
:10231000B0EE490AF0EE690A08688047B0EE408ADC
:10232000F0EE608A51EC180B08F054FA02908E49D6
:10233000C96801F5617008F0AAFA41EC190B8B49E4
:102340009FED8B2B9FED8C1BB0EE490AF0EE690AD6
:1023500008688047B0EE408AF0EE608A51EC180BB6
:1023600008F038FA03908049096901F5617008F0B6
:102370008EFA41EC190B7D499FED7D2B00E02DE09D
:102380009FED7D1BB0EE490AF0EE690A08688047B0
:10239000B0EE408AF0EE608A51EC180B08F01AFAA1
:1023A00004907149496901F5617008F070FA41ECD7
:1023B000190B6E499FED6E2B9FED6F1BB0EE490A16
:1023C000F0EE690A08688047B0EE408AF0EE608A55
:1023D00051EC180B08F0FEF90590A7E06249096876
:1023E00001F5617008F053FA41EC190B5F499FED5C
:1023F000642B9FED611BB0EE490AF0EE690A086894
:102400008047B0EE408AF0EE608A51EC180B08F07D
:10241000E1F900905449496801F5617008F037FA14
:1024200041EC190B51499FED562B9FED531BB0EE1C
:10243000490AF0EE690A08688047B0EE408AF0EE7B
:10244000608A51EC180B08F0C5F90190464989687B
:1024500001F5617008F01BFA41EC190B43499FED3F
:10246000482B9FED451BB0EE490AF0EE690A08685B
:102470008047B0EE408AF0EE608A51EC180B08F00D
:10248000A9F902903849C96801F5617008F0FFF9AF
:1024900041EC190B35499FED3A2B9FED371BB0EE00
:1024A000490AF0EE690A08688047B0EE408AF0EE0B
:1024B000608A51EC180B08F08DF903902A490969DC
:1024C00001F5617008F0E3F941EC190B27499FED24
:1024D0002C2B9FED291BB0EE490AF0EE690A086823
:1024E0008047B0EE408AF0EE608A51EC180B08F09D
:1024F00071F904901C49496901F5617008F0C7F948
:1025000041EC190B19499FED1E2B9FED1B1BB0EEE3
:10251000490AF0EE690A08688047B0EE408AF0EE9A
:10252000608A51EC180B08F055F905904FF0804087
:102530000099FEF7E0FF14480199FEF7DEFF12480C
:102540000299FEF7D8FF10480399FEF7D2FF0E4814
:102550000499FEF7CCFF4FF080400599FEF7CDFFC0
:1025600006B0BDEC048B10BD7C100020D409002007
:1025700000000000001890400000000000B09D40E6
:102580000000000000208C400004004010B52DED3C
:102590000A8B04464A4890F8FC08012805D14948AE
:1025A00005F028FBBDEC0A8B10BD454890F8FF08EC
:1025B000D8BB45490968888808F0D1F941EC1C0B63
:1025C0009FED420B53EC102B08F06AFC41EC1B0B07
:1025D0009FED400B53EC102B08F056FA41EC190B11
:1025E0003748D0F8E80800EE100AB8EEC00ADFED70
:1025F0003B0A20EE200A10EE101A084608F03AFDB9
:1026000041EC1A0B53EC192B07F094FE41EC180B1C
:1026100008F0E0F82A49C1F8E808D1F8E80808F01D
:1026200036F941EC190B2E4900E015E09FED2D2BFA
:102630009FED2E1BB0EE490AF0EE690A086880474C
:10264000B0EE408AF0EE608A51EC180B08F0C2F848
:102650001B49C1F8E808A5E7264890ED080A10EEE6
:10266000101A084608F006FD41EC180B1C499FEDB6
:10267000222B9FED231BB0EE480AF0EE680A086893
:102680008047104880ED020B214605F063F9B0EE5B
:10269000409AF0EE609A12499FED122B9FED131BAA
:1026A00008688047B0EE408AF0EE608A51EC180B63
:1026B00008F090F80249C1F8E80800BF72E700008E
:1026C00028000020E8040020B40A002000000000D8
:1026D00000407F40000000A09999F93FCCCC4C3ECF
:1026E000D409002000000000000000000000800C61
:1026F00000C082408009002000000000000059C096
:10270000000000000000594070B504460D4602F07C
:1027100075FD02F0C5FD02F04FFBB6EE000A02485F
:1027200080ED000A70BD0000AC0A002070B587B0D3
:1027300034480078012862D13348007801280AD152
:10274000002005E03149095C0DF80010411CC8B2B9
:102750001928F7DB09E0002005E02D49095C0DF898
:102760000010411CC8B21928F7DB00202549087069
:1027700000BF39E00024002316E000EB4002254DA5
:1027800005EB820202EB83018A785AB10D786D1C49
:102790001DF805204D78EA408D782A40CD78AA4072
:1027A000144300BF591CCBB2032BE6DBB4F5AF7F5B
:1027B00014D9A4F5AF7100EE101AF8EE400A9FED9F
:1027C000161A9FED160A00EE810ABCEEC00A10EE42
:1027D000101A8AB2124921F8102003E00022104991
:1027E00021F81020411CC8B20C28C3DB9DF818004A
:1027F0009DF8171040EA01200A49088000BF07B081
:1028000070BD0000280B0020290B00202915002096
:102810001015002006B400082FA13D3F00006144C0
:102820005A1500202C0B0020014640F21450814222
:1028300001DA02207047B1F5E16F01DD0020F9E710
:102840000120F7E710B50446204603F00BFF2046B1
:1028500002F01CF8204603F0B1FF10BD70B52DED5D
:10286000048B00BF1C498868804704460D461B49FD
:1028700003C9221A65EB0101104608F083F89FEDA9
:10288000180B53EC102B08F0FFF841EC180B134A0F
:1028900030C2154B5868154B5B6803F11801134B98
:1028A0005B68B0EE485AF0EE685A90ED024AD0EDFF
:1028B000013A90ED003AD1ED022A91ED012AD1EDD5
:1028C000001A93ED0B1AD3ED0A0A93ED090A02F0F0
:1028D00007FDBDEC048B70BD680A0020780900205C
:1028E0008DEDB5A0F7C6B03E040A0020E80900202F
:1028F0000146B5EEC00AF1EE10FA05DBF1EEC00AB2
:10290000C1ED000A00207047DFED030AC1ED000AA7
:102910004FF0FF30F7E70000000000001CB5012178
:102920000846FEF797F803208DF804000420009075
:1029300000208DF8070003208DF805006946024845
:10294000FDF7CBFF1CBD00000000024010B503499D
:102950008868804702498868804710BDE8090020E0
:10296000040A002000B52DED060B2DED068B83B07B
:10297000B0EE618AF0EE428A684605F021FA9FEDDA
:102980002F0A28EE000AB0EE408A9FED2C0A28EEAE
:10299000800AF0EE408AB0EE680A07F051FBB0EE14
:1029A000409AB0EE480A07F04BFBF0EE409AB0EECA
:1029B000680A07F08DFBF0EE40AAB0EE480A07F077
:1029C00087FBB0EE40AA2AEE8A0ADDED0A0A20EE65
:1029D000200ADDED090A09EEA00A69EE0A0A9DED5A
:1029E0000B1A00EE810A8DED000A9DED0A0A20EE19
:1029F000090ADDED0B0A0AEEE00A8DED010A2AEE66
:102A0000A90ADDED0A0A20EE200ADDED090AB1EE81
:102A10004A1A01EE200A69EE290A9DED0B1A00EE12
:102A2000810A8DED020A9DED000ADDED010A9DEDA2
:102A3000021A03B0BDEC068B06B000BD34FA8E3C22
:102A40002DE9F0412DED088B07469FED4D0BB0EEC3
:102A5000408AF0EE608A9FED4A0BB0EE409AF0EEAD
:102A6000609A3D4600240026285D2D2801D1601C77
:102A7000C4B221E00A2C02DC285D2A2805D19FED92
:102A8000400BBDEC088BBDE8F081295DA1F1300061
:102A900007F0FDFE41EC1B0B53EC182B07F04AFC32
:102AA00041EC1A0B9FED380B53EC102B07F0ECFFA9
:102AB00041EC180B601CC4B2285D2E2802D0285DA2
:102AC0002C28D7D19FED320B53EC102B51EC180B67
:102AD00007F0DAFF41EC180B285D2E2801D1601CAD
:102AE000C4B220E0142C02DC285D2A2802D19FED1C
:102AF000240BC6E7295DA1F1300007F0C8FE41ECC8
:102B00001B0B53EC192B07F015FC41EC1A0B9FED36
:102B10001E0B53EC102B07F0B7FF41EC190B701C88
:102B2000C6B2601CC4B2285D2C28DBD1701CC6B2B2
:102B30000BE09FED170B53EC102B51EC190B07F02A
:102B4000A3FF41EC190B701EC6B2002EF1DC2878F1
:102B50002D280CD153EC192B51EC180B07F0EAFB84
:102B600041EC1A0B07F0A8FB41EC100B89E753EC82
:102B7000192B51EC180B07F0DDFB41EC100B80E733
:102B800000000000000000000000000000002440E1
:102B90009A9999999999B93F10B58AB0044601213B
:102BA0000846FDF757FF0121C804FDF763FF08221F
:102BB00000212F48FDF7D9FE082201212C48FDF7FE
:102BC000D4FE02208DF824008DF8250000208DF819
:102BD000260001208DF82700089008A92448FDF759
:102BE0007CFE0220089008A92148FDF776FE3420DB
:102BF0008DF80C0000208DF80D0002208DF80E00DD
:102C000001208DF80F0003A8FDF7DCFE04940020DE
:102C1000ADF81400ADF81600ADF81800ADF81C00C2
:102C20000C20ADF81A0004A91248FEF725FE124840
:102C3000124AFF2103686846984711489DE80E0034
:102C40000EC00D480F4AFF210368684698470E489A
:102C50009DE80E000EC0012240F225510548FEF706
:102C6000E5FD01210348FEF79EFD0AB010BD0000FE
:102C700000000240004C00401C0B0020E01000202F
:102C8000E0120020DF110020EC12002010B50948EE
:102C900005F052F9FFF7D4FA0748C1683220884797
:102CA00002F04AF80448C168C820884700F006F8D6
:102CB00010BD000000100020680A00202DE9F04F30
:102CC0002DED088B85B000208046814604460546E0
:102CD00006460746CF48007810B101280FD106E01C
:102CE00003F07EFB012801D1CA49087008E003F017
:102CF000F3FA012802D10220C649087000E000BFA3
:102D000000BFC4480078022804D005B0BDEC088B91
:102D1000BDE8F08FC04840890102C048D0E90020DA
:102D2000511A60F10000BD4AC2E90010BA4880891A
:102D3000002113460CCBA0FB02CA01FB02A100FB41
:102D40000310410241EADC5000F5FA60C117B44AB1
:102D500003C2B148808801040022AF480089AF4B0C
:102D6000D3E900CBA0FB0C3E02FB0CEC00FB0BCC30
:102D7000D80940EA4C60081842EBEC12A94905C199
:102D8000A54840884FEAC0314FF00002A248C088F1
:102D9000A24BD3E900CBA0FB0C3E02FB0CEC00FBEA
:102DA0000BCC4FEA132040EA0C60081842EB2C22AF
:102DB0009D4905C19A48D0E900304FF4FA61591A8B
:102DC00070F100007EDA9548D0E90010A1FB0123E4
:102DD00000FB013301FB0030D10F41EA40084FEA0C
:102DE000E0798F48D0E900A04FF4FA61BAEB010214
:102DF00060F10001104607F061FD41EC1B0B9FEDF7
:102E00008B1BB0EE4B0AF0EE6B0A06F017FDB0EE2E
:102E100040AAF0EE60AA9FED870B53EC102B51EC0B
:102E20001A0B07F031FE08F0D1F9CDE90201DDE916
:102E300002014D104FEA3004DDE902014FEA900033
:102E400040EA81764FEAA1077548D0E900107B4B34
:102E5000C91A70F1FF303BDA7148D0E900205B42BB
:102E6000D21840F100011046CDE9002107F026FDFF
:102E700041EC1A0B9FED6D1BB0EE4A0AF0EE6A0AA8
:102E800006F0DCFCB0EE409AF0EE609A51EC190BC3
:102E900008F09CF982468B4607210022AAFB010319
:102EA0000BFB01310AFB0211024614194D410B20A4
:102EB00000215246A2FB00CE0BFB00E00AFB010002
:102EC000401000E005E04FEA3C029619474100BF80
:102ED00000BF5348D0E90010B1EB080160EB0900D6
:102EE0004F4AC2E900104F48D0E90010091B60EBBF
:102EF00005004C4AC2E900104B48D0E90010891B7C
:102F000060EB0700484AC2E900104D480068002104
:102F1000D2E9003CA0FB032A01FB03A100FB0C113A
:102F2000500D40EAC12248153E49D1E90031D21A7C
:102F300060EB0101D00B40EA4140C913384AC2E9B5
:102F400002011046D0E902200023D21A984100DA8B
:102F5000DBE63349D1E90221104608F0B9F800EE6A
:102F6000100ADFED380A80EE201AB0EE419ADFED4C
:102F7000360AB0EE490A06F05BF9F7EE000A30EEC9
:102F8000C00ADFED320A20EE200A254880ED040A4F
:102F90002F494868804700EE100AB8EE408A204862
:102FA000D0ED040AB0EE600A2A4803F09BFDF0EE73
:102FB000408A294903C908F08BF800EE100A38EE60
:102FC000400A1748D0ED040A78EEE00A80EE801A35
:102FD00011EE10AA504608F04DF89FED200B53EC6F
:102FE000102B07F051FD07F073F90D4948619FED73
:102FF0001D0A38EEC00A084680ED040A18EE100AD1
:1030000008F046F9144A03C200200249087000BFC4
:103010007BE60000340A002028100020180A002057
:1030200010100020280A0020200A002000000000C4
:1030300000000040000000000000144024FAFFFFE0
:10304000300A002080E6C547AEDC423E002A2D470C
:10305000680A002038100020480A00200000000004
:1030600000408F40000082C210B52DED028B044657
:10307000204607F074FC41EC180B9FED1A0B53EC43
:10308000102B07F0C5FC03D20120BDEC028B10BD54
:10309000204607F064FC41EC180B9FED140B53EC39
:1030A000102B07F0EFFD01D20320EEE7204607F0DA
:1030B00056FC41EC180B9FED0F0B53EC102B07F057
:1030C000A7FC0DD2204607F04AFC41EC180B9FEDFF
:1030D0000B0B53EC102B07F0D5FD01D20220D4E7E7
:1030E0000020D2E70000000000406F400000000018
:1030F000007087400000000000C082400000000017
:103100000000794010B504494868804703480168C9
:103110004FF41650884710BD380A0020F00A0020EE
:1031200010B52DED028B86B0044603A804F048FECE
:10313000684604F045FE684890F8FC08012810D164
:10314000654804F057FD6448983004F053FD634827
:1031500004F050FD6249C868804706B0BDEC028BA0
:1031600010BD6048006890ED000A10EE101A084685
:1031700007F080FF584AC2E902015A48006890ED02
:10318000010A10EE101A084607F074FF524A9832EE
:10319000C2E902015348006890ED020A10EE101ACD
:1031A000084607F067FF4D4AC2E9020121464A4836
:1031B00004F094FAB0EE408AF0EE608A51EC180BFD
:1031C00007F086F8009021464348983004F086FACC
:1031D000B0EE408AF0EE608A51EC180B07F078F8F8
:1031E000019021463D4804F079FAB0EE408AF0EEB5
:1031F000608A51EC180B07F06BF802909DED000A05
:10320000B1EE400ADDED010A30EE600ADDED020AA2
:1032100070EE200A3048D0F8E80800EE100AB8EE48
:10322000C00A30EE800ABDEEC00A2D48006880ED6D
:10323000000A9DED000AB1EE400ADDED010A30EE14
:10324000200ADDED020A70EE600A2348D0F8E80893
:1032500000EE100AB8EEC00A30EE800ABDEEC00AD9
:103260001F48006880ED010A9DED000ADDED010AAE
:1032700030EE200ADDED020A70EE200A1648D0F882
:10328000E80800EE100AB8EEC00A30EE800ABDEE83
:10329000C00A1348006880ED020A9DED000ADDEDCA
:1032A000010A30EE600ADDED020A70EE600A0A489B
:1032B000D0F8E80800EE100AB8EEC00A30EE800A36
:1032C000BDEEC00A0648006880ED030A0448816824
:1032D0000120884700BF40E7280000205801002057
:1032E000980A00204C090020F0B52DED108B8BB012
:1032F00005469FEDFE0B8DED080B05A804F060FD63
:1033000002A804F05DFDFB4890F8FC08012825D1D7
:10331000F94804F06FFCF848983004F06BFCF7486B
:1033200004F068FCF648406890ED020AF54880ED2C
:103330003B0AF3484068D0ED020AB0EE600A03F0A1
:10334000FFF810EE106A304607F094FEE94A02F5E5
:103350003E7203C20BB0BDEC108BF0BDE848406874
:1033600090ED020AE748D0ED3B0A30EE608A9FED0F
:10337000E60AB4EEC08AF1EE10FA06DD9FEDE30A2C
:1033800038EE400AB0EE408A18E09FEDE10AB4EE54
:10339000C08AF1EE10FA06D29FEDDC0A38EE000A80
:1033A000B0EE408A0AE000BFB0EEC80ADFEDD60AF0
:1033B000B4EEE00AF1EE10FA00D200BFD549096878
:1033C000488807F0CCFA41EC1E0B9FEDD30B53EC71
:1033D000102B07F065FD41EC1D0B06F079FF09EE9F
:1033E000100ACF49F2EE040AB0EE490A4868804755
:1033F00010EE106A304607F03DFE41EC1C0B9FEDCD
:10340000C90B53EC102B07F051F841EC1B0B9FED4F
:10341000C70B53EC102B07F037FB41EC1A0B06F0EF
:1034200057FF08EE900AB0EE680A03F089F88DEDB8
:10343000050AB8490968088807F091FA41EC1E0BA3
:103440009FEDB50B53EC102B07F02AFD41EC1D0B43
:1034500006F03EFF09EE100AB149F2EE040AB0EEA2
:10346000490A4868804710EE106A304607F002FEAD
:1034700041EC1C0B9FEDAB0B53EC102B07F016F837
:1034800041EC1B0B9FEDA90B53EC102B07F0FCFA42
:1034900041EC1A0B06F01CFF08EE900AB0EE680A29
:1034A00003F04EF88DED060A9DED061AF0EE410A86
:1034B0009DED051AB0EE410A9949B0EE481AC86868
:1034C00080478DED050ACDED060A8DED071A9DEDBD
:1034D000050ADFED980A20EE200A10EE101A0846C1
:1034E00007F0C8FD41EC190B824890ED721BB0EE5D
:1034F000410AF0EE610A53EC102B9FED8F1B51EC4B
:10350000110B07F0C1FA41EC1A0B53EC192B06F022
:1035100011FF784A02F5E47203C29DED060ADFED61
:10352000850A20EE200A10EE101A084607F0A2FDC8
:1035300041EC190B6F4890ED981BB0EE410AF0EE8C
:10354000610A53EC102B9FED7C1B51EC110B07F023
:103550009BFA41EC1A0B53EC192B06F0EBFE654A73
:1035600002F5187203C266484068D0ED000AB0EE5A
:10357000600A02F0E5FF10EE106A304607F07AFDAF
:103580005D4AC2E902015E484068D0ED010AB0EE32
:10359000600A02F0D5FF10EE106A304607F06AFDAF
:1035A000554A9832C2E902012946534804F096F878
:1035B000B0EE40AAF0EE60AA59499FED612B9FED55
:1035C000621B08688047B0EE409AF0EE609A51ECBA
:1035D000190B06F07DFE029029464748983004F00A
:1035E0007DF8B0EE40AAF0EE60AA4D499FED542B55
:1035F0009FED551B08688047B0EE409AF0EE609A48
:1036000051EC190B06F064FE03909DED020ADFED0C
:10361000490A20EE200A10EE101A084607F02AFD8B
:1036200041EC190B334890ED001BB0EE410AF0EE6F
:10363000610A53EC102B9FED401B51EC110B07F06E
:1036400023FA41EC1A0B53EC192B06F073FE294AAE
:1036500003C29DED030ADFED370A20EE200A10EECB
:10366000101A084607F006FD41EC190B214890EDB1
:10367000261BB0EE410AF0EE610A53EC102B9FEDD1
:103680002E1B51EC110B07F0FFF941EC1A0B53EC18
:10369000192B06F04FFE174A983203C218484068AB
:1036A000D0ED020AB0EE600A02F04AFF10EE106A96
:1036B000304607F0DFFC114AC2E902010D4890EDE7
:1036C000C00B8DED080B90EDC02BB0EE420AF0EE72
:1036D000620A90EDBE2BB0EE421AF0EE621A53EC85
:1036E000102B51EC110B07F0DBFB31E00000000068
:1036F0000000000028000020F0010020200300202E
:103700004C09002028080020000034430000B44386
:10371000000034C3B40A00200000000000407F40D5
:10372000D40900200000000000408F40000000008D
:1037300000003440CDCCCC3D000000C0CCCCEC3FF0
:1037400000000020FB21E9BF00000020FB21E93F31
:1037500041EC190B9FED790B53EC102B07F092FA0B
:1037600012D2784890EDC01BB0EE410AF0EE610A2B
:103770009FED751B53EC112B51EC100B06F0DAFD8D
:10378000734AC2E902012DE06E4890EDC02BB0EE05
:10379000420AF0EE620A90EDBE2BB0EE421AF0EE55
:1037A000621A53EC102B51EC110B07F079FB41EC32
:1037B000190B9FED680B53EC102B07F029F911D270
:1037C000604890EDC01BB0EE410AF0EE610A9FED3B
:1037D0005E1B53EC112B51EC100B07F061FB5C4AA4
:1037E000C2E9020129465A4803F078FFB0EE40AA28
:1037F000F0EE60AA59491FED2E2B1FED2D1B086816
:103800008047B0EE409AF0EE609A51EC190B06F04A
:103810005FFD0490524A1268D088514AD1688847A7
:103820000446022C61D09DED080B464880EDBE0B8E
:103830004B490968C88807F092F841EC1F0B1FED4F
:103840004A0B53EC102B07F053FA41EC1E0B06F019
:103850003FFD08EE900A4149F2EE040AB0EE680A14
:103860004868804710EE107A384607F003FC41ECB8
:103870001D0B1FED540B53EC102B06F017FE41EC03
:103880001C0B1FED560B53EC102B07F0FDF841EC11
:103890001B0B06F01DFD01909DED010A02F050FE8C
:1038A0005FED5C0A20EE200A10EE106A304607F049
:1038B000E1FB41EC190B234890ED4C1BB0EE410AA3
:1038C000F0EE610A53EC102B1FED651B51EC110B50
:1038D00007F0DAF841EC1A0B53EC192B06F02AFD2D
:1038E000184A02F5987203C225E09DED040A5FEDC7
:1038F0006F0A20EE200A10EE101A084607F0BAFBF5
:1039000041EC190B0F4890ED4C1BB0EE410AF0EE64
:10391000610A53EC102B1FED781B51EC110B07F0D3
:10392000B3F841EC1A0B53EC192B06F003FD054AD2
:1039300002F5987203C200BF0CE5000000000060B1
:10394000FB2109402800002000000060FB211940F5
:103950002003002000000060FB2109C0D4090020E2
:10396000B40A002010B586B0734804F048FB3C212F
:10397000714804F0BFFB704804F06CFB03216E48F3
:1039800004F0B8FB6C4804F065FB6B4804F037FBAF
:103990003D21694804F0AEFB674804F05BFB00245E
:1039A00009E0654804F07FFB04A90855624804F06B
:1039B000A8FA601CC4B2052CF3DB5F4804F073FB6B
:1039C0008DF815005C4804F0FFFA5B4804F0D9FA62
:1039D0009DF811009DF8101040EA012000B240420D
:1039E00000EE100AB8EEC00A5448406880ED030AA1
:1039F0009DF813009DF8121040EA012000B24042E9
:103A000000EE100AB8EEC00A4C48406880ED050A86
:103A10009DF815009DF8141040EA012000B200EE58
:103A2000100AB8EEC00A4548406880ED040A4348D1
:103A3000406800F10C014148406800F10C0291ED32
:103A4000021AD1ED010A91ED000A3D48144603F037
:103A5000A8F984ED000AC4ED010A84ED021A01A858
:103A600004F0AEF93548406890ED030A33484068E9
:103A7000D0ED090A30EE600A30484068D0ED060A01
:103A800080EE201A8DED011A2C48406890ED040A52
:103A90002A484068D0ED0A0A30EE600A274840689C
:103AA000D0ED070A80EE201A8DED021A23484068F7
:103AB00090ED050A21484068D0ED0B0A30EE600A0F
:103AC0001E484068D0ED080A80EE201A8DED031ADA
:103AD0009DED010A20EE000ADDED020A9DED021ABD
:103AE00000EE810ADDED030A9DED031A00EE810A66
:103AF0001248406880ED0C0A10484068D0ED0C0A6E
:103B0000B7EE001A30EEC10AF0EEC00A9FED0D0AC2
:103B1000F4EEC00AF1EE10FA08D20020074908704E
:103B20000846406801A90EC90EC002E00120034901
:103B3000087006B010BD0000840F0020040A0020A9
:103B4000900F0020CDCC4C3E10B500F0C9FF01F025
:103B50005DF801F0CBF910BD00B589B00121084630
:103B6000FCF788FF4FF08040FDF750FA4FF4FA6001
:103B7000029053480068400800EE100AB8EE400A70
:103B80009FED501AC0EE010A9FED4F0A80EE801A99
:103B9000BCEEC10A10EE100A401E80B2ADF804005F
:103BA0000020ADF80C00ADF8060001A94FF08040F0
:103BB000FDF7D2FC6020ADF810000120ADF8120036
:103BC0004FF4617006900020ADF81C0004A94FF07E
:103BD0008040FDF7E9FB0821C806FDF735FC04A984
:103BE0004FF08040FDF73AFC0821C806FDF772FC53
:103BF00001218807FDF7EEF901218807FDF7F9F9A2
:103C000001210220FCF736FF3048FDF7FFF94FF4A1
:103C1000FA6002902A480068400800EE100AF8EEA8
:103C2000400A9FED281A80EE810ADFED270A80EE18
:103C3000201ABCEEC10A10EE100A401E80B2ADF888
:103C400004000020ADF80C00ADF8060001A91F48E3
:103C5000FDF782FC6020ADF810000120ADF81200E5
:103C60004FF4617006900020ADF81C0004A91748BD
:103C7000FDF7F2FA08211548FDF72CFB04A91348BB
:103C8000FDF732FB08211148FDF780FB04A90F481E
:103C9000FDF78AFB08210D48FDF7D6FB04A90B4868
:103CA000FDF7DCFB08210948FDF714FC012107485A
:103CB000FDF790F901210548FDF79BF909B000BD1A
:103CC0004C0B00200000FA430000FA4400040040BE
:103CD00010B52DED048B84B0044601A804F070F8F3
:103CE000354890F8FC08012806D1344803F082FFDB
:103CF00004B0BDEC048B10BD2F4890F8FF0818B934
:103D00002E4803F077FFF3E72D4890ED050A10EEFB
:103D1000101A084607F0AEF941EC180B29499FED3F
:103D20002A2B9FED2B1BB0EE480AF0EE680A0868BC
:103D30008047224880ED020B214603F0CFFCB0EE15
:103D4000409AF0EE609A1F499FED232B9FED241BB4
:103D500008688047B0EE408AF0EE608A51EC180B9C
:103D600006F0B6FA03909DED030ADFED1F0A20EE80
:103D7000200A10EE101A084607F07CF941EC180BE7
:103D80001A4890ED301BB0EE410AF0EE610A53EC98
:103D9000102B9FED171B51EC110B06F075FE41EC3B
:103DA000190B53EC182B06F0C5FA034A02F598627A
:103DB00003C200BF9CE7000028000020B0060020DE
:103DC00080090020D409002000000000000044C049
:103DD00000000000000044400000000000004EC051
:103DE0000000000000004E40CDCC4C3F28040020D5
:103DF000000000809999C93F30B52DED0E8B83B03E
:103E00000546684603F0DCFFA24890F8FC0801284C
:103E10001BD1A14803F0EEFE9F4830309F4BD3E901
:103E200000219B68C0E91D130267703090ED020A03
:103E300010EE101A084607F01DF9974A503AC2E9E9
:103E4000140103B0BDEC0E8B30BD924890F8FF0812
:103E500088B9924890ED020A10EE101A084607F051
:103E600009F90A4601468C485038C0E9141250300E
:103E700003F0C0FEE5E78848A03090ED020A10EE9E
:103E8000101A084607F0F6F841EC180B8248A030EB
:103E900090ED020ADFED820A30EE200A10EE101AD1
:103EA000084607F0E7F841EC190B7B49503991EDD2
:103EB000141BB0EE410AF0EE610A7A49B0EE482ACE
:103EC000F0EE682AB0EE491AF0EE691A08688047E9
:103ED0007148503880ED140BF03090ED020A10EE6E
:103EE000101A084607F0C6F841EC180B6A48A030D3
:103EF00090ED020A10EE101A084607F0BBF841ECEC
:103F00001B0B9FED690B53EC102B06F013FA41ECE1
:103F1000190B624890ED020A10EE101A084607F0DD
:103F2000A9F841EC1A0B5F49B0EE482AF0EE682A76
:103F3000B0EE491AF0EE691AB0EE4A0AF0EE6A0ADB
:103F400008688047544880ED020B294603F0C6FB01
:103F5000B0EE409AF0EE609A52499FED552B9FEDDE
:103F6000561B08688047B0EE408AF0EE608A51EC3C
:103F7000180B06F0ADF90290514A12689088504A29
:103F8000D16888470446022C56D0444890ED020A76
:103F900010EE101A084607F06DF83F4A503AC2E991
:103FA000140147490968888806F0D9FC41EC1E0BCA
:103FB0009FED440B53EC102B06F072FF41EC1D0BF0
:103FC0009FED420B53EC102B06F070FA41EC1C0BEA
:103FD0009FED400B53EC102B06F056FD41EC1B0BF4
:103FE0009FED350B53EC102B06F04EFD41EC1A0BF8
:103FF0009FED3A0B53EC102B06F046FD41EC180BED
:10400000384890EDA21BB0EE410AF0EE610A53EC85
:10401000102B9FED351B51EC110B06F035FD41ECDB
:10402000190B53EC182B06F085F90A46014619487E
:1040300000F5D16006C02AE000202D4908709DEDF2
:10404000020ADFED2C0A20EE200A10EE101A0846B4
:1040500007F010F841EC180B224890EDA21BB0EECF
:10406000410AF0EE610A53EC102B9FED1F1B51EC3F
:10407000110B06F009FD41EC190B53EC182B06F05F
:1040800059F90A460146034800F5D16006C000BF51
:10409000D7E60000280000207808002080090020D2
:1040A0000000FA43D409002000000000007087409F
:1040B00000000000000044C0000000000000444078
:1040C000B40A00200000000000407F400000000013
:1040D00000408F400000000000000040000000A0F1
:1040E0009999B93F28040020000000C0CCCCEC3FD7
:1040F00040090020CDCCCC3D10B52DED0A8BB74941
:10410000088806F02CFC41EC180B9FEDB50B53EC26
:10411000102B06F0B7FD26D8B348006806F0AAFFBA
:1041200041EC1A0BAD49088806F019FC41EC1C0B58
:104130009FEDAB0B53EC102B06F0B2FE41EC1B0BCA
:1041400053EC1A2B06F0A0FC41EC190B9FEDA70BCA
:1041500053EC102B06F0EEF841EC180B06F06AFB5E
:10416000A449088002E00020A24908809B494888B1
:1041700006F0F5FB41EC180B9FED990B53EC102B5F
:1041800006F080FD26D89848006806F073FF41ECE1
:104190001A0B9249488806F0E2FB41EC1C0B9FED9C
:1041A000900B53EC102B06F07BFE41EC1B0B53ECF9
:1041B0001A2B06F069FC41EC190B9FED8C0B53ECAC
:1041C000102B06F0B7F841EC180B06F033FB8949C9
:1041D000488002E00020874948808049888806F0AE
:1041E000BEFB41EC180B9FED7E0B53EC102B06F041
:1041F00049FD26D87C48006806F03CFF41EC1A0BCC
:104200007649888806F0ABFB41EC1C0B9FED740BE4
:1042100053EC102B06F044FE41EC1B0B53EC1A2B15
:1042200006F032FC41EC190B9FED700B53EC102B98
:1042300006F080F841EC180B06F0FCFA6D49888016
:1042400002E000206B4988806449C88806F087FB3B
:1042500041EC180B9FED620B53EC102B06F012FD96
:1042600026D86148006806F005FF41EC1A0B5B494F
:10427000C88806F074FB41EC1C0B9FED590B53EC06
:10428000102B06F00DFE41EC1B0B53EC1A2B06F025
:10429000FBFB41EC190B9FED550B53EC102B06F07B
:1042A00049F841EC180B06F0C5FA5249C88002E003
:1042B00000205049C8804949088906F050FB41EC6C
:1042C000180B9FED470B53EC102B06F0DBFC26D8A8
:1042D0004548006806F0CEFE41EC1A0B3F490889BC
:1042E00006F03DFB41EC1C0B9FED3D0B53EC102BFE
:1042F00006F0D6FD41EC1B0B53EC1A2B06F0C4FB69
:1043000041EC190B9FED390B53EC102B06F012F812
:1043100041EC180B06F08EFA3649088102E00020C5
:10432000344908812D49488906F019FB41EC180BE6
:104330009FED2B0B53EC102B06F0A4FC26D82A483B
:10434000006806F097FE41EC1A0B2449488906F0F4
:1043500006FB41EC1C0B9FED220B53EC102B06F0DF
:104360009FFD41EC1B0B53EC1A2B06F08DFB41EC2F
:10437000190B9FED1E0B53EC102B05F0DBFF41ECEE
:10438000180B06F057FA1B49488102E00020194932
:1043900048811848408800EE900AF8EE600AB0EEB6
:1043A000600A154802F052FDBCEEC00A10EE100A79
:1043B00010494880114800880A2803DD0020104970
:1043C000087407E00D480088401C0C490880012053
:1043D0000B490874BDEC0A8B10BD0000941000203E
:1043E0000000000000409F40AC0A002000000000D8
:1043F00000000000A0100020AC100020B00A002037
:10440000B40A002070B506460C4600250A48C0795B
:10441000A04201DA002070BD002509E070190749AB
:104420008A680549904708B90020F4E7681C85B2FE
:10443000A542F3DB0120EEE7041500201C0B002051
:1044400031B52DED040B2DED108B86B005469FED9B
:10445000910AB0EE40FA9FED8F0AF0EE408A9FED90
:104460008D0A8DED040A00248B480088401C8A497F
:104470000880284606F073FA41EC1A0B9FED870B73
:1044800053EC102B06F012F841EC190B05F020FF4D
:1044900008EE100A8348006890ED040A10EE101A26
:1044A000084606F0E7FD41EC1A0B9FED7F0B53EC3D
:1044B000102B06F0E9FA41EC190B05F009FF049006
:1044C0009DED180A10EE101A084606F0D3FD41ECD7
:1044D0001A0B9FED750B53EC102B06F0D5FA41EC3F
:1044E000190B05F0F5FE0FEE900A7148D0ED020AA7
:1044F0009DED040A30EE600AF0EE408A9FED6D0AF1
:1045000068EE800A6C4890ED000A00EE880A80EDA3
:10451000000A9FED6A0A68EE800A694890ED000A79
:1045200000EE880A80ED000A9FED660A68EE800AB8
:10453000654890ED000A00EE880A80ED000A5C48AC
:1045400090ED080A614880ED000A5B4890ED000A92
:104550003FEE800A564880ED080A90ED080A5B4855
:10456000D0ED000A30EE200A20EE080A10EE101AF4
:10457000084606F07FFD41EC1A0B9FED550B53ECFE
:10458000102B05F093FF41EC190B05F0A1FE0FEE87
:10459000100A18EE100A06F06DFD41EC1C0B1FEE20
:1045A000100A06F067FD9FED4C0B53EC102BCDE984
:1045B00000019DED000B51EC100B06F065FA41EC8B
:1045C0001E0B3B4890ED050A10EE101A084606F047
:1045D00051FD53EC1E2BCDE902019DED020B51EC78
:1045E000100B05F0A7FE41EC1D0B53EC1C2B06F045
:1045F0004BFA41EC1A0B3A48006806F03BFD41ECDF
:104600001B0B53EC1A2B05F095FE41EC190B05F032
:104610005FFE33490860084690ED000A2A48D0ED55
:10462000000A30EE200A224880ED020A2D4890ED63
:10463000000A30EE0F0A80ED000A90ED000A2048D3
:10464000D0ED000A30EE200A194880ED050A124824
:104650000088012819DB3C240CE0601E224901EB94
:10466000800090ED000A084600EB840080ED000A0F
:10467000601E84B2002CF0DC0D4890ED020A1A484E
:1046800080ED000A00200449088006B0BDEC108BC4
:1046900005B030BD00000000C4090020000000008B
:1046A00000408F40380A0020000000000000594000
:1046B000800900206F12833DAC0900208FC2F53EB7
:1046C000B0090020CDCC4C3FB4090020B80900202F
:1046D0000000000000000040000000000000E03F7B
:1046E000C0090020BC090020EC0C00201CB50121F1
:1046F0000846FCF7AFF901210220FCF7ABF9C8200E
:10470000009002208DF8040003208DF805000020A1
:104710008DF8060001208DF8070069461A48FCF75D
:10472000DCF8012203211848FCF71FF902220621B8
:104730001548FCF71AF9022207211348FCF715F96E
:1047400040F20340009002208DF8040003208DF811
:10475000050000208DF8060001208DF8070069464D
:104760000A48FCF7BAF8022200210848FCF7FDF8D5
:10477000022201210548FCF7F8F801220A2103482A
:10478000FCF7F3F81CBD00000000024000040240EA
:104790003EB5044668469FED370A80ED000A9FED5E
:1047A000350A80ED010A9FED330A80ED020A00BF51
:1047B000314A526892ED000AB0EE402A2E4A526801
:1047C00092ED010AF0EE401A2C4A526802F11800EC
:1047D0002B4A916890ED021AD0ED010A90ED000A83
:1047E00088478DED000ACDED010A8DED021A9DED91
:1047F000000ADFED240A80EE201A8DED001A9DEDEF
:10480000000ADFED210A20EE200A8DED000A9DED61
:10481000010ADFED1C0A80EE201A8DED011A9DEDD4
:10482000010ADFED190A20EE200A8DED010A9DED47
:10483000020ADFED140A30EE600A8DED020A9DEDEA
:10484000020ADFED100A80EE201A8DED021A9DEDAE
:10485000020ADFED0D0A20EE200A8DED020A9DED21
:10486000021ADDED010A9DED000A2046FFF7E8FD82
:104870003EBD0000000000004C090020E8090020B7
:10488000D409002000F07F45CDCC1C4170B52DED42
:10489000028B044685490968488906F060F841ECB6
:1048A000180B9FED830B53EC102B06F0B1F81BD2C5
:1048B0008148006890F8FF0858B1804800880A28AD
:1048C00007DD00207C49096881F8FF087B490880E2
:1048D00028E07948006890F8FF0818B37748008806
:1048E000401C764908801DE07348006890F8FF0876
:1048F00001280CD0714800880A2808DD01206E4983
:10490000096881F8FF0800206C4908800AE06A48BD
:10491000006890F8FF08012804D068480088401C0F
:10492000664908806448006890F8FC08012843D173
:104930000020634908805D490968888806F00FF8FF
:1049400041EC180B9FED5F0B53EC102B06F060F859
:1049500001D2012500E0002554490968C88805F006
:10496000FEFF41EC180B9FED590B53EC102B06F09A
:1049700089F901D2012000E0002028404E49096851
:1049800091F8FD1809B9012100E00021084078B133
:104990005048008820444F49088008460088B0F5F8
:1049A000FA6F4EDD00204449096881F8FC0848E0B0
:1049B00000204849088044E03F48006890F8FD081E
:1049C000012804D13C49096881F8FC0839E000203D
:1049D0004049088035490968888805F0C0FF41ECE6
:1049E000180B9FED380B53EC102B06F011F801D289
:1049F000012500E000252D490968C88805F0AFFFB2
:104A000041EC180B9FED310B53EC102B06F03AF9EB
:104A100001D2012000E0002005402DB12848008887
:104A200020442749088002E00020254908802448C6
:104A30000088B0F5FA6F04DD01201F49096881F88C
:104A4000FC081D48006890F8FC0860B922480088FE
:104A500040F00100204908802048C82102694FF435
:104A6000005090470CE01C48008820F001001A49D3
:104A700008801A484FF4FA7102694FF400509047C9
:104A80000D48006890F8FD0830B11348008840F0E8
:104A900002001149088005E00F48008820F002005C
:104AA0000D490880BDEC028B70BD0000B40A0020E7
:104AB000000000000000594028090020D209002011
:104AC000CE0900200000000000C06240000000008D
:104AD00000908A40D009002014000020800A0020A5
:104AE0001FB53C22D021464803F0ABF9C0B28DF887
:104AF00008003B22D021424803F0A3F9C0B28DF850
:104B000009009DF808009DF8091040EA012000B254
:104B1000ADF800003E22D021394803F092F9C0B22E
:104B20008DF80A003D22D021354803F08AF9C0B241
:104B30008DF80B009DF80A009DF80B1040EA01204B
:104B400000B2ADF802004022D0212D4803F079F9DF
:104B5000C0B28DF80C003F22D021294803F071F932
:104B6000C0B28DF80D009DF80C009DF80D1040EAC4
:104B7000012000B2ADF80400BDF9000000EE100AFB
:104B8000B8EEC00A1F4880ED000ABDF9020000EE31
:104B9000100AB8EEC00A1B4880ED010ABDF90400F6
:104BA00000EE100AB8EEC00A164880ED020A90ED39
:104BB000000AD0ED0C0A30EE600A80ED060A90ED96
:104BC000010AD0ED0D0A30EE600A80ED070A90ED83
:104BD000020AD0ED0E0A30EE600A80ED080A90ED70
:104BE000081AD0ED070A90ED060A074801F0F4FE16
:104BF000044880ED060AC0ED070A80ED081A1FBDC3
:104C0000A00E0020240F0020AC0E00201FB544226F
:104C1000D021464803F015F9C0B28DF808004322B0
:104C2000D021424803F00DF9C0B28DF809009DF87B
:104C300008009DF8091040EA012000B2ADF800001C
:104C40004622D021394803F0FCF8C0B28DF80A00A2
:104C50004522D021354803F0F4F8C0B28DF80B009E
:104C60009DF80A009DF80B1040EA012000B2ADF853
:104C700002004822D0212D4803F0E3F8C0B28DF89D
:104C80000C004722D021294803F0DBF8C0B28DF890
:104C90000D009DF80C009DF80D1040EA012000B2B7
:104CA000ADF80400BDF9000000EE100AB8EEC00A2D
:104CB0001F4880ED030ABDF9020000EE100AB8EEAD
:104CC000C00A1B4880ED040ABDF9040000EE100A7A
:104CD000B8EEC00A164880ED050A90ED030AD0ED43
:104CE0000F0A30EE600A80ED090A90ED040AD0ED5B
:104CF000100A30EE600A80ED0A0A90ED050AD0ED48
:104D0000110A30EE600A80ED0B0A90ED0B1AD0ED1F
:104D10000A0A90ED090A074802F043F8044880EDBA
:104D2000090AC0ED0A0A80ED0B1A1FBDA00E002073
:104D3000240F0020F00E002070B5002435E01C4840
:104D400003F05DF9EE211A4803F0D4F9184803F096
:104D500081F9A02000EB4400C1B2154803F0CAF964
:104D6000134803F077F9124803F049F9EF2110488E
:104D700003F0C0F90E4803F06DF90D4803F093F904
:104D800005460B4803F0BDF8094803F08CF90646C8
:104D9000074803F019F9064803F0F3F846EA05203E
:104DA000044921F81400601CC4B2062CC7DD70BD94
:104DB000001000202810002000B587B00121042039
:104DC000FBF758FE4748FCF721F94FF6FF700290B9
:104DD0002920ADF804000020ADF80C00ADF8060065
:104DE00001A94048FCF7B8FB0020ADF812000120F3
:104DF000ADF814000020ADF81600ADF81800ADF8BD
:104E0000100004A93748FCF7E6F90420ADF81000BB
:104E100004A93448FCF7DFF90820ADF8100004A914
:104E20003048FCF7D8F90C20ADF8100004A92D4843
:104E3000FCF7D1F901212B48FCF7DBF80122022114
:104E40002848FCF7FFF9012204212648FCF7FAF96B
:104E5000012208212348FCF7F5F9012210212148FD
:104E6000FCF7F0F901210220FBF724FE1E48FCF7B5
:104E7000CDF84FF6FF7002905320ADF804000020EB
:104E8000ADF80C00ADF8060001A91748FCF764FB6B
:104E90000020ADF812000120ADF814000020ADF89C
:104EA0001600ADF818000820ADF8100004A90E484F
:104EB000FCF791F90C20ADF8100004A90A48FCF7A2
:104EC0008AF901210848FCF794F8012208210648D4
:104ED000FCF7B8F9012210210348FCF7B3F907B039
:104EE00000BD0000000800400004014010B57748F4
:104EF000007800F0010048B9744803F0AAF928B11D
:104F0000734802F05DFF7148AFF30080714800788C
:104F100000F0010048B96F4803F09BF928B16E48D2
:104F200002F04EFF6B48AFF300806C480078012818
:104F300068D16B480068E0B99FED6A0A6A4880ED65
:104F40000C0A9FED680A80ED0D0A9FED660A80ED60
:104F50000E0A9FED640A80ED0F0A9FED620A80ED54
:104F6000100A9FED600A80ED110A01205C4908607B
:104F700010BD5B48006840F6B831884243DC5848B1
:104F80000068401C56490860514890ED000A564898
:104F9000D0ED000A30EE200A4D4880ED000A90ED79
:104FA000010A5148D0ED010A30EE200A484880ED50
:104FB000010A90ED020A4C48D0ED020A30EE200AB8
:104FC000434880ED020A444890ED000A4648D0ED7F
:104FD000030A30EE200A404880ED000A90ED010AF5
:104FE0004148D0ED040A30EE200A3B4880ED010A2A
:104FF00090ED020A3C48D0ED050A30EE200A364812
:1050000080ED020A60E000203549086033490870ED
:105010002F4890ED000ADFED350A80EE201A324865
:1050200080ED0C1A2A4890ED010ADFED300A80EE7F
:10503000201A2D4880ED0D1A254890ED020ADFED6B
:105040002B0A80EE201A9FED2A0A31EE400A2648EC
:1050500080ED0E0A204890ED000ADFED240A80EE74
:10506000201A214880ED0F1A1B4890ED010ADFED50
:105070001F0A80EE201A1C4880ED101A164890ED89
:10508000020ADFED1A0A80EE201A174880ED111A85
:105090009FED140A0E4880ED000A9FED120A80ED84
:1050A000010A9FED100A80ED020A9FED0E0A0A48E0
:1050B00080ED000A9FED0B0A80ED010A9FED090AC1
:1050C00080ED020A00F052F800BF51E7FC09002011
:1050D0006C0F0020F8090020780F0020E80900205C
:1050E000000A002000000000240F002000803B4543
:1050F00000F07F4500B51820FCF7F2FCBCEEC00ABA
:1051000010EE100A1749487008464078012824D14B
:105110000020FCF7E5FC144880ED0C0A0420FCF7A5
:10512000DFFC114880ED0D0A0820FCF7D9FC0E4881
:1051300080ED0E0A0C20FCF7D3FC0B4880ED0F0A23
:105140001020FCF7CDFC084880ED100A1420FCF775
:10515000C7FC054880ED110A02E0012001490870F2
:1051600000BD0000E8090020240F002010B5FCF766
:10517000A9FE10B902200149887010BDE80900207D
:1051800070B51D4802F03BFFEE211B4802F0B2FF54
:10519000194802F05FFF0021174802F0ABFF1648E4
:1051A00002F058FF144802F0ECFE134802F027FF0B
:1051B000EF21114802F09EFF0F4802F04BFF0E480E
:1051C00002F071FF04460C4802F09BFE0A4802F010
:1051D0006AFF0546084802F094FE074802F063FFA4
:1051E0000646054802F0F0FE034802F0CAFE20041D
:1051F00000EB0520304470BD001000201CB50121DB
:105200000220FBF727FC01210420FBF723FC4FF4CD
:105210007070009002208DF8040003208DF80500C6
:1052200000208DF806008DF8070069461A48FBF744
:1052300054FB022206211848FBF797FB02220721A4
:105240001548FBF792FB022208211348FBF78DFB60
:10525000022209211048FBF788FB4FF440700090B0
:1052600002208DF8040000208DF8060003208DF840
:10527000050002208DF8070069460848FBF72DFB62
:10528000032208210548FBF770FB0322092103488C
:10529000FBF76BFB1CBD000000040240000802404D
:1052A00008B51E208DF8000000208DF801000120B7
:1052B0008DF802008DF803006846FBF783FB2E2073
:1052C0008DF8000000208DF8010002208DF802000A
:1052D00001208DF803006846FBF774FB08BD000051
:1052E00010B52DED0C0BB8B09FEDFE0B53EC102B51
:1052F0009DED420B51EC100B05F0D8F8CDE93401CF
:1053000019A802F05DFD16A802F05AFD3B98139013
:1053100005F0B0FECDE920013C98139005F0AAFEFF
:10532000CDE91E013D98139005F0A4FECDE91C01C6
:105330009DED380ADFEDED0A20EE200A8DED120A10
:105340009DED120A01F0FCF88DED130A139805F09B
:1053500091FECDE926019DED390ADFEDE40A20EE4C
:10536000200A8DED120A9DED120A01F0E9F88DED8B
:10537000130A139805F07EFECDE924019DED3A0A4B
:10538000DFEDDA0A20EE200A8DED120A9DED120AF9
:1053900001F0D6F88DED130A139805F06BFECDE9F8
:1053A00022019DED260B51EC100B04F091FFD0492A
:1053B000096808609DED240B51EC100B04F088FF88
:1053C000CB49096848609DED220B51EC100B04F0AD
:1053D0007FFFC749096888609DED1C0B53EC102BBB
:1053E0009DED1C0B51EC100B05F04EFBCDE90E01B1
:1053F0009DED1E0B53EC102B9DED1E0B51EC100B75
:1054000005F042FBCDE90A019DED200B53EC102B7A
:105410009DED200B51EC100B05F036FBCDE908019A
:105420009DED0A0B53EC102B9DED080B51EC100B6E
:1054300004F080FFCDE90C019DED0E0B53EC102B19
:105440009DED0C0B51EC100B04F074FFCDE9100135
:105450009DED100B51EC100B04F03AFF139037A8A0
:105460009DED130AFDF744FA9DED370AB5EEC00A2B
:10547000F1EE10FA01D144B010BD379805F0FAFDF5
:10548000CDE912019DED120B53EC102B9DED200B7D
:1054900051EC100B05F00AF8CDE92001379805F022
:1054A000E9FDCDE912019DED120B53EC102B9DEDA2
:1054B0001E0B51EC100B04F0F9FFCDE91E013798DB
:1054C00005F0D8FDCDE912019DED120B53EC102B28
:1054D0009DED1C0B51EC100B04F0E8FFCDE91C0115
:1054E000844890ED010AD0ED030A20EE200AD0EDA9
:1054F000000A90ED021A00EEC10AF0EE000A20EE5A
:10550000200A8DED130A139805F0B4FDCDE93201A0
:10551000784890ED000AD0ED010A20EE200AD0ED87
:10552000020A90ED031A00EE810AF0EE000A20EE66
:10553000200A8DED130A139805F09CFDCDE930018A
:105540006C4890ED010A60EE000A90ED020A90EDC1
:10555000021A40EE010AB7EE000AB0EE001A01EEA0
:10556000600A8DED130A139805F084FDCDE92E0134
:105570009DED300B53EC102B9DED1C0B51EC100BE3
:1055800005F082FACDE912019DED2E0B53EC102BA4
:105590009DED1E0B51EC100B05F076FACDE91001D4
:1055A0009DED120B53EC102B9DED100B51EC100BDD
:1055B00005F076FCCDE92C019DED2E0B53EC102B64
:1055C0009DED200B51EC100B05F05EFACDE91201B8
:1055D0009DED320B53EC102B9DED1C0B51EC100B81
:1055E00005F052FACDE910019DED120B53EC102B92
:1055F0009DED100B51EC100B05F052FCCDE92A018A
:105600009DED320B53EC102B9DED1E0B51EC100B4E
:1056100005F03AFACDE912019DED300B53EC102B59
:105620009DED200B51EC100B05F02EFACDE9100189
:105630009DED120B53EC102B9DED100B51EC100B4C
:1056400005F02EFCCDE928019DED2C0B53EC102B21
:105650009FED290B51EC100B05F016FACDE9120164
:105660009DED260B53EC102B9DED120B51EC100B06
:1056700004F060FECDE926019DED2A0B53EC102BC2
:105680009FED1D0B51EC100B05F0FEF9CDE9120159
:105690009DED240B53EC102B9DED120B51EC100BD8
:1056A00004F048FECDE924019DED280B53EC102BAE
:1056B0009FED110B51EC100B05F0E6F9CDE912014D
:1056C0009DED220B53EC102B9DED120B51EC100BAA
:1056D00004F030FECDE922010648C068059005F0CF
:1056E000C9FC0DE000000000000000408DC1793DC4
:1056F0004C090020A40C0020000000000000F83F2E
:10570000CDE906019DED220B53EC102B9DED060B10
:1057100051EC100B05F0B8F9CDE90A01FB4880689F
:10572000019005F0A7FCCDE902019DED240B53EC9F
:10573000102B9DED020B51EC100B05F0A5F9CDE9F6
:105740000601F24890ED010AB1EE400A8DED010A22
:10575000019805F08FFCCDE902019DED260B53EC7D
:10576000102B9DED020B51EC100B05F08DF9CDE9DE
:1057700004019DED060B53EC102B9DED040B51EC39
:10578000100B05F08DFBCDE908019DED0A0B53ECE4
:10579000102B9DED080B51EC100B05F081FBCDE9B2
:1057A0000C019DED340B53EC102B9DED0C0B51ECCB
:1057B000100B05F069F9CDE91001D44800680D908F
:1057C00005F058FCCDE90E019DED100B53EC102BAC
:1057D0009DED0E0B51EC100B04F0ACFDCDE9120168
:1057E0009DED120B51EC100B04F072FDC7490860DF
:1057F0000846C068059005F03DFCCDE906019DED29
:10580000240B53EC102B9DED060B51EC100B05F007
:105810003BF9CDE90A01BD488068019005F02AFCFA
:10582000CDE902019DED220B53EC102B9DED020BF7
:1058300051EC100B05F028F9CDE90601B3480068DA
:10584000019005F017FCCDE902019DED260B53EC0C
:10585000102B9DED020B51EC100B05F015F9CDE965
:1058600004019DED060B53EC102B9DED040B51EC48
:10587000100B04F05FFDCDE908019DED0A0B53EC20
:10588000102B9DED080B51EC100B05F009FBCDE939
:105890000C019DED340B53EC102B9DED0C0B51ECDA
:1058A000100B05F0F1F8CDE91001984840680D9013
:1058B00005F0E0FBCDE90E019DED100B53EC102B34
:1058C0009DED0E0B51EC100B04F034FDCDE91201EF
:1058D0009DED120B51EC100B04F0FAFC8B49486063
:1058E0000846C068059005F0C5FBCDE906019DEDB1
:1058F000260B53EC102B9DED060B51EC100B05F015
:10590000C3F8CDE90A0181484068019005F0B2FB77
:10591000CDE902019DED220B53EC102B9DED020B06
:1059200051EC100B05F0B0F8CDE90601774800689E
:10593000019005F09FFBCDE902019DED240B53EC96
:10594000102B9DED020B51EC100B05F09DF8CDE9ED
:1059500004019DED060B53EC102B9DED040B51EC57
:10596000100B05F09DFACDE908019DED0A0B53ECF3
:10597000102B9DED080B51EC100B04F0DBFCCDE976
:105980000C019DED340B53EC102B9DED0C0B51ECE9
:10599000100B05F079F8CDE910015C4880680D9096
:1059A00005F068FBCDE90E019DED100B53EC102BBB
:1059B0009DED0E0B51EC100B04F0BCFCCDE9120177
:1059C0009DED120B51EC100B04F082FC4F498860E6
:1059D00008468068059005F04DFBCDE906019DED78
:1059E000260B53EC102B9DED060B51EC100B05F024
:1059F0004BF8CDE90A0145484068019005F03AFBB3
:105A0000CDE902019DED240B53EC102B9DED020B13
:105A100051EC100B05F038F8CDE906013B48006861
:105A2000019005F027FBCDE902019DED220B53EC1F
:105A3000102B9DED020B51EC100B05F025F8CDE974
:105A400004019DED060B53EC102B9DED040B51EC66
:105A5000100B04F06FFCCDE908019DED0A0B53EC2F
:105A6000102B9DED080B51EC100B05F019FACDE948
:105A70000C019DED340B53EC102B9DED0C0B51ECF8
:105A8000100B05F001F8CDE910012048C0680D9019
:105A900005F0F0FACDE90E019DED100B53EC102B43
:105AA0009DED0E0B51EC100B04F044FCCDE91201FE
:105AB0009DED120B51EC100B04F00AFC1349C86069
:105AC000084690ED000A20EE000AD0ED010A90EDA4
:105AD000011A00EE810AD0ED020A90ED021A00EEE2
