:020000040800F2
:10000000981E00206D020008750900086D0900089F
:1000100071090008870600088B190008000000001D
:100020000000000000000000000000008D0B000830
:10003000F906000800000000050A0008910B0008FE
:10004000870200088702000887020008870200086C
:10005000870200088702000887020008870200085C
:10006000870200088702000887020008870200084C
:10007000870200088702000887020008870200083C
:10008000870200088702000887020008870200082C
:10009000870200088702000887020008870200081C
:1000A000870200088702000887020008870200080C
:1000B0008702000887020008110C00088702000868
:1000C00087020008870200088702000887020008EC
:1000D000870200087D160008F11600088702000854
:1000E00087020008870200088702000887020008CC
:1000F0008702000887020008790E000887020008BE
:100100008702000887020008290E000887020008FD
:10011000911500088702000887020008870200087E
:10012000870200088702000887020008870200088B
:10013000870200088702000887020008870200087B
:10014000870200088702000887020008870200086B
:10015000870200088702000887020008870200085B
:10016000870200088702000887020008870200084B
:10017000870200088702000887020008870200083B
:10018000870200088702000800F002F800F05EF81D
:100190000AA090E8000C82448344AAF10107DA45E2
:1001A00001D100F053F8AFF2090EBAE80F0013F0D6
:1001B000010F18BFFB1A43F001031847BCCF000022
:1001C000DCCF00000A444FF0000C10F8013B13F0A4
:1001D000070408BF10F8014B1D1108BF10F8015BA0
:1001E000641E05D010F8016B641E01F8016BF9D193
:1001F00013F0080F1EBF10F8014BAD1C0C1B09D1EA
:100200006D1E58BF01F801CBFAD505E014F8016B5B
:1002100001F8016B6D1EF9D59142D6D370470000ED
:100220000023002400250026103A28BF78C1FBD8FF
:10023000520728BF30C148BF0B6070471FB50CF094
:1002400018F900F08DF81FBD10B510BD00F024F9AD
:100250001146FFF7F3FF0BF0EBF800F042F903B49F
:10026000FFF7F2FF03BC00F043F9000009488047A4
:1002700009480047FEE7FEE7FEE7FEE7FEE7FEE788
:10028000FEE7FEE7FEE7FEE704480549054A064BA0
:1002900070470000A90B0008890100089818002089
:1002A000981E0020981A0020981A002010B54C10B3
:1002B00084EA530404D54042C1F1000138BF491E0D
:1002C0001B4204D55242C3F1000338BF5B1E00F04D
:1002D00059F814F0804F04D04042C1F1000138BFFA
:1002E000491E14F0004F04D05242C3F1000338BF3E
:1002F0005B1E10BD10B5203AC0F00B80B1E818505D
:10030000203AA0E81850B1E81850A0E81850BFF4FF
:10031000F5AF5FEA027C24BFB1E81850A0E818509E
:1003200044BF18C918C0BDE810405FEA827C24BFF2
:1003300051F8043B40F8043B08BF7047D20728BF80
:1003400031F8023B48BF11F8012B28BF20F8023BCF
:1003500048BF00F8012B7047704770477047000096
:1003600070B5064C7C44064D7D4403E02068204473
:100370008047241DAC42F9D170BD000030CE000092
:1003800054CE000053EA020C00F069802DE9F04BD6
:100390004FF00006002B1FBFB3FA83F503FA05F4F4
:1003A00024FA05F65E4012BF1643B2FA82F502FA4D
:1003B00005F4C5F120051EBF22FA05FC44EA0C0431
:1003C000203556EA044C4FEA144418BF641C4FF021
:1003D00000084FF00009904271EB030C39D300295B
:1003E00019BFB1FA81F701FA07F6B0FA80F700FAFF
:1003F00007F6C7F120071EBF20FA07FC46EA0C06E5
:100400002037B6FBF4FCA7EB0507103F07F01F0BE6
:10041000CBF120060CFA0BFB2CFA06F644BFB346D0
:100420000026202FA4BF5E464FF0000B5BEA060CAF
:1004300008BF4FF0010B19EB0B09ABFB027C48EB3B
:100440000608C01B06FB02CC0BFB03CC71EB0C01B6
:10045000C1E70B46024641464846BDE8F08B13B55E
:100460004FF000004FF00001AFF30080BDE81C40EA
:10047000704710B500F008F8006810BD10B50446CC
:1004800000F002F8046010BD0048704734180020E6
:1004900000487047341800207546FFF7F9FFAE4654
:1004A00005006946534620F00700854618B020B580
:1004B000FFF7EAFEBDE820404FF000064FF00007CE
:1004C0004FF000084FF0000B21F00701AC46ACE8FC
:1004D000C009ACE8C009ACE8C009ACE8C0098D4669
:1004E00070470446AFF300802046FFF7B8FE0000D7
:1004F00001491820ABBEFEE726000200704721B17B
:10050000826842F00102826003E0826822F0010208
:10051000826070470021084A1168084A1140D0E9FA
:1005200000231A4383681A43C3681A431143044AD9
:10053000C2F804137047000004230140E030FCFFC0
:100540000020014021B1826842F48072826003E0A1
:10055000826822F480728260704721B1826842F41E
:100560000072826003E0826822F400728260704749
:1005700030B50246002000235068104C20400D7911
:100580000C6844EA05242043506090680C4C2040DD
:10059000D1E903542C438D682C434D7944EA45043A
:1005A00020439060D06A20F470000C7D641EE4B299
:1005B000234340EA0350D06230BD0000FFFEFFFC41
:1005C000FDF7FFC0F0B504460D4600200021092DBF
:1005D00011DDE068A5F10A0606EB4607072606FAD4
:1005E00007F18843A5F10A0606EB460603FA06F171
:1005F0000843E0600CE0206905EB4507072606FA92
:1006000007F1884305EB450603FA06F1084320612C
:10061000072A0FDA606B561E06EB86071F2606FABE
:1006200007F18843561E06EB860605FA06F10843D5
:10063000606322E00D2A0FDA206BD61F06EB8607D7
:100640001F2606FA07F18843D61F06EB860605FA31
:1006500006F10843206310E0E06AA2F10D0606EB04
:1006600086071F2606FA07F18843A2F10D0606EB5E
:10067000860605FA06F10843E062F0BD816841F0A4
:1006800080418160704700BFFEE721B1026842F0FF
:100690000102026003E0026822F00102026070477A
:1006A00010B500220268134B1A40CC680B68234334
:1006B0004C6923438C692343CC6923430C6A23434D
:1006C0004C6A23438C6A23434C6B23438C6B234338
:1006D0001A430260426922F00702D1E90B34234336
:1006E0001A4342610B6943604B6883608B68C36047
:1006F00010BD00003F801CF07047000001490860F9
:10070000704700000C3C024070B504460A460026C3
:10071000092502B909E0012A01D1160205E0022AE1
:1007200001D1160201E04FF4407600F09FF8054633
:10073000092D28D11548006820F44070134908603D
:1007400008460068304308600846006820F0F8005A
:1007500008600846006844F0020108430B4908603D
:100760000846006840F48030086000F07FF80546D5
:100770000648006820F00200044908600846006846
:1007800020F0F8000860284670BD0000103C0240D0
:1007900009201349096801F48031B1F5803F01D186
:1007A00001201CE00E49096801F0100109B1062082
:1007B00015E00B49096801F4807109B102200EE0CF
:1007C0000749096801F0E00109B1072007E0044981
:1007D000096801F0020109B1082000E00920704712
:1007E0000C3C02400348006840F0004001490860AA
:1007F00070470000103C024030B502460C46092507
:1008000000F034F80546092D19D10E48006820F48F
:1008100040700C4908600846006840F400700860A9
:100820000846006840F001000860146000F01EF8FF
:1008300005460448006820F0010002490860284687
:1008400030BD0000103C02400548006800F0004048
:1008500028B1044802490C39086003480860704711
:10086000103C024023016745AB89EFCD08B5092054
:100870000090FFF78DFF009002E0FFF789FF0090E6
:100880009DF800000128F8D09DF8000008BDF0B5E3
:100890000A4600210023002400BF3DE0012505FA9F
:1008A00001F3156805EA03049C4234D105684F0042
:1008B0000326BE40B543056015794E00B540066875
:1008C000354305601579012D02D01579022D16D119
:1008D00085684F000326BE40B543856055794E00BC
:1008E000B540866835438560456801268E40B5432E
:1008F0004560456896798E40B6B235434560C56817
:100900004F000326BE40B543C560D5794E00B540C3
:10091000C6683543C560491C1029BFD3F0BDF0B58A
:10092000002300244D07ED0E02FA05F3CE1000F16E
:10093000200555F826504E07F70E0F26BE40B5434A
:10094000CF1000F1200646F82750CE1000F1200508
:1009500055F8265045EA0304CE1000F1200545F86D
:100960002640F0BD418370470183704700BFFEE71A
:1009700000BFFEE77047000070B5002100230F2282
:10098000C4781CB3174C246804F4E064C4F5E06434
:10099000C4F30721C1F10404E3B20A4144789C4046
:1009A000E1B28478144021430C07210E0E4C0578E7
:1009B0006155047804F01F050124AC4005786D11E1
:1009C000AD0005F1E025C5F8004109E0047804F028
:1009D0001F050124AC40054D0678761145F82640E8
:1009E00070BD00000CED00E000E400E080E100E0FC
:1009F00002490143024A1160704700000000FA05F5
:100A00000CED00E07047000029B1064A126802436D
:100A1000044B1A6004E0034A12688243014B1A60D7
:100A2000704700003038024029B1064A126802437C
:100A3000044B1A6004E0034A12688243014B1A60B7
:100A4000704700004038024029B1064A126802434C
:100A5000044B1A6004E0034A12688243014B1A6097
:100A6000704700002038024029B1064A126802434C
:100A7000044B1A6004E0034A12688243014B1A6077
:100A8000704700004438024029B1064A1268024308
:100A9000044B1A6004E0034A12688243014B1A6057
:100AA0007047000024380240F0B5002100220024E5
:100AB000022500260223324F3F6807F00C0121B1C6
:100AC000042905D0082937D105E02E4F076036E00C
:100AD0002C4F076033E02A4F3F1F3F68C7F3805613
:100AE000274F3F1F3F6807F03F036EB1254FB7FB0D
:100AF000F3F7DFF88CC0ACF1040CDCF800C0CCF3E9
:100B0000881C07FB0CF40CE01E4FB7FBF3F7DFF873
:100B100070C0ACF1040CDCF800C0CCF3881C07FBFF
:100B20000CF4174F3F1F3F68C7F301477F1C7D0040
:100B3000B4FBF5F7076002E0124F076000BF00BF8B
:100B40000F4F3F6807F0F00109090F4F7A5C076803
:100B5000D74047600A4F3F6807F4E051890A0A4FBF
:100B60007A5C4768D7408760054F3F6807F460416B
:100B7000490B054F7A5C4768D740C760F0BD00005D
:100B8000083802400024F400800B00207047000069
:100B90000448036840685A1C40F1000001490A609B
:100BA00048607047800A002010B51548006840F47E
:100BB0007000134908601348006840F001001149B3
:100BC000086000200F49083108600E4800680E498F
:100BD00008400C4908600D48091D0860081F00689E
:100BE00020F48020091F0860002006490C310860AD
:100BF00001F0ECF84FF0006001498039086010BD49
:100C000088ED00E000380240FFFFF6FE10300024BF
:100C100010B502217C4800F0A7FA012839D1022141
:100C2000794800F0BDF97948006800F0400040289C
:100C300010D1754800F08CFA754908807248203050
:100C4000008840F00200704920310880002071497E
:100C500008801EE06C4800F07BFA84B26C48008883
:100C6000844205DD6A480088201A6B49888007E0C5
:100C70004FF6FF70204466490988401A664988800B
:100C800061482030008820F002005F492031088050
:100C900000BF04215C4800F067FA012836D1042126
:100CA000594800F07DF95948006800F0800080281C
:100CB0000DD1554800F04FFA58490880524820306D
:100CC000008840F020005049203108801EE04E4846
:100CD00000F041FA84B251480088844205DD4F4853
:100CE0000088201A4C49C88007E04FF6FF70204466
:100CF0004A490988401A4849C8804348203000883A
:100D000020F0200040492031088000BF08213E48E3
:100D100000F02AFA012837D108213B4800F040F9B9
:100D20003A48006800F48070B0F5807F0DD13648F5
:100D300000F014FA3A49088033482030008840F423
:100D400000703149203108801EE02F4800F006FA7B
:100D500084B233480088844205DD31480088201A77
:100D60002D49088107E04FF6FF7020442C4909887F
:100D7000401A2949088124482030008820F4007056
:100D800021492031088000BF10211F4800F0ECF9F4
:100D9000012837D110211C4800F002F91B480068D7
:100DA00000F40070B0F5007F0DD1174800F0D9F9BC
:100DB0001C49088014482030008840F40050124933
:100DC000203108801EE0104800F0CBF984B21548AD
:100DD0000088844205DD13480088201A0E494881A6
:100DE00007E04FF6FF7020440E490988401A0A496F
:100DF000488105482030008820F400500249203105
:100E0000088000BF10BD0000000800401004024030
:100E1000E80A0020D00A002018120020EA0A002068
:100E2000EC0A0020EE0A002010B50121104800F065
:100E30009BF9012816D10F48007810B101280FD175
:100E400006E005F0C9FF012801D10A49087008E051
:100E500005F03EFF012802D102200649087000E09B
:100E600000BF00BF0121024800F09AF810BD000049
:100E7000000C0040540A002010B508213D4800F045
:100E800073F9012837D108213A4800F089F83A4827
:100E9000006800F48070B0F5807F0DD1354800F017
:100EA0005DF93649088033482030008840F40070EE
:100EB0003049203108801EE02E4800F04FF984B2FE
:100EC0002E480088844205DD2C480088201A2C49D1
:100ED000088007E04FF6FF70204428490988401A2F
:100EE0002749088023482030008820F400702149D9
:100EF0002031088000BF10211E4800F035F901287C
:100F000037D110211B4800F04BF81B48006800F453
:100F10000070B0F5007F0DD1164800F022F9194994
:100F2000088014482030008840F4005011492031D6
:100F300008801EE00F4800F014F984B211480088C0
:100F4000844205DD0F480088201A0D49488007E0DB
:100F50004FF6FF7020440B490988401A0849488021
:100F600004482030008820F40050024920310880D5
:100F700000BF10BD0004014010080240F00A00202C
:100F800018120020F20A002021B1028842F08002EB
:100F9000028004E002884FF67F731A400280704797
:100FA000CA430282704721B1028842F001020280E6
:100FB00004E002884FF6FE731A400280704700007A
:100FC00010B504465548844208D101210846FFF770
:100FD0005BFD00210120FFF757FD9DE0B4F1804F3C
:100FE00008D101210846FFF72FFD00210120FFF75E
:100FF0002BFD91E04A48844208D101210220FFF7ED
:1010000023FD00210220FFF71FFD85E045488442B3
:1010100008D101210420FFF717FD00210420FFF76C
:1010200013FD79E04048844208D101210820FFF7F0
:101030000BFD00210820FFF707FD6DE03B488442CF
:1010400008D101211020FFF7FFFC00211020FFF73D
:10105000FBFC61E03648844208D101212020FFF7E3
:10106000F3FC00212020FFF7EFFC55E031488442DB
:1010700008D101210220FFF707FD00210220FFF720
:1010800003FD49E02C48844209D101210804FFF7FF
:10109000FBFC00214FF48030FFF7F6FC3CE02748D2
:1010A000844209D101214804FFF7EEFC00214FF4EE
:1010B0000030FFF7E9FC2FE02148844209D10121EB
:1010C0008804FFF7E1FC00214FF48020FFF7DCFCEF
:1010D00022E01C48844208D101214020FFF7B4FCE3
:1010E00000214020FFF7B0FC16E01748844208D1E9
:1010F00001218020FFF7A8FC00218020FFF7A4FC3D
:101100000AE01248844207D101218015FFF79CFCB8
:101110000021A015FFF798FC10BD00000000014061
:101120000004004000080040000C00400010004097
:101130000014004000040140004001400044014010
:101140000048014000180040001C00400020004002
:101150000146486B70470146886B70470146C86B73
:1011600070470146086C704730B5024600200023E6
:101170000024158A05EA0103958905EA010413B1E3
:101180000CB1012000E0002030BD70B505460C46D2
:10119000208850B92389A2886188284600F0C2FCC3
:1011A000E188284600F085F925E0208804280AD146
:1011B0002389A2886188284600F0D1FCE18828466E
:1011C00000F080F917E0208808280AD12389A28836
:1011D0006188284600F0EBFCE188284600F07FF9A2
:1011E00009E02389A2886188284600F004FDE1888F
:1011F000284600F07DF970BD1AB183890B438381C5
:1012000002E083898B4383817047000070B500241E
:1012100000220023058C4FF6FE7635400584028CB3
:101220008388048B4FF68F752C40B51E2C400D889B
:101230002C43751E2A408D892A434D882A43104D20
:10124000A84202D00F4DA84213D14FF6F7752A409D
:10125000CD892A434FF6FB752A408D882A434FF6E5
:10126000FF652B404FF6FF552B400D8A2B434D8ACF
:101270002B43838004838D684563028470BD000026
:1012800000000140000401400A460021018B4FF696
:10129000F7731940114301837047000070B50024B3
:1012A00000220023058C4FF6EF7635400584028C32
:1012B0008388048B48F6FF752C404FF6FF452C4081
:1012C0000D884FF6FF7606EA05252C434FF6DF75AD
:1012D0002A408D8906EA05152A434D8806EA051538
:1012E0002A43154DA84202D0144DA8421DD14FF6F5
:1012F0007F752A40CD894FF6FF7606EA05152A4309
:101300004FF6BF752A408D8806EA05152A434FF629
:10131000FF352B404FF2FF752B400D8A06EA8505FD
:101320002B434D8A06EA85052B43838004838D6811
:101330008563028470BD000000000140000401408C
:101340000A460021018B4FF2FF7319404FF6FF73DD
:1013500003EA0223194301837047000070B500249B
:1013600000220023058C4FF6FF6635400584028C71
:101370008388848B4FF68F752C404FF6FC752C407C
:101380000D882C434FF6FF552A408D894FF6FF7686
:1013900006EA05252A434D8806EA05252A43154D08
:1013A000A84202D0144DA8421DD14FF2FF752A4029
:1013B000CD894FF6FF7606EA05252A434FF6FF351D
:1013C0002A408D8806EA05252A434EF6FF752B40F4
:1013D0004DF6FF752B400D8A06EA05152B434D8A05
:1013E00006EA05152B43838084838D68C5630284D8
:1013F00070BD000000000140000401400A460021C9
:10140000818B4FF6F77319401143818370470000B9
:1014100070B5002200230024058C4EF6FF7635407F
:101420000584038C8488828B48F6FF752A404FF62A
:10143000FF452A400D884FF6FF7606EA05252A4328
:101440004DF6FF752B408D8906EA05352B434D88F7
:1014500006EA05352B430A4DA84202D0094DA842A1
:1014600008D14BF6FF752C400D8A4FF6FF7606EA41
:1014700085152C43848082838D680564038470BD48
:1014800000000140000401400A460021818B4FF218
:10149000FF7319404FF6FF7303EA02231943818358
:1014A00070474163704781637047C163704701644F
:1014B0007047028B4FF6F3731A400283028B0A4384
:1014C00002837047028B4FF2FF331A400283028B74
:1014D0004FF6FF7303EA01231A4302837047828B9E
:1014E0004FF6F3731A408283828B0A4382837047DC
:1014F000828B4FF2FF331A408283828B4FF6FF7349
:1015000003EA01231A438283704700000022028805
:10151000184B98420ED0184B98420BD0B0F1804F28
:1015200008D0164B984205D0154B984202D0154B67
:10153000984204D14FF68F731A404B881A43124BCE
:10154000984207D0114B984204D04FF6FF431A40FF
:101550000B891A4302804B68C3620B880385054BD5
:10156000984202D0044B984201D18B7A0386012322
:1015700083827047000001400004014000040040E5
:1015800000080040000C0040001000400014004023
:1015900038B540F22771324800F034F990B1314843
:1015A0003149826868469047012805D19DF80010AE
:1015B0002B4800F0E6F905E0002240F227712848A8
:1015C00000F04AF940F22551254800F01BF90028A7
:1015D00044D0234800F0D0F9C0B200902348D0F89E
:1015E00000012249C1F804012149486880471F4988
:1015F000C1F800010846D0F80001D1F80411401AE2
:10160000322817D9194890F8FF0098B9002405E04E
:101610001848005D15490855601CC4B2164800788A
:101620008442F5DB14480078104981F8FF0000205F
:10163000114908709DF800000E490F4A127888542D
:101640000D480078FE2804DA0B480078401C0A494F
:10165000087040F22551024800F0ACF838BD000097
:10166000004C00403C0B002064140020701400204B
:10167000880A0020631300200C0B002008B540F2FC
:101680002771174800F0BEF890B1164816498268D5
:1016900068469047012805D19DF80010104800F0D9
:1016A00070F905E0002240F227710D4800F0D4F8EF
:1016B00040F225510A4800F0A5F878B1084800F03A
:1016C0005BF9C0B2009040F22551054800F072F875
:1016D0000448064942689DF80000904708BD000094
:1016E000001001403C0B00207817002084170020D8
:1016F00010B50821274800F078F810B1254800F00F
:101700003BF92021234800F070F8012840D12148FE
:1017100000F032F9C4B22049486880471F4909687F
:10172000401A022810D900201D4908701D48007871
:10173000012803D100201B49087002E0012019494B
:10174000087001201849087016480078012808D14F
:10175000134801780078401C114A10701348445413
:1017600007E00F4801780078401C0D4A10701048BF
:101770004454094948688047084908600848007887
:10178000192804D106480078401E0549087000BF9A
:1017900010BD000000440040880A0020640B0020B7
:1017A000680B0020490B0020480B002090170020F8
:1017B000A917002010B50022002340F66A14A142A8
:1017C00000D100BF0A1201249440A3B2DC4304807C
:1017D00010BD21B1828942F40052828104E08289E5
:1017E0004DF6FF731A408281704702460020B1F522
:1017F000007F00D100BF13880B400BB1012000E037
:101800000020704770B50246002400230025002008
:1018100040F66A16B14200D100BFC1F3421501F093
:101820001F03012606FA03F3012D02D196893340E6
:1018300006E0022D02D1168A334001E0968A334039
:101840000C12012606FA04F41688344013B10CB1C8
:10185000012000E0002070BDF0B503460024002602
:101860000025002040F66A17B94200D100BF184693
:10187000C1F3421401F01F06012707FA06F5012CF7
:1018800001D10C3004E0022C01D1103000E0143002
:101890001AB107682F43076002E00768AF4307608B
:1018A000F0BD00002DE9FF4705460E460024A14685
:1018B00000BFA046B08900B100BF2C8A24F4405478
:1018C000F08804432C82AC8941F20C608443B088D8
:1018D00031890843718908430443AC81AC8A24F4FC
:1018E0004074B0890443AC826846FFF7DDF82048B5
:1018F000854202D01F48854202D1DDF80C9001E0FC
:10190000DDF80890A88900F4004040B109EBC90057
:1019100000EB091031684900B0FBF1F707E009EB73
:10192000C90000EB091031688900B0FBF1F76420B1
:10193000B7FBF0F004012009642101FB1078A889AD
:1019400000F4004040B1322000EBC800B0FBF1F0E1
:1019500000F00700044308E0322000EB0810642187
:10196000B0FBF1F000F00F0004432C81BDE8FF87CD
:10197000001001400014014001468888C0F30800AF
:101980007047C1F308028280704700BFFEE7000085
:101990000A48008800EE100AB8EE400A9FED081AC7
:1019A000C0EE010A9FED070A20EE800AF1EE000A60
:1019B00020EE200A044880ED000A7047F40A002057
:1019C00000F07F4533335340F80A002010B54FF440
:1019D00080510248FEF7C6FF10BD0000000802401B
:1019E00010B5044601498868804710BD580A002098
:1019F00010B504460748816A204688470649C868EA
:101A00008047064881682046884704480169204687
:101A1000884710BD80090020240A002030090020DA
:101A200010B504460749C86880470749C868804719
:101A300006484168204688470448C16820468847D0
:101A400010BD0000080A00204C09002030090020C9
:101A500010B540F206414FF08040FFF726FD40F2FE
:101A600006410C48FFF723FD40F206410948FFF705
:101A70001CFD40F206410748FFF715FD40F2064104
:101A80000448FFF70EFD40F206414FF08040FFF79B
:101A90000EFD10BD0004004010B503F085FA02F001
:101AA000D1F800F001F810BD10B54FF46170124983
:101AB000086048608860C8600861486101460007A6
:101AC000FFF7F3FC4FF461710C48FFF7F0FC4FF4A3
:101AD00061710A48FFF7E9FC4FF461710748FFF7AD
:101AE000E2FC4FF461710548FFF7DBFC4FF46171D4
:101AF0000807FFF7DCFC10BD0012002000040040C6
:101B0000002100EE901A0549415800EE901AB8EEF7
:101B1000E01ADFED031A81EE210A704700000E087B
:101B20000000C842F0B50C46154600210022068C84
:101B30004FF6FE773E400684018B028C4FF60C7602
:101B400031407E1C06EA03162E4331434FF6F576EC
:101B5000324044F00106324301830284F0BDF0B507
:101B60000C461546002100220026078C4FF6EF7C1C
:101B700007EA0C070784018B028C4FF6FF7707EA10
:101B8000041640F6FF4739404FF6FF7707EA033760
:101B900039434FF6FF7707EA052739434FF65F775A
:101BA0003A4046F010073A4301830284F0BDF0B595
:101BB0000C461546002100220026078C4FF6FF6CCC
:101BC00007EA0C070784818B028C4FF6FF7707EA40
:101BD00004264FF60C7739404FF6FF7707EA0317D4
:101BE0002F4339434FF2FF573A4046F480773A4348
:101BF00081830284F0BDF0B50C4615460021002219
:101C00000026078C4EF6FF7C07EA0C070784818BC1
:101C1000028C4FF6FF7707EA043640F6FF4739405B
:101C20004FF6FF7707EA052739434FF6FF7707EAB4
:101C30000337394345F6FF773A4046F480573A4335
:101C400081830284F0BD000001490868496870473B
:101C5000800A00202DE9F0472448046845684FF0C9
:101C6000E0208669002721480168426884EA010073
:101C700085EA020108431CD11D4800230268304652
:101C80003946FEF713FB4FF47A734FF0000CA4FBB8
:101C9000032805FB038304FB0C3C1346181A6CEB6A
:101CA00001014FF47A7C10EB0C0041F10001BDE81A
:101CB000F0874FF0E02080690D490968B0FBF1F032
:101CC00000220A4B19685B684FF47A78A1FB089AE6
:101CD00003FB08A301FB02311346B9EB000261EBE1
:101CE000030112EB080041F10001E0E7800A002047
:101CF000700A00201CB501210420FEF785FE01209A
:101D00008DF8040000208DF806008DF805008DF890
:101D100007004FF48050009069460448FEF7B7FD75
:101D20004FF480510148FEF71DFE1CBD0008024023
:101D300010B504F075FE012010BD000030B503465B
:101D40000A4600210D4C94F8FF40944203DA0B4CF4
:101D500094F8FF0000E0D0B2002107E0074C645C7B
:101D60005C540024054D6C544C1CE1B28142F5DBFF
:101D70000024024D85F8FF4030BD000070140020A3
:101D800070B504460D460B4948688047064604F482
:101D90000050B0F5005F0CD107480068864208D9B2
:101DA0000648006880F40050044908607019024930
:101DB000086070BD880A0020B40A002014080240A0
:101DC000704700B500F058FD00BD00000CB50020C4
:101DD000019000903448006840F480303249086037
:101DE00000BF3148006800F4003000900198401CAA
:101DF0000190009818B90198B0F5A04FF1D12A4888
:101E0000006800F4003010B10120009001E00020D3
:101E100000900098012846D123484030006840F0E7
:101E200080502149403108602048006840F440401B
:101E30001E4908601C48083000681B4908310860CA
:101E40000846006840F4004008600846006840F416
:101E5000A05008601648091F0860081F006840F07D
:101E60008070091F086000BF0F48006800F0007014
:101E70000028F9D040F205700E4908600A48083081
:101E8000006820F00300084908310860084600682F
:101E900040F00200086000BF03480830006800F00E
:101EA0000C000828F8D10CBD00380240007000403A
:101EB00010544007003C024000B50246FFF7C4FE44
:101EC000034600BFFFF7C0FE99188842FAD300BD51
:101ED00070B50446FFF7BEFE054600BFFFF7BAFE29
:101EE0002A19801A71F10001F8DB70BD10B50124C8
:101EF000FEF7AAFCF320FEF701FC02215820FEF7B2
:101F000003FC3B4890ED0C0ADFED3A0A20EE200A74
:101F1000BDEEC00A10EE101A3748FEF76DFC092816
:101F200000D00024324890ED0D0ADFED320A20EE99
:101F3000200ABDEEC00A10EE101A2F48001DFEF751
:101F40005BFC092800D00024294890ED0E0ADFED43
:101F5000290A20EE200ABDEEC00A10EE101A26480B
:101F60000830FEF749FC092800D00024204890EDF5
:101F70000F0ADFED200A20EE200ABDEEC00A10EEA7
:101F8000101A1D480C30FEF737FC092800D0002439
:101F9000174890ED100ADFED170A20EE200ABDEE7B
:101FA000C00A10EE101A14481030FEF725FC09285C
:101FB00000D000240E4890ED110ADFED0E0A20EE4D
:101FC000200ABDEEC00A10EE101A0B481430FEF7BE
:101FD00013FC092800D00024642107481830FEF7BC
:101FE0000BFC092800D00024FEF7FCFB204610BDA6
:101FF000641000200000C84200000E0810B58AB02E
:10200000044601210846FEF7FFFC01211020FEF7DF
:102010002BFD072209212F48FEF781FC07220A2108
:102020002C48FEF77CFC02208DF824008DF825005A
:1020300000208DF8260001208DF82700400208902E
:1020400008A92448FEF723FC4FF48060089008A9F3
:102050002048FEF71CFC25208DF80C0000208DF890
:102060000D0001208DF80E008DF80F0003A8FEF77B
:1020700083FC04940020ADF81400ADF81600ADF810
:102080001800ADF81C000C20ADF81A0004A9124885
:10209000FFF708FC1148124AFF2103686846984779
:1020A00010489DE80E000EC00C480F4AFF2103683F
:1020B000684698470D489DE80E000EC0012240F288
:1020C00025510548FFF7C8FB01210348FFF781FBB5
:1020D0000AB010BD00000240001001403C0B00207F
:1020E000781500207817002077160020841700202C
:1020F00070B506460C4600250F4800790E49C9798F
:10210000401AA04201DA002070BD002509E0705D90
:102110000A494A680849904708B90020F4E7681C52
:1021200085B2A542F3DB012240F227710448FFF794
:1021300093FB0120E8E70000781700203C0B00200B
:102140000010014000B58FB001218805FEF75CFC4E
:10215000012004900020009003900B901048029002
:1021600000200D904FF400500890C0100690801091
:1021700009900C48019000200E904FF400600790E9
:10218000002005904FF400300A9069460648FEF79B
:1021900087FA01210448FEF778FA0FB000BD00006D
:1021A000F40A00204C2001401064024010B50D4894
:1021B00006F076FE7C2300223C210A4806F02AFE27
:1021C000202301223C21074806F024FE802302221E
:1021D0003C21044806F01EFE0348C1680A208847D7
:1021E00010BD0000C4100020880A002010B51C4853
:1021F00006F056FE1B48C1683220884780236B22B8
:10220000D021174806F006FE1648C1680520884709
:1022100000231922D021124806F0FCFD00236B2276
:10222000D0210F4806F0F6FD00233722D0210C48BC
:1022300006F0F0FD06231A22D021094806F0EAFD37
:1022400018231B22D021064806F0E4FD10231C228F
:10225000D021034806F0DEFD03F066FC10BD00004F
:10226000E00F0020880A002010B50C4806F07BFE25
:1022700008B9002010BDEE21084806F0EFFE07481F
:1022800006F09CFE1E21054806F0E8FE034806F015
:1022900095FE024806F029FE0120EBE740110020E0
:1022A00010B52DED048B86B00446012C7BD1B849C6
:1022B000096801F5617009F048FC41EC190BB5495A
:1022C0009FEDB52B9FEDB61BB0EE490AF0EE690A03
:1022D00008688047B0EE408AF0EE608A51EC180B37
:1022E00009F0D6FB0090AA49496801F5617009F030
:1022F0002CFC41EC190BA7499FEDA72B9FEDA81BC8
:10230000B0EE490AF0EE690A08688047B0EE408AEC
:10231000F0EE608A51EC180B09F0BAFB01909C4971
:10232000896801F5617009F010FC41EC190B9949BD
:102330009FED992B9FED9A1BB0EE490AF0EE690ACA
:1023400008688047B0EE408AF0EE608A51EC180BC6
:1023500009F09EFB02908E49C96801F5617009F091
:10236000F4FB41EC190B8B499FED8B2B9FED8C1BE4
:10237000B0EE490AF0EE690A08688047B0EE408A7C
:10238000F0EE608A51EC180B09F082FB0390804953
:10239000096901F5617009F0D8FB41EC190B7D4921
:1023A0009FED7D2B00E02DE09FED7D1BB0EE490AF7
:1023B000F0EE690A08688047B0EE408AF0EE608A65
:1023C00051EC180B09F064FB04907149496901F55F
:1023D000617009F0BAFB41EC190B6E499FED6E2B51
:1023E0009FED6F1BB0EE490AF0EE690A086880475E
:1023F000B0EE408AF0EE608A51EC180B09F048FB11
:102400000590A7E06249096801F5617009F09DFB3C
:1024100041EC190B5F499FED642B9FED611BB0EE02
:10242000490AF0EE690A08688047B0EE408AF0EE8B
:10243000608A51EC180B09F02BFB00905449496855
:1024400001F5617009F081FB41EC190B51499FEDD9
:10245000562B9FED531BB0EE490AF0EE690A08684F
:102460008047B0EE408AF0EE608A51EC180B09F01C
:102470000FFB01904649896801F5617009F065FB21
:1024800041EC190B43499FED482B9FED451BB0EEE6
:10249000490AF0EE690A08688047B0EE408AF0EE1B
:1024A000608A51EC180B09F0F3FA02903849C968B8
:1024B00001F5617009F049FB41EC190B35499FEDBD
:1024C0003A2B9FED371BB0EE490AF0EE690A086817
:1024D0008047B0EE408AF0EE608A51EC180B09F0AC
:1024E000D7FA03902A49096901F5617009F02DFBBB
:1024F00041EC190B27499FED2C2B9FED291BB0EECA
:10250000490AF0EE690A08688047B0EE408AF0EEAA
:10251000608A51EC180B09F0BBFA04901C49496918
:1025200001F5617009F011FB41EC190B19499FEDA0
:102530001E2B9FED1B1BB0EE490AF0EE690A0868DE
:102540008047B0EE408AF0EE608A51EC180B09F03B
:102550009FFA05904FF080400099FEF7A6FF1448BF
:102560000199FEF7A4FF12480299FEF79EFF10485A
:102570000399FEF798FF0E480499FEF792FF4FF07B
:1025800080400599FEF793FF06B0BDEC048B10BDAB
:1025900000120020D4090020000000000018904024
:1025A0000000000000B09D400000000000208C40B2
:1025B0000004004010B52DED0A8B04468A4890F8BF
:1025C000FC0801280CD1894806F018FA8748983091
:1025D00006F014FA864806F011FABDEC0A8B10BD1D
:1025E000814890F8000900285AD1804806F006FA80
:1025F0007E48983006F002FA7D4806F0FFF97D49E2
:102600000968888809F009FB41EC1C0B9FED7A0BE7
:1026100053EC102B09F0A2FD41EC1B0B9FED780B46
:1026200053EC102B09F08EFB41EC190B6E48D0F8DF
:10263000E80800EE100AB8EEC00ADFED730A20EEDB
:10264000200A10EE101A084609F072FE41EC1A0B2F
:1026500053EC192B08F0CCFF41EC180B09F018FAD9
:102660006149C1F8E808D1F8E80809F06EFA41ECD0
:10267000190B66499FED662B9FED671BB0EE490A6B
:10268000F0EE690A08688047B0EE408AF0EE608A92
:1026900051EC180B09F0FCF95349C1F8E8089CE724
:1026A000514890F80009012807D1504806F0A6F9D2
:1026B0004E48983006F0A2F959E04B4890F80009CE
:1026C000022854D1564890ED060A10EE101A08461A
:1026D00009F02EFE41EC180B4C499FED522B9FED5B
:1026E000531BB0EE480AF0EE680A086880473E487F
:1026F00080EDE60B21463D4806F030F8B0EE408A0A
:10270000F0EE608A41499FED4B2B9FED4C1B086812
:102710008047354880EDE80B414890ED070A10EE00
:10272000101A084609F004FE41EC180B37499FEDDA
:102730003D2B9FED3E1BB0EE480AF0EE680A08689C
:1027400080472A48983080ED020B214606F006F8B3
:10275000B0EE408AF0EE608A2C499FED362B9FED5B
:10276000371B086880472148983080ED040B1E48CD
:1027700090F80009012804D01B4890F800090228AD
:1027800030D1274890ED080A10EE101A084609F0DB
:10279000CFFD41EC180B1D499FED2A2B9FED2B1B04
:1027A000B0EE480AF0EE680A08688047104880EDED
:1027B000020B214605F0D2FFB0EE409AF0EE609A8F
:1027C00012499FED132B9FED141B08688047B0EE54
:1027D000408AF0EE608A51EC180B09F059F9024971
:1027E000C1F8E80800BFF8E628000020B803002080
:1027F000E8040020D40A00200000000000407F40D0
:10280000000000A09999F93FCCCC4C3ED40900209F
:1028100000000000000000000000800C00C08240AA
:102820008009002000000000000049C000000000F6
:102830000000494000000000000024C0000000002B
:102840000000244000000000000059C0000000000B
:102850000000594070B504460D4603F0E9F903F055
:1028600039FA02F0C3FFB6EE000A024880ED000A12
:1028700070BD0000CC0A002070B587B034480078E5
:10288000012862D13348007801280AD1002005E0F0
:102890003149095C0DF80010411CC8B21928F7DB5A
:1028A00009E0002005E02D49095C0DF80010411CED
:1028B000C8B21928F7DB00202549087000BF39E0AD
:1028C0000024002316E000EB4002254D05EB8202B8
:1028D00002EB83018A785AB10D786D1C1DF8052032
:1028E0004D78EA408D782A40CD78AA40144300BF45
:1028F000591CCBB2032BE6DBB4F5AF7F14D9A4F59A
:10290000AF7100EE101AF8EE400A9FED161A9FED17
:10291000160A00EE810ABCEEC00A10EE101A8AB246
:10292000124921F8102003E00022104921F810205C
:10293000411CC8B20C28C3DB9DF818009DF8171085
:1029400040EA01200A49088000BF07B070BD0000BE
:10295000480B0020490B0020A917002090170020E9
:10296000C2C600082FA13D3F00006144DA170020D5
:102970004C0B0020014640F21450814201DA022043
:102980007047B1F5E16F01DD0020F9E70120F7E7BD
:1029900010B50446204604F061FB204602F050FCCE
:1029A000204604F007FC10BD70B52DED048B00BF70
:1029B0001C498868804704460D461B4903C9221AF2
:1029C00065EB0101104609F03BF99FED180B53EC44
:1029D000102B09F0B7F941EC180B134A30C2154B14
:1029E0005868154B5B6803F11801134B5B68B0EE38
:1029F000485AF0EE685A90ED024AD0ED013A90ED57
:102A0000003AD1ED022A91ED012AD1ED001A93EDA1
:102A10000B1AD3ED0A0A93ED090A03F07BF9BDEC1A
:102A2000048B70BD880A0020780900208DEDB5A0C8
:102A3000F7C6B03E240A0020080A00200146B5EE81
:102A4000C00AF1EE10FA05DBF1EEC00AC1ED000A92
:102A500000207047DFED030AC1ED000A4FF0FF30A0
:102A6000F7E70000000000001CB501210846FDF753
:102A7000CBFF03208DF804000420009000208DF887
:102A8000070003208DF8050069460248FDF7FFFEA8
:102A90001CBD00000000024010B503498868804753
:102AA00002498868804710BD080A0020240A0020D7
:102AB00000B52DED060B2DED0A8B83B0B0EE61BA9B
:102AC000F0EE42BAB0EE62CA684606F02DF89FED0D
:102AD0004A0A2BEE000AB0EE40BA9FED470A2BEEF1
:102AE000800AF0EE40BA9FED440A2CEE000AB0EEE8
:102AF00040CAB0EE4B0A08F001FCB0EE408AB0EEDE
:102B00006B0A08F0FBFBF0EE40AAB0EE4C0A08F0AE
:102B1000F5FBF0EE408AB0EE4B0A08F037FCB0EE61
:102B2000409AB0EE6B0A08F031FCF0EE409AB0EE3D
:102B30004C0A08F02BFCB0EE40AA28EE2A0ADDED84
:102B40000D0A20EE200AF1EE680A60EE890A2AEEEC
:102B5000291A41EE080A9DED0E1A00EE810A69EE6F
:102B60000A0A28EEA91A41EE080A9DED0F1A00EE96
:102B7000810A8DED000A2AEE890ADDED0D0A60EE6C
:102B8000200A28EE880A6AEE291AB0EE401A01EEF1
:102B9000891ADDED0E1AB0EE600A01EE210AF1EE9F
:102BA000480A60EE8A0A28EEA91A41EE090A9DED4C
:102BB0000F1A00EE810A8DED010A2AEE8A0ADDED78
:102BC0000E0A20EE200ADDED0D0AB1EE691A01EEC3
:102BD000200A6AEEA80A9DED0F1A00EE810A8DED1B
:102BE000020A9DED000ADDED010A9DED021A03B017
:102BF000BDEC0A8B06B000BD34FA8E3C10B58AB02D
:102C0000044601210846FDF7FFFE0121C804FDF737
:102C10000BFF082200212A48FDF781FE082201212E
:102C20002748FDF77CFE02208DF824008DF8250052
:102C300000208DF8260001208DF82700089008A9B3
:102C40001F48FDF724FE0220089008A91C48FDF744
:102C50001EFE34208DF80C0000208DF80D0002209F
:102C60008DF80E0001208DF80F0003A8FDF784FEFB
:102C700004940020ADF81400ADF81600ADF818006B
:102C8000ADF81C000C20ADF81A0004A90D48FEF7A1
:102C900009FE0D480D4AFF210368684698470C4815
:102CA0009DE80E000EC0012240F225510548FEF7B6
:102CB000D3FD01210348FEF78CFD0AB010BD0000D2
:102CC00000000240004C00403C0B00206412002039
:102CD0006414002010B5094806F0E2F8FFF7C4FAC2
:102CE0000748C1683220884702F040FD0448C168A7
:102CF000C820884700F006F810BD000040110020F1
:102D0000880A00202DE9F04F2DED088B85B00020BA
:102D10008046814600210C460D460E460F46D4489B
:102D2000007810B101280FD106E004F055F8012811
:102D300001D1CF49087008E003F0CAFF012802D191
:102D40000220CB49087000E000BF00BFC8480078EF
:102D5000022804D005B0BDEC088BBDE8F08FC54853
:102D600040890102C448D0E90020511A60F10000F6
:102D7000C14AC2E90010BF4880890021D2E900326F
:102D8000A0FB03CA01FB03A100FB0210410241EAC0
:102D9000DC5000F5FA60C117B84A03C2B548808814
:102DA00001040022B3480089B34BD3E900C3A0FB60
:102DB0000CBE02FB0CEC00FB03C34FEADB1040EA45
:102DC0004360081842EBE312AD4905C1A9484088A9
:102DD0004FEAC0314FF00002A648C088DFF898C221
:102DE000DCE9003CA0FB03BE02FB03E300FB0C3369
:102DF0004FEA1B2040EA0360081842EB2322A14956
:102E000005C19E48D0E900304FF4FA629A1A70F179
:102E100000007DDA9848D0E90010A1FB012300FBF7
:102E2000013301FB0030D10F41EA40084FEAE0795D
:102E30009248D0E900A04FF4FA61BAEB010260F1C8
:102E40000001104608F098FE41EC1B0B9FED8E1B15
:102E5000B0EE4B0AF0EE6B0A07F04CFDB0EE40AA64
:102E6000F0EE60AA9FED8A0B53EC102B51EC1A0B7D
:102E700008F068FF09F008FBCDE90201DDE9021066
:102E800045104FEA3104DDE902014FEA900040EAC3
:102E900081764FEAA1077948D0E900107E4BC91A24
:102EA00070F1FF303DDA7548D0E900105B42C91877
:102EB00040F100020846CDE90012114608F05CFE20
:102EC00041EC1A0B9FED701BB0EE4A0AF0EE6A0A55
:102ED00007F010FDB0EE409AF0EE609A51EC190B3D
:102EE00009F0D2FA82468B4607210022AAFB010391
:102EF0000BFB01310AFB0211024614194D410B2153
:102F00004FF0000C5246A2FB010E0BFB01E100E06A
:102F100008E00AFB0C1149104FEA300296194F41A4
:102F200000BF00BF5548D0E90010B1EB080160EBCD
:102F30000900524AC2E900105148D0E90010091BAB
:102F400060EB05004E4AC2E900104E48D0E900107F
:102F5000891B60EB07004B4AC2E900104F4800682C
:102F60000023D2E9001CA0FB012A03FB01A100FB06
:102F70000C11500D40EAC12C4815414A06CABCEB61
:102F8000010360EB0201D80B40EA4140C9133B4A00
:102F9000C2E902011046D0E902200023D21A98416A
:102FA00000DAD7E63549D1E90221104609F0EEF9F9
:102FB00000EE100ADFED3A0A80EE201AB0EE419AD8
:102FC000DFED380AB0EE490A07F08EF9F7EE000A95
:102FD00030EEC00ADFED340A20EE200AB0EE408A5F
:102FE000B0EE480A314804F003FBB0EE408A3049A5
:102FF0004868804700EE100AF8EE408A2D4903C960
:1030000009F0C4F900EE100A38EEC00A1B48D0EDF2
:10301000040A78EE600A80EE801A11EE10AA50467B
:1030200009F086F99FED240B53EC102B08F08AFE73
:1030300008F0ACFA114948610846D0ED050AB0EE37
:10304000600A1F4804F0D4FA0C4880ED050A9FED91
:103050001D0A38EE400A80ED040A18EE900A09F0C5
:1030600075FA144A03C200200149087000BF71E6D6
:10307000540A002068110020380A00205011002056
:10308000480A0020400A0020000000000000004024
:10309000000000000000144024FAFFFF500A002046
:1030A00080E6C547AEDC423E002A2D47781100205D
:1030B000880A0020680A00200000000000408F40BD
:1030C000BC110020000082C210B52DED028B044619
:1030D000204608F0A2FD41EC180B9FED1A0B53ECB3
:1030E000102B08F0F3FD03D20120BDEC028B10BDC4
:1030F000204608F092FD41EC180B9FED140B53ECA9
:10310000102B08F01DFF01D20320EEE7204608F047
:1031100084FD41EC180B9FED0F0B53EC102B08F0C6
:10312000D5FD0DD2204608F078FD41EC180B9FED3F
:103130000B0B53EC102B08F003FF01D20220D4E755
:103140000020D2E70000000000406F4000000000B7
:10315000007087400000000000C0824000000000B6
:103160000000794010B50449486880470348016869
:103170004FF4E130884710BD580A0020100B0020A2
:1031800010B52DED028B86B0044603A805F0CCFCEB
:10319000684605F0C9FC684890F8FC08012810D181
:1031A000654805F02BFC6448983005F027FC63481F
:1031B00005F024FC6249C868804706B0BDEC028B6C
:1031C00010BD6048006890ED000A10EE101A084625
:1031D00009F0AEF8584AC2E902015A48006890ED79
:1031E000010A10EE101A084609F0A2F8524A983265
:1031F000C2E902015348006890ED020A10EE101A6D
:10320000084609F095F84D4AC2E9020121464A48AC
:1032100005F068F9B0EE408AF0EE608A51EC180BC8
:1032200008F0B4F9009021464348983005F05AF967
:10323000B0EE408AF0EE608A51EC180B08F0A6F967
:10324000019021463D4805F04DF9B0EE408AF0EE80
:10325000608A51EC180B08F099F902909DED000A74
:10326000B1EE400ADDED010A30EE600ADDED020A42
:1032700070EE200A3048D0F8E80800EE100AB8EEE8
:10328000C00A30EE800ABDEEC00A2D48006880ED0D
:10329000000A9DED000AB1EE400ADDED010A30EEB4
:1032A000200ADDED020A70EE600A2348D0F8E80833
:1032B00000EE100AB8EEC00A30EE800ABDEEC00A79
:1032C0001F48006880ED010A9DED000ADDED010A4E
:1032D00030EE200ADDED020A70EE200A1648D0F822
:1032E000E80800EE100AB8EEC00A30EE800ABDEE23
:1032F000C00A1348006880ED020A9DED000ADDED6A
:10330000010A30EE600ADDED020A70EE600A0A483A
:10331000D0F8E80800EE100AB8EEC00A30EE800AD5
:10332000BDEEC00A0648006880ED030A04488168C3
:103330000120884700BF40E72800002058010020F6
:10334000B80A00204C090020F0B52DED108B8BB091
:1033500005469FEDFE0B8DED080B05A805F0E4FB7F
:1033600002A805F0E1FBFB4890F8FC08012823D1F6
:10337000F94805F043FBF848983005F03FFBF74863
:1033800005F03CFBF648406890ED020AF54880EDF8
:103390003B0AD0ED3B0AB0EE600A03F0CDFD10EE23
:1033A000106A304608F0C4FFEA4A02F53E7203C2D2
:1033B0000BB0BDEC108BF0BDE64890F8000920B1D1
:1033C000E44890F8000901287DD1E7490968488858
:1033D00008F023FC41EC1E0B9FEDE40B53EC102B8B
:1033E00008F0BCFE41EC1D0B08F0D0F809EE100A05
:1033F000E049F2EE040AB0EE490A4868804710EE50
:10340000106A304608F094FF41EC1C0B9FEDDA0B7C
:1034100053EC102B08F0A8F941EC1B0B9FEDD80BD7
:1034200053EC102B08F08EFC41EC1A0B08F0AEF8B0
:1034300008EE900AB0EE680A03F07EFD8DED050AF5
:10344000C9490968088808F0E8FB41EC1E0B9FEDAC
:10345000C70B53EC102B08F081FE41EC1D0B08F05C
:1034600095F809EE100AC349F2EE040AB0EE490AD3
:103470004868804710EE106A304608F059FF41EC6A
:103480001C0B9FEDBD0B53EC102B08F06DF941ECBC
:103490001B0B9FEDBB0B53EC102B08F053FC41ECC6
:1034A0001A0B08F073F808EE900AB0EE680A03F001
:1034B00043FD8DED060AA74890F8FF0801280BD1BF
:1034C000A748406800E00EE0D0ED020AA54890ED64
:1034D0003B0A30EEC08A27E09E4890F8FF0818BBF0
:1034E0009FEDA98A20E09B4890F8000902281BD193
:1034F000984890EDE81BB0EE410AF0EE610A51ECFD
:10350000100B08F043F80590A04890ED041BB0EEB6
:10351000410AF0EE610A51EC100B08F037F8069002
:103520008F48406890ED028A9FED990AB4EEC08AF8
:10353000F1EE10FA06DD9FED970A38EE400AB0EE84
:10354000408A18E09FED940AB4EEC08AF1EE10FABA
:1035500006D29FED900A38EE000AB0EE408A0AE0EB
:1035600000BFB0EEC80ADFED8A0AB4EEE00AF1EE61
:1035700010FA00D200BF9DED061AF0EE410A9DED53
:10358000051AB0EE410A7B49B0EE481AC868804778
:103590008DED050ACDED060A8DED071A9DED050AA4
:1035A000DFED7E0A20EE200A10EE101A084608F021
:1035B000BFFE41EC190B674890ED721BB0EE410A5B
:1035C000F0EE610A53EC102B9FED751B51EC110BC3
:1035D00008F0B8FB41EC1A0B53EC192B08F008F873
:1035E0005C4A02F5E47203C29DED060ADFED6B0A48
:1035F00020EE200A10EE101A084608F099FE41EC61
:10360000190B544890ED981BB0EE410AF0EE610A98
:1036100053EC102B9FED621B51EC110B08F092FB49
:1036200041EC1A0B53EC192B07F0E2FF494A02F563
:10363000187203C24A484068D0ED000AB0EE600A32
:1036400003F07AFC10EE106A304608F071FE424A30
:10365000C2E9020142484068D0ED010AB0EE600ABA
:1036600003F06AFC10EE106A304608F061FE3A4A38
:103670009832C2E902012946374804F033FFB0EE20
:1036800040AAF0EE60AA3B499FED472B9FED481BF7
:1036900008688047B0EE409AF0EE609A51EC190B42
:1036A00007F074FF029029462B48983004F01AFF67
:1036B000B0EE40AAF0EE60AA2E499FED3B2B9FEDA5
:1036C0003C1B08688047B0EE409AF0EE609A51ECDF
:1036D000190B07F05BFF03909DED020ADFED2F0A47
:1036E00020EE200A10EE101A084608F021FE41ECE8
:1036F000190B184890ED001BB0EE410AF0EE610A7C
:1037000053EC102B9FED261B51EC110B08F01AFB0C
:1037100041EC1A0B53EC192B07F06AFF0D4A03C258
:103720009DED030ADFED1D0A20EE200A10EE101AAF
:10373000084608F0FDFD41EC190B064890ED261BEC
:10374000B0EE410AF0EE610A36E000000000000031
:103750000000000028000020F001002020030020CD
:103760004C09002028080020D40A00200000000096
:1037700000407F40D40900200000000000408F403E
:103780000000000000003440000000005004002051
:10379000000034430000B443000034C3CDCCCC3D22
:1037A000000000C0CCCCEC3F00000020FB21E9BFB2
:1037B00000000020FB21E93F53EC102B1FED081BFC
:1037C00051EC110B08F0BEFA41EC1A0B53EC192B1B
:1037D00007F00EFF934A03C293484068D0ED020AF7
:1037E000B0EE600A03F0A8FB10EE106A304608F055
:1037F0009FFD8E4AC2E90201A2F53E7090EDC00B1A
:103800008DED080B90EDC02BB0EE420AF0EE620A8F
:1038100090EDBE2BB0EE421AF0EE621A53EC102B74
:1038200051EC110B08F09AFC41EC190B9FED800B49
:1038300053EC102B08F084FB13D27A48983890EDA3
:10384000C01BB0EE410AF0EE610A9FED7B1B53EC0A
:10385000112B51EC100B07F0CBFE744AC2E90201A8
:103860002FE07048983890EDC02BB0EE420AF0EE91
:10387000620A90EDBE2BB0EE421AF0EE621A53ECE3
:10388000102B51EC110B08F069FC41EC190B9FED6A
:103890006C0B53EC102B08F019FA12D261489838CF
:1038A00090EDC01BB0EE410AF0EE610A9FED621B85
:1038B00053EC112B51EC100B08F050FC5B4AC2E9A1
:1038C00002012946594804F00DFEB0EE40AAF0EE80
:1038D00060AA5D491FED4C2B1FED4B1B086880470C
:1038E000B0EE409AF0EE609A51EC190B07F04EFEE4
:1038F0000490564A1268D088544AD16888470446D2
:10390000022C64D09DED080B4648983880EDBE0B24
:103910004E490968C88808F080F941EC1F0B1FED7B
:103920006D0B53EC102B08F041FB41EC1E0B07F024
:103930002DFE08EE900A4449F2EE040AB0EE680A41
:103940004868804710EE107A384608F0F1FC41ECE8
:103950001D0B1FED770B53EC102B07F005FF41EC0F
:103960001C0B1FED790B53EC102B08F0EBF941EC1D
:103970001B0B07F00BFE01909DED010A03F0DCFA32
:103980005FED7A0A20EE200A10EE106A304608F049
:10399000CFFC41EC190B2348983890ED4C1BB0EE4E
:1039A000410AF0EE610A53EC102B1FED831B51EC22
:1039B000110B08F0C7F941EC1A0B53EC192B07F067
:1039C00017FE184A983A02F5987203C227E09DED57
:1039D000040A5FED8E0A20EE200A10EE101A084647
:1039E00008F0A6FC41EC190B0E48983890ED4C1BE2
:1039F000B0EE410AF0EE610A53EC102B1FED981B5C
:103A000051EC110B08F09EF941EC1A0B53EC192BF9
:103A100007F0EEFD034A983A02F5987203C200BF20
:103A2000C6E40000C00000204C0900202003002054
:103A300000000060FB21094000000060FB211940EC
:103A400000000060FB2109C0D4090020D40A002036
:103A500010B586B0734805F086FA3C21714805F030
:103A6000FDFA704805F0AAFA03216E4805F0F6FA4F
:103A70006C4805F0A3FA6B4805F075FA3D216948DA
:103A800005F0ECFA674805F099FA002409E065486A
:103A900005F0BDFA04A90855624805F0E6F9601C76
:103AA000C4B2052CF3DB5F4805F0B1FA8DF81500C0
:103AB0005C4805F03DFA5B4805F017FA9DF81100E7
:103AC0009DF8101040EA012000B2404200EE100ABA
:103AD000B8EEC00A5448406880ED030A9DF8130010
:103AE0009DF8121040EA012000B2404200EE100A98
:103AF000B8EEC00A4C48406880ED050A9DF81500F4
:103B00009DF8141040EA012000B200EE100AB8EE51
:103B1000C00A4548406880ED040A4348406800F107
:103B20000C014148406800F10C0291ED021AD1ED00
:103B3000010A91ED000A3D48144603F0B8FE84EDF9
:103B4000000AC4ED010A84ED021A01A804F0ECFF9A
:103B50003548406890ED030A33484068D0ED090AC3
:103B600030EE600A30484068D0ED060A80EE201A38
:103B70008DED011A2C48406890ED040A2A484068EF
:103B8000D0ED0A0A30EE600A27484068D0ED070AF7
:103B900080EE201A8DED021A2348406890ED050A48
:103BA00021484068D0ED0B0A30EE600A1E4840689C
:103BB000D0ED080A80EE201A8DED031A9DED010A62
:103BC00020EE000ADDED020A9DED021A00EE810AE8
:103BD000DDED030A9DED031A00EE810A12484068EC
:103BE00080ED0C0A10484068D0ED0C0AB7EE001AC0
:103BF00030EEC10AF0EEC00A9FED0D0AF4EEC00AE5
:103C0000F1EE10FA08D20020074908700846406813
:103C100001A90EC90EC002E001200349087006B0D8
:103C200010BD0000C4100020240A0020D010002085
:103C3000CDCC4C3E10B501F06DFC01F001FD01F062
:103C40006FFE10BD00B589B001210846FCF7ECFEFF
:103C50004FF08040FDF7B4F94FF4FA6002905348FA
:103C60000068400800EE100AB8EE400A9FED501AB6
:103C7000C0EE010A9FED4F0A80EE801ABCEEC10A29
:103C800010EE100A401E80B2ADF804000020ADF81E
:103C90000C00ADF8060001A94FF08040FDF736FC9E
:103CA0006020ADF810000120ADF812004FF46170F3
:103CB00006900020ADF81C0004A94FF08040FDF7ED
:103CC0004DFB0821C806FDF799FB04A94FF0804081
:103CD000FDF79EFB0821C806FDF7D6FB01218807EA
:103CE000FDF752F901218807FDF75DF90121022056
:103CF000FCF79AFE3048FDF763F94FF4FA60029042
:103D00002A480068400800EE100AF8EE400A9FEDCD
:103D1000281A80EE810ADFED270A80EE201ABCEE19
:103D2000C10A10EE100A401E80B2ADF80400002057
:103D3000ADF80C00ADF8060001A91F48FDF7E6FB41
:103D40006020ADF810000120ADF812004FF4617052
:103D500006900020ADF81C0004A91748FDF756FA9C
:103D600008211548FDF790FA04A91348FDF796FAC3
:103D700008211148FDF7E4FA04A90F48FDF7EEFA0F
:103D800008210D48FDF73AFB04A90B48FDF740FB5D
:103D900008210948FDF778FB01210748FDF7F4F8F1
:103DA00001210548FDF7FFF809B000BD6C0B0020AC
:103DB0000000FA430000FA440004004010B52DED65
:103DC000048B84B0044601A804F0AEFEA14890F82C
:103DD000FC0801280DD1A04804F010FE9E48983040
:103DE00004F00CFE9D4804F009FE04B0BDEC048B09
:103DF00010BD984890F8000950B9974804F0FEFDAE
:103E00009548983004F0FAFD944804F0F7FDECE78B
:103E1000904890F80009012807D18F4804F0EEFD82
:103E20008D48983004F0EAFDB0E08A4890F8000927
:103E30000228F9D18A4890ED030A10EE101A0846BC
:103E400008F076FA41EC180B86499FED872B9FED21
:103E5000881BB0EE480AF0EE680A086880477E4882
:103E600080ED020B214604F03DFBB0EE409AF0EEEF
:103E7000609A7C499FED802B9FED811B08688047ED
:103E8000B0EE408AF0EE608A51EC180B07F07EFB32
:103E900001909DED010ADFED7C0A20EE200A10EE74
:103EA000101A084608F044FA41EC180B694890EDE6
:103EB000E41BB0EE410AF0EE610A53EC102B9FEDCB
:103EC000731B51EC110B07F03DFF41EC190B53EC48
:103ED000182B07F08DFB5F4A02F5647203C260483D
:103EE00090ED040A10EE101A084608F021FA41EC91
:103EF000180B5C499FED5C2B9FED5D1BB0EE480AF3
:103F0000F0EE680A086880475348983080ED020B4D
:103F1000214604F0E7FAB0EE409AF0EE609A51497B
:103F20009FED552B9FED561B08688047B0EE408AE9
:103F3000F0EE608A51EC180B07F028FB02909DED23
:103F4000020ADFED510A20EE200A10EE101A084690
:103F500008F0EEF941EC180B4E4890ED0A1BB0EE5C
:103F6000410AF0EE610A53EC102B9FED481B51EC17
:103F7000110B07F0E7FE41EC190B53EC182B07F07F
:103F800037FB0A4601464348C0E90A12314890F817
:103F90000009012804D02F4890F80009022856D1C2
:103FA0002F4890ED050A10EE101A084608F0C0F9E7
:103FB00041EC180B2B499FED302B9FED311BB0EEE0
:103FC000480AF0EE680A08688047244880ED020B32
:103FD000214604F087FAB0EE409AF0EE609A21494B
:103FE0009FED2D2B9FED2E1B08688047B0EE408A79
:103FF000F0EE608A51EC180B07F0C8FA03909DEDC3
:10400000030ADFED210A20EE200A10EE101A0846FE
:1040100008F08EF941EC180B1E4890ED301BB0EE05
:10402000410AF0EE610A53EC102B9FED181B51EC86
:10403000110B07F087FE41EC190B53EC182B07F01E
:10404000D7FA0A460146034800F5986006C000BF4B
:10405000CBE600002800002080050020B0060020EC
:1040600080090020D40900200000000000003EC0AC
:104070000000000000003E4000000000000044C0BE
:104080000000000000004440CDCC4C3F0000008008
:104090009999C93F280400200000000000004EC08C
:1040A0000000000000004E4001B598B015A804F0D3
:1040B0003BFD12A804F038FDFC4890F8FC080128EC
:1040C00035D1FB4804F09AFCF948983004F096FC8E
:1040D000F84804F093FCF7483030F74B0ECB7030C3
:1040E0000EC0F248D0F8F008109008F021F90A4606
:1040F0000146EE4800F5E46006C0EC48D0F8F4084C
:10410000109008F015F90A460146E84800F5F760F6
:1041100006C0E648D0F8F808109008F009F90A46F9
:104120000146E4485038C0E9141219B000BDDF4818
:1041300090F8000958BBE0480068109008F0F8F8C3
:104140000A460146D94800F5E46006C0DA484068EE
:10415000109008F0EDF80A460146D44800F5F760E3
:1041600006C0D5488068109008F0E2F80A4601467B
:10417000D0485038C0E91412E03804F03FFCCC4875
:10418000983004F03BFCCB4804F038FCCDE7C7483E
:1041900090F80009012807D1C54804F02FFCC44855
:1041A000983004F02BFCBCE2C04890F800090228CB
:1041B000F9D1BE4890F8FF0830B9BE48503890EDAC
:1041C0003B0A8DED110A05E0BC48406890ED020AFB
:1041D0008DED110ABA48006800880E90B848C06892
:1041E0000D90DDE90D1088471090B54800684088B3
:1041F0000E90B348C0680D90DDE90D1088470F9010
:10420000109802283FD0AE4800680088039007F05D
:1042100004FD9FEDAC0B53EC102BCDE904019DED9B
:10422000040B51EC100B07F099FF9FEDA80B53EC1A
:10423000102BCDE906019DED060B51EC100B07F09C
:1042400093FA9FEDA40B53EC102BCDE908019DEDE3
:10425000080B51EC100B07F075FD9FEDA00B53EC14
:10426000102BCDE90A019DED0A0B51EC100B07F064
:1042700069FDCDE90C019DED0C0B51EC100B07F025
:1042800085F9159003E09FED970A8DED150A0F98BB
:1042900002283FD08A4800684088039007F0BDFCA0
:1042A0009FED880B53EC102BCDE904019DED040B21
:1042B00051EC100B07F052FF9FED840B53EC102BC9
:1042C000CDE906019DED060B51EC100B07F04CFA01
:1042D0009FED800B53EC102BCDE908019DED080BF1
:1042E00051EC100B07F02EFD9FED7C0B53EC102BC7
:1042F000CDE90A019DED0A0B51EC100B07F022FDF0
:10430000CDE90C019DED0C0B51EC100B07F03EF9C3
:10431000169003E09FED730A8DED160A9DED160AC7
:104320008DED0E0A9DED150A8DED0D0A6E48C068E3
:104330000C909DED111ADDED0E0A9DED0D0A8047E2
:104340008DED150ACDED160A8DED171A5748D0F8E8
:10435000F008099007F0ECFFCDE90C015548503802
:1043600090ED3C0ADFED610A30EE200A8DED090A7E
:10437000099807F0DDFFCDE90A015D4890EDC80B13
:104380008DED080B5848006807909DED0C2B9DEDB6
:104390000A1B9DED080B8047554880EDC80B43482C
:1043A000D0F8F008079007F0C3FFCDE90C013F48B3
:1043B000D0F8F008059007F0BBFF9FED4E0B53ECD3
:1043C000102BCDE906019DED060B51EC100B07F00B
:1043D0000FF9CDE90A0138480068079007F0A8FFF7
:1043E000CDE908014048006807909DED0C2B9DED3C
:1043F0000A1B9DED080B80472D4880ED020B189994
:1044000004F070F88DED0A0B374800689FED3B2BE8
:104410009FED321B09909DED0A0B80478DED0C0B33
:104420009DED0C0B51EC100B07F0B0F812909DEDC8
:10443000150AB5EEC00AF1EE10FA6AD01E480068FF
:104440000E9007F075FF194A02F5E46203C29DED74
:10445000150ADFED2C0A20EE200A8DED090A0998D5
:1044600007F066FFCDE90C01214890ED560B8DED6C
:10447000080B9DED080B53EC102B9FED230B51EC1B
:10448000100B07F05FFCCDE90A019DED0C0B53EC1E
:10449000102B9DED0A0B51EC100B07F0A9F80A4602
:1044A0000146024800F5AB6006C05EE0280000202F
:1044B0004807002078080020800900204C090020CF
:1044C000D40A00200000000000407F4000000000EF
:1044D00000408F400000000000000040000000008D
:1044E00000003E4000000000D409002000004844C5
:1044F000280400200000000000C0924000000000DE
:1045000000003EC0CDCCCC3D000000C0CCCCEC3F88
:10451000FFE79DED120A5FED050A20EE200A8DED02
:10452000090A099807F004FFCDE90C01FC4890ED59
:10453000A20B8DED080B9DED080B53EC102B1FED1E
:104540000E0B51EC100B07F0FDFBCDE90A019DEDC0
:104550000C0B53EC102B9DED0A0B51EC100B07F0DC
:1045600047F8F04A02F5AB6203C2EE48D0F8F4080F
:10457000099007F0DDFECDE90C01EB4890ED010A52
:104580005FED260A30EE200A8DED090A099807F042
:10459000CFFECDE90A01E24890EDEE0B8DED080B60
:1045A000E248006807909DED0C2B9DED0A1B9DEDE8
:1045B000080B8047DA4880EDEE0BDA48D0F8F408B3
:1045C000079007F0B5FECDE90C01D648D0F8F40805
:1045D000059007F0ADFE1FED390B53EC102BCDE924
:1045E00006019DED060B51EC100B07F001F8CDE92B
:1045F0000A01CF484068079007F09AFECDE908010C
:10460000CA48006807909DED0C2B9DED0A1B9DED9F
:10461000080B8047C74880ED020B189903F062FF32
:104620008DED0A0BC14800681FED4C2B1FED551B8B
:1046300009909DED0A0B80478DED0C0B9DED0C0B49
:1046400051EC100B06F0A2FF13909DED160AB5EE8B
:10465000C00AF1EE10FA35D0B54840680E9007F068
:1046600067FEB04A02F5F76203C29DED160A5FEDE0
:104670005B0A20EE200A8DED090A099807F058FE22
:10468000CDE90C01A64890ED7C0B8DED080B9DED5E
:10469000080B53EC102B1FED640B51EC100B07F0C3
:1046A00051FBCDE90A019DED0C0B53EC102B9DED58
:1046B0000A0B51EC100B06F09BFF9A4A02F5BE6202
:1046C00003C22DE09DED130A5FED720A20EE200A71
:1046D0008DED090A099807F02BFECDE90C019048F1
:1046E00090ED7C0B8DED080B9DED080B53EC102B22
:1046F0001FED7B0B51EC100B07F024FBCDE90A01F9
:104700009DED0C0B53EC102B9DED0A0B51EC100B97
:1047100006F06EFF0A460146824800F5BE6006C0FC
:1047200000BF804890F80009012804D07D4890F827
:10473000000902287ED17B48D0F8F8080B9007F0DA
:10474000F7FDCDE90E01784890ED020ADFED7A0A17
:1047500030EE200A8DED0B0A0B9807F0E9FDCDE94C
:104760000C017448483090ED140B8DED0A0B6F4826
:10477000006809909DED0E2B9DED0C1B9DED0A0B25
:1047800080476C48483080ED140B6648D0F8F80834
:10479000099007F0CDFDCDE90E016248D0F8F80888
:1047A000079007F0C5FD9FED650B53EC102BCDE98D
:1047B00008019DED080B51EC100B06F019FFCDE937
:1047C0000C015B488068099007F0B2FDCDE90A0151
:1047D0005648006809909DED0E2B9DED0C1B9DED3C
:1047E0000A0B80475348983080ED020B189903F06C
:1047F00079FE8DED0C0B4D4800689FED522B9FED1F
:10480000531B0B909DED0C0B80478DED0E0B9DED1A
:104810000E0B51EC100B06F0B9FE14904D480068D9
:1048200080880F904B48C0680E90DDE90E108847D5
:10483000109000E0C1E01098022870D03C488068D9
:104840000F9007F075FD0A4601463A484830C0E926
:104850001412404800688088019007F0DEF91FEDCF
:10486000E70B53EC102BCDE902019DED020B51EC4F
:10487000100B07F073FC1FEDEB0B53EC102BCDE985
:1048800004019DED040B51EC100B06F06DFF1FEDC4
:10489000EF0B53EC102BCDE906019DED060B51EC0F
:1048A000100B07F04FFA9FED290B53EC102BCDE9BD
:1048B00008019DED080B51EC100B07F043FA9FED3A
:1048C000260B53EC102BCDE90A019DED0A0B51ECA0
:1048D000100B07F037FACDE90E01114890EDA20B4D
:1048E0008DED0A0B9DED0A0B53EC102B1FEDFA0B0F
:1048F00051EC100B07F026FACDE90C019DED0E0BE3
:1049000053EC102B9DED0C0B51EC100B06F070FED0
:104910000A460146034800F5D16006C04CE01FE09E
:10492000280400202800002018090020D4090020B5
:1049300080090020E00700200000FA43000000008A
:104940000070874000000000000044C0000000002C
:1049500000004440D40A0020000000A09999B93F0B
:104960009DED140ADFED160A20EE200A8DED0B0AEC
:104970000B9807F0DDFCCDE90E01124890EDA20B7B
:104980008DED0A0B9DED0A0B53EC102B9FED0E0BDA
:1049900051EC100B07F0D6F9CDE90C019DED0E0B93
:1049A00053EC102B9DED0C0B51EC100B06F020FE80
:1049B000074A02F5D16203C200BF00BFFFF7B5BBD3
:1049C000CDCCCC3D28040020000000C0CCCCEC3F76
:1049D0002800002010B52DED0A8BB749088807F094
:1049E0001CF941EC180B9FEDB50B53EC102B07F0A5
:1049F000A7FA26D8B348006807F09AFC41EC1A0BD6
:104A0000AD49088807F009F941EC1C0B9FEDAB0B91
:104A100053EC102B07F0A2FB41EC1B0B53EC1A2BB1
:104A200007F090F941EC190B9FEDA70B53EC102BFD
:104A300006F0DEFD41EC180B07F05AF8A449088097
:104A400002E00020A24908809B49488807F0E5F869
:104A500041EC180B9FED990B53EC102B07F070FAFB
:104A600026D89848006807F063FC41EC1A0B92497D
:104A7000488807F0D2F841EC1C0B9FED900B53ECEB
:104A8000102B07F06BFB41EC1B0B53EC1A2B07F0C0
:104A900059F941EC190B9FED8C0B53EC102B06F0E0
:104AA000A7FD41EC180B07F023F88949488002E084
:104AB0000020874948808049888807F0AEF841EC9B
:104AC000180B9FED7E0B53EC102B07F039FA26D80C
:104AD0007C48006807F02CFC41EC1A0B764988886A
:104AE00007F09BF841EC1C0B9FED740B53EC102B63
:104AF00007F034FB41EC1B0B53EC1A2B07F022F9A7
:104B000041EC190B9FED700B53EC102B06F070FD70
:104B100041EC180B06F0ECFF6D49888002E00020A4
:104B20006B4988806449C88807F077F841EC180B16
:104B30009FED620B53EC102B07F002FA26D8614868
:104B4000006807F0F5FB41EC1A0B5B49C88807F0D9
:104B500064F841EC1C0B9FED590B53EC102B07F044
:104B6000FDFA41EC1B0B53EC1A2B07F0EBF841EC70
:104B7000190B9FED550B53EC102B06F039FD41EC52
:104B8000180B06F0B5FF5249C88002E000205049DA
:104B9000C8804949088907F040F841EC180B9FED9F
:104BA000470B53EC102B07F0CBF926D8454800688B
:104BB00007F0BEFB41EC1A0B3F49088907F02DF8BE
:104BC00041EC1C0B9FED3D0B53EC102B07F0C6FA8C
:104BD00041EC1B0B53EC1A2B07F0B4F841EC190B0A
:104BE0009FED390B53EC102B06F002FD41EC180B36
:104BF00006F07EFF3649088102E000203449088132
:104C00002D49488907F009F841EC180B9FED2B0B53
:104C100053EC102B07F094F926D82A48006807F0C7
:104C200087FB41EC1A0B2449488906F0F6FF41EC5A
:104C30001C0B9FED220B53EC102B07F08FFA41EC6D
:104C40001B0B53EC1A2B07F07DF841EC190B9FED71
:104C50001E0B53EC102B06F0CBFC41EC180B06F0AE
:104C600047FF1B49488102E0002019494881184844
:104C7000408800EE900AF8EE600AB0EE600A15482F
:104C800002F06AFEBCEEC00A10EE100A104948801D
:104C9000114800880A2803DD00201049087407E045
:104CA0000D480088401C0C49088001200B490874FD
:104CB000BDEC0A8B10BD000018120020000000009F
:104CC00000409F40CC0A00200000000000000000CF
:104CD0002412002030120020D00A0020D40A002024
:104CE00070B506460C4600250A48C079A04201DA94
:104CF000002070BD002509E0701907498A68054940
:104D0000904708B90020F4E7681C85B2A542F3DBA0
:104D10000120EEE7841700203C0B002031B52DED7B
:104D2000040B2DED108B86B005469FED890AB0EE81
:104D300040FA9FED870AF0EE408A9FED850A8DEDDF
:104D4000040A002483480088401C824908802846C1
:104D500006F063FF41EC1A0B9FED7F0B53EC102B19
:104D600006F002FD41EC190B06F010FC08EE100AEB
:104D70007B48006890ED040A10EE101A084607F010
:104D8000D7FA41EC1A0B9FED770B53EC102B06F082
:104D9000D9FF41EC190B06F0F9FB04909DED180AC0
:104DA000F0EE40FA7148D0ED020A9DED040A30EEB3
:104DB000600AF0EE408A9FED6E0A68EE800A6D4848
:104DC00090ED000A00EE880A80ED000A9FED6A0A65
:104DD00068EE800A694890ED000A00EE880A80EDCE
:104DE000000A9FED670A68EE800A664890ED000AA7
:104DF00000EE880A80ED000A5C4890ED080A6248DF
:104E000080ED000A5B4890ED000A3FEE800A5748AB
:104E100080ED080A90ED080A5B48D0ED000A30EEFC
:104E2000200A20EE080A10EE101A084607F080FA51
:104E300041EC1A0B9FED550B53EC102B06F094FC34
:104E400041EC190B06F0A2FB0FEE100A18EE100A47
:104E500007F06EFA41EC1C0B1FEE100A07F068FA1F
:104E60009FED4C0B53EC102BCDE900019DED000B99
:104E700051EC100B06F066FF41EC1D0B3B4890ED2A
:104E8000050A10EE101A084607F052FA41EC1E0B04
:104E900053EC1D2B06F0ACFB53EC1C2BCDE90201AF
:104EA0009DED020B51EC100B06F04CFF41EC1A0B80
:104EB0003A48006807F03CFA41EC1B0B53EC1A2B04
:104EC00006F096FB41EC190B06F060FB33490860D5
:104ED000084690ED000A2B48D0ED000A30EE200A7B
:104EE000224880ED020A2E4890ED000A30EE0F0AAB
:104EF00080ED000A90ED000A2048D0ED000A30EE67
:104F0000200A1A4880ED050A12480088012819DB9A
:104F10003C240CE0601E234901EB800090ED000A68
:104F2000084600EB840080ED000A601E84B2002C6D
:104F3000F0DC0E4890ED020A1A4880ED000A0020CD
:104F40000449088006B0BDEC108B05B030BD0000F0
:104F500000000000C40900200000000000408F4055
:104F6000580A00200000000000005940800900207D
:104F70006F12833DAC0900208FC2F53EB0090020BE
:104F8000CDCC4C3FB4090020B8090020000000003F
:104F900000000040000000000000E03FC0090020C9
:104FA000BC090020D00D00201CB501210846FBF7EC
:104FB0002BFD01210220FBF727FDC82000900220D5
:104FC0008DF8040003208DF8050000208DF8060000
:104FD00001208DF8070069461A48FBF758FC0122AA
:104FE00003211848FBF79BFC022206211548FBF71A
:104FF00096FC022207211348FBF791FC40F2034084
:10500000009002208DF8040003208DF80500002098
:105010008DF8060001208DF8070069460A48FBF765
:1050200036FC022200210848FBF779FC022201210C
:105030000548FBF774FC01220A210348FBF76FFCCB
:105040001CBD000000000240000402403EB50446C2
:1050500068469FED430A80ED000A9FED410A80ED0E
:10506000010A9FED3F0A80ED020A00BF3D4A5268E7
:1050700092ED000AF0EE402A3A4A526892ED010A97
:10508000B0EE402A374A526892ED020AF0EE401A1A
:10509000354A526802F11800344A916890ED021ABC
:1050A000D0ED010A90ED000A88478DED000ACDEDA4
:1050B000010A8DED021A9DED000ADFED2D0A80EE4A
:1050C000201A8DED001A9DED000ADFED2A0A20EE70
:1050D000200A8DED000A9DED010ADFED250A80EE24
:1050E000201A8DED011A9DED010ADFED220A20EE56
:1050F000200A8DED010A9DED020ADFED1D0A30EE5A
:10510000600A8DED020A9DED020ADFED190A80EEBC
:10511000201A8DED021A9DED020ADFED160A20EE2F
:10512000200A8DED020A9DED000A134880ED000A69
:105130009DED010A80ED010A9DED021ADDED010AE7
:105140009DED000A2046FFF7E9FD9DED021ADDED19
:10515000010A9DED000A204602F03AF93EBD00002A
:10516000000000004C090020080A0020D40900209B
:1051700000F07F4500007544500C002010B52DED67
:10518000048B044624480068001B00EE900AB8EE29
:10519000E00AF0EEC00A9FED210AF4EEC00AF1EE3B
:1051A00010FA05D21E4890ED000ABDEC048B10BD2C
:1051B00000EE104AB8EEC00ADFED1A0A20EE200A0F
:1051C000DFED190A20EE208AB0EE480A04F0BCF99F
:1051D000134880ED000A006807F0AAF841EC190BAB
:1051E00012499FED132B9FED141BB0EE490AF0EE10
:1051F000690A08688047B0EE408AF0EE608A51EC98
:10520000180B06F0C3F90649086003480460084615
:1052100090ED000AC9E70000E80900200050C347EC
:10522000EC09002095BFD63334FA8E3CD409002017
:1052300000000040E17A843F000000000000F03FE1
:1052400070B52DED028B0446A3490968488906F024
:10525000E4FC41EC180B9FEDA10B53EC102B06F076
:1052600035FD1CD29F48006890F8000958B19E484F
:1052700000880A2807DD00209A49096881F800099A
:105280009949088064E09748006890F80009002870
:105290005ED095480088401C9349088058E08E49AC
:1052A0000968488906F0B9FC41EC180B9FED8B0B9F
:1052B00053EC102B06F044FE2CD28749096848892C
:1052C00006F0ABFC41EC180B9FED880B53EC102B58
:1052D00006F0FCFC1ED28348006890F80009012803
:1052E0000CD0814800880A2808DD01207D49096822
:1052F00081F8000900207C49088029E0794800688D
:1053000090F80009012823D077480088401C76498E
:1053100008801DE07348006890F8000902280CD04E
:10532000714800880A2808DD02206E49096881F862
:10533000000900206C4908800AE06A48006890F87B
:105340000009022804D068480088401C664908808B
:105350006448006890F8FC08012843D100206549A2
:1053600008805D490968888806F057FC41EC180BF5
:105370009FED610B53EC102B06F0A8FC01D2012528
:1053800000E0002554490968C88806F046FC41EC55
:10539000180B9FED5B0B53EC102B06F0D1FD01D2E7
:1053A000012000E0002028404E49096891F8FD18CE
:1053B00009B9012100E00021084078B15248008875
:1053C00020445149088008460088B0F5FA6F4EDD48
:1053D00000204449096881F8FC0848E000204A4957
:1053E000088044E03F48006890F8FD08012804D197
:1053F0003C49096881F8FC0839E0002042490880EE
:1054000035490968888806F008FC41EC180B9FEDC7
:105410003A0B53EC102B06F059FC01D2012500E0A9
:1054200000252D490968C88806F0F7FB41EC180BE8
:105430009FED330B53EC102B06F082FD01D20120BF
:1054400000E0002005402DB12A4800882044294969
:10545000088002E000202749088026480088B0F52F
:10546000FA6F04DD01201F49096881F8FC081D4816
:10547000006890F8FC0860B92448008840F00100FA
:10548000224908802248C82102694FF40050904701
:105490000CE01E48008820F001001C4908801C48D0
:1054A0004FF4FA7102694FF4005090470D480068BC
:1054B00090F8FD0830B11548008840F0020013490B
:1054C000088005E01148008820F002000F4908809C
:1054D000BDEC028B70BD0000D40A0020000000006B
:1054E0000000594030090020D209002000000000CF
:1054F00000208C40CE0900200000000000C0624067
:105500000000000000908A40D00900201400002014
:10551000A00A00201FB53C22D021464803F045FCDC
:10552000C0B28DF808003B22D021424803F03DFC78
:10553000C0B28DF809009DF808009DF8091040EAF6
:10554000012000B2ADF800003E22D021394803F01E
:105550002CFCC0B28DF80A003D22D021354803F062
:1055600024FCC0B28DF80B009DF80A009DF80B10CA
:1055700040EA012000B2ADF802004022D0212D48BF
:1055800003F013FCC0B28DF80C003F22D021294853
:1055900003F00BFCC0B28DF80D009DF80C009DF8D7
:1055A0000D1040EA012000B2ADF80400BDF9000082
:1055B00000EE100AB8EEC00A1F4880ED000ABDF9DF
:1055C000020000EE100AB8EEC00A1B4880ED010A86
:1055D000BDF9040000EE100AB8EEC00A164880EDCE
:1055E000020A90ED000AD0ED0C0A30EE600A80ED60
:1055F000060A90ED010AD0ED0D0A30EE600A80ED4A
:10560000070A90ED020AD0ED0E0A30EE600A80ED36
:10561000080A90ED081AD0ED070A90ED060A07482F
:1056200001F060FF044880ED060AC0ED070A80ED36
:10563000081A1FBDE00F002064100020EC0F0020AE
:105640001FB54422D021464803F0AFFBC0B28DF80D
:1056500008004322D021424803F0A7FBC0B28DF8D6
:1056600009009DF808009DF8091040EA012000B2E9
:10567000ADF800004622D021394803F096FBC0B2B5
:105680008DF80A004522D021354803F08EFBC0B2C8
:105690008DF80B009DF80A009DF80B1040EA0120E0
:1056A00000B2ADF802004822D0212D4803F07DFB66
:1056B000C0B28DF80C004722D021294803F075FBB9
:1056C000C0B28DF80D009DF80C009DF80D1040EA59
:1056D000012000B2ADF80400BDF9000000EE100A90
:1056E000B8EEC00A1F4880ED030ABDF9020000EEC3
:1056F000100AB8EEC00A1B4880ED040ABDF9040088
:1057000000EE100AB8EEC00A164880ED050A90EDCA
:10571000030AD0ED0F0A30EE600A80ED090A90ED21
:10572000040AD0ED100A30EE600A80ED0A0A90ED0E
:10573000050AD0ED110A30EE600A80ED0B0A90EDFB
:105740000B1AD0ED0A0A90ED090A074802F0AFF8EB
:10575000044880ED090AC0ED0A0A80ED0B1A1FBD4E
:10576000E00F0020641000203010002070B50024ED
:1057700035E01C4803F0F7FBEE211A4803F06EFCFD
:10578000184803F01BFCA02000EB4400C1B21548F0
:1057900003F064FC134803F011FC124803F0E3FB30
:1057A000EF21104803F05AFC0E4803F007FC0D48A7
:1057B00003F02DFC05460B4803F057FB094803F0A6
:1057C00026FC0646074803F0B3FB064803F08DFBB2
:1057D00046EA0520044921F81400601CC4B2062CD6
:1057E000C7DD70BD401100206811002000B587B0F2
:1057F00001210420FBF718F94748FBF7E1FB4FF6BE
:10580000FF7002902920ADF804000020ADF80C00D4
:10581000ADF8060001A94048FBF778FE0020ADF87E
:1058200012000120ADF814000020ADF81600ADF80C
:105830001800ADF8100004A93748FBF7A6FC0420B7
:10584000ADF8100004A93448FBF79FFC0820ADF820
:10585000100004A93048FBF798FC0C20ADF81000AC
:1058600004A92D48FBF791FC01212B48FBF79BFB7A
:10587000012202212848FBF7BFFC0122042126480F
:10588000FBF7BAFC012208212348FBF7B5FC0122F3
:1058900010212148FBF7B0FC01210220FBF7E4F8BE
:1058A0001E48FBF78DFB4FF6FF7002905320ADF8BA
:1058B00004000020ADF80C00ADF8060001A917485F
:1058C000FBF724FE0020ADF812000120ADF8140013
:1058D0000020ADF81600ADF818000820ADF8100053
:1058E00004A90E48FBF751FC0C20ADF8100004A9E8
:1058F0000A48FBF74AFC01210848FBF754FB012248
:1059000008210648FBF778FC012210210348FBF729
:1059100073FC07B000BD0000000800400004014017
:1059200010B57748007800F0010048B9744803F0DA
:1059300044FC28B1734803F0F7F87148AFF30080D6
:105940007148007800F0010048B96F4803F035FC59
:1059500028B16E4803F0E8F86B48AFF300806C485C
:105960000078012868D16B480068E0B99FED6A0AA9
:105970006A4880ED0C0A9FED680A80ED0D0A9FEDE4
:10598000660A80ED0E0A9FED640A80ED0F0A9FED16
:10599000620A80ED100A9FED600A80ED110A012075
:1059A0005C49086010BD5B48006840F6B831884229
:1059B00043DC58480068401C56490860514890ED47
:1059C000000A5648D0ED000A30EE200A4D4880ED1E
:1059D000000A90ED010A5148D0ED010A30EE200A8C
:1059E000484880ED010A90ED020A4C48D0ED020AC9
:1059F00030EE200A434880ED020A444890ED000A48
:105A00004648D0ED030A30EE200A404880ED000AF7
:105A100090ED010A4148D0ED040A30EE200A3B48DF
:105A200080ED010A90ED020A3C48D0ED050A30EE07
:105A3000200A364880ED020A60E0002035490860FF
:105A4000334908702F4890ED000ADFED350A80EEEB
:105A5000201A324880ED0C1A2A4890ED010ADFED39
:105A6000300A80EE201A2D4880ED0D1A254890ED61
:105A7000020ADFED2B0A80EE201A9FED2A0A31EE92
:105A8000400A264880ED0E0A204890ED000ADFED1E
:105A9000240A80EE201A214880ED0F1A1B4890ED51
:105AA000010ADFED1F0A80EE201A1C4880ED101A53
:105AB000164890ED020ADFED1A0A80EE201A174808
:105AC00080ED111A9FED140A0E4880ED000A9FED3B
:105AD000120A80ED010A9FED100A80ED020A9FED87
