:020000040800F2
:10000000E81500206D020008110900080909000820
:100010000D09000823060008AF18000800000000C2
:10002000000000000000000000000000290B000894
:100030009506000800000000A10900082D0B00082B
:10004000870200088702000887020008870200086C
:10005000870200088702000887020008870200085C
:10006000870200088702000887020008870200084C
:10007000870200088702000887020008870200083C
:10008000870200088702000887020008870200082C
:10009000870200088702000887020008870200081C
:1000A000870200088702000887020008870200080C
:1000B0008702000887020008AD0B000887020008CD
:1000C00087020008870200088702000887020008EC
:1000D00087020008A115000815160008870200080D
:1000E00087020008870200088702000887020008CC
:1000F0008702000887020008150E00088702000822
:100100008702000887020008C50D00088702000862
:100110002D150008870200088702000887020008E2
:10012000870200088702000887020008870200088B
:10013000870200088702000887020008870200087B
:10014000870200088702000887020008870200086B
:10015000870200088702000887020008870200085B
:10016000870200088702000887020008870200084B
:10017000870200088702000887020008870200083B
:10018000870200088702000800F002F800F05EF81D
:100190000AA090E8000C82448344AAF10107DA45E2
:1001A00001D100F053F8AFF2090EBAE80F0013F0D6
:1001B000010F18BFFB1A43F0010318478CB0000071
:1001C000ACB000000A444FF0000C10F8013B13F0F3
:1001D000070408BF10F8014B1D1108BF10F8015BA0
:1001E000641E05D010F8016B641E01F8016BF9D193
:1001F00013F0080F1EBF10F8014BAD1C0C1B09D1EA
:100200006D1E58BF01F801CBFAD505E014F8016B5B
:1002100001F8016B6D1EF9D59142D6D370470000ED
:100220000023002400250026103A28BF78C1FBD8FF
:10023000520728BF30C148BF0B6070471FB50AF096
:100240008EF900F05BF81FBD10B510BD00F0F2F89C
:100250001146FFF7F3FF09F093F900F010F903B42A
:10026000FFF7F2FF03BC00F011F9000009488047D6
:1002700009480047FEE7FEE7FEE7FEE7FEE7FEE788
:10028000FEE7FEE7FEE7FEE704480549054A064BA0
:1002900070470000450B000889010008E80F0020A6
:1002A000E8150020E8110020E811002010B54C10DE
:1002B00084EA530404D54042C1F1000138BF491E0D
:1002C0001B4204D55242C3F1000338BF5B1E00F04D
:1002D00027F814F0804F04D04042C1F1000138BF2C
:1002E000491E14F0004F04D05242C3F1000338BF3E
:1002F0005B1E10BD704770477047000070B5064C1C
:100300007C44064D7D4403E0206820448047241D42
:10031000AC42F9D170BD000064AF000088AF0000AE
:1003200053EA020C00F069802DE9F04B4FF0000613
:10033000002B1FBFB3FA83F503FA05F424FA05F680
:100340005E4012BF1643B2FA82F502FA05F4C5F117
:1003500020051EBF22FA05FC44EA0C04203556EAAB
:10036000044C4FEA144418BF641C4FF000084FF0CF
:100370000009904271EB030C39D3002919BFB1FA7F
:1003800081F701FA07F6B0FA80F700FA07F6C7F12D
:1003900020071EBF20FA07FC46EA0C062037B6FBF2
:1003A000F4FCA7EB0507103F07F01F0BCBF120066D
:1003B0000CFA0BFB2CFA06F644BFB3460026202F9E
:1003C000A4BF5E464FF0000B5BEA060C08BF4FF07F
:1003D000010B19EB0B09ABFB027C48EB0608C01BB9
:1003E00006FB02CC0BFB03CC71EB0C01C1E70B4607
:1003F000024641464846BDE8F08B13B54FF0000079
:100400004FF00001AFF30080BDE81C40704710B50D
:1004100000F008F8006810BD10B5044600F002F8BE
:10042000046010BD00487047880F002000487047E6
:10043000880F00207546FFF7F9FFAE4605006946B4
:10044000534620F00700854618B020B5FFF71CFF83
:10045000BDE820404FF000064FF000074FF00008C5
:100460004FF0000B21F00701AC46ACE8C009ACE846
:10047000C009ACE8C009ACE8C0098D467047044625
:10048000AFF300802046FFF7EAFE00000149182084
:10049000ABBEFEE726000200704721B1826842F041
:1004A0000102826003E0826822F0010282607047EC
:1004B0000021084A1168084A1140D0E900231A4374
:1004C00083681A43C3681A431143044AC2F80413E9
:1004D0007047000004230140E030FCFF0020014091
:1004E00021B1826842F48072826003E0826822F463
:1004F00080728260704721B1826842F4007282602B
:1005000003E0826822F400728260704730B50246D0
:10051000002000235068104C20400D790C6844EAFC
:1005200005242043506090680C4C2040D1E90354CE
:100530002C438D682C434D7944EA45042043906058
:10054000D06A20F470000C7D641EE4B2234340EABC
:100550000350D06230BD0000FFFEFFFCFDF7FFC07E
:10056000F0B504460D4600200021092D11DDE0689C
:10057000A5F10A0606EB4607072606FA07F18843A7
:10058000A5F10A0606EB460603FA06F10843E06009
:100590000CE0206905EB4507072606FA07F18843BA
:1005A00005EB450603FA06F108432061072A0FDA36
:1005B000606B561E06EB86071F2606FA07F1884376
:1005C000561E06EB860605FA06F10843606322E034
:1005D0000D2A0FDA206BD61F06EB86071F2606FAB8
:1005E00007F18843D61F06EB860605FA06F1084395
:1005F000206310E0E06AA2F10D0606EB86071F26D5
:1006000006FA07F18843A2F10D0606EB860605FA05
:1006100006F10843E062F0BD816841F080418160ED
:10062000704700BFFEE721B1026842F0010202609C
:1006300003E0026822F001020260704710B5002258
:100640000268134B1A40CC680B6823434C69234360
:100650008C692343CC6923430C6A23434C6A2343AC
:100660008C6A23434C6B23438C6B23431A430260F5
:10067000426922F00702D1E90B3423431A43426155
:100680000B6943604B6883608B68C36010BD0000DA
:100690003F801CF07047000001490860704700006F
:1006A0000C3C024070B504460A460026092502B9F2
:1006B00009E0012A01D1160205E0022A01D1160241
:1006C00001E04FF4407600F09FF80546092D28D14F
:1006D0001548006820F44070134908600846006817
:1006E000304308600846006820F0F80008600846BB
:1006F000006844F0020108430B490860084600689E
:1007000040F48030086000F07FF805460648006835
:1007100020F00200044908600846006820F0F80054
:100720000860284670BD0000103C024009201349B3
:10073000096801F48031B1F5803F01D101201CE04E
:100740000E49096801F0100109B1062015E00B49B6
:10075000096801F4807109B102200EE007490968B7
:1007600001F0E00109B1072007E00449096801F040
:10077000020109B1082000E0092070470C3C02404A
:100780000348006840F000400149086070470000DD
:10079000103C024030B502460C46092500F034F802
:1007A0000546092D19D10E48006820F440700C4907
:1007B00008600846006840F4007008600846006859
:1007C00040F001000860146000F01EF8054604487F
:1007D000006820F0010002490860284630BD000092
:1007E000103C02400548006800F0004028B1044871
:1007F00002490C390860034808607047103C024009
:1008000023016745AB89EFCD08B509200090FFF7BC
:100810008DFF009002E0FFF789FF00909DF8000037
:100820000128F8D09DF8000008BDF0B50A46002167
:100830000023002400BF3DE0012505FA01F31568FF
:1008400005EA03049C4234D105684F000326BE40EC
:10085000B543056015794E00B5400668354305601F
:100860001579012D02D01579022D16D185684F001A
:100870000326BE40B543856055794E00B540866875
:1008800035438560456801268E40B543456045681F
:1008900096798E40B6B235434560C5684F00032651
:1008A000BE40B543C560D5794E00B540C6683543F6
:1008B000C560491C1029BFD3F0BDF0B5002300244A
:1008C0004D07ED0E02FA05F3CE1000F1200555F8A4
:1008D00026504E07F70E0F26BE40B543CF1000F14D
:1008E000200646F82750CE1000F1200555F8265076
:1008F00045EA0304CE1000F1200545F82640F0BD7E
:10090000418370470183704700BFFEE700BFFEE7E9
:100910007047000070B5002100230F22C4781CB37B
:10092000174C246804F4E064C4F5E064C4F30721C0
:10093000C1F10404E3B20A4144789C40E1B28478F6
:10094000144021430C07210E0E4C057861550478A4
:1009500004F01F050124AC4005786D11AD0005F1D0
:10096000E025C5F8004109E0047804F01F050124E2
:10097000AC40054D0678761145F8264070BD000064
:100980000CED00E000E400E080E100E002490143FA
:10099000024A1160704700000000FA050CED00E00B
:1009A0007047000029B1064A12680243044B1A60DE
:1009B00004E0034A12688243014B1A60704700004A
:1009C0003038024029B1064A12680243044B1A60CB
:1009D00004E0034A12688243014B1A60704700002A
:1009E0004038024029B1064A12680243044B1A609B
:1009F00004E0034A12688243014B1A60704700000A
:100A00002038024029B1064A12680243044B1A609A
:100A100004E0034A12688243014B1A6070470000E9
:100A20004438024029B1064A12680243044B1A6056
:100A300004E0034A12688243014B1A6070470000C9
:100A400024380240F0B500210022002402250026AF
:100A50000223324F3F6807F00C0121B1042905D071
:100A6000082937D105E02E4F076036E02C4F07608C
:100A700033E02A4F3F1F3F68C7F38056274F3F1F81
:100A80003F6807F03F036EB1254FB7FBF3F7DFF880
:100A90008CC0ACF1040CDCF800C0CCF3881C07FB64
:100AA0000CF40CE01E4FB7FBF3F7DFF870C0ACF1AD
:100AB000040CDCF800C0CCF3881C07FB0CF4174FC7
:100AC0003F1F3F68C7F301477F1C7D00B4FBF5F76C
:100AD000076002E0124F076000BF00BF0F4F3F6882
:100AE00007F0F00109090F4F7A5C0768D7404760AB
:100AF0000A4F3F6807F4E051890A0A4F7A5C476859
:100B0000D7408760054F3F6807F46041490B054FA8
:100B10007A5C4768D740C760F0BD000008380240E3
:100B20000024F40018060020704700000448036801
:100B300040685A1C40F1000001490A604860704753
:100B40001805002010B51548006840F470001349DE
:100B500008601348006840F0010011490860002057
:100B60000F49083108600E4800680E4908400C49DA
:100B700008600D48091D0860081F006820F48020E7
:100B8000091F0860002006490C31086001F07EF959
:100B90004FF0006001498039086010BD88ED00E029
:100BA00000380240FFFFF6FE1030002410B502218D
:100BB0007C4800F0A7FA012839D10221794800F0D9
:100BC000BDF97948006800F04000402810D1754810
:100BD00000F08CFA7549088072482030008840F097
:100BE00002007049203108800020714908801EE011
:100BF0006C4800F07BFA84B26C480088844205DDC2
:100C00006A480088201A6B49888007E04FF6FF7019
:100C1000204466490988401A664988806148203026
:100C2000008820F002005F492031088000BF0421C5
:100C30005C4800F067FA012836D10421594800F0D9
:100C40007DF95948006800F0800080280DD1554892
:100C500000F04FFA5849088052482030008840F090
:100C600020005049203108801EE04E4800F041FA33
:100C700084B251480088844205DD4F480088201A1C
:100C80004C49C88007E04FF6FF7020444A49098864
:100C9000401A4849C88043482030008820F020008E
:100CA00040492031088000BF08213E4800F02AFA60
:100CB000012837D108213B4800F040F93A48006844
:100CC00000F48070B0F5807F0DD1364800F014FA42
:100CD0003A49088033482030008840F40070314998
:100CE000203108801EE02F4800F006FA84B2334815
:100CF0000088844205DD31480088201A2D4908818A
:100D000007E04FF6FF7020442C490988401A294912
:100D1000088124482030008820F4007021492031C7
:100D2000088000BF10211F4800F0ECF9012837D1DE
:100D300010211C4800F002F91B48006800F4007004
:100D4000B0F5007F0DD1174800F0D9F91C49088093
:100D500014482030008840F40050124920310880A7
:100D60001EE0104800F0CBF984B215480088844298
:100D700005DD13480088201A0E49488107E04FF628
:100D8000FF7020440E490988401A0A4948810548E5
:100D90002030008820F4005002492031088000BF34
:100DA00010BD000000080040100402408005002033
:100DB000680500209C0A0020820500208405002090
:100DC0008605002010B50121104800F09BF901288C
:100DD00016D10F48007810B101280FD106E005F0B8
:100DE00047FC012801D10A49087008E005F0FCFB26
:100DF000012802D102200649087000E000BF00BFB0
:100E00000121024800F09AF810BD0000000C0040DB
:100E1000EC04002010B508213D4800F073F90128CA
:100E200037D108213A4800F089F83A48006800F4C0
:100E30008070B0F5807F0DD1354800F05DF93649FE
:100E4000088033482030008840F400703049203159
:100E500008801EE02E4800F04FF984B22E4800882A
:100E6000844205DD2C480088201A2C49088007E0C0
:100E70004FF6FF70204428490988401A2749088006
:100E800023482030008820F4007021492031088058
:100E900000BF10211E4800F035F9012837D110217C
:100EA0001B4800F04BF81B48006800F40070B0F5D8
:100EB000007F0DD1164800F022F919490880144826
:100EC0002030008840F400501149203108801EE095
:100ED0000F4800F014F984B211480088844205DDFF
:100EE0000F480088201A0D49488007E04FF6FF7030
:100EF00020440B490988401A08494880044820309A
:100F0000008820F4005002492031088000BF10BD45
:100F10000004014010080240880500209C0A0020BF
:100F20008A05002021B1028842F08002028004E09C
:100F300002884FF67F731A4002807047CA430282CC
:100F4000704721B1028842F00102028004E0028869
:100F50004FF6FE731A4002807047000010B5044639
:100F60005548844208D101210846FFF75BFD002166
:100F70000120FFF757FD9DE0B4F1804F08D101211A
:100F80000846FFF72FFD00210120FFF72BFD91E020
:100F90004A48844208D101210220FFF723FD0021A5
:100FA0000220FFF71FFD85E04548844208D101215A
:100FB0000420FFF717FD00210420FFF713FD79E05F
:100FC0004048844208D101210820FFF70BFD002191
:100FD0000820FFF707FD6DE03B48844208D101215E
:100FE0001020FFF7FFFC00211020FFF7FBFC61E061
:100FF0003648844208D101212020FFF7F3FC00216C
:101000002020FFF7EFFC55E03148844208D1012150
:101010000220FFF707FD00210220FFF703FD49E052
:101020002C48844209D101210804FFF7FBFC002170
:101030004FF48030FFF7F6FC3CE02748844209D1AA
:1010400001214804FFF7EEFC00214FF40030FFF7C8
:10105000E9FC2FE02148844209D101218804FFF7EF
:10106000E1FC00214FF48020FFF7DCFC22E01C486B
:10107000844208D101214020FFF7B4FC0021402028
:10108000FFF7B0FC16E01748844208D10121802008
:10109000FFF7A8FC00218020FFF7A4FC0AE012481B
:1010A000844207D101218015FFF79CFC0021A01587
:1010B000FFF798FC10BD0000000001400004004054
:1010C00000080040000C00400010004000140040E8
:1010D000000401400040014000440140004801403C
:1010E00000180040001C0040002000400146486BF2
:1010F00070470146886B70470146C86B70470146D0
:10110000086C704730B50246002000230024158A81
:1011100005EA0103958905EA010413B10CB1012028
:1011200000E0002030BD70B505460C46208850B95F
:101130002389A2886188284600F056FDE188284668
:1011400000F085F925E0208804280AD12389A288A7
:101150006188284600F065FDE188284600F080F9A6
:1011600017E0208808280AD12389A28861882846A8
:1011700000F07FFDE188284600F07FF909E023892F
:10118000A2886188284600F098FDE188284600F092
:101190007DF970BD1AB183890B43838102E0838995
:1011A0008B4383817047000070B500240022002328
:1011B000058C4FF6FE7635400584028C8388048BBF
:1011C0004FF68F752C40B51E2C400D882C43751E94
:1011D0002A408D892A434D882A43104DA84202D0C7
:1011E0000F4DA84213D14FF6F7752A40CD892A43F7
:1011F0004FF6FB752A408D882A434FF6FF652B403A
:101200004FF6FF552B400D8A2B434D8A2B4383808D
:1012100004838D684563028470BD000000000140B6
:10122000000401400A460021018B4FF6F773194074
:10123000114301837047000070B500240022002391
:10124000058C4FF6EF7635400584028C8388048B3D
:1012500048F6FF752C404FF6FF452C400D884FF6A1
:10126000FF7606EA05252C434FF6DF752A408D8967
:1012700006EA05152A434D8806EA05152A43154D49
:10128000A84202D0144DA8421DD14FF67F752A40C6
:10129000CD894FF6FF7606EA05152A434FF6BF754E
:1012A0002A408D8806EA05152A434FF6FF352B4064
:1012B0004FF2FF752B400D8A06EA85052B434D8AB8
:1012C00006EA85052B43838004838D688563028449
:1012D00070BD000000000140000401400A460021EA
:1012E000018B4FF2FF7319404FF6FF7303EA02239D
:1012F000194301837047000070B5002400220023C9
:10130000058C4FF6FF6635400584028C8388848BFC
:101310004FF68F752C404FF6FC752C400D882C43F2
:101320004FF6FF552A408D894FF6FF7606EA0525D0
:101330002A434D8806EA05252A43154DA84202D0C6
:10134000144DA8421DD14FF2FF752A40CD894FF6AA
:10135000FF7606EA05252A434FF6FF352A408D8899
:1013600006EA05252A434EF6FF752B404DF6FF751C
:101370002B400D8A06EA05152B434D8A06EA051512
:101380002B43838084838D68C563028470BD000015
:1013900000000140000401400A460021818B4FF605
:1013A000F7731940114381837047000070B5002224
:1013B00000230024058C4EF6FF7635400584038C0F
:1013C0008488828B48F6FF752A404FF6FF452A40F5
:1013D0000D884FF6FF7606EA05252A434DF6FF7580
:1013E0002B408D8906EA05352B434D8806EA0535E5
:1013F0002B430A4DA84202D0094DA84208D14BF612
:10140000FF752C400D8A4FF6FF7606EA85152C43B2
:10141000848082838D680564038470BD0000014070
:10142000000401400A460021818B4FF2FF731940EE
:101430004FF6FF7303EA0223194381837047416328
:10144000704781637047C163704701647047028BC6
:101450004FF6F3731A400283028B0A4302837047EC
:10146000028B4FF2FF331A400283028B4FF6FF7359
:1014700003EA01231A4302837047828B4FF6F3730A
:101480001A408283828B0A4382837047828B4FF299
:10149000FF331A408283828B4FF6FF7303EA0123E6
:1014A0001A4382837047000000220288184B98423A
:1014B0000ED0184B98420BD0B0F1804F08D0164B8D
:1014C000984205D0154B984202D0154B984204D152
:1014D0004FF68F731A404B881A43124B984207D02D
:1014E000114B984204D04FF6FF431A400B891A4320
:1014F00002804B68C3620B880385054B984202D07B
:10150000044B984201D18B7A038601238382704772
:1015100000000140000401400004004000080040B9
:10152000000C0040001000400014004008B540F2DC
:101530002771174800F0F8F890B1164816498268EC
:1015400068469047012805D19DF80010104800F02A
:10155000AAF905E0002240F227710D4800F00EF9CB
:1015600040F225510A4800F0DFF878B1084800F051
:1015700095F9C0B2009040F22551054800F0ACF852
:101580000448064942689DF80000904708BD0000E5
:10159000004C0040D4050020B40C0020C00C0020FA
:1015A00008B540F22771174800F0BEF890B1164810
:1015B0001649826868469047012805D19DF80010B9
:1015C000104800F070F905E0002240F227710D4844
:1015D00000F0D4F840F225510A4800F0A5F878B19F
:1015E000084800F05BF9C0B2009040F22551054870
:1015F00000F072F80448064942689DF800009047E0
:1016000008BD000000100140D4050020CC0E0020D1
:10161000D80E002010B50821274800F078F810B146
:10162000254800F03BF92021234800F070F80128FC
:1016300040D1214800F032F9C4B2204948688047BF
:101640001F490968401A022810D900201D49087056
:101650001D480078012803D100201B49087002E0D2
:1016600001201949087001201849087016480078AF
:10167000012808D1134801780078401C114A1070E5
:101680001348445407E00F4801780078401C0D4A85
:101690001070104844540949486880470849086058
:1016A00008480078192804D106480078401E0549EA
:1016B000087000BF10BD000000440040200500205D
:1016C000FC05002000060020E1050020E0050020C8
:1016D000E40E0020FD0E002010B50022002340F68D
:1016E0006A14A14200D100BF0A1201249440A3B29F
:1016F000DC43048010BD21B1828942F40052828112
:1017000004E082894DF6FF731A40828170470246D9
:101710000020B1F5007F00D100BF13880B400BB152
:10172000012000E00020704770B50246002400232D
:101730000025002040F66A16B14200D100BFC1F377
:10174000421501F01F03012606FA03F3012D02D111
:101750009689334006E0022D02D1168A334001E01B
:10176000968A33400C12012606FA04F41688344097
:1017700013B10CB1012000E0002070BDF0B50346AC
:10178000002400260025002040F66A17B94200D147
:1017900000BF1846C1F3421401F01F06012707FAE3
:1017A00006F5012C01D10C3004E0022C01D11030DF
:1017B00000E014301AB107682F43076002E00768A1
:1017C000AF430760F0BD00002DE9FF4705460E4618
:1017D0000024A14600BFA046B08900B100BF2C8AFA
:1017E00024F44054F08804432C82AC8941F20C600C
:1017F0008443B08831890843718908430443AC812C
:10180000AC8A24F44074B0890443AC826846FFF784
:1018100019F92048854202D01F48854202D1DDF8DF
:101820000C9001E0DDF80890A88900F4004040B178
:1018300009EBC90000EB091031684900B0FBF1F772
:1018400007E009EBC90000EB091031688900B0FB23
:10185000F1F76420B7FBF0F004012009642101FBDB
:101860001078A88900F4004040B1322000EBC80095
:10187000B0FBF1F000F00700044308E0322000EB79
:1018800008106421B0FBF1F000F00F0004432C813C
:10189000BDE8FF8700100140001401400146888820
:1018A000C0F308007047C1F308028280704700BF90
:1018B000FEE70000DFED0C0AB0EE600A0B4800887E
:1018C00000EE900AF8EE600ADFED091A80EEA11A28
:1018D000DFED080A61EE200AB1EE001A60EE810A1F
:1018E0000548C0ED000A7047000000008C0500208C
:1018F00000F07F45333353409005002010B54FF47E
:1019000080510248FEF7FCFF10BD000000080240B5
:1019100010B504460548816A204688470449C868CE
:101920008047044881682046884710BD4004002055
:10193000BC040020F003002010B504460549C86827
:1019400080470549C8688047044841682046884761
:1019500010BD0000A00400200C040020F0030020B3
:1019600010B54FF47A71C806FFF76DFD4FF47A7128
:101970000B48FFF76AFD4FF47A710948FFF763FDE2
:101980004FF47A710648FFF75CFD4FF47A71044812
:10199000FFF755FD4FF47A71C806FFF756FD10BDED
:1019A0000004004010B502F0B9FB01F0A1FF00F007
:1019B00001F810BD10B54FF461701249086048601D
:1019C0008860C8600861486101460007FFF73BFD79
:1019D0004FF461710C48FFF738FD4FF461710A480C
:1019E000FFF731FD4FF461710748FFF72AFD4FF40F
:1019F00061710548FFF723FD4FF461710807FFF798
:101A000024FD10BD840A002000040040002100EEE7
:101A1000901A0549415800EE901AB8EEE01ADFED31
:101A2000031A81EE210A704700000E080000C84228
:101A300038B5002000900124AA222146641C674882
:101A400042542146641C425403222146641C4254E1
:101A500000222146641C42540F2000909DF8012072
:101A60002146641C5D4842549DF800202146641CB8
:101A70004254002000909DF801202146641C5748E4
:101A800042549DF800202146601CC4B25348425481
:101A9000002000909DF801202046611CCCB24F49E7
:101AA0000A549DF800202046611CCCB24B490A54D0
:101AB000002000909DF801202046611CCCB24749CF
:101AC0000A549DF800202046611CCCB243490A54B8
:101AD00043480068008800909DF801202046611C62
:101AE000CCB23E490A549DF800202046611CCCB27D
:101AF0003A490A543A480068408800909DF801200D
:101B00002046611CCCB235490A549DF8002020467D
:101B1000611CCCB231490A54314800688088009079
:101B20009DF801202046611CCCB22C490A549DF836
:101B300000202046611CCCB228490A54284800687D
:101B4000C08800909DF801202046611CCCB223493A
:101B50000A549DF800202046611CCCB21F490A544B
:101B60001F480068008900909DF801202046611CF4
:101B7000CCB21A490A549DF800202046611CCCB210
:101B800016490A5416480068408900909DF80120C3
:101B90002046611CCCB211490A549DF80020204611
:101BA000611CCCB20D490A54601F08710025012048
:101BB00005E00A49095C2944CDB2411CC8B2A042E3
:101BC000F7DB2046611CCCB204490D54601E08703E
:101BD0000448214642680148904738BD88060020E5
:101BE0006C050020C8050020F0B50C461546002104
:101BF0000022068C4FF6FE773E400684018B028C55
:101C00004FF60C7631407E1C06EA03162E43314314
:101C10004FF6F576324044F00106324301830284E8
:101C2000F0BDF0B50C461546002100220026078CB9
:101C30004FF6EF7C07EA0C070784018B028C4FF606
:101C4000FF7707EA041640F6FF4739404FF6FF7763
:101C500007EA033739434FF6FF7707EA0527394389
:101C60004FF65F773A4046F010073A43018302840B
:101C7000F0BDF0B50C461546002100220026078C69
:101C80004FF6FF6C07EA0C070784818B028C4FF636
:101C9000FF7707EA04264FF60C7739404FF6FF77B7
:101CA00007EA03172F4339434FF2FF573A4046F4F0
:101CB00080773A4381830284F0BDF0B50C46154627
:101CC000002100220026078C4EF6FF7C07EA0C0755
:101CD0000784818B028C4FF6FF7707EA043640F6C3
:101CE000FF4739404FF6FF7707EA052739434FF69C
:101CF000FF7707EA0337394345F6FF773A4046F462
:101D000080573A4381830284F0BD0000014908688E
:101D100049687047180500202DE9F04724480468F9
:101D200045684FF0E0208669002721480168426835
:101D300084EA010085EA020108431CD11D48002302
:101D4000026830463946FEF7B1FA4FF47A734FF025
:101D5000000CA4FB032805FB038304FB0C3C134687
:101D6000181A6CEB01014FF47A7C10EB0C0041F176
:101D70000001BDE8F0874FF0E02080690D49096857
:101D8000B0FBF1F000220A4B19685B684FF47A78D7
:101D9000A1FB089A03FB08A301FB02311346B9EB30
:101DA000000261EB030112EB080041F10001E0E7E2
:101DB00018050020080500201CB501210420FEF7AD
:101DC000F1FD01208DF8040000208DF806008DF84B
:101DD00005008DF807004FF48050009069460448D4
:101DE000FEF723FD4FF480510148FEF789FD1CBD2D
:101DF0000008024010B500F0C3FC02F0FFFA012019
:101E000010BD000070B506460C4600250A48C07992
:101E1000A04201DA002070BD002509E070190749D1
:101E20008A680549904708B90020F4E7681C85B224
:101E3000A542F3DB0120EEE7C00C0020D405002012
:101E400070B504460D460B4948688047064604F4C1
:101E50000050B0F5005F0CD107480068864208D9F1
:101E60000648006880F4005004490860701902496F
:101E7000086070BD200500204C05002014080240B9
:101E8000704700B500F0F0FB00BD00000CB500206D
:101E9000019000903448006840F480303249086076
:101EA00000BF3148006800F4003000900198401CE9
:101EB0000190009818B90198B0F5A04FF1D12A48C7
:101EC000006800F4003010B10120009001E0002013
:101ED00000900098012846D123484030006840F027
:101EE00080502149403108602048006840F440405B
:101EF0001E4908601C48083000681B49083108600A
:101F00000846006840F4004008600846006840F455
:101F1000A05008601648091F0860081F006840F0BC
:101F20008070091F086000BF0F48006800F0007053
:101F30000028F9D040F205700E4908600A480830C0
:101F4000006820F00300084908310860084600686E
:101F500040F00200086000BF03480830006800F04D
:101F60000C000828F8D10CBD003802400070004079
:101F700010544007003C024000B50246FFF7C6FE81
:101F8000034600BFFFF7C2FE99188842FAD300BD8E
:101F900070B50446FFF7C0FE054600BFFFF7BCFE64
:101FA0002A19801A71F10001F8DB70BD10B5012407
:101FB000FEF718FCF320FEF76FFB02215820FEF716
:101FC00071FB3B4890ED0C0ADFED3A0A20EE200A47
:101FD000BDEEC00A10EE101A3748FEF7DBFB0928E9
:101FE00000D00024324890ED0D0ADFED320A20EED9
:101FF000200ABDEEC00A10EE101A2F48001DFEF791
:10200000C9FB092800D00024294890ED0E0ADFED15
:10201000290A20EE200ABDEEC00A10EE101A26484A
:102020000830FEF7B7FB092800D00024204890EDC7
:102030000F0ADFED200A20EE200ABDEEC00A10EEE6
:10204000101A1D480C30FEF7A5FB092800D000240B
:10205000174890ED100ADFED170A20EE200ABDEEBA
:10206000C00A10EE101A14481030FEF793FB09282E
:1020700000D000240E4890ED110ADFED0E0A20EE8C
:10208000200ABDEEC00A10EE101A0B481430FEF7FD
:1020900081FB092800D00024642107481830FEF78E
:1020A00079FB092800D00024FEF76AFB204610BD0A
:1020B000300900200000C84200000E0810B58AB0A8
:1020C000044601210846FEF76DFC01211020FEF7B1
:1020D00099FC072209212F48FEF7EFFB07220A216E
:1020E0002C48FEF7EAFB02208DF824008DF825002D
:1020F00000208DF8260001208DF82700400208906E
:1021000008A92448FEF791FB4FF48060089008A9C5
:102110002048FEF78AFB25208DF80C0000208DF862
:102120000D0001208DF80E008DF80F0003A8FEF7BA
:10213000F1FB04940020ADF81400ADF81600ADF8E2
:102140001800ADF81C000C20ADF81A0004A91248C4
:10215000FFF73AFB1148124AFF2103686846984787
:1021600010489DE80E000EC00C480F4AFF2103687E
:10217000684698470D489DE80E000EC0012240F2C7
:1021800025510548FFF7FAFA01210348FFF7B3FA92
:102190000AB010BD0000024000100140D40500202C
:1021A000CC0C0020CC0E0020CB0D0020D80E00203F
:1021B00070B506460C4600250F4800790E49C979CE
:1021C000401AA04201DA002070BD002509E0705DD0
:1021D0000A494A680849904708B90020F4E7681C92
:1021E00085B2A542F3DB012240F227710448FFF7D4
:1021F000C5FA0120E8E70000CC0E0020D40500203D
:102200000010014000B58FB001218805FEF7CAFB20
:10221000012004900020009003900B901048029041
:1022200000200D904FF400500890C01006908010D0
:1022300009900C48019000200E904FF40060079028
:10224000002005904FF400300A9069460648FEF7DA
:10225000F5F901210448FEF7E6F90FB000BD0000D2
:102260008C0500204C2001401064024010B50D4840
:1022700005F046F97C2300223C210A4805F0FAF8D3
:10228000202301223C21074805F0F4F88023022294
:102290003C21044805F0EEF80348C1680A2088474D
:1022A00010BD0000900900202005002010B51C483A
:1022B00005F026F91B48C1683220884780236B222D
:1022C000D021174805F0D6F81648C1680520884780
:1022D00000231922D021124805F0CCF800236B22EC
:1022E000D0210F4805F0C6F800233722D0210C4832
:1022F00005F0C0F806231A22D021094805F0BAF8E3
:1023000018231B22D021064805F0B4F810231C2204
:10231000D021034805F0AEF803F0F0F910BD00003D
:10232000AC0800202005002010B50C4805F04BF942
:1023300008B9002010BDEE21084805F0BFF9074894
:1023400005F06CF91E21054805F0B8F9034805F0C1
:1023500065F9024805F0F9F80120EBE7080A0020CA
:1023600010B52DED048B86B00446012C7DD1AC490F
:10237000086807F060FC41EC190BAA499FEDAA2BF5
:102380009FEDAB1BB0EE490AF0EE690A0868804782
:10239000B0EE408AF0EE608A51EC180B07F01CFC9E
:1023A00000909F49486807F046FC41EC190B9D4995
:1023B0009FED9D2B9FED9E1BB0EE490AF0EE690A42
:1023C00008688047B0EE408AF0EE608A51EC180B46
:1023D00007F002FC01909249886807F02CFC41EC60
:1023E000190B90499FED902B9FED911BB0EE490A80
:1023F000F0EE690A08688047B0EE408AF0EE608A25
:1024000051EC180B07F0E8FB02908549C86807F00B
:1024100012FC41EC190B83499FED832B9FED841B2C
:10242000B0EE490AF0EE690A08688047B0EE408ACB
:10243000F0EE608A51EC180B07F0CEFB0390784960
:10244000086907F0F8FB41EC190B76499FED762BF4
:102450009FED771BB0EE490AF0EE690A08688047E5
:10246000B0EE408AF0EE608A00E01FE051EC180BFD
:1024700007F0B2FB04906A49486907F0DCFB41ECC5
:10248000190B68499FED682B9FED691BB0EE490A57
:10249000F0EE690A08688047B0EE408AF0EE608A84
:1024A00051EC180B07F098FB05909BE05C4908681D
:1024B00007F0C1FB41EC190B5A499FED5F2B9FEDD3
:1024C0005C1BB0EE490AF0EE690A08688047B0EE7E
:1024D000408AF0EE608A51EC180B07F07DFB00900B
:1024E0004F49486807F0A7FB41EC190B4D499FED98
:1024F000522B9FED4F1BB0EE490AF0EE690A0868B7
:102500008047B0EE408AF0EE608A51EC180B07F07D
:1025100063FB01904249886807F08DFB41EC190B81
:1025200040499FED452B9FED421BB0EE490AF0EE6E
:10253000690A08688047B0EE408AF0EE608A51EC84
:10254000180B07F049FB02903549C86807F073FB88
:1025500041EC190B33499FED382B9FED351BB0EE45
:10256000490AF0EE690A08688047B0EE408AF0EE4A
:10257000608A51EC180B07F02FFB0390284908697B
:1025800007F059FB41EC190B26499FED2B2B9FEDD2
:10259000281BB0EE490AF0EE690A08688047B0EEE1
:1025A000408AF0EE608A51EC180B07F015FB04909E
:1025B0001B49486907F03FFB41EC190B19499FED96
:1025C0001E2B9FED1B1BB0EE490AF0EE690A08684E
:1025D0008047B0EE408AF0EE608A51EC180B07F0AD
:1025E000FBFA05904FF080400099FEF72CFF14484D
:1025F0000199FEF72AFF12480299FEF724FF1048BE
:102600000399FEF71EFF0E480499FEF718FF4FF0DE
:1026100080400599FEF719FF06B0BDEC048B10BD94
:10262000840A0020940400200000000000408F4035
:102630000000000000B09D400000000000208C4021
:102640000004004070B504460D4603F0DBF803F0CB
:102650002BF902F0A9FAB6EE000A024880ED000A52
:1026600070BD00006405002070B587B03448007864
:10267000012862D13348007801280AD1002005E002
:102680003149095C0DF80010411CC8B21928F7DB6C
:1026900009E0002005E02D49095C0DF80010411CFF
:1026A000C8B21928F7DB00202549087000BF39E0BF
:1026B0000024002316E000EB4002254D05EB8202CA
:1026C00002EB83018A785AB10D786D1C1DF8052044
:1026D0004D78EA408D782A40CD78AA40144300BF57
:1026E000591CCBB2032BE6DBB4F5AF7F14D9A4F5AC
:1026F000AF7100EE101AF8EE400A9FED161A9FED2A
:10270000160A00EE810ABCEEC00A10EE101A8AB258
:10271000124921F8102003E00022104921F810206E
:10272000411CC8B20C28C3DB9DF818009DF8171097
:1027300040EA01200A49088000BF07B070BD0000D0
:10274000E0050020E1050020FD0E0020E40E002041
:10275000AEA700082FA13D3F000061442E0F0020CE
:10276000E4050020014640F21450814201DA0220C3
:102770007047B1F5E16F01DD0020F9E70120F7E7CF
:1027800010B5124801780078401C104A10700520DE
:1027900091FBF0F200FB1210052813D2DFE800F0E5
:1027A0000306090C0F0000F09DFB0CE001F030FA6D
:1027B00009E0FFF73DF906E000F02AFC03E002F033
:1027C000B1FC00E000BF00BF10BD00001C000020F5
:1027D00010B50446204604F08DF8204601F06CFD4B
:1027E000204604F02FF910BD70B52DED048B00BF0D
:1027F0001C498868804704460D461B4903C9221AB4
:1028000065EB0101104607F091FA9FED180B53ECB0
:10281000102B07F00DFB41EC180B134A30C2154B7F
:102820005868154B5B6803F11801134B5B68B0EEF9
:10283000485AF0EE685A90ED024AD0ED013A90ED18
:10284000003AD1ED022A91ED012AD1ED001A93ED63
:102850000B1AD3ED0A0A93ED090A03F045F8BDEC13
:10286000048B70BD20050020380400208DEDB5A03C
:10287000F7C6B03EBC040020A00400200146B5EE1F
:10288000C00AF1EE10FA05DBF1EEC00AC1ED000A54
:1028900000207047DFED030AC1ED000A4FF0FF3062
:1028A000F7E70000000000001CB501210846FEF714
:1028B00079F803208DF804000420009000208DF8A2
:1028C000070003208DF8050069460248FDF7ADFFBB
:1028D0001CBD00000000024010B503498868804715
:1028E00002498868804710BDA0040020BC04002075
:1028F00000B52DED060B2DED068B83B0B0EE618A91
:10290000F0EE428A68469FED360A80ED000A9FEDA0
:10291000340A80ED010A9FED320A80ED020A00BF01
:102920009FED300A28EE000AB0EE408A9FED2D0A96
:1029300028EE800AF0EE408AB0EE680A06F086FDC6
:10294000B0EE409AB0EE480A06F080FDF0EE409AF4
:10295000B0EE680A06F0C2FDB0EE40AAB0EE480A3A
:1029600006F0BCFDF0EE40AA2AEE2A0ADDED0A0AC6
:1029700020EE200ADDED090A09EEA00A69EE2A0A16
:102980009DED0B1A00EE810A8DED000A9DED0A0AFD
:1029900020EE090ADDED0B0A0AEE600A8DED010A50
:1029A0002AEE290ADDED0A0A20EE200ADDED090AE9
:1029B000B1EE6A1A01EE200A69EE290A9DED0B1AA2
:1029C00000EE810A8DED020A9DED000ADDED010A9F
:1029D0009DED021A03B0BDEC068B06B000BD0000F1
:1029E0000000000034FA8E3C10B58AB00446012184
:1029F0000846FDF7D7FF0121C804FDF7E3FF0822D1
:102A000000212F48FDF759FF082201212C48FDF72E
:102A100054FF02208DF824008DF8250000208DF849
:102A2000260001208DF82700089008A92448FDF70A
:102A3000FCFE0220089008A92148FDF7F6FE34208C
:102A40008DF80C0000208DF80D0002208DF80E008E
:102A500001208DF80F0003A8FDF75CFF049400200F
:102A6000ADF81400ADF81600ADF81800ADF81C0074
:102A70000C20ADF81A0004A91248FEF7A5FE124872
:102A8000124AFF2103686846984711489DE80E00E6
:102A90000EC00D480F4AFF210368684698470E484C
:102AA0009DE80E000EC0012240F225510548FEF7B8
:102AB00065FE01210348FEF71EFE0AB010BD0000AE
:102AC00000000240004C0040D4050020B40A002061
:102AD000B40C0020B30B0020C00C002010B5094836
:102AE00004F00EFDFFF720FC0748C168322088473C
:102AF00002F01AF80448C168C820884700F006F8B8
:102B000010BD0000080A0020200500202DE9F04F2C
:102B10002DED088B85B00020804681460446054691
:102B200006460746CD48007810B101280FD106E0CF
:102B300003F09EFD012801D1C849087008E003F0A8
:102B400053FD012802D10220C449087000E000BFF3
:102B500000BFC2480078022804D005B0BDEC088B45
:102B6000BDE8F08FBE4840890102BE48D0E9003080
:102B7000591A60F10000BB4AC2E90010B8488089C8
:102B800000231146D1E9002CA0FB021A03FB02A28C
:102B900000FB0C20420242EAD15000F5FA60C11756
:102BA000B14A03C2AE48808801040022AC480089C3
:102BB000AC4BD3E900CBA0FB0C3E02FB0CEC00FBC2
:102BC0000BCCD80940EA4C60081842EBEC12A7493C
:102BD00005C1A34840884FEAC0314FF00002A04829
:102BE000C088A04BD3E900A3A0FB0ABE02FB0AECFD
:102BF00000FB03C34FEA1B2040EA0360081842EBC6
:102C000023229B4905C19848D0E900104FF4FA638C
:102C1000C91A70F100007DDA9248D0E90010A1FBDA
:102C2000012300FB013301FB0030D10F41EA4008D2
:102C30004FEAE0798C48D0E900104FF4FA6AB1EB22
:102C40000A0260F10001104607F00CF841EC1B0B82
:102C50009FED881BB0EE4B0AF0EE6B0A06F0D2F83F
:102C6000B0EE40AAF0EE60AA9FED840B53EC102B5F
:102C700051EC1A0B07F0DCF807F07CFCCDE90201FF
:102C8000DDE9021045104FEA3104DDE902014FEAA7
:102C9000900040EA81764FEAA1077348D0E900101E
:102CA000784BC91A70F1FF303BDA6F48D0E9001059
:102CB0005B42CA1840F100011046CDE9002106F040
:102CC000D1FF41EC1A0B9FED6B1BB0EE4A0AF0EE00
:102CD0006A0A06F097F8B0EE409AF0EE609A51EC6E
:102CE000190B07F047FC82468B4607210022AAFBFE
:102CF00001030BFB01310AFB0211024614194D417D
:102D00000B2100205246A2FB01CE0BFB01E10AFB86
:102D1000001000E006E040104FEA3C0296194741DF
:102D200000BF00BF5048D0E90010B1EB080160EBD4
:102D300009004D4AC2E900104C48D0E90010091BB7
:102D400060EB0500494AC2E900104948D0E900108B
:102D5000891B60EB0700464AC2E900104A48006838
:102D60000021D2E9003CA0FB032A01FB03A100FBE8
:102D70000C11500D40EAC12248153C49D1E90031FF
:102D8000D21A60EB0101D00B40EA4140C913364A28
:102D9000C2E902011046D0E902200023D21A98416C
:102DA00000DADAE63049D1E90221104607F064FB87
:102DB00000EE100ADFED350A80EE201AB0EE419ADF
:102DC000DFED330AB0EE490A05F016FDF7EE000A12
:102DD00030EEC00ADFED2F0A20EE200A224880EDF7
:102DE000040A2D494868804700EE100AB8EE408A70
:102DF0001D48D0ED040AB0EE600A284803F0B6FF83
:102E0000F0EE408A264903C907F036FB00EE100AAF
:102E100038EE400A1448D0ED040A78EEE00A80EE5D
:102E2000801A11EE10AA504607F0F8FA9FED1D0B1C
:102E300053EC102B06F0FCFF06F04CFC0A494861ED
:102E40000846C0ED048A18EE100A07F0F5FB144A94
:102E500003C200200149087000BF7EE6EC04002098
:102E6000300A0020D0040020180A0020E0040020CE
:102E7000D804002000000000000000400000000016
:102E80000000144024FAFFFFE804002080E6C54754
:102E9000AEDC423E002A2D4720050020400A0020DB
:102EA000000500200000000000408F400146FA2984
:102EB00001DA0220704740F2EE20814201DD00205D
:102EC000F8E70120F6E7000010B50449486880479C
:102ED000034801684FF41650884710BDF0040020E5
:102EE000A805002038B5002000900124AA22214620
:102EF000641C424842542146641C4254012221462B
:102F0000641C425400222146641C42543C484068E0
:102F100090ED000ADFED3B0A20EE200ABDEEC00A6C
:102F200010EE100A80B200909DF801202146641C2A
:102F3000324842549DF800202146641C42543048D7
:102F4000406890ED010ADFED2F0A20EE200ABDEE69
:102F5000C00A10EE100A80B200909DF801202146B0
:102F6000641C264842549DF800202046611CCCB2C7
:102F700022490A542248406890ED020ADFED210AF6
:102F800020EE200ABDEEC00A10EE100A80B20090BA
:102F90009DF801202046611CCCB218490A549DF8C6
:102FA00000202046611CCCB214490A54164802780D
:102FB0002046611CCCB211490A5401222046611CF2
:102FC000CCB20E490A54601F08710025012005E0AB
:102FD0000A49095C2944CDB2411CC8B2A042F7DBC2
:102FE0002046611CCCB205490D54601E087007488C
:102FF000214642680148904738BD000088060020FD
:103000000C0400200000C842A0040020C8050020D5
:1030100038B5002000900124AA222146641C4548AE
:1030200042542146641C425406222146641C4254E8
:1030300000222146641C42543F480068008880B248
:1030400000909DF801202146641C3A4842549DF8A6
:1030500000202146641C425437480068808880B2B2
:1030600000909DF801202146641C324842549DF88E
:1030700000202046611CCCB22E490A542E4800681C
:10308000008980B200909DF801202046611CCCB2DE
:1030900028490A549DF800202046611CCCB22549DD
:1030A0000A5425480068808980B200909DF801206C
:1030B0002046611CCCB21F490A549DF800202046CE
:1030C000611CCCB21B490A541C48006890ED000AF0
:1030D000DFED1B0A20EE200ABCEEC00A10EE100A3B
:1030E00080B200909DF801202046611CCCB21149AD
:1030F0000A549DF800202046611CCCB20D490A54A8
:10310000601F08710025012005E00A49095C294477
:10311000CDB2411CC8B2A042F7DB2046611CCCB244
:1031200004490D54601E0870064821464268014853
:10313000904738BD880600205005002098050020E3
:103140000000C842C805002070B504460D4607209F
:103150000F490870AA2048708870EF20C8700220BC
:103160000871084645718C710026012005E0084968
:10317000095C3144CEB2411CC8B20728F7DB0448D1
:10318000C6710448082142680148904770BD00009C
:1031900088060020C805002010B52DED028B86B0F2
:1031A000044603A804F0F0F8684604F0EDF8694816
:1031B00090F8C803012811D1664804F071F86548F9
:1031C000503004F06DF86348A03004F069F86249AB
:1031D000C868804706B0BDEC028B10BD5F48006830
:1031E00090ED000A10EE101A084607F017F9594A38
:1031F000C2E902015948006890ED010A10EE101A68
:10320000084607F00BF9534AC2E916015348006813
:1032100090ED020A10EE101A084607F0FFF84D4A2A
:10322000A032C2E9020121464A4803F0FDFEB0EE99
:10323000408AF0EE608A51EC180B06F04BFA0090D1
:1032400021464448503003F0EFFEB0EE408AF0EEE5
:10325000608A51EC180B06F03DFA019021463D487A
:10326000A03003F0E1FEB0EE408AF0EE608A51EC4F
:10327000180B06F02FFA029039480068808800F594
:1032800061703449C1F8C0039DED000AB1EE400AF7
:10329000DDED010A30EE600ADDED020A70EE200A73
:1032A000084690EDF00AB8EEC00A30EE800ABDEE96
:1032B000C00A2948006880ED000A9DED000AB1EEC1
:1032C000400ADDED010A30EE200ADDED020A70EE63
:1032D000600A084690EDF00AB8EEC00A30EE800AA7
:1032E000BDEEC00A1C48006880ED010A9DED000A91
:1032F000DDED010A30EE200ADDED020A70EE200A53
:10330000084690EDF00AB8EEC00A30EE800ABDEE35
:10331000C00A1148006880ED020A9DED000ADDED4B
:10332000010A30EE600ADDED020A70EE600A08461E
:1033300090EDF00AB8EEC00A30EE800ABDEEC00A89
:103340000548006880ED030A03488168012088472A
:1033500000BF3FE720000020500500200C040020A3
:103360006C05002070B52DED088B0446D84890F808
:10337000C80301280DD1D648F03003F091FFD5489D
:1033800003F08EFFD348503003F08AFFBDEC088B6A
:1033900070BDD14909684988C1F5FA70CF494A68BA
:1033A0000A21904700EE100AB8EEC00ADFEDCC0A01
:1033B00080EE201AB3EE040A21EE000AF0EE409AE5
:1033C00003F006FAF7EE000A20EE200A10EE105A7B
:1033D000284607F023F841EC1A0BBD4890ED3C1B42
:1033E000B0EE410AF0EE610A53EC102B9FEDBD1BCD
:1033F00051EC110B06F01CFD41EC1B0B53EC1A2B8E
:1034000006F09AF9B34A503A03C2B34909680988E9
:10341000C1F5FA70B1494A680A21904700EE100AD6
:10342000F8EEC00A9FEDAE1A80EE810AF3EE040AB0
:1034300020EE200AF0EE409A03F0CAF9F7EE000AF7
:1034400020EE200A10EE105A284606F0E7FF41EC65
:103450001A0B9F4890ED501BB0EE410AF0EE610A46
:1034600053EC102B9FED9F1B51EC110B06F0E0FC71
:1034700041EC1B0B53EC1A2B06F05EF9944A02F553
:10348000A07203C294490968C988C1F5FA709349CA
:103490004A680A21904700EE100AB8EEC00A9FED74
:1034A000901AC0EE010AB3EE040A20EE800AF0EE94
:1034B000409A03F08DF9F7EE000A20EE200A10EE94
:1034C000105A284606F0AAFF41EC1A0B804890EDEE
:1034D000641BB0EE410AF0EE610A53EC102B9FED35
:1034E000811B51EC110B06F0A3FC41EC1B0B53ECC0
:1034F0001A2B06F021F9764A02F5C87203C27B48FE
:103500004068D0ED000AB0EE600A03F061F910EEF9
:10351000105A284606F082FF6E4A503AC2E902016C
:1035200072484068D0ED010AB0EE600A03F050F92D
:1035300010EE105A284606F071FF664AC2E90201F1
:103540006A484068D0ED020AB0EE600A03F040F924
:1035500010EE105A284606F061FF5E4A5032C2E96A
:1035600002012146A2F1A00003F05EFDB0EE40BAD8
:10357000F0EE60BA59499FED5E2B9FED5F1B086826
:103580008047B0EE40AAF0EE60AA51EC1A0B06F0AC
:10359000A1F808EE100A21464E4803F045FDB0EEB2
:1035A00040BAF0EE60BA4D499FED512B9FED521B92
:1035B00008688047B0EE40AAF0EE60AA51EC1A0B02
:1035C00006F088F808EE900A21464248503003F091
:1035D0002BFDB0EE40BAF0EE60BA40499FED442BAF
:1035E0009FED451B08688047B0EE40AAF0EE60AA48
:1035F00051EC1A0B06F06EF809EE100AB7EE000A4D
:1036000028EE000A10EE101A084606F007FF41ECFB
:103610001A0B2F4890ED001BB0EE410AF0EE610A44
:1036200053EC102B9FED2F1B51EC110B06F000FCFF
:1036300041EC1B0B53EC1A2B06F07EF8244A03C214
:10364000B7EE000A28EE800A10EE101A084606F0BF
:10365000E5FE41EC1A0B1E4890ED141BB0EE410A3A
:10366000F0EE610A53EC102B9FED1E1B51EC110B79
:1036700006F0DEFB41EC1B0B53EC1A2B06F05CF85A
:10368000134AC2E91401B7EE000A29EE000A10EE4F
:10369000101A084606F0C2FE41EC1B0B0C4890EDD8
:1036A000281BB0EE410AF0EE610A53EC102B9FED9F
:1036B0000D1B51EC110B06F0BBFB41EC1A0B53EC4C
:1036C0001B2B06F039F8024AA03203C200BF5DE6A8
:1036D00020000020600100206C05002094040020E0
:1036E00000007A4400000000000000000C040020EC
:1036F00000000020FB21E9BF00000020FB21E93F82
:1037000010B586B0724803F05EFF3C21704803F0AC
:10371000D5FF6F4803F082FF03216D4803F0CEFF11
:103720006B4803F07BFF6A4803F04DFF3D2168487A
:1037300003F0C4FF664803F071FF002409E0644809
:1037400003F095FF04A90855614803F0BEFE601C14
:10375000C4B2052CF3DB5E4803F089FF8DF8150039
:103760005B4803F015FF5A4803F0EFFE9DF8110087
:103770009DF8101040EA012000B200EE100AB8EEE9
:10378000C00A5448406880ED030A9DF813009DF874
:10379000121040EA012000B200EE100AB8EEC00A92
:1037A0004C48406880ED050A9DF815009DF81410FE
:1037B00040EA012000B200EE100AB8EEC00A454807
:1037C000406880ED040A4348406800F10C0141481C
:1037D000406800F10C0291ED021AD1ED010A91ED61
:1037E000000A3D48144603F0CAFB84ED000AC4ED0C
:1037F000010A84ED021A01A803F0C6FD35484068AD
:1038000090ED030A33484068D0ED090A30EE600AB3
:1038100030484068D0ED060A80EE201A8DED011A7E
:103820002C48406890ED040A2A484068D0ED0A0A06
:1038300030EE600A27484068D0ED070A80EE201A73
:103840008DED021A2348406890ED050A2148406832
:10385000D0ED0B0A30EE600A1E484068D0ED080A31
:1038600080EE201A8DED031A9DED010A20EE000A6C
:10387000DDED020A9DED021A00EE810ADDED030A7C
:103880009DED031A00EE810A1248406880ED0C0A93
:1038900010484068D0ED0C0AB7EE001A30EEC10AAD
:1038A000F0EEC00A9FED0D0AF4EEC00AF1EE10FA38
:1038B00008D20020074908700846406801A90EC9CF
:1038C0000EC002E001200349087006B010BD0000E0
:1038D00090090020BC0400209C090020CDCC4C3E67
:1038E00010B500F0F5FF01F089F801F003FE10BDFE
:1038F00000B589B001210846FDF764F84FF080401B
:10390000FDF72CFB4FF4FA60029053480068400822
:1039100000EE100AB8EE400A9FED501AC0EE010A00
:103920009FED4F0A80EE801ABCEEC10A10EE100A1D
:10393000401E80B2ADF804000020ADF80C00ADF8D8
:10394000060001A94FF08040FDF7AEFD6020ADF804
:1039500010000120ADF812004FF4617006900020B5
:10396000ADF81C0004A94FF08040FDF7C5FC08210C
:10397000C806FDF711FD04A94FF08040FDF716FDC4
:103980000821C806FDF74EFD01218807FDF7CAFA98
:1039900001218807FDF7D5FA01210220FDF712F871
:1039A0003048FDF7DBFA4FF4FA6002902A480068CD
:1039B000400800EE100AF8EE400A9FED281A80EE4B
:1039C000810ADFED270A80EE201ABCEEC10A10EE54
:1039D000100A401E80B2ADF804000020ADF80C00C3
:1039E000ADF8060001A91F48FDF75EFD6020ADF8A7
:1039F00010000120ADF812004FF461700690002015
:103A0000ADF81C0004A91748FDF7CEFB08211548A6
:103A1000FDF708FC04A91348FDF70EFC0821114826
:103A2000FDF75CFC04A90F48FDF766FC08210D4872
:103A3000FDF7B2FC04A90B48FDF7B8FC08210948C2
:103A4000FDF7F0FC01210748FDF76CFA012105485C
:103A5000FDF777FA09B000BD040600200000FA4324
:103A60000000FA4400040040704770476248008834
:103A7000B0F5FA6F15DB60480088A0F5FA6000EE3B
:103A8000100AF8EEC00A5D4890ED001A9FED5C0A3E
:103A900000EE810ABCEEC00A10EE100A59490880F7
:103AA00002E000205749088053484088B0F5FA6F7B
:103AB00015DB51484088A0F5FA6000EE100AF8EED8
:103AC000C00A4E4890ED001A9FED4D0A00EE810AA3
:103AD000BCEEC00A10EE100A4A49488002E00020FD
:103AE0004849488044488088B0F5FA6F15DB424861
:103AF0008088A0F5FA6000EE100AF8EEC00A3F4890
:103B000090ED001A9FED3E0A00EE810ABCEEC00A5D
:103B100010EE100A3B49888002E000203949888075
:103B20003548C088B0F5FA6F15DB3348C088A0F57A
:103B3000FA6000EE100AF8EEC00A304890ED001A64
:103B40009FED2F0A00EE810ABCEEC00A10EE100AAB
:103B50002C49C88002E000202A49C88026480089F4
:103B6000B0F5FA6F15DB24480089A0F5FA6000EE85
:103B7000100AF8EEC00A214890ED001A9FED200AC5
:103B800000EE810ABCEEC00A10EE100A1D49088141
:103B900002E000201B49088117484089B0F5FA6F00
:103BA00015DB15484089A0F5FA6000EE100AF8EE22
:103BB000C00A124890ED001A9FED110A00EE810A2A
:103BC000BCEEC00A10EE100A0E49488102E0002047
:103BD0000C4948810C4800880A2803DD00200B4965
:103BE000087407E008480088401C07490880012045
:103BF00006490874704700009C0A002064050020F4
:103C000000000000A80A0020680500206C050020C4
:103C10007CB50020019000900124AA222146641C5A
:103C2000834842542146641C425402222146641CAB
:103C3000425400222146641C42547E48406890ED64
:103C4000060ABDEEC00A10EE100A00B201909DF8FF
:103C500005202146641C764842549DF804202146E4
:103C6000641C42547348406890ED070ABDEEC00AD8
:103C700010EE100A00B201909DF805202146641C48
:103C80006B4842549DF804202046611CCCB2684920
:103C90000A546848406890ED080ABDEEC00A10EE6C
:103CA000100A00B201909DF805202046611CCCB29C
:103CB0005F490A549DF804202046611CCCB25C493F
:103CC0000A545C48406890ED090ABDEEC00A10EE47
:103CD000100A00B201909DF805202046611CCCB26C
:103CE00053490A549DF804202046611CCCB2504927
:103CF0000A545048406890ED0A0ABDEEC00A10EE22
:103D0000100A00B201909DF805202046611CCCB23B
:103D100047490A549DF804202046611CCCB244490E
:103D20000A544448406890ED0B0ABDEEC00A10EEFC
:103D3000100A00B201909DF805202046611CCCB20B
:103D40003B490A549DF804202046611CCCB23849F6
:103D50000A543948406890ED000ADFED380A20EE39
:103D6000200ABDEEC00A10EE100A00B201909DF8C4
:103D700005202046611CCCB22D490A549DF8042030
:103D80002046611CCCB22A490A542B48406890ED69
:103D9000010ADFED2A0A20EE200ABDEEC00A10EE6D
:103DA000100A00B201909DF805202046611CCCB29B
:103DB0001F490A549DF804202046611CCCB21C49BE
:103DC0000A541D48406890ED020ADFED1C0A20EEFF
:103DD000200ABDEEC00A10EE100A00B201909DF854
:103DE00005202046611CCCB211490A549DF80420DC
:103DF0002046611CCCB20E490A54601F0871002590
:103E0000012005E00A49095C2944CDB2411CC8B231
:103E1000A042F7DB2046611CCCB205490D54601E60
:103E20000870074821464268014890477CBD000061
:103E300088060020A0040020BC0400200000C84226
:103E4000C805002070B506460C4600250A48C07912
:103E5000A04201DA002070BD002509E07019074971
:103E60008A680549904708B90020F4E7681C85B2C4
:103E7000A542F3DB0120EEE7D80E0020D405002098
:103E800030B52DED108B85B00546B0EE40FA9FEDB4
:103E90008B0AF0EE40FA9FED890AF0EE408A9FED22
:103EA000870A8DED040A002485480088401C844957
:103EB0000880284605F027FF41EC1A0B9FED810B87
:103EC00053EC102B05F0F4FC41EC190B05F002FC4F
:103ED00008EE100A7D48006890ED040A10EE101AF2
:103EE000084606F09BFA41EC1B0B9FED790B53EC57
:103EF000102B05F09DFF41EC1A0B9FED770B53EC57
:103F0000102B05F019FC41EC190B05F0E3FB0490B4
:103F10007348D0ED3C0A9DED040A30EE600AF0EEE5
:103F2000408A9FED700A68EE800A6F4890ED000AA3
:103F300000EE880A80ED000A9FED6C0A68EE800AA8
:103F40006B4890ED000A00EE880A80ED000AB7EE9B
:103F5000000A68EE800A674890ED000A00EE880AC1
:103F600080ED000A644890ED080A644880ED000A7C
:103F70005D4890ED000ADFED620A0FEE200A5E4810
:103F800080ED080A90ED080A5C48D0ED000A30EE9A
:103F9000200A20EE080A10EE101A084606F03EFA33
:103FA00041EC1A0B9FED570B53EC102B05F080FCE6
:103FB00041EC190B05F08EFB0FEE900A18EE100A7B
:103FC00006F02CFA41EC1C0B1FEE900A06F026FAC4
:103FD0009FED4E0B53EC102BCDE900019DED000B36
:103FE00051EC100B05F024FF41EC1E0B424890ED04
:103FF000050A10EE101A084606F010FA53EC1E2BB4
:10400000CDE902019DED020B51EC100B05F094FB84
:1040100041EC1D0B53EC1C2B05F00AFF41EC1A0B75
:104020003C48006806F0FAF941EC1B0B53EC1A2BE4
:1040300005F082FB41EC190B05F04CFB354908609B
:10404000084690ED000A2B48D0ED000A30EE200A19
:10405000294880ED020A304890ED000A30EE2F0A20
:1040600080ED000A90ED000A2148D0ED000A30EE04
:10407000200A214880ED050A11480088012819DB33
:104080003C240CE0601E164901EB800090ED000A14
:10409000084600EB840080ED000A601E84B2002C0C
:1040A000F0DC154890ED020A0D4880ED000A002072
:1040B0000349088005B0BDEC108B30BD0000000046
:1040C000840400200000000000408F40F004002025
:1040D00000000000000059400000000000FDC64044
:1040E0008407002026B4173D6C040020ABAAAA3E2A
:1040F0007004002074040020400400207804002094
:104100000000C84200000000000000400000000065
:104110000000E03F800400207C0400201CB5012149
:104120000846FCF73FFC01210220FCF73BFCC820BD
:10413000009002208DF8040003208DF80500002077
:104140008DF8060001208DF8070069461A48FCF733
:104150006CFB012203211848FCF7AFFB0222062169
:104160001548FCF7AAFB022207211348FCF7A5FB20
:1041700040F20340009002208DF8040003208DF8E7
:10418000050000208DF8060001208DF80700694623
:104190000A48FCF74AFB022200210848FCF78DFB85
:1041A000022201210548FCF788FB01220A2103486D
:1041B000FCF783FB1CBD000000000240000402402D
:1041C0003EB5044668469FED360A80ED000A9FED35
:1041D000340A80ED010A9FED320A80ED020A00BF29
:1041E000304A526892ED000AB0EE402A2D4A5268D9
:1041F00092ED010AF0EE401A2B4A526802F11800C3
:104200002A4A916890ED021AD0ED010A90ED000A59
:1042100088478DED000ACDED010A8DED021A9DED66
:10422000000ADFED230A80EE201A8DED001A9DEDC5
:10423000000ADFED200A20EE200A8DED000A9DED38
:10424000010ADFED1B0A80EE201A8DED011A9DEDAB
:10425000010ADFED180A20EE200A8DED010A9DED1E
:10426000020ADFED130A30EE600A8DED020A9DEDC1
:10427000020ADFED0F0A80EE201A8DED021A9DED85
:10428000020ADFED0C0A20EE200A8DED020ADDEDB8
:10429000020AB0EE600A2046FFF7F2FD3EBD0000C4
:1042A000000000000C040020A00400209404002062
:1042B00000F07F45CDCC1C4110B50446494800684C
:1042C00090F8C803012833D10020474908804748A7
:1042D00000688088962801DA012000E00020434928
:1042E0000968C98840F25232914201DD012100E0A3
:1042F000002108403B49096891F8C91309B9012117
:1043000000E00021084078B139480088204438494D
:10431000088008460088B0F5FA6F30DD002031498A
:10432000096881F8C8032AE000203149088026E0A6
:104330002C48006890F8C903012804D1294909686C
:1043400081F8C8031BE0002029490880274800683D
:104350008088962805DA244800882044224908806D
:1043600002E00020204908801F48008842F21071B6
:10437000884204DD01201B49096881F8C8031948F7
:10438000006890F8C80360B91A48008840F001003E
:10439000184908801848C82102694FF40050904716
:1043A0000CE01448008820F00100124908801248EF
:1043B0004FF4FA7102694FF40050904709480068C1
:1043C00090F8C90330B10B48008840F00200094959
:1043D000088005E00748008820F0020005490880B1
:1043E00010BD0000F00300208E0400206C050020AA
:1043F0009004002010000020380500202DE9F04333
:1044000089B00025002400270026A046FE48202170
:10441000826801A8904701287ED100BF18E01F2DB7
:1044200002D109B0BDE8F08301A8405DAA2801D1FE
:10443000012000E0002001AA691C515CAF2901D1D4
:10444000012100E00021084000B103E0681CC5B272
:10445000202DE4DB00BF01A9E81C085C001DC7B2E9
:104460002C46A81C11F80080002506E0601901A95F
:10447000085C3044C6B2681CC5B2BD42F6DBE01928
:1044800001A9085CB042C7D1B8F1120F7ED00CDC94
:10449000B8F1010F13D0B8F1020F14D0B8F1100F1A
:1044A00021D0B8F1110F72D1F0E0B8F1130F6FD035
:1044B000B8F1140F6DD0B8F1150FF4D1FCE1012063
:1044C000D2490870FEE1D24908780978491CD04BDE
:1044D000197000F003FCCE480078032802DD0120AB
:1044E000CB490870EEE101AA601D125C01AB201DF2
:1044F000185C42EA002000EE100AB8EEC00A10EE86
:10450000101A084605F08AFFC24A1268C2E906017D
:1045100001AAE01D125C00E0D5E101ABA01D185C12
:1045200042EA002000EE100AB8EEC00A10EE101A9F
:10453000084605F073FFB74A1268C2E9080101AAEC
:1045400004F10900125C01AB401E185C42EA002035
:1045500000EE100AB8EEC00A10EE101A084605F078
:104560005DFFAC4A1268C2E90A0101AA04F10B001E
:10457000125C01AB401E185C42EA002000EE100AFB
:10458000B8EEC00A10EE101A084603E085E198E183
:1045900088E18CE105F042FF9E4A1268C2E91A01E7
:1045A00001AA04F10D00125C01AB401E185C42EA46
:1045B000002000EE100AB8EEC00A10EE101A0846ED
:1045C00005F02CFF934A1268C2E91C0101AA04F10C
:1045D0000F00125C01AB401E185C42EA002000EEA6
:1045E000100AB8EEC00A10EE101A084605F016FFC1
:1045F000884A1268C2E91E0101AA04F11100125C86
:1046000001AB401E185C42EA002000EE100AB8EE32
:10461000C00A10EE101A084605F000FF7D4A126825
:10462000A032C2E9060101AA04F11300125C01AB39
:10463000401E185C42EA002000EE100AB8EEC00AE4
:1046400010EE101A084605F0E9FE724A1268A03210
:10465000C2E9080101AA04F11500125C01AB401E79
:10466000185C42EA002000EE100AB8EEC00A10EE14
:10467000101A084605F0D2FE664A1268A032C2E956
:104680000A0110213046FEF75FFD1BE101A9601D04
:10469000095C01AA201D105C41EA002000EE100A0E
:1046A000B8EEC00ADFED5C0A80EE201A11EE109A17
:1046B000484605F0B3FE574A1268F032C2E90601D7
:1046C00001A9E01D095C01AAA01D105C41EA0020BF
:1046D00000EE100AB8EEC00ADFED4F0A80EE201A95
:1046E00011EE109A484605F099FE4A4A1268F032D7
:1046F000C2E9080101A904F10900095C01AA401EF0
:10470000105C41EA002000EE100AB8EEC00ADFEDAE
:10471000420A80EE201A11EE109A484605F07EFEFD
:104720003C4A1268F032C2E90A0101A904F10B0007
:10473000095C01AA401E105C41EA002000EE100A4C
:10474000B8EEC00ADFED340A80EE201A11EE109A9E
:10475000484605F063FE2F4A126802F5A072C2E9CE
:10476000060101A904F10D00095C01AA401E105CBC
:1047700041EA002000EE100AB8EEC00ADFED260A7A
:1047800080EE201A11EE109A484605F047FE214AA5
:10479000126802F5A072C2E9080101A904F10F0034
:1047A000095C01AA401E105C41EA002000EE100ADC
:1047B000B8EEC00ADFED180A80EE201A11EE109A4A
:1047C000484605F02BFE134A126802F5A072C2E9B2
:1047D0000A0101A904F11100095C01AA401E105C44
:1047E00041EA002000EE100AB8EEC00ADFED0A0A26
:1047F00080EE201A11EE109A484605F00FFE054A89
:10480000126802F5C87209E0C8050020A004002063
:104810001D000020F00300200000C842C2E906018C
:1048200001A904F11300095C01AA401E105C41EAD1
:10483000002000EE100AB8EEC00A5FED090A80EE13
:10484000201A11EE109A484605F0E8FD1F4A12683A
:1048500002F5C872C2E9080101A904F11500095C5A
:1048600001AA401E105C41EA002000EE100AB8EEDA
:10487000C00A5FED170A80EE201A11EE109A484622
:1048800005F0CCFD114A126802F5C872C2E90A01AE
:1048900011213046FEF758FC14E012213046FEF795
:1048A00053FC00BF13213046FEF74EFC0AE01421F2
:1048B0003046FEF749FC05E015213046FEF744FC82
:1048C00000E000BF00BF00BFABE50000F003002028
:1048D0001FB53C22D021464802F097FDC0B28DF8AA
:1048E00008003B22D021424802F08FFDC0B28DF873
:1048F00009009DF808009DF8091040EA012000B267
:10490000ADF800003E22D021394802F07EFDC0B251
:104910008DF80A003D22D021354802F076FDC0B264
:104920008DF80B009DF80A009DF80B1040EA01205D
:1049300000B2ADF802004022D0212D4802F065FD02
:10494000C0B28DF80C003F22D021294802F05DFD55
:10495000C0B28DF80D009DF80C009DF80D1040EAD6
:10496000012000B2ADF80400BDF9000000EE100A0D
:10497000B8EEC00A1F4880ED000ABDF9020000EE43
:10498000100AB8EEC00A1B4880ED010ABDF9040008
:1049900000EE100AB8EEC00A164880ED020A90ED4B
:1049A000000AD0ED0C0A30EE600A80ED060A90EDA8
:1049B000010AD0ED0D0A30EE600A80ED070A90ED95
:1049C000020AD0ED0E0A30EE600A80ED080A90ED82
:1049D000081AD0ED070A90ED060A074802F040F9E0
:1049E000044880ED060AC0ED070A80ED081A1FBDD5
:1049F000AC08002030090020B80800201FB5442270
:104A0000D021464802F001FDC0B28DF808004322D3
:104A1000D021424802F0F9FCC0B28DF809009DF89F
:104A200008009DF8091040EA012000B2ADF800002E
:104A30004622D021394802F0E8FCC0B28DF80A00C5
:104A40004522D021354802F0E0FCC0B28DF80B00C1
:104A50009DF80A009DF80B1040EA012000B2ADF865
:104A600002004822D0212D4802F0CFFCC0B28DF8C0
:104A70000C004722D021294802F0C7FCC0B28DF8B3
:104A80000D009DF80C009DF80D1040EA012000B2C9
:104A9000ADF80400BDF9000000EE100AB8EEC00A3F
:104AA0001F4880ED030ABDF9020000EE100AB8EEBF
:104AB000C00A1B4880ED040ABDF9040000EE100A8C
:104AC000B8EEC00A164880ED050A90ED030AD0ED55
:104AD0000F0A30EE600A80ED090A90ED040AD0ED6D
:104AE000100A30EE600A80ED0A0A90ED050AD0ED5A
:104AF000110A30EE600A80ED0B0A90ED0B1AD0ED32
:104B00000A0A90ED090A074802F039FA044880EDD4
:104B1000090AC0ED0A0A80ED0B1A1FBDAC0800207F
:104B200030090020FC08002070B5002435E01C4846
:104B300002F049FDEE211A4802F0C0FD184802F0CB
:104B40006DFDA02000EB4400C1B2154802F0B6FD97
:104B5000134802F063FD124802F035FDEF211048C2
:104B600002F0ACFD0E4802F059FD0D4802F07FFD49
:104B700005460B4802F0A9FC094802F078FD0646FC
:104B8000074802F005FD064802F0DFFC46EA052072
:104B9000044921F81400601CC4B2062CC7DD70BDA6
:104BA000080A0020300A002000B587B00121042047
:104BB000FBF708FF4748FCF7D1F94FF6FF7002906A
:104BC0002920ADF804000020ADF80C00ADF8060077
:104BD00001A94048FCF768FC0020ADF81200012054
:104BE000ADF814000020ADF81600ADF81800ADF8CF
:104BF000100004A93748FCF796FA0420ADF810001D
:104C000004A93448FCF78FFA0820ADF8100004A975
:104C10003048FCF788FA0C20ADF8100004A92D48A4
:104C2000FCF781FA01212B48FCF78BF901220221C4
:104C30002848FCF7AFFA012204212648FCF7AAFA1B
:104C4000012208212348FCF7A5FA0122102121485E
:104C5000FCF7A0FA01210220FBF7D4FE1E48FCF766
:104C60007DF94FF6FF7002905320ADF8040000204C
:104C7000ADF80C00ADF8060001A91748FCF714FCCC
:104C80000020ADF812000120ADF814000020ADF8AE
:104C90001600ADF818000820ADF8100004A90E4861
:104CA000FCF741FA0C20ADF8100004A90A48FCF703
:104CB0003AFA01210848FCF744F901220821064884
:104CC000FCF768FA012210210348FCF763FA07B0E9
:104CD00000BD0000000800400004014070B5BEB0F7
:104CE0000546012400203C9003235022FA496846DF
:104CF00002F081FD012D04D0022D39D0032D7CD18D
:104D0000DEE0F648006890ED060B8DED060BF348EB
:104D1000006890ED080B8DED080BF048006890EDF1
:104D20000A0B8DED0A0BED48006890ED1A0B8DED26
:104D30001A0BEA48006890ED1C0B8DED1C0BE74840
:104D4000006890ED1E0B8DED1E0BE448006890EDA1
:104D50002E0B8DED2E0BE148006890ED300B8DEDA4
:104D6000300BDE48006890ED320B8DED320BA9E080
:104D7000DA48006890ED421BB0EE410AF0EE610A9D
:104D80009FEDD71B53EC112B51EC100B05F050F895
:104D9000CDE90601D148006890ED441BB0EE410A10
:104DA000F0EE610A9FEDCE1B53EC112B51EC100B72
:104DB00005F03EF8CDE90801C848006890ED461BB3
:104DC000B0EE410AF0EE610A9FEDC51B53EC112BCA
:104DD00051EC100B05F02CF8CDE90A01BF48006832
:104DE00090ED561BB0EE410AF0EE610A9FEDBC1B40
:104DF00053EC112B51EC100B00E062E005F018F8B9
:104E0000CDE91A01B548006890ED581BB0EE410A93
:104E1000F0EE610A9FEDB21B53EC112B51EC100B1D
:104E200005F006F8CDE91C01AC48006890ED5A1B6E
:104E3000B0EE410AF0EE610A9FEDA91B53EC112B75
:104E400051EC100B04F0F4FFCDE91E01A3480068FB
:104E500090ED6A1BB0EE410AF0EE610A9FEDA01BD7
:104E600053EC112B51EC100B04F0E2FF28AAC2E91D
:104E700006019A48006890ED6C1BB0EE410AF0EE16
:104E8000610A9FED971B53EC112B51EC100B04F0B2
:104E9000CFFF28AAC2E908019048006890ED6E1B78
:104EA000B0EE410AF0EE610A9FED8D1B53EC112B21
:104EB00051EC100B04F0BCFF28AAC2E90A0101E082
:104EC00000E000BF00BFAA222046611CCCB2864988
:104ED0000A542046611CCCB283490A5405F10F00E4
:104EE000C2B22046611CCCB27F490A54002220463F
:104EF000611CCCB27C490A549DED061BB0EE410A00
:104F0000F0EE610A51EC100B04F066FE00B23C902A
:104F10009DF8F1202046611CCCB273490A549DF8DB
:104F2000F0202046611CCCB26F490A549DED081B4D
:104F3000B0EE410AF0EE610A51EC100B04F04CFEA9
:104F400000B23C909DF8F1202046611CCCB266492D
:104F50000A549DF8F0202046611CCCB262490A54E4
:104F60009DED0A1BB0EE410AF0EE610A51EC100B08
:104F700004F032FE00B23C909DF8F1202046611C06
:104F8000CCB259490A549DF8F0202046611CCCB29D
:104F900055490A549DED1A1BB0EE410AF0EE610A24
:104FA00051EC100B04F018FE00B23C909DF8F1207B
:104FB0002046611CCCB24C490A549DF8F020204692
:104FC000611CCCB248490A549DED1C1BB0EE410A4D
:104FD000F0EE610A51EC100B04F0FEFD00B23C90C3
:104FE0009DF8F1202046611CCCB23F490A549DF83F
:104FF000F0202046611CCCB23B490A549DED1E1B9B
:10500000B0EE410AF0EE610A51EC100B04F0E4FD41
:1050100000B23C909DF8F1202046611CCCB2324990
:105020000A549DF8F0202046611CCCB22E490A5447
:105030009DED2E1BB0EE410AF0EE610A51EC100B13
:1050400004F0CAFD00B23C909DF8F1202046611C9E
:10505000CCB225490A549DF8F0202046611CCCB200
:1050600021490A549DED301BB0EE410AF0EE610A71
:1050700051EC100B04F0B0FD00B23C909DF8F12013
:105080002046611CCCB218490A549DF8F0202046F5
:10509000611CCCB214490A549DED321BB0EE410A9A
:1050A000F0EE610A51EC100B04F096FD00B23C905A
:1050B0009DF8F1202046611CCCB20B490A549DF8A2
:1050C000F0202046611CCCB207490A54601F0871C9
:1050D0000026012010E000002D730008F0030020DE
:1050E0000000000000005940880600200B49095CC0
:1050F0003144CEB2411CC8B2A042F7DB2046611C4D
:10510000CCB206490E54601E08700548214642681C
:105110000248904701203EB070BD00008806002084
:10512000C805002030B52DED028B81B00124002090
:105130000090E948006890ED281BB0EE410AF0EEBF
:10514000610A51EC100B04F0C5FA08EE100AB0EE3B
:10515000480A01F0CFFAE14880ED000AE048006813
:10516000D0ED020AB0EE600A01F0C4FADB4880ED2F
:10517000010AD948006890ED641BB0EE410AF0EED8
:10518000610A51EC100B04F0A5FA08EE100AB0EE1B
:10519000480A01F0AFFAD14880ED020ACE48006813
:1051A00090ED661BB0EE410AF0EE610A51EC100B77
:1051B00004F090FA08EE100AB0EE480A01F09AFAEC
:1051C000C64880ED030AC748006890ED000AB8EEB3
:1051D000C00AC24880ED040AC248006890ED010A86
:1051E000B8EEC00ABD4880ED050ABE48006890EDE3
:1051F000020AB8EEC00AB94880ED060AB64800684F
:1052000090ED2A1BB0EE410AF0EE610A51EC100B52
:1052100004F060FA08EE100AB0EE480A01F06AFAEB
:10522000AE4880ED070AAC48006890ED341BB0EE44
:10523000410AF0EE610A51EC100B04F04BFAA74959
:1052400008629FEDA90A084680ED090A9FEDA60AAB
:1052500080ED0A0A9FEDA40A80ED0B0AAA222146DE
:10526000641CA24842542146641C4254F122214647
:10527000641C425400222146641C4254974890ED1D
:10528000000ABDEEC00A10EE100A00B200909DF8B0
:1052900001202146641C954842549DF80020214677
:1052A000641C42548D4890ED010ABDEEC00A10EE18
:1052B000100A00B200909DF801202146641C8B4822
:1052C00042549DF800202046611CCCB287490A5404
:1052D000824890ED020ABDEEC00A10EE100A00B23C
:1052E00000909DF801202046611CCCB27F490A54F1
:1052F0009DF800202046611CCCB27C490A547748B6
:1053000090ED030ABDEEC00A10EE100A00B2009044
:105310009DF801202046611CCCB274490A549DF8C6
:1053200000202046611CCCB270490A546B4890EDB5
:10533000040ABDEEC00A10EE100A00B200909DF8FB
:1053400001202046611CCCB268490A549DF8002017
:105350002046611CCCB265490A54604890ED050AAC
:10536000BDEEC00A10EE100A00B200909DF80120B8
:105370002046611CCCB25D490A549DF800202046AD
:10538000611CCCB259490A54544890ED060ABDEE4E
:10539000C00A10EE100A00B200909DF801202046CD
:1053A000611CCCB251490A549DF800202046611C72
:1053B000CCB24E490A54494890ED070ABDEEC00AE6
:1053C00010EE100A00B200909DF801202046611CEA
:1053D000CCB246490A549DF800202046611CCCB24C
:1053E00042490A543D4890ED080ABDEEC00A10EE4D
:1053F000100A00B200909DF801202046611CCCB23A
:105400003A490A549DF800202046611CCCB2374925
:105410000A54324890ED090ABDEEC00A10EE100A97
:1054200000B200909DF801202046611CCCB22F49AB
:105430000A549DF800202046611CCCB22B490A5426
:10544000264890ED0A0ABDEEC00A10EE100A00B21E
:1054500000909DF801202046611CCCB223490A54DB
:105460009DF800202046611CCCB220490A541B48FC
:1054700090ED0B0ABDEEC00A10EE100A00B20090CB
:105480009DF801202046611CCCB218490A549DF8B1
:1054900000202046611CCCB214490A54601F0871D8
:1054A0000025012005E01149095C2944CDB2411CC9
:1054B000C8B2A042F7DB2046611CCCB20B490D54A8
:1054C000601E08700A48214642680848904701203B
:1054D00001B0BDEC028B30BDF0030020C8060020F7
:1054E0000C04002050050020000000008806002069
:1054F000C805002010B57748007800F0010048B9D1
:10550000744802F08AF928B1734801F03DFF7148F0
:10551000AFF300807148007800F0010048B96F488F
:1055200002F07BF928B16E4801F02EFF6B48AFF313
:1055300000806C480078012868D16B480068E0B9A9
:105540009FED6A0A6A4880ED0C0A9FED680A80EDBB
:105550000D0A9FED660A80ED0E0A9FED640A80ED4C
:105560000F0A9FED620A80ED100A9FED600A80ED40
:10557000110A01205C49086010BD5B48006840F6D4
:10558000B831884243DC58480068401C56490860DE
:10559000514890ED000A5648D0ED000A30EE200A3E
:1055A0004D4880ED000A90ED010A5148D0ED010A06
:1055B00030EE200A484880ED010A90ED020A4C487E
:1055C000D0ED020A30EE200A434880ED020A44483A
:1055D00090ED000A4648D0ED030A30EE200A40481C
:1055E00080ED000A90ED010A4148D0ED040A30EE4A
:1055F000200A3B4880ED010A90ED020A3C48D0EDBC
:10560000050A30EE200A364880ED020A60E00020EC
:1056100035490860334908702F4890ED000ADFEDE6
:10562000350A80EE201A324880ED0C1A2A4890ED97
:10563000010ADFED300A80EE201A2D4880ED0D1AA8
:10564000254890ED020ADFED2B0A80EE201A9FED2F
:105650002A0A31EE400A264880ED0E0A204890EDD5
:10566000000ADFED240A80EE201A214880ED0F1A8F
:105670001B4890ED010ADFED1F0A80EE201A1C483E
:1056800080ED101A164890ED020ADFED1A0A80EE3E
:10569000201A174880ED111A9FED140A0E4880ED6C
:1056A000000A9FED120A80ED010A9FED100A80EDBD
:1056B000020A9FED0E0A0A4880ED000A9FED0B0AD0
:1056C00080ED010A9FED090A80ED020A00F052F810
:1056D00000BF51E7B404002078090020B004002086
:1056E00084090020A0040020B8040020000000006D
:1056F0003009002000803B4500F07F4500B51820B0
:10570000FCF784F9BCEEC00A10EE100A1749487085
:1057100008464078012824D10020FCF777F9144886
:1057200080ED0C0A0420FCF771F9114880ED0D0A98
:105730000820FCF76BF90E4880ED0E0A0C20FCF7F0
:1057400065F90B4880ED0F0A1020FCF75FF9084857
:1057500080ED100A1420FCF759F9054880ED110A74
:1057600002E001200149087000BD0000A0040020F3
:105770003009002010B5FCF719FC10B902200149CE
:10578000887010BDA004002070B51D4801F01BFFFB
:10579000EE211B4801F092FF194801F03FFF002164
:1057A000174801F08BFF164801F038FF144801F04C
:1057B000CCFE134801F007FFEF21114801F07EFFF6
:1057C0000F4801F02BFF0E4801F051FF04460C4832
:1057D00001F07BFE0A4801F04AFF0546084801F047
:1057E00074FE074801F043FF0646054801F0D0FE6D
:1057F000034801F0AAFE200400EB0520304470BDF0
:10580000080A00201CB501210220FBF7CBF801217A
:105810000420FBF7C7F84FF47070009002208DF859
:10582000040003208DF8050000208DF806008DF897
:10583000070069461A48FAF7F8FF022206211848BD
:10584000FBF73BF8022207211548FBF736F8022246
:1058500008211348FBF731F8022209211048FBF711
:105860002CF84FF44070009002208DF804000020C6
:105870008DF8060003208DF8050002208DF8070042
:1058800069460848FAF7D1FF032208210548FBF7CB
:1058900014F8032209210348FBF70FF81CBD000090
:1058A000000402400008024008B51E208DF80000E8
:1058B00000208DF8010001208DF802008DF8030012
:1058C0006846FBF727F82E208DF8000000208DF8A1
:1058D000010002208DF8020001208DF803006846C7
:1058E000FBF718F808BD000010B52DED0C0BB8B093
:1058F0009FEDFE0B53EC102B9DED420B51EC100B6A
:1059000003F0D6FFCDE9340119A801F03DFD16A83A
:1059100001F03AFD3B98139004F080FDCDE92001A1
:105920003C98139004F07AFDCDE91E013D98139048
:1059300004F074FDCDE91C019DED380ADFEDED0AA0
:1059400020EE200A8DED120A9DED120A00F040FFB4
:105950008DED130A139804F061FDCDE92601DDED0C
:10596000390A9FEDE40A20EE800A8DED120A9DEDC2
:10597000120A00F02DFF8DED130A139804F04EFD6E
:10598000CDE924019DED3A0ADFEDDA0A20EE200A86
:105990008DED120A9DED120A00F01AFF8DED130A2B
:1059A000139804F03BFDCDE922019DED260B51EC4F
:1059B000100B03F08FFED049096808609DED240BA1
:1059C00051EC100B03F086FECB49096848609DED51
:1059D000220B51EC100B03F07DFEC749096888606B
:1059E0009DED1C0B53EC102B9DED1C0B51EC100B83
:1059F00004F01EFACDE90E019DED1E0B53EC102BA9
:105A00009DED1E0B51EC100B04F012FACDE90A01CA
:105A10009DED200B53EC102B9DED200B51EC100B4A
:105A200004F006FACDE908019DED0A0B53EC102BAA
:105A30009DED080B51EC100B03F07EFECDE90C013F
:105A40009DED0E0B53EC102B9DED0C0B51EC100B40
:105A500003F072FECDE910019DED100B51EC100B1F
:105A600003F038FE139037A89DED130AFCF706FFEC
:105A70009DED370AB5EEC00AF1EE10FA01D144B03F
:105A800010BD379804F0CAFCCDE912019DED120B50
:105A900053EC102B9DED200B51EC100B03F008FF85
:105AA000CDE92001379804F0B9FCCDE912019DED54
:105AB000120B53EC102B9DED1E0B51EC100B03F051
:105AC000F7FECDE91E01379804F0A8FCCDE91201DC
:105AD0009DED120B53EC102B9DED1C0B51EC100B9C
