:020000040800F2
:10000000B01D00206D020008750900086D09000888
:100010007109000887060008171900080000000091
:100020000000000000000000000000008D0B000830
:10003000F906000800000000050A0008910B0008FE
:10004000870200088702000887020008870200086C
:10005000870200088702000887020008870200085C
:10006000870200088702000887020008870200084C
:10007000870200088702000887020008870200083C
:10008000870200088702000887020008870200082C
:10009000870200088702000887020008870200081C
:1000A000870200088702000887020008870200080C
:1000B0008702000887020008110C00088702000868
:1000C00087020008870200088702000887020008EC
:1000D00087020008091600087D160008870200083C
:1000E00087020008870200088702000887020008CC
:1000F0008702000887020008790E000887020008BE
:100100008702000887020008290E000887020008FD
:10011000911500088702000887020008870200087E
:10012000870200088702000887020008870200088B
:10013000870200088702000887020008870200087B
:10014000870200088702000887020008870200086B
:10015000870200088702000887020008870200085B
:10016000870200088702000887020008870200084B
:10017000870200088702000887020008870200083B
:10018000870200088702000800F002F800F05EF81D
:100190000AA090E8000C82448344AAF10107DA45E2
:1001A00001D100F053F8AFF2090EBAE80F0013F0D6
:1001B000010F18BFFB1A43F0010318478CC9000058
:1001C000ACC900000A444FF0000C10F8013B13F0DA
:1001D000070408BF10F8014B1D1108BF10F8015BA0
:1001E000641E05D010F8016B641E01F8016BF9D193
:1001F00013F0080F1EBF10F8014BAD1C0C1B09D1EA
:100200006D1E58BF01F801CBFAD505E014F8016B5B
:1002100001F8016B6D1EF9D59142D6D370470000ED
:100220000023002400250026103A28BF78C1FBD8FF
:10023000520728BF30C148BF0B6070471FB50BF095
:100240000EFE00F08DF81FBD10B510BD00F024F9B2
:100250001146FFF7F3FF0AF0E1FD00F042F903B4A5
:10026000FFF7F2FF03BC00F043F9000009488047A4
:1002700009480047FEE7FEE7FEE7FEE7FEE7FEE788
:10028000FEE7FEE7FEE7FEE704480549054A064BA0
:1002900070470000A90B000889010008B017002072
:1002A000B01D0020B0190020B019002010B54C106E
:1002B00084EA530404D54042C1F1000138BF491E0D
:1002C0001B4204D55242C3F1000338BF5B1E00F04D
:1002D00059F814F0804F04D04042C1F1000138BFFA
:1002E000491E14F0004F04D05242C3F1000338BF3E
:1002F0005B1E10BD10B5203AC0F00B80B1E818505D
:10030000203AA0E81850B1E81850A0E81850BFF4FF
:10031000F5AF5FEA027C24BFB1E81850A0E818509E
:1003200044BF18C918C0BDE810405FEA827C24BFF2
:1003300051F8043B40F8043B08BF7047D20728BF80
:1003400031F8023B48BF11F8012B28BF20F8023BCF
:1003500048BF00F8012B7047704770477047000096
:1003600070B5064C7C44064D7D4403E02068204473
:100370008047241DAC42F9D170BD000000C80000C8
:1003800024C8000053EA020C00F069802DE9F04B0C
:100390004FF00006002B1FBFB3FA83F503FA05F4F4
:1003A00024FA05F65E4012BF1643B2FA82F502FA4D
:1003B00005F4C5F120051EBF22FA05FC44EA0C0431
:1003C000203556EA044C4FEA144418BF641C4FF021
:1003D00000084FF00009904271EB030C39D300295B
:1003E00019BFB1FA81F701FA07F6B0FA80F700FAFF
:1003F00007F6C7F120071EBF20FA07FC46EA0C06E5
:100400002037B6FBF4FCA7EB0507103F07F01F0BE6
:10041000CBF120060CFA0BFB2CFA06F644BFB346D0
:100420000026202FA4BF5E464FF0000B5BEA060CAF
:1004300008BF4FF0010B19EB0B09ABFB027C48EB3B
:100440000608C01B06FB02CC0BFB03CC71EB0C01B6
:10045000C1E70B46024641464846BDE8F08B13B55E
:100460004FF000004FF00001AFF30080BDE81C40EA
:10047000704710B500F008F8006810BD10B50446CC
:1004800000F002F8046010BD0048704750170020CB
:1004900000487047501700207546FFF7F9FFAE4639
:1004A00005006946534620F00700854618B020B580
:1004B000FFF7EAFEBDE820404FF000064FF00007CE
:1004C0004FF000084FF0000B21F00701AC46ACE8FC
:1004D000C009ACE8C009ACE8C009ACE8C0098D4669
:1004E00070470446AFF300802046FFF7B8FE0000D7
:1004F00001491820ABBEFEE726000200704721B17B
:10050000826842F00102826003E0826822F0010208
:10051000826070470021084A1168084A1140D0E9FA
:1005200000231A4383681A43C3681A431143044AD9
:10053000C2F804137047000004230140E030FCFFC0
:100540000020014021B1826842F48072826003E0A1
:10055000826822F480728260704721B1826842F41E
:100560000072826003E0826822F400728260704749
:1005700030B50246002000235068104C20400D7911
:100580000C6844EA05242043506090680C4C2040DD
:10059000D1E903542C438D682C434D7944EA45043A
:1005A00020439060D06A20F470000C7D641EE4B299
:1005B000234340EA0350D06230BD0000FFFEFFFC41
:1005C000FDF7FFC0F0B504460D4600200021092DBF
:1005D00011DDE068A5F10A0606EB4607072606FAD4
:1005E00007F18843A5F10A0606EB460603FA06F171
:1005F0000843E0600CE0206905EB4507072606FA92
:1006000007F1884305EB450603FA06F1084320612C
:10061000072A0FDA606B561E06EB86071F2606FABE
:1006200007F18843561E06EB860605FA06F10843D5
:10063000606322E00D2A0FDA206BD61F06EB8607D7
:100640001F2606FA07F18843D61F06EB860605FA31
:1006500006F10843206310E0E06AA2F10D0606EB04
:1006600086071F2606FA07F18843A2F10D0606EB5E
:10067000860605FA06F10843E062F0BD816841F0A4
:1006800080418160704700BFFEE721B1026842F0FF
:100690000102026003E0026822F00102026070477A
:1006A00010B500220268134B1A40CC680B68234334
:1006B0004C6923438C692343CC6923430C6A23434D
:1006C0004C6A23438C6A23434C6B23438C6B234338
:1006D0001A430260426922F00702D1E90B34234336
:1006E0001A4342610B6943604B6883608B68C36047
:1006F00010BD00003F801CF07047000001490860F9
:10070000704700000C3C024070B504460A460026C3
:10071000092502B909E0012A01D1160205E0022AE1
:1007200001D1160201E04FF4407600F09FF8054633
:10073000092D28D11548006820F44070134908603D
:1007400008460068304308600846006820F0F8005A
:1007500008600846006844F0020108430B4908603D
:100760000846006840F48030086000F07FF80546D5
:100770000648006820F00200044908600846006846
:1007800020F0F8000860284670BD0000103C0240D0
:1007900009201349096801F48031B1F5803F01D186
:1007A00001201CE00E49096801F0100109B1062082
:1007B00015E00B49096801F4807109B102200EE0CF
:1007C0000749096801F0E00109B1072007E0044981
:1007D000096801F0020109B1082000E00920704712
:1007E0000C3C02400348006840F0004001490860AA
:1007F00070470000103C024030B502460C46092507
:1008000000F034F80546092D19D10E48006820F48F
:1008100040700C4908600846006840F400700860A9
:100820000846006840F001000860146000F01EF8FF
:1008300005460448006820F0010002490860284687
:1008400030BD0000103C02400548006800F0004048
:1008500028B1044802490C39086003480860704711
:10086000103C024023016745AB89EFCD08B5092054
:100870000090FFF78DFF009002E0FFF789FF0090E6
:100880009DF800000128F8D09DF8000008BDF0B5E3
:100890000A4600210023002400BF3DE0012505FA9F
:1008A00001F3156805EA03049C4234D105684F0042
:1008B0000326BE40B543056015794E00B540066875
:1008C000354305601579012D02D01579022D16D119
:1008D00085684F000326BE40B543856055794E00BC
:1008E000B540866835438560456801268E40B5432E
:1008F0004560456896798E40B6B235434560C56817
:100900004F000326BE40B543C560D5794E00B540C3
:10091000C6683543C560491C1029BFD3F0BDF0B58A
:10092000002300244D07ED0E02FA05F3CE1000F16E
:10093000200555F826504E07F70E0F26BE40B5434A
:10094000CF1000F1200646F82750CE1000F1200508
:1009500055F8265045EA0304CE1000F1200545F86D
:100960002640F0BD418370470183704700BFFEE71A
:1009700000BFFEE77047000070B5002100230F2282
:10098000C4781CB3174C246804F4E064C4F5E06434
:10099000C4F30721C1F10404E3B20A4144789C4046
:1009A000E1B28478144021430C07210E0E4C0578E7
:1009B0006155047804F01F050124AC4005786D11E1
:1009C000AD0005F1E025C5F8004109E0047804F028
:1009D0001F050124AC40054D0678761145F82640E8
:1009E00070BD00000CED00E000E400E080E100E0FC
:1009F00002490143024A1160704700000000FA05F5
:100A00000CED00E07047000029B1064A126802436D
:100A1000044B1A6004E0034A12688243014B1A60D7
:100A2000704700003038024029B1064A126802437C
:100A3000044B1A6004E0034A12688243014B1A60B7
:100A4000704700004038024029B1064A126802434C
:100A5000044B1A6004E0034A12688243014B1A6097
:100A6000704700002038024029B1064A126802434C
:100A7000044B1A6004E0034A12688243014B1A6077
:100A8000704700004438024029B1064A1268024308
:100A9000044B1A6004E0034A12688243014B1A6057
:100AA0007047000024380240F0B5002100220024E5
:100AB000022500260223324F3F6807F00C0121B1C6
:100AC000042905D0082937D105E02E4F076036E00C
:100AD0002C4F076033E02A4F3F1F3F68C7F3805613
:100AE000274F3F1F3F6807F03F036EB1254FB7FB0D
:100AF000F3F7DFF88CC0ACF1040CDCF800C0CCF3E9
:100B0000881C07FB0CF40CE01E4FB7FBF3F7DFF873
:100B100070C0ACF1040CDCF800C0CCF3881C07FBFF
:100B20000CF4174F3F1F3F68C7F301477F1C7D0040
:100B3000B4FBF5F7076002E0124F076000BF00BF8B
:100B40000F4F3F6807F0F00109090F4F7A5C076803
:100B5000D74047600A4F3F6807F4E051890A0A4FBF
:100B60007A5C4768D7408760054F3F6807F460416B
:100B7000490B054F7A5C4768D740C760F0BD00005D
:100B8000083802400024F400600B00207047000089
:100B90000448036840685A1C40F1000001490A609B
:100BA00048607047600A002010B51548006840F49E
:100BB0007000134908601348006840F001001149B3
:100BC000086000200F49083108600E4800680E498F
:100BD00008400C4908600D48091D0860081F00689E
:100BE00020F48020091F0860002006490C310860AD
:100BF00001F0B4F84FF0006001498039086010BD81
:100C000088ED00E000380240FFFFF6FE10300024BF
:100C100010B502217C4800F0A7FA012839D1022141
:100C2000794800F0BDF97948006800F0400040289C
:100C300010D1754800F08CFA754908807248203050
:100C4000008840F00200704920310880002071497E
:100C500008801EE06C4800F07BFA84B26C48008883
:100C6000844205DD6A480088201A6B49888007E0C5
:100C70004FF6FF70204466490988401A664988800B
:100C800061482030008820F002005F492031088050
:100C900000BF04215C4800F067FA012836D1042126
:100CA000594800F07DF95948006800F0800080281C
:100CB0000DD1554800F04FFA58490880524820306D
:100CC000008840F020005049203108801EE04E4846
:100CD00000F041FA84B251480088844205DD4F4853
:100CE0000088201A4C49C88007E04FF6FF70204466
:100CF0004A490988401A4849C8804348203000883A
:100D000020F0200040492031088000BF08213E48E3
:100D100000F02AFA012837D108213B4800F040F9B9
:100D20003A48006800F48070B0F5807F0DD13648F5
:100D300000F014FA3A49088033482030008840F423
:100D400000703149203108801EE02F4800F006FA7B
:100D500084B233480088844205DD31480088201A77
:100D60002D49088107E04FF6FF7020442C4909887F
:100D7000401A2949088124482030008820F4007056
:100D800021492031088000BF10211F4800F0ECF9F4
:100D9000012837D110211C4800F002F91B480068D7
:100DA00000F40070B0F5007F0DD1174800F0D9F9BC
:100DB0001C49088014482030008840F40050124933
:100DC000203108801EE0104800F0CBF984B21548AD
:100DD0000088844205DD13480088201A0E494881A6
:100DE00007E04FF6FF7020440E490988401A0A496F
:100DF000488105482030008820F400500249203105
:100E0000088000BF10BD0000000800401004024030
:100E1000C80A0020B00A002030120020CA0A0020B0
:100E2000CC0A0020CE0A002010B50121104800F0A5
:100E30009BF9012816D10F48007810B101280FD175
:100E400006E005F0BFFA012801D10A49087008E060
:100E500005F034FA012802D102200649087000E0AA
:100E600000BF00BF0121024800F09AF810BD000049
:100E7000000C0040340A002010B508213D4800F065
:100E800073F9012837D108213A4800F089F83A4827
:100E9000006800F48070B0F5807F0DD1354800F017
:100EA0005DF93649088033482030008840F40070EE
:100EB0003049203108801EE02E4800F04FF984B2FE
:100EC0002E480088844205DD2C480088201A2C49D1
:100ED000088007E04FF6FF70204428490988401A2F
:100EE0002749088023482030008820F400702149D9
:100EF0002031088000BF10211E4800F035F901287C
:100F000037D110211B4800F04BF81B48006800F453
:100F10000070B0F5007F0DD1164800F022F9194994
:100F2000088014482030008840F4005011492031D6
:100F300008801EE00F4800F014F984B211480088C0
:100F4000844205DD0F480088201A0D49488007E0DB
:100F50004FF6FF7020440B490988401A0849488021
:100F600004482030008820F40050024920310880D5
:100F700000BF10BD0004014010080240D00A00204C
:100F800030120020D20A002021B1028842F08002F3
:100F9000028004E002884FF67F731A400280704797
:100FA000CA430282704721B1028842F001020280E6
:100FB00004E002884FF6FE731A400280704700007A
:100FC00010B504465548844208D101210846FFF770
:100FD0005BFD00210120FFF757FD9DE0B4F1804F3C
:100FE00008D101210846FFF72FFD00210120FFF75E
:100FF0002BFD91E04A48844208D101210220FFF7ED
:1010000023FD00210220FFF71FFD85E045488442B3
:1010100008D101210420FFF717FD00210420FFF76C
:1010200013FD79E04048844208D101210820FFF7F0
:101030000BFD00210820FFF707FD6DE03B488442CF
:1010400008D101211020FFF7FFFC00211020FFF73D
:10105000FBFC61E03648844208D101212020FFF7E3
:10106000F3FC00212020FFF7EFFC55E031488442DB
:1010700008D101210220FFF707FD00210220FFF720
:1010800003FD49E02C48844209D101210804FFF7FF
:10109000FBFC00214FF48030FFF7F6FC3CE02748D2
:1010A000844209D101214804FFF7EEFC00214FF4EE
:1010B0000030FFF7E9FC2FE02148844209D10121EB
:1010C0008804FFF7E1FC00214FF48020FFF7DCFCEF
:1010D00022E01C48844208D101214020FFF7B4FCE3
:1010E00000214020FFF7B0FC16E01748844208D1E9
:1010F00001218020FFF7A8FC00218020FFF7A4FC3D
:101100000AE01248844207D101218015FFF79CFCB8
:101110000021A015FFF798FC10BD00000000014061
:101120000004004000080040000C00400010004097
:101130000014004000040140004001400044014010
:101140000048014000180040001C00400020004002
:101150000146486B70470146886B70470146C86B73
:1011600070470146086C704730B5024600200023E6
:101170000024158A05EA0103958905EA010413B1E3
:101180000CB1012000E0002030BD70B505460C46D2
:10119000208850B92389A2886188284600F08EFCF7
:1011A000E188284600F085F925E0208804280AD146
:1011B0002389A2886188284600F09DFCE1882846A2
:1011C00000F080F917E0208808280AD12389A28836
:1011D0006188284600F0B7FCE188284600F07FF9D6
:1011E00009E02389A2886188284600F0D0FCE188C4
:1011F000284600F07DF970BD1AB183890B438381C5
:1012000002E083898B4383817047000070B500241E
:1012100000220023058C4FF6FE7635400584028CB3
:101220008388048B4FF68F752C40B51E2C400D889B
:101230002C43751E2A408D892A434D882A43104D20
:10124000A84202D00F4DA84213D14FF6F7752A409D
:10125000CD892A434FF6FB752A408D882A434FF6E5
:10126000FF652B404FF6FF552B400D8A2B434D8ACF
:101270002B43838004838D684563028470BD000026
:1012800000000140000401400A460021018B4FF696
:10129000F7731940114301837047000070B50024B3
:1012A00000220023058C4FF6EF7635400584028C32
:1012B0008388048B48F6FF752C404FF6FF452C4081
:1012C0000D884FF6FF7606EA05252C434FF6DF75AD
:1012D0002A408D8906EA05152A434D8806EA051538
:1012E0002A43154DA84202D0144DA8421DD14FF6F5
:1012F0007F752A40CD894FF6FF7606EA05152A4309
:101300004FF6BF752A408D8806EA05152A434FF629
:10131000FF352B404FF2FF752B400D8A06EA8505FD
:101320002B434D8A06EA85052B43838004838D6811
:101330008563028470BD000000000140000401408C
:101340000A460021018B4FF2FF7319404FF6FF73DD
:1013500003EA0223194301837047000070B500249B
:1013600000220023058C4FF6FF6635400584028C71
:101370008388848B4FF68F752C404FF6FC752C407C
:101380000D882C434FF6FF552A408D894FF6FF7686
:1013900006EA05252A434D8806EA05252A43154D08
:1013A000A84202D0144DA8421DD14FF2FF752A4029
:1013B000CD894FF6FF7606EA05252A434FF6FF351D
:1013C0002A408D8806EA05252A434EF6FF752B40F4
:1013D0004DF6FF752B400D8A06EA05152B434D8A05
:1013E00006EA05152B43838084838D68C5630284D8
:1013F00070BD000000000140000401400A460021C9
:10140000818B4FF6F77319401143818370470000B9
:1014100070B5002200230024058C4EF6FF7635407F
:101420000584038C8488828B48F6FF752A404FF62A
:10143000FF452A400D884FF6FF7606EA05252A4328
:101440004DF6FF752B408D8906EA05352B434D88F7
:1014500006EA05352B430A4DA84202D0094DA842A1
:1014600008D14BF6FF752C400D8A4FF6FF7606EA41
:1014700085152C43848082838D680564038470BD48
:1014800000000140000401400A460021818B4FF218
:10149000FF7319404FF6FF7303EA02231943818358
:1014A00070474163704781637047C163704701644F
:1014B0007047028B4FF6F3731A400283028B0A4384
:1014C00002837047028B4FF2FF331A400283028B74
:1014D0004FF6FF7303EA01231A4302837047828B9E
:1014E0004FF6F3731A408283828B0A4382837047DC
:1014F000828B4FF2FF331A408283828B4FF6FF7349
:1015000003EA01231A438283704700000022028805
:10151000184B98420ED0184B98420BD0B0F1804F28
:1015200008D0164B984205D0154B984202D0154B67
:10153000984204D14FF68F731A404B881A43124BCE
:10154000984207D0114B984204D04FF6FF431A40FF
:101550000B891A4302804B68C3620B880385054BD5
:10156000984202D0044B984201D18B7A0386012322
:1015700083827047000001400004014000040040E5
:1015800000080040000C0040001000400014004023
:1015900008B540F22771184800F0FAF890B11748E2
:1015A0001749826868469047012805D19DF80010C8
:1015B000114800F0ACF905E0002240F227710E4816
:1015C00000F010F940F225510B4800F0E1F890B11D
:1015D000094800F097F9C0B2009040F22551064842
:1015E00000F0AEF80548074942689DF800009047B2
:1015F00008B9012000BF08BD004C00401C0B0020B2
:101600007C1400208814002008B540F22771174888
:1016100000F0BEF890B116481649826868469047B7
:10162000012805D19DF80010104800F070F905E080
:10163000002240F227710D4800F0D4F840F2255105
:101640000A4800F0A5F878B1084800F05BF9C0B28C
:10165000009040F22551054800F072F80448064910
:1016600042689DF80000904708BD0000001001404E
:101670001C0B002094160020A016002010B5082195
:10168000274800F078F810B1254800F03BF92021F8
:10169000234800F070F8012840D1214800F032F9C9
:1016A000C4B22049486880471F490968401A022887
:1016B00010D900201D4908701D480078012803D169
:1016C00000201B49087002E0012019490870012020
:1016D0001849087016480078012808D11348017885
:1016E0000078401C114A10701348445407E00F481A
:1016F00001780078401C0D4A107010484454094984
:10170000486880470849086008480078192804D1CB
:1017100006480078401E0549087000BF10BD000053
:1017200000440040680A0020440B0020480B0020C1
:10173000290B0020280B0020AC160020C516002025
:1017400010B50022002340F66A14A14200D100BF68
:101750000A1201249440A3B2DC43048010BD21B1DD
:10176000828942F40052828104E082894DF6FF733F
:101770001A408281704702460020B1F5007F00D1F7
:1017800000BF13880B400BB1012000E00020704720
:1017900070B50246002400230025002040F66A169A
:1017A000B14200D100BFC1F3421501F01F03012671
:1017B00006FA03F3012D02D19689334006E0022D8B
:1017C00002D1168A334001E0968A33400C1201267A
:1017D00006FA04F41688344013B10CB1012000E07D
:1017E000002070BDF0B5034600240026002500202F
:1017F00040F66A17B94200D100BF1846C1F342143F
:1018000001F01F06012707FA06F5012C01D10C3063
:1018100004E0022C01D1103000E014301AB1076846
:101820002F43076002E00768AF430760F0BD000088
:101830002DE9FF4705460E460024A14600BFA046FD
:10184000B08900B100BF2C8A24F44054F0880443CE
:101850002C82AC8941F20C608443B0883189084302
:10186000718908430443AC81AC8A24F44074B08984
:101870000443AC826846FFF717F92048854202D03E
:101880001F48854202D1DDF80C9001E0DDF8089098
:10189000A88900F4004040B109EBC90000EB091031
:1018A00031684900B0FBF1F707E009EBC90000EB34
:1018B000091031688900B0FBF1F76420B7FBF0F044
:1018C00004012009642101FB1078A88900F400407C
:1018D00040B1322000EBC800B0FBF1F000F007008F
:1018E000044308E0322000EB08106421B0FBF1F063
:1018F00000F00F0004432C81BDE8FF870010014079
:101900000014014001468888C0F308007047C1F305
:1019100008028280704700BFFEE70000DFED0C0A7E
:10192000B0EE600A0B48008800EE900AF8EE600AFC
:10193000DFED091A80EEA11ADFED080A61EE200A38
:10194000B1EE001A60EE810A0548C0ED000A70474A
:1019500000000000D40A002000F07F4533335340DC
:10196000D80A002010B54FF480510248FEF7FAFF64
:1019700010BD00000008024010B504460149886807
:10198000804710BD380A002010B504460748816A18
:10199000204688470649C86880470648816820462F
:1019A0008847044801692046884710BD8009002007
:1019B000040A00202809002010B504460749C86819
:1019C00080470749C86880470648416820468847DD
:1019D0000448C1682046884710BD0000E80900207F
:1019E0004C0900202809002010B540F206414FF0B4
:1019F0008040FFF75AFD40F206410C48FFF757FDC3
:101A000040F206410948FFF750FD40F20641074801
:101A1000FFF749FD40F206410448FFF742FD40F25E
:101A200006414FF08040FFF742FD10BD000400402A
:101A300010B502F07BFE02F0AFF800F001F810BD27
:101A400010B54FF461701249086048608860C86042
:101A50000861486101460007FFF727FD4FF46171F7
:101A60000C48FFF724FD4FF461710A48FFF71DFD94
:101A70004FF461710748FFF716FD4FF46171054897
:101A8000FFF70FFD4FF461710807FFF710FD10BD60
:101A90001812002000040040002100EE901A0549B1
:101AA000415800EE901AB8EEE01ADFED031A81EE0D
:101AB000210A704700000E080000C842F0B50C462D
:101AC000154600210022068C4FF6FE773E40068424
:101AD000018B028C4FF60C7631407E1C06EA031611
:101AE0002E4331434FF6F576324044F0010632433F
:101AF00001830284F0BDF0B50C461546002100229A
:101B00000026078C4FF6EF7C07EA0C070784018B51
:101B1000028C4FF6FF7707EA041640F6FF4739407C
:101B20004FF6FF7707EA033739434FF6FF7707EAA7
:101B3000052739434FF65F773A4046F010073A439E
:101B400001830284F0BDF0B50C4615460021002249
:101B50000026078C4FF6FF6C07EA0C070784818B81
:101B6000028C4FF6FF7707EA04264FF60C773940D0
:101B70004FF6FF7707EA03172F4339434FF2FF571A
:101B80003A4046F480773A4381830284F0BDF0B551
:101B90000C461546002100220026078C4EF6FF7CDD
:101BA00007EA0C070784818B028C4FF6FF7707EA60
:101BB000043640F6FF4739404FF6FF7707EA05271E
:101BC00039434FF6FF7707EA0337394345F6FF7786
:101BD0003A4046F480573A4381830284F0BD0000C6
:101BE0000149086849687047600A00202DE9F047FC
:101BF0002448046845684FF0E020866900272148A2
:101C00000168426884EA010085EA020108431CD1A8
:101C10001D480023026830463946FEF747FB4FF463
:101C20007A734FF0000CA4FB032805FB038304FB2D
:101C30000C3C1346181A6CEB01014FF47A7C10EB44
:101C40000C0041F10001BDE8F0874FF0E020806911
:101C50000D490968B0FBF1F000220A4B19685B6876
:101C60004FF47A78A1FB089A03FB08A301FB023129
:101C70001346B9EB000261EB030112EB080041F1DE
:101C80000001E0E7600A0020500A00201CB5012195
:101C90000420FEF7B9FE01208DF8040000208DF825
:101CA00006008DF805008DF807004FF48050009075
:101CB00069460448FEF7EBFD4FF480510148FEF7FA
:101CC00051FE1CBD0008024010B504F0BDF9012012
:101CD00010BD000070B506460C4600250A48C079C4
:101CE000A04201DA002070BD002509E07019074903
:101CF0008A680549904708B90020F4E7681C85B256
:101D0000A542F3DB0120EEE7881400201C0B002025
:101D100070B504460D460B4948688047064604F4F2
:101D20000050B0F5005F0CD107480068864208D922
:101D30000648006880F400500449086070190249A0
:101D4000086070BD680A0020940A00201408024050
:101D5000704700B500F0C6FC00BD00000CB50020C7
:101D6000019000903448006840F4803032490860A7
:101D700000BF3148006800F4003000900198401C1A
:101D80000190009818B90198B0F5A04FF1D12A48F8
:101D9000006800F4003010B10120009001E0002044
:101DA00000900098012846D123484030006840F058
:101DB00080502149403108602048006840F440408C
:101DC0001E4908601C48083000681B49083108603B
:101DD0000846006840F4004008600846006840F487
:101DE000A05008601648091F0860081F006840F0EE
:101DF0008070091F086000BF0F48006800F0007085
:101E00000028F9D040F205700E4908600A480830F1
:101E1000006820F00300084908310860084600689F
:101E200040F00200086000BF03480830006800F07E
:101E30000C000828F8D10CBD0038024000700040AA
:101E400010544007003C024000B50246FFF7C8FEB0
:101E5000034600BFFFF7C4FE99188842FAD300BDBD
:101E600070B50446FFF7C2FE054600BFFFF7BEFE91
:101E70002A19801A71F10001F8DB70BD10B5012438
:101E8000FEF7E2FCF320FEF739FC02215820FEF7B2
:101E90003BFC3B4890ED0C0ADFED3A0A20EE200AAD
:101EA000BDEEC00A10EE101A3748FEF7A5FC09284F
:101EB00000D00024324890ED0D0ADFED320A20EE0A
:101EC000200ABDEEC00A10EE101A2F48001DFEF7C2
:101ED00093FC092800D00024294890ED0E0ADFED7C
:101EE000290A20EE200ABDEEC00A10EE101A26487C
:101EF0000830FEF781FC092800D00024204890ED2E
:101F00000F0ADFED200A20EE200ABDEEC00A10EE17
:101F1000101A1D480C30FEF76FFC092800D0002471
:101F2000174890ED100ADFED170A20EE200ABDEEEB
:101F3000C00A10EE101A14481030FEF75DFC092894
:101F400000D000240E4890ED110ADFED0E0A20EEBD
:101F5000200ABDEEC00A10EE101A0B481430FEF72E
:101F60004BFC092800D00024642107481830FEF7F4
:101F700043FC092800D00024FEF734FC204610BDA5
:101F80007C1000200000C84200000E0810B58AB086
:101F9000044601210846FEF737FD01211020FEF717
:101FA00063FD072209212F48FEF7B9FC07220A2109
:101FB0002C48FEF7B4FC02208DF824008DF8250093
:101FC00000208DF8260001208DF82700400208909F
:101FD00008A92448FEF75BFC4FF48060089008A92C
:101FE0002048FEF754FC25208DF80C0000208DF8C9
:101FF0000D0001208DF80E008DF80F0003A8FEF7EC
:10200000BBFC04940020ADF81400ADF81600ADF848
:102010001800ADF81C000C20ADF81A0004A91248F5
:10202000FFF706FC1148124AFF21036868469847EB
:1020300010489DE80E000EC00C480F4AFF210368AF
:10204000684698470D489DE80E000EC0012240F2F8
:1020500025510548FFF7C6FB01210348FFF77FFB29
:102060000AB010BD00000240001001401C0B00200F
:10207000941400209416002093150020A016002030
:1020800070B506460C4600250F4800790E49C979FF
:10209000401AA04201DA002070BD002509E0705D01
:1020A0000A494A680849904708B90020F4E7681CC3
:1020B00085B2A542F3DB012240F227710448FFF705
:1020C00091FB0120E8E70000941600201C0B002083
:1020D0000010014000B58FB001218805FEF794FC87
:1020E000012004900020009003900B901048029073
:1020F00000200D904FF400500890C0100690801002
:1021000009900C48019000200E904FF40060079059
:10211000002005904FF400300A9069460648FEF70B
:10212000BFFA01210448FEF7B0FA0FB000BD00006D
:10213000D40A00204C2001401064024010B50D4824
:1021400006F0FEFC7C2300223C210A4806F0B2FC8B
:10215000202301223C21074806F0ACFC8023022208
:102160003C21044806F0A6FC0348C1680A208847C1
:1021700010BD0000DC100020680A002010B51C48CB
:1021800006F0DEFC1B48C1683220884780236B22A2
:10219000D021174806F08EFC1648C16805208847F4
:1021A00000231922D021124806F084FC00236B2260
:1021B000D0210F4806F07EFC00233722D0210C48A6
:1021C00006F078FC06231A22D021094806F072FC9A
:1021D00018231B22D021064806F06CFC10231C2279
:1021E000D021034806F066FC02F0B2FF10BD0000EB
:1021F000F80F0020680A002010B50C4806F003FD17
:1022000008B9002010BDEE21084806F077FD074808
:1022100006F024FD1E21054806F070FD034806F077
:102220001DFD024806F0B1FC0120EBE7581100202B
:1022300010B52DED048B86B00446012C7BD1B84936
:10224000096801F5617009F076F941EC190BB5499F
:102250009FEDB52B9FEDB61BB0EE490AF0EE690A73
:1022600008688047B0EE408AF0EE608A51EC180BA7
:1022700009F004F90090AA49496801F5617009F074
:102280005AF941EC190BA7499FEDA72B9FEDA81B0D
:10229000B0EE490AF0EE690A08688047B0EE408A5D
:1022A000F0EE608A51EC180B09F0E8F801909C49B7
:1022B000896801F5617009F03EF941EC190B994903
:1022C0009FED992B9FED9A1BB0EE490AF0EE690A3B
:1022D00008688047B0EE408AF0EE608A51EC180B37
:1022E00009F0CCF802908E49C96801F5617009F0D7
:1022F00022F941EC190B8B499FED8B2B9FED8C1B29
:10230000B0EE490AF0EE690A08688047B0EE408AEC
:10231000F0EE608A51EC180B09F0B0F80390804998
:10232000096901F5617009F006F941EC190B7D4965
:102330009FED7D2B00E02DE09FED7D1BB0EE490A67
:10234000F0EE690A08688047B0EE408AF0EE608AD5
:1023500051EC180B09F092F804907149496901F5A4
:10236000617009F0E8F841EC190B6E499FED6E2B96
:102370009FED6F1BB0EE490AF0EE690A08688047CE
:10238000B0EE408AF0EE608A51EC180B09F076F856
:102390000590A7E06249096801F5617009F0CBF882
:1023A00041EC190B5F499FED642B9FED611BB0EE73
:1023B000490AF0EE690A08688047B0EE408AF0EEFC
:1023C000608A51EC180B09F059F80090544949689B
:1023D00001F5617009F0AFF841EC190B51499FED1F
:1023E000562B9FED531BB0EE490AF0EE690A0868C0
:1023F0008047B0EE408AF0EE608A51EC180B09F08D
:102400003DF801904649896801F5617009F093F83B
:1024100041EC190B43499FED482B9FED451BB0EE56
:10242000490AF0EE690A08688047B0EE408AF0EE8B
:10243000608A51EC180B09F021F802903849C968FC
:1024400001F5617009F077F841EC190B35499FED02
:102450003A2B9FED371BB0EE490AF0EE690A086887
:102460008047B0EE408AF0EE608A51EC180B09F01C
:1024700005F803902A49096901F5617009F05BF8D4
:1024800041EC190B27499FED2C2B9FED291BB0EE3A
:10249000490AF0EE690A08688047B0EE408AF0EE1B
:1024A000608A51EC180B08F0E9FF04901C49496957
:1024B00001F5617009F03FF841EC190B19499FEDE6
:1024C0001E2B9FED1B1BB0EE490AF0EE690A08684F
:1024D0008047B0EE408AF0EE608A51EC180B08F0AD
:1024E000CDFF05904FF080400099FEF7DEFF1448C5
:1024F0000199FEF7DCFF12480299FEF7D6FF10485B
:102500000399FEF7D0FF0E480499FEF7CAFF4FF07B
:1025100080400599FEF7CBFF06B0BDEC048B10BDE3
:1025200018120020D409002000000000001890407C
:102530000000000000B09D400000000000208C4022
:102540000004004010B52DED0A8B04464A4890F86F
:10255000FC08012805D1494806F0A0F9BDEC0A8B1A
:1025600010BD454890F8FF08D8BB454909688888E0
:1025700009F049F841EC1C0B9FED420B53EC102B7A
:1025800009F0E2FA41EC1B0B9FED400B53EC102BD2
:1025900009F0CEF841EC190B3748D0F8E80800EE06
:1025A000100AB8EEC00ADFED3B0A20EE200A10EE5A
:1025B000101A084609F0B2FB41EC1A0B53EC192B28
:1025C00008F00CFD41EC180B08F058FF2A49C1F83F
:1025D000E808D1F8E80808F0AEFF41EC190B2E49E5
:1025E00000E015E09FED2D2B9FED2E1BB0EE490A6C
:1025F000F0EE690A08688047B0EE408AF0EE608A23
:1026000051EC180B08F03AFF1B49C1F8E808A5E7A0
:10261000264890ED080A10EE101A084609F07EFBD5
:1026200041EC180B1C499FED222B9FED231BB0EEB4
:10263000480AF0EE680A08688047104880ED020BEF
:10264000214605F0DBFFB0EE409AF0EE609A1249A9
:102650009FED122B9FED131B08688047B0EE408A58
:10266000F0EE608A51EC180B08F008FF0249C1F83F
:10267000E80800BF72E7000028000020E8040020FE
:10268000B40A00200000000000407F40000000A0CD
:102690009999F93FCCCC4C3ED409002000000000B1
:1026A000000000000000800C00C082408009002073
:1026B00000000000000059C0000000000000594068
:1026C00070B504460D4602F0C7FD02F017FE02F099
:1026D000A1FBB6EE000A024880ED000A70BD0000C2
:1026E000AC0A002070B587B034480078012862D168
:1026F0003348007801280AD1002005E03149095CFF
:102700000DF80010411CC8B21928F7DB09E00020C1
:1027100005E02D49095C0DF80010411CC8B21928CC
:10272000F7DB00202549087000BF39E000240023B2
:1027300016E000EB4002254D05EB820202EB83011F
:102740008A785AB10D786D1C1DF805204D78EA4045
:102750008D782A40CD78AA40144300BF591CCBB2D3
:10276000032BE6DBB4F5AF7F14D9A4F5AF7100EE0F
:10277000101AF8EE400A9FED161A9FED160A00EEA9
:10278000810ABCEEC00A10EE101A8AB2124921F872
:10279000102003E00022104921F81020411CC8B28B
:1027A0000C28C3DB9DF818009DF8171040EA0120A3
:1027B0000A49088000BF07B070BD0000280B002048
:1027C000290B0020C5160020AC160020AEC0000862
:1027D0002FA13D3F00006144F61600202C0B002085
:1027E000014640F21450814201DA02207047B1F5EF
:1027F000E16F01DD0020F9E70120F7E710B504469D
:10280000204603F021FF204602F06EF8204603F038
:10281000C7FF10BD70B52DED048B00BF1C49886843
:10282000804704460D461B4903C9221A65EB010186
:10283000104608F0FBFE9FED180B53EC102B08F030
:1028400077FF41EC180B134A30C2154B5868154BF3
:102850005B6803F11801134B5B68B0EE485AF0EE69
:10286000685A90ED024AD0ED013A90ED003AD1ED70
:10287000022A91ED012AD1ED001A93ED0B1AD3ED46
:102880000A0A93ED090A02F059FDBDEC048B70BDF4
:10289000680A0020780900208DEDB5A0F7C6B03E8B
:1028A000040A0020E80900200146B5EEC00AF1EE56
:1028B00010FA05DBF1EEC00AC1ED000A00207047F6
:1028C000DFED030AC1ED000A4FF0FF30F7E700002B
:1028D000000000001CB501210846FEF795F8032012
:1028E0008DF804000420009000208DF807000320DC
:1028F0008DF8050069460248FDF7C9FF1CBD0000C0
:102900000000024010B50349886880470249886882
:10291000804710BDE8090020040A002000B52DED15
:10292000060B2DED0A8B83B0B0EE61BAF0EE42BA21
:10293000B0EE62CA684606F047F89FED4A0A2BEEF1
:10294000000AB0EE40BA9FED470A2BEE800AF0EE87
:1029500040BA9FED440A2CEE000AB0EE40CAB0EE39
:102960004B0A08F0C1F9B0EE408AB0EE6B0A08F0ED
:10297000BBF9F0EE40AAB0EE4C0A08F0B5F9F0EE63
:10298000408AB0EE4B0A08F0F7F9B0EE409AB0EE8C
:102990006B0A08F0F1F9F0EE409AB0EE4C0A08F03C
:1029A000EBF9B0EE40AA28EE2A0ADDED0D0A20EE82
:1029B000200AF1EE680A60EE890A2AEE291A41EE31
:1029C000080A9DED0E1A00EE810A69EE0A0A28EE49
:1029D000A91A41EE080A9DED0F1A00EE810A8DED4D
:1029E000000A2AEE890ADDED0D0A60EE200A28EEC3
:1029F000880A6AEE291AB0EE401A01EE891ADDED56
:102A00000E1AB0EE600A01EE210AF1EE480A60EEFD
:102A10008A0A28EEA91A41EE090A9DED0F1A00EE66
:102A2000810A8DED010A2AEE8A0ADDED0E0A20EEFA
:102A3000200ADDED0D0AB1EE691A01EE200A6AEEF8
:102A4000A80A9DED0F1A00EE810A8DED020A9DED98
:102A5000000ADDED010A9DED021A03B0BDEC0A8B00
:102A600006B000BD34FA8E3C2DE9F0412DED088B07
:102A700007469FED4D0BB0EE408AF0EE608A9FED69
:102A80004A0BB0EE409AF0EE609A3D4600240026D4
:102A9000285D2D2801D1601CC4B221E00A2C02DC83
:102AA000285D2A2805D19FED400BBDEC088BBDE8C1
:102AB000F081295DA1F1300008F03DFD41EC1B0BD8
:102AC00053EC182B08F08AFA41EC1A0B9FED380BE7
:102AD00053EC102B08F02CFE41EC180B601CC4B218
:102AE000285D2E2802D0285D2C28D7D19FED320BEF
:102AF00053EC102B51EC180B08F01AFE41EC180B9C
:102B0000285D2E2801D1601CC4B220E0142C02DC08
:102B1000285D2A2802D19FED240BC6E7295DA1F18B
:102B2000300008F008FD41EC1B0B53EC192B08F0AA
:102B300055FA41EC1A0B9FED1E0B53EC102B08F0CD
:102B4000F7FD41EC190B701CC6B2601CC4B2285DC5
:102B50002C28DBD1701CC6B20BE09FED170B53EC99
:102B6000102B51EC190B08F0E3FD41EC190B701E12
:102B7000C6B2002EF1DC28782D280CD153EC192B8D
:102B800051EC180B08F02AFA41EC1A0B08F0E8F99E
:102B900041EC100B89E753EC192B51EC180B08F0A2
:102BA0001DFA41EC100B80E700000000000000005F
:102BB00000000000000024409A9999999999B93F22
:102BC00010B58AB0044601210846FDF71DFF01211A
:102BD000C804FDF729FF082200212F48FDF79FFEBA
:102BE000082201212C48FDF79AFE02208DF82400CE
:102BF0008DF8250000208DF8260001208DF8270093
:102C0000089008A92448FDF742FE0220089008A970
:102C10002148FDF73CFE34208DF80C0000208DF893
:102C20000D0002208DF80E0001208DF80F0003A882
:102C3000FDF7A2FE04940020ADF81400ADF81600D4
:102C4000ADF81800ADF81C000C20ADF81A0004A96E
:102C50001248FEF7EDFD1248124AFF21036868464C
:102C6000984711489DE80E000EC00D480F4AFF21FD
:102C70000368684698470E489DE80E000EC0012282
:102C800040F225510548FEF7ADFD01210348FEF74E
:102C900066FD0AB010BD000000000240004C00407C
:102CA0001C0B00207C1200207C1400207B130020D1
:102CB0008814002010B5094805F042FFFFF79CFA80
:102CC0000748C1683220884702F064F80448C168A8
:102CD000C820884700F006F810BD000058110020F9
:102CE000680A00202DE9F04F2DED088B85B00020FB
:102CF0008046814600210C460D460E460F46D448BC
:102D0000007810B101280FD106E003F05BFB012829
:102D100001D1CF49087008E003F0D0FA012802D1B0
:102D20000220CB49087000E000BF00BFC84800780F
:102D3000022804D005B0BDEC088BBDE8F08FC54873
:102D400040890102C448D0E90020511A60F1000016
:102D5000C14AC2E90010BF4880890021D2E900328F
:102D6000A0FB03CA01FB03A100FB0210410241EAE0
:102D7000DC5000F5FA60C117B84A03C2B548808834
:102D800001040022B3480089B34BD3E900C3A0FB80
:102D90000CBE02FB0CEC00FB03C34FEADB1040EA65
:102DA0004360081842EBE312AD4905C1A9484088C9
:102DB0004FEAC0314FF00002A648C088DFF898C241
:102DC000DCE9003CA0FB03BE02FB03E300FB0C3389
:102DD0004FEA1B2040EA0360081842EB2322A14976
:102DE00005C19E48D0E900304FF4FA629A1A70F19A
:102DF00000007DDA9848D0E90010A1FB012300FB18
:102E0000013301FB0030D10F41EA40084FEAE0797D
:102E10009248D0E900A04FF4FA61BAEB010260F1E8
:102E20000001104608F09EFB41EC1B0B9FED8E1B32
:102E3000B0EE4B0AF0EE6B0A07F004FBB0EE40AACE
:102E4000F0EE60AA9FED8A0B53EC102B51EC1A0B9D
:102E500008F06EFC09F00EF8CDE90201DDE9021080
:102E600045104FEA3104DDE902014FEA900040EAE3
:102E700081764FEAA1077948D0E900107E4BC91A44
:102E800070F1FF303DDA7548D0E900105B42C91897
:102E900040F100020846CDE90012114608F062FB3D
:102EA00041EC1A0B9FED701BB0EE4A0AF0EE6A0A75
:102EB00007F0C8FAB0EE409AF0EE609A51EC190BA8
:102EC00008F0D8FF82468B4607210022AAFB0103A7
:102ED0000BFB01310AFB0211024614194D410B2173
:102EE0004FF0000C5246A2FB010E0BFB01E100E08B
:102EF00008E00AFB0C1149104FEA300296194F41C5
:102F000000BF00BF5548D0E90010B1EB080160EBED
:102F10000900524AC2E900105148D0E90010091BCB
:102F200060EB05004E4AC2E900104E48D0E900109F
:102F3000891B60EB07004B4AC2E900104F4800684C
:102F40000023D2E9001CA0FB012A03FB01A100FB26
:102F50000C11500D40EAC12C4815414A06CABCEB81
:102F6000010360EB0201D80B40EA4140C9133B4A20
:102F7000C2E902011046D0E902200023D21A98418A
:102F800000DAD7E63549D1E90221104608F0F4FE0F
:102F900000EE100ADFED3A0A80EE201AB0EE419AF8
:102FA000DFED380AB0EE490A06F046FFF7EE000AF8
:102FB00030EEC00ADFED340A20EE200AB0EE408A7F
:102FC000B0EE480A314803F015FEB0EE408A3049B1
:102FD0004868804700EE100AF8EE408A2D4903C980
:102FE00008F0CAFE00EE100A38EEC00A1B48D0ED09
:102FF000040A78EE600A80EE801A11EE10AA50469C
:1030000008F08CFE9FED240B53EC102B08F090FB86
:1030100007F0B2FF114948610846D0ED050AB0EE4D
:10302000600A1F4803F0E6FD0C4880ED050A9FED9D
:103030001D0A38EE400A80ED040A18EE900A08F0E6
:103040007BFF144A03C200200149087000BF71E6EB
:10305000340A002080110020180A00206811002086
:10306000280A0020200A0020000000000000004084
:10307000000000000000144024FAFFFF300A002086
:1030800080E6C547AEDC423E002A2D479011002065
:10309000680A0020480A00200000000000408F401D
:1030A000D4110020000082C210B52DED028B044621
:1030B000204608F0A8FA41EC180B9FED1A0B53ECD0
:1030C000102B08F0F9FA03D20120BDEC028B10BDE1
:1030D000204608F098FA41EC180B9FED140B53ECC6
:1030E000102B08F023FC01D20320EEE7204608F065
:1030F0008AFA41EC180B9FED0F0B53EC102B08F0E4
:10310000DBFA0DD2204608F07EFA41EC180B9FED59
:103110000B0B53EC102B08F009FC01D20220D4E772
:103120000020D2E70000000000406F4000000000D7
:10313000007087400000000000C0824000000000D6
:103140000000794010B50449486880470348016889
:103150004FF41650884710BD380A0020F00A0020AE
:1031600010B52DED028B86B0044603A805F02CFCAB
:10317000684605F029FC684890F8FC08012810D141
:10318000654805F08BFB6448983005F087FB634881
:1031900005F084FB6249C868804706B0BDEC028B2D
:1031A00010BD6048006890ED000A10EE101A084645
:1031B00008F0B4FD584AC2E902015A48006890ED8F
:1031C000010A10EE101A084608F0A8FD524A98327B
:1031D000C2E902015348006890ED020A10EE101A8D
:1031E000084608F09BFD4D4AC2E9020121464A48C3
:1031F00005F0C8F8B0EE408AF0EE608A51EC180B8A
:1032000007F0BAFE009021464348983005F0BAF81E
:10321000B0EE408AF0EE608A51EC180B07F0ACFE7D
:10322000019021463D4805F0ADF8B0EE408AF0EE41
:10323000608A51EC180B07F09FFE02909DED000A8A
:10324000B1EE400ADDED010A30EE600ADDED020A62
:1032500070EE200A3048D0F8E80800EE100AB8EE08
:10326000C00A30EE800ABDEEC00A2D48006880ED2D
:10327000000A9DED000AB1EE400ADDED010A30EED4
:10328000200ADDED020A70EE600A2348D0F8E80853
:1032900000EE100AB8EEC00A30EE800ABDEEC00A99
:1032A0001F48006880ED010A9DED000ADDED010A6E
:1032B00030EE200ADDED020A70EE200A1648D0F842
:1032C000E80800EE100AB8EEC00A30EE800ABDEE43
:1032D000C00A1348006880ED020A9DED000ADDED8A
:1032E000010A30EE600ADDED020A70EE600A0A485B
:1032F000D0F8E80800EE100AB8EEC00A30EE800AF6
:10330000BDEEC00A0648006880ED030A04488168E3
:103310000120884700BF40E7280000205801002016
:10332000980A00204C090020F0B52DED108B8BB0D1
:1033300005469FEDFE0B8DED080B05A805F044FB3F
:1033400002A805F041FBFB4890F8FC08012825D1B4
:10335000F94805F0A3FAF848983005F09FFAF748C5
:1033600005F09CFAF648406890ED020AF54880EDB9
:103370003B0AF3484068D0ED020AB0EE600A03F061
:10338000D1F810EE106A304608F0C8FCE94A02F5A0
:103390003E7203C20BB0BDEC108BF0BDE848406834
:1033A00090ED020AE748D0ED3B0A30EE608A9FEDCF
:1033B000E60AB4EEC08AF1EE10FA06DD9FEDE30AEC
:1033C00038EE400AB0EE408A18E09FEDE10AB4EE14
:1033D000C08AF1EE10FA06D29FEDDC0A38EE000A40
:1033E000B0EE408A0AE000BFB0EEC80ADFEDD60AB0
:1033F000B4EEE00AF1EE10FA00D200BFD549096838
:10340000488808F000F941EC1E0B9FEDD30B53ECFC
:10341000102B08F099FB41EC1D0B07F0ADFD09EEF8
:10342000100ACF49F2EE040AB0EE490A4868804714
:1034300010EE106A304608F071FC41EC1C0B9FED59
:10344000C90B53EC102B07F085FE41EC1B0B9FEDD5
:10345000C70B53EC102B08F06BF941EC1A0B07F07B
:103460008BFD08EE900AB0EE680A03F05BF88DED74
:10347000050AB8490968088808F0C5F841EC1E0B30
:103480009FEDB50B53EC102B08F05EFB41EC1D0BD0
:1034900007F072FD09EE100AB149F2EE040AB0EE2F
:1034A000490A4868804710EE106A304608F036FC3A
:1034B00041EC1C0B9FEDAB0B53EC102B07F04AFEBD
:1034C00041EC1B0B9FEDA90B53EC102B08F030F9CE
:1034D00041EC1A0B07F050FD08EE900AB0EE680AB6
:1034E00003F020F88DED060A9DED061AF0EE410A74
:1034F0009DED051AB0EE410A9949B0EE481AC86828
:1035000080478DED050ACDED060A8DED071A9DED7C
:10351000050ADFED980A20EE200A10EE101A084680
:1035200008F0FCFB41EC190B824890ED721BB0EEE9
:10353000410AF0EE610A53EC102B9FED8F1B51EC0A
:10354000110B08F0F5F841EC1A0B53EC192B07F0AE
:1035500045FD784A02F5E47203C29DED060ADFEDEF
:10356000850A20EE200A10EE101A084608F0D6FB55
:1035700041EC190B6F4890ED981BB0EE410AF0EE4C
:10358000610A53EC102B9FED7C1B51EC110B08F0E2
:10359000CFF841EC1A0B53EC192B07F01FFD654ACD
:1035A00002F5187203C266484068D0ED000AB0EE1A
:1035B000600A02F0B7FF10EE106A304608F0AEFB6A
:1035C0005D4AC2E902015E484068D0ED010AB0EEF2
:1035D000600A02F0A7FF10EE106A304608F09EFB6A
:1035E000554A9832C2E902012946534804F0CAFEFE
:1035F000B0EE40AAF0EE60AA59499FED612B9FED15
:10360000621B08688047B0EE409AF0EE609A51EC79
:10361000190B07F0B1FC029029464748983004F096
:10362000B1FEB0EE40AAF0EE60AA4D499FED542BDA
:103630009FED551B08688047B0EE409AF0EE609A07
:1036400051EC190B07F098FC03909DED020ADFED99
:10365000490A20EE200A10EE101A084608F05EFB18
:1036600041EC190B334890ED001BB0EE410AF0EE2F
:10367000610A53EC102B9FED401B51EC110B08F02D
:1036800057F841EC1A0B53EC192B07F0A7FC294A09
:1036900003C29DED030ADFED370A20EE200A10EE8B
:1036A000101A084608F03AFB41EC190B214890ED3E
:1036B000261BB0EE410AF0EE610A53EC102B9FED91
:1036C0002E1B51EC110B08F033F841EC1A0B53ECA4
:1036D000192B07F083FC174A983203C21848406838
:1036E000D0ED020AB0EE600A02F01CFF10EE106A84
:1036F000304608F013FB114AC2E902010D4890ED73
:10370000C00B8DED080B90EDC02BB0EE420AF0EE31
:10371000620A90EDBE2BB0EE421AF0EE621A53EC44
:10372000102B51EC110B08F00FFA31E000000000F3
:103730000000000028000020F001002020030020ED
:103740004C09002028080020000034430000B44346
:10375000000034C3B40A00200000000000407F4095
:10376000D40900200000000000408F40000000004D
:1037700000003440CDCCCC3D000000C0CCCCEC3FB0
:1037800000000020FB21E9BF00000020FB21E93FF1
:1037900041EC190B9FED790B53EC102B08F0C6F898
:1037A00012D2784890EDC01BB0EE410AF0EE610AEB
:1037B0009FED751B53EC112B51EC100B07F00EFC19
:1037C000734AC2E902012DE06E4890EDC02BB0EEC5
:1037D000420AF0EE620A90EDBE2BB0EE421AF0EE15
:1037E000621A53EC102B51EC110B08F0ADF941ECBF
:1037F000190B9FED680B53EC102B07F05DFF11D2F6
:10380000604890EDC01BB0EE410AF0EE610A9FEDFA
:103810005E1B53EC112B51EC100B08F095F95C4A30
:10382000C2E9020129465A4804F0ACFDB0EE40AAB4
:10383000F0EE60AA59491FED2E2B1FED2D1B0868D5
:103840008047B0EE409AF0EE609A51EC190B07F009
:1038500093FB0490524A1268D088514AD168884735
:103860000446022C61D09DED080B464880EDBE0B4E
:103870004B490968C88807F0C6FE41EC1F0B1FEDD5
:103880004A0B53EC102B08F087F841EC1E0B07F0A5
:1038900073FB08EE900A4149F2EE040AB0EE680AA2
:1038A0004868804710EE107A384608F037FA41EC45
:1038B0001D0B1FED540B53EC102B07F04BFC41EC90
:1038C0001C0B1FED560B53EC102B07F031FF41EC96
:1038D0001B0B07F051FB01909DED010A02F022FE47
:1038E0005FED5C0A20EE200A10EE106A304608F008
:1038F00015FA41EC190B234890ED4C1BB0EE410A30
:10390000F0EE610A53EC102B1FED651B51EC110B0F
:1039100007F00EFF41EC1A0B53EC192B07F05EFB7E
:10392000184A02F5987203C225E09DED040A5FED86
:103930006F0A20EE200A10EE101A084608F0EEF981
:1039400041EC190B0F4890ED4C1BB0EE410AF0EE24
:10395000610A53EC102B1FED781B51EC110B07F093
:10396000E7FE41EC1A0B53EC192B07F037FB054A25
:1039700002F5987203C200BF0CE500000000006071
:10398000FB2109402800002000000060FB211940B5
:103990002003002000000060FB2109C0D4090020A2
:1039A000B40A002010B586B0734805F02CF93C210C
:1039B000714805F0A3F9704805F050F903216E48ED
:1039C00005F09CF96C4805F049F96B4805F01BF9C6
:1039D0003D21694805F092F9674805F03FF9002458
:1039E00009E0654805F063F904A90855624805F047
:1039F0008CF8601CC4B2052CF3DB5F4805F057F966
:103A00008DF815005C4805F0E3F85B4805F0BDF85B
:103A10009DF811009DF8101040EA012000B24042CC
:103A200000EE100AB8EEC00A5448406880ED030A60
:103A30009DF813009DF8121040EA012000B24042A8
:103A400000EE100AB8EEC00A4C48406880ED050A46
:103A50009DF815009DF8141040EA012000B200EE18
:103A6000100AB8EEC00A4548406880ED040A434891
:103A7000406800F10C014148406800F10C0291EDF2
:103A8000021AD1ED010A91ED000A3D48144603F0F7
:103A900010FA84ED000AC4ED010A84ED021A01A8AF
:103AA00004F092FF3548406890ED030A33484068BF
:103AB000D0ED090A30EE600A30484068D0ED060AC1
:103AC00080EE201A8DED011A2C48406890ED040A12
:103AD0002A484068D0ED0A0A30EE600A274840685C
:103AE000D0ED070A80EE201A8DED021A23484068B7
:103AF00090ED050A21484068D0ED0B0A30EE600ACF
:103B00001E484068D0ED080A80EE201A8DED031A99
:103B10009DED010A20EE000ADDED020A9DED021A7C
:103B200000EE810ADDED030A9DED031A00EE810A25
:103B30001248406880ED0C0A10484068D0ED0C0A2D
:103B4000B7EE001A30EEC10AF0EEC00A9FED0D0A82
:103B5000F4EEC00AF1EE10FA08D20020074908700E
:103B60000846406801A90EC90EC002E001200349C1
:103B7000087006B010BD0000DC100020040A002010
:103B8000E8100020CDCC4C3E10B500F0D7FF01F07E
:103B90006BF801F0D9F910BD00B589B001210846D4
:103BA000FCF742FF4FF08040FDF70AFA4FF4FA604D
:103BB000029053480068400800EE100AB8EE400A30
:103BC0009FED501AC0EE010A9FED4F0A80EE801A59
:103BD000BCEEC10A10EE100A401E80B2ADF804001F
:103BE0000020ADF80C00ADF8060001A94FF08040B0
:103BF000FDF78CFC6020ADF810000120ADF812003C
:103C00004FF4617006900020ADF81C0004A94FF03D
:103C10008040FDF7A3FB0821C806FDF7EFFB04A9D0
:103C20004FF08040FDF7F4FB0821C806FDF72CFC9F
:103C300001218807FDF7A8F901218807FDF7B3F9ED
:103C400001210220FCF7F0FE3048FDF7B9F94FF4EE
:103C5000FA6002902A480068400800EE100AF8EE68
:103C6000400A9FED281A80EE810ADFED270A80EED8
:103C7000201ABCEEC10A10EE100A401E80B2ADF848
:103C800004000020ADF80C00ADF8060001A91F48A3
:103C9000FDF73CFC6020ADF810000120ADF81200EB
:103CA0004FF4617006900020ADF81C0004A917487D
:103CB000FDF7ACFA08211548FDF7E6FA04A9134808
:103CC000FDF7ECFA08211148FDF73AFB04A90F486B
:103CD000FDF744FB08210D48FDF790FB04A90B48B4
:103CE000FDF796FB08210948FDF7CEFB01210748A7
:103CF000FDF74AF901210548FDF755F909B000BD66
:103D00004C0B00200000FA430000FA44000400407D
:103D100010B52DED048B84B0044601A804F054FEC8
:103D2000354890F8FC08012806D1344804F0B6FD67
:103D300004B0BDEC048B10BD2F4890F8FF0818B9F3
:103D40002E4804F0ABFDF3E72D4890ED050A10EE88
:103D5000101A084607F0E2FF41EC180B29499FEDC5
:103D60002A2B9FED2B1BB0EE480AF0EE680A08687C
:103D70008047224880ED020B214604F003FBB0EEA1
:103D8000409AF0EE609A1F499FED232B9FED241B74
:103D900008688047B0EE408AF0EE608A51EC180B5C
:103DA00007F0EAF803909DED030ADFED1F0A20EE0D
:103DB000200A10EE101A084607F0B0FF41EC180B6D
:103DC0001A4890ED301BB0EE410AF0EE610A53EC58
:103DD000102B9FED171B51EC110B07F0A9FC41ECC8
:103DE000190B53EC182B07F0F9F8034A02F5986207
:103DF00003C200BF9CE7000028000020B00600209E
:103E000080090020D409002000000000000044C008
:103E100000000000000044400000000000004EC010
:103E20000000000000004E40CDCC4C3F2804002094
:103E3000000000809999C93F30B52DED0E8B83B0FD
:103E40000546684604F0C0FDA24890F8FC08012829
:103E50001BD1A14804F022FD9F4830309F4BD3E98D
:103E600000219B68C0E91D130267703090ED020AC3
:103E700010EE101A084607F051FF974A503AC2E96F
:103E8000140103B0BDEC0E8B30BD924890F8FF08D2
:103E900088B9924890ED020A10EE101A084607F011
:103EA0003DFF0A4601468C485038C0E91412503094
:103EB00004F0F4FCE5E78848A03090ED020A10EE2B
:103EC000101A084607F02AFF41EC180B8248A03070
:103ED00090ED020ADFED820A30EE200A10EE101A91
:103EE000084607F01BFF41EC190B7B49503991ED57
:103EF000141BB0EE410AF0EE610A7A49B0EE482A8E
:103F0000F0EE682AB0EE491AF0EE691A08688047A8
:103F10007148503880ED140BF03090ED020A10EE2D
:103F2000101A084607F0FAFE41EC180B6A48A03058
:103F300090ED020A10EE101A084607F0EFFE41EC71
:103F40001B0B9FED690B53EC102B07F047F841EC6E
:103F5000190B624890ED020A10EE101A084607F09D
:103F6000DDFE41EC1A0B5F49B0EE482AF0EE682AFC
:103F7000B0EE491AF0EE691AB0EE4A0AF0EE6A0A9B
:103F800008688047544880ED020B294604F0FAF98E
:103F9000B0EE409AF0EE609A52499FED552B9FED9E
:103FA000561B08688047B0EE408AF0EE608A51ECFC
:103FB000180B06F0E1FF0290514A12689088504AAF
:103FC000D16888470446022C56D0444890ED020A36
:103FD00010EE101A084607F0A1FE3F4A503AC2E917
:103FE000140147490968888807F00DFB41EC1E0B56
:103FF0009FED440B53EC102B07F0A6FD41EC1D0B7D
:104000009FED420B53EC102B07F0A4F841EC1C0B76
:104010009FED400B53EC102B07F08AFB41EC1B0B80
:104020009FED350B53EC102B07F082FB41EC1A0B84
:104030009FED3A0B53EC102B07F07AFB41EC180B79
:10404000384890EDA21BB0EE410AF0EE610A53EC45
:10405000102B9FED351B51EC110B07F069FB41EC68
:10406000190B53EC182B06F0B9FF0A460146194804
:1040700000F5D16006C02AE000202D4908709DEDB2
:10408000020ADFED2C0A20EE200A10EE101A084674
:1040900007F044FE41EC180B224890EDA21BB0EE55
:1040A000410AF0EE610A53EC102B9FED1F1B51ECFF
:1040B000110B07F03DFB41EC190B53EC182B06F0EC
:1040C0008DFF0A460146034800F5D16006C000BFD7
:1040D000D7E6000028000020780800208009002092
:1040E0000000FA43D409002000000000007087405F
:1040F00000000000000044C0000000000000444038
:10410000B40A00200000000000407F4000000000D2
:1041100000408F400000000000000040000000A0B0
:104120009999B93F28040020000000C0CCCCEC3F96
:1041300040090020CDCCCC3D10B52DED0A8BB74900
:10414000088807F060FA41EC180B9FEDB50B53ECB3
:10415000102B07F0EBFB26D8B348006807F0DEFD14
:1041600041EC1A0BAD49088807F04DFA41EC1C0BE5
:104170009FEDAB0B53EC102B07F0E6FC41EC1B0B57
:1041800053EC1A2B07F0D4FA41EC190B9FEDA70B57
:1041900053EC102B06F022FF41EC180B07F09EF9B0
:1041A000A449088002E00020A24908809B49488871
:1041B00007F029FA41EC180B9FED990B53EC102BEB
:1041C00007F0B4FB26D89848006807F0A7FD41EC3B
:1041D0001A0B9249488807F016FA41EC1C0B9FED28
:1041E000900B53EC102B07F0AFFC41EC1B0B53EC86
:1041F0001A2B07F09DFA41EC190B9FED8C0B53EC39
:10420000102B06F0EBFE41EC180B07F067F989491B
:10421000488002E00020874948808049888807F06C
:10422000F2F941EC180B9FED7E0B53EC102B07F0CD
:104230007DFB26D87C48006807F070FD41EC1A0B26
:104240007649888807F0DFF941EC1C0B9FED740B71
:1042500053EC102B07F078FC41EC1B0B53EC1A2BA2
:1042600007F066FA41EC190B9FED700B53EC102B25
:1042700006F0B4FE41EC180B07F030F96D49888068
:1042800002E000206B4988806449C88807F0BBF9C8
:1042900041EC180B9FED620B53EC102B07F046FB23
:1042A00026D86148006807F039FD41EC1A0B5B49DC
:1042B000C88807F0A8F941EC1C0B9FED590B53EC93
:1042C000102B07F041FC41EC1B0B53EC1A2B07F0B1
:1042D0002FFA41EC190B9FED550B53EC102B06F008
:1042E0007DFE41EC180B07F0F9F85249C88002E056
:1042F00000205049C8804949088907F084F941ECF9
:10430000180B9FED470B53EC102B07F00FFB26D833
:104310004548006807F002FD41EC1A0B3F49088947
:1043200007F071F941EC1C0B9FED3D0B53EC102B8A
:1043300007F00AFC41EC1B0B53EC1A2B07F0F8F9C1
:1043400041EC190B9FED390B53EC102B06F046FE98
:1043500041EC180B07F0C2F83649088102E0002052
:10436000344908812D49488907F04DF941EC180B73
:104370009FED2B0B53EC102B07F0D8FA26D82A48C8
:10438000006807F0CBFC41EC1A0B2449488907F080
:104390003AF941EC1C0B9FED220B53EC102B07F06C
:1043A000D3FB41EC1B0B53EC1A2B07F0C1F941EC8A
:1043B000190B9FED1E0B53EC102B06F00FFE41EC7A
:1043C000180B07F08BF81B49488102E000201949BF
:1043D00048811848408800EE900AF8EE600AB0EE76
:1043E000600A154802F0BAFDBCEEC00A10EE100AD1
:1043F00010494880114800880A2803DD0020104930
:10440000087407E00D480088401C0C490880012012
:104410000B490874BDEC0A8B10BD0000301200205F
:104420000000000000409F40AC0A00200000000097
:10443000000000003C12002048120020B00A0020BA
:10444000B40A002070B506460C4600250A48C0791B
:10445000A04201DA002070BD002509E0701907496B
:104460008A680549904708B90020F4E7681C85B2BE
:10447000A542F3DB0120EEE7A01600201C0B002074
:1044800031B52DED040B2DED108B86B005469FED5B
:10449000910AB0EE40FA9FED8F0AF0EE408A9FED50
:1044A0008D0A8DED040A00248B480088401C8A493F
:1044B0000880284607F0A7F841EC1A0B9FED870B00
:1044C00053EC102B06F046FE41EC190B06F054FDA0
:1044D00008EE100A8348006890ED040A10EE101AE6
:1044E000084607F01BFC41EC1A0B9FED7F0B53ECC9
:1044F000102B07F01DF941EC190B06F03DFD04905F
:104500009DED180A10EE101A084607F007FC41EC62
:104510001A0B9FED750B53EC102B07F009F941ECCA
:10452000190B06F029FD0FEE900A7148D0ED020A32
:104530009DED040A30EE600AF0EE408A9FED6D0AB0
:1045400068EE800A6C4890ED000A00EE880A80ED63
:10455000000A9FED6A0A68EE800A694890ED000A39
:1045600000EE880A80ED000A9FED660A68EE800A78
:10457000654890ED000A00EE880A80ED000A5C486C
:1045800090ED080A614880ED000A5B4890ED000A52
:104590003FEE800A564880ED080A90ED080A5B4815
:1045A000D0ED000A30EE200A20EE080A10EE101AB4
:1045B000084607F0B3FB41EC1A0B9FED550B53EC8B
:1045C000102B06F0C7FD41EC190B06F0D5FC0FEEE1
:1045D000100A18EE100A07F0A1FB41EC1C0B1FEEAD
:1045E000100A07F09BFB9FED4C0B53EC102BCDE911
:1045F00000019DED000B51EC100B07F099F841EC18
:104600001E0B3B4890ED050A10EE101A084607F005
:1046100085FB53EC1E2BCDE902019DED020B51EC05
:10462000100B06F0DBFC41EC1D0B53EC1C2B07F0D0
:104630007FF841EC1A0B3A48006807F06FFB41EC39
:104640001B0B53EC1A2B06F0C9FC41EC190B06F0BE
:1046500093FC33490860084690ED000A2A48D0EDE3
:10466000000A30EE200A224880ED020A2D4890ED23
:10467000000A30EE0F0A80ED000A90ED000A204893
:10468000D0ED000A30EE200A194880ED050A1248E4
:104690000088012819DB3C240CE0601E224901EB54
:1046A000800090ED000A084600EB840080ED000ACF
:1046B000601E84B2002CF0DC0D4890ED020A1A480E
:1046C00080ED000A00200449088006B0BDEC108B84
:1046D00005B030BD00000000C4090020000000004B
:1046E00000408F40380A00200000000000005940C0
:1046F000800900206F12833DAC0900208FC2F53E77
:10470000B0090020CDCC4C3FB4090020B8090020EE
:104710000000000000000040000000000000E03F3A
:10472000C0090020BC090020B00D00201CB50121EB
:104730000846FCF769F901210220FCF765F9C82059
:10474000009002208DF8040003208DF80500002061
:104750008DF8060001208DF8070069461A48FCF71D
:1047600096F8012203211848FCF7D9F80222062105
:104770001548FCF7D4F8022207211348FCF7CFF8BC
:1047800040F20340009002208DF8040003208DF8D1
:10479000050000208DF8060001208DF8070069460D
:1047A0000A48FCF774F8022200210848FCF7B7F821
:1047B000022201210548FCF7B2F801220A21034830
:1047C000FCF7ADF81CBD00000000024000040240F0
:1047D0003EB5044668469FED3E0A80ED000A9FED17
:1047E0003C0A80ED010A9FED3A0A80ED020A00BF03
:1047F000384A526892ED000AF0EE402A354A526873
:1048000092ED010AB0EE402A324A526892ED020A55
:10481000F0EE401A304A526802F118002F4A9168AF
:1048200090ED021AD0ED010A90ED000A88478DED57
:10483000000ACDED010A8DED021A9DED000ADFEDB3
:10484000280A80EE201A8DED001A9DED000ADFED9A
:10485000250A20EE200A8DED000A9DED010ADFED0C
:10486000200A80EE201A8DED011A9DED010ADFED80
:104870001D0A20EE200A8DED010A9DED020ADFEDF2
:10488000180A30EE600A8DED020A9DED020ADFED96
:10489000140A80EE201A8DED021A9DED020ADFED5A
:1048A000110A20EE200A8DED020A9DED021ADDEDBF
:1048B000010A9DED000A2046FFF7E2FD9DED021A78
:1048C000DDED010A9DED000A204602F077F83EBDBD
:1048D000000000004C090020E8090020D409002055
:1048E00000F07F45CDCC1C4170B52DED028B044608
:1048F00085490968488906F086FE41EC180B9FED52
:10490000830B53EC102B06F0D7FE1BD281480068B6
:1049100090F8FF0858B1804800880A2807DD002079
:104920007C49096881F8FF087B49088028E07948BC
:10493000006890F8FF0818B377480088401C764953
:1049400008801DE07348006890F8FF0801280CD02B
:10495000714800880A2808DD01206E49096881F83D
:10496000FF0800206C4908800AE06A48006890F857
:10497000FF08012804D068480088401C6649088068
:104980006448006890F8FC08012843D1002063497E
:1049900008805D490968888806F035FE41EC180BEF
:1049A0009FED5F0B53EC102B06F086FE01D2012524
:1049B00000E0002554490968C88806F024FE41EC4F
:1049C000180B9FED590B53EC102B06F0AFFF01D2E3
:1049D000012000E0002028404E49096891F8FD18A8
:1049E00009B9012100E00021084078B15048008851
:1049F00020444F49088008460088B0F5FA6F4EDD24
:104A000000204449096881F8FC0848E00020484932
:104A1000088044E03F48006890F8FD08012804D170
:104A20003C49096881F8FC0839E0002040490880C9
:104A300035490968888806F0E6FD41EC180B9FEDC2
:104A4000380B53EC102B06F037FE01D2012500E0A5
:104A500000252D490968C88806F0D5FD41EC180BE2
:104A60009FED310B53EC102B06F060FF01D20120BB
:104A700000E0002005402DB1284800882044274947
:104A8000088002E000202549088024480088B0F50D
:104A9000FA6F04DD01201F49096881F8FC081D48F0
:104AA000006890F8FC0860B92248008840F00100D6
:104AB000204908802048C82102694FF400509047DF
:104AC0000CE01C48008820F001001A4908801A48B0
:104AD0004FF4FA7102694FF4005090470D48006896
:104AE00090F8FD0830B11348008840F002001149E9
:104AF000088005E00F48008820F002000D4908807A
:104B0000BDEC028B70BD0000B40A00200000000064
:104B10000000594028090020D2090020CE090020B9
:104B20000000000000C062400000000000908A40C9
:104B3000D009002014000020800A00201FB53C226C
:104B4000D021464803F081FFC0B28DF808003B2217
:104B5000D021424803F079FFC0B28DF809009DF8DA
:104B600008009DF8091040EA012000B2ADF80000ED
:104B70003E22D021394803F068FFC0B28DF80A0008
:104B80003D22D021354803F060FFC0B28DF80B0004
:104B90009DF80A009DF80B1040EA012000B2ADF824
:104BA00002004022D0212D4803F04FFFC0B28DF803
:104BB0000C003F22D021294803F047FFC0B28DF8F6
:104BC0000D009DF80C009DF80D1040EA012000B288
:104BD000ADF80400BDF9000000EE100AB8EEC00AFE
:104BE0001F4880ED000ABDF9020000EE100AB8EE81
:104BF000C00A1B4880ED010ABDF9040000EE100A4E
:104C0000B8EEC00A164880ED020A90ED000AD0ED19
:104C10000C0A30EE600A80ED060A90ED010AD0ED34
:104C20000D0A30EE600A80ED070A90ED020AD0ED21
:104C30000E0A30EE600A80ED080A90ED081AD0EDF9
:104C4000070A90ED060A074801F04EFF044880ED80
:104C5000060AC0ED070A80ED081A1FBDF80F0020F4
:104C60007C100020041000201FB54422D0214648AB
:104C700003F0EBFEC0B28DF808004322D021424879
:104C800003F0E3FEC0B28DF809009DF808009DF81E
:104C9000091040EA012000B2ADF800004622D02100
:104CA000394803F0D2FEC0B28DF80A004522D02167
:104CB000354803F0CAFEC0B28DF80B009DF80A001B
:104CC0009DF80B1040EA012000B2ADF80200482226
:104CD000D0212D4803F0B9FEC0B28DF80C00472258
:104CE000D021294803F0B1FEC0B28DF80D009DF827
:104CF0000C009DF80D1040EA012000B2ADF8040050
:104D0000BDF9000000EE100AB8EEC00A1F4880EDA1
:104D1000030ABDF9020000EE100AB8EEC00A1B48F3
:104D200080ED040ABDF9040000EE100AB8EEC00AD6
:104D3000164880ED050A90ED030AD0ED0F0A30EE1B
:104D4000600A80ED090A90ED040AD0ED100A30EEF9
:104D5000600A80ED0A0A90ED050AD0ED110A30EEE6
:104D6000600A80ED0B0A90ED0B1AD0ED0A0A90ED67
:104D7000090A074802F09DF8044880ED090AC0EDD1
:104D80000A0A80ED0B1A1FBDF80F00207C100020CE
:104D90004810002070B5002435E01C4803F033FFB4
:104DA000EE211A4803F0AAFF184803F057FFA0208D
:104DB00000EB4400C1B2154803F0A0FF134803F014
:104DC0004DFF124803F01FFFEF21104803F096FF3C
:104DD0000E4803F043FF0D4803F069FF05460B48FA
:104DE00003F093FE094803F062FF0646074803F00C
:104DF000EFFE064803F0C9FE46EA0520044921F803
:104E00001400601CC4B2062CC7DD70BD5811002010
:104E10008011002000B587B001210420FBF704FEBB
:104E20004748FCF7CDF84FF6FF7002902920ADF807
:104E300004000020ADF80C00ADF8060001A94048C0
:104E4000FCF764FB0020ADF812000120ADF814005F
:104E50000020ADF81600ADF81800ADF8100004A958
:104E60003748FCF792F90420ADF8100004A9344843
:104E7000FCF78BF90820ADF8100004A93048FCF7C6
:104E800084F90C20ADF8100004A92D48FCF77DF939
:104E900001212B48FCF787F8012202212848FCF762
:104EA000ABF9012204212648FCF7A6F901220821CA
:104EB0002348FCF7A1F9012210212148FCF79CF9B5
:104EC00001210220FBF7D0FD1E48FCF779F84FF6D0
:104ED000FF7002905320ADF804000020ADF80C00E4
:104EE000ADF8060001A91748FCF710FB0020ADF84B
:104EF00012000120ADF814000020ADF81600ADF846
:104F000018000820ADF8100004A90E48FCF73DF980
:104F10000C20ADF8100004A90A48FCF736F901216D
:104F20000848FCF740F8012208210648FCF764F91C
:104F3000012210210348FCF75FF907B000BD000013
:104F4000000800400004014010B57748007800F0E8
:104F5000010048B9744803F080FF28B1734803F09A
:104F600033FD7148AFF300807148007800F0010014
:104F700048B96F4803F071FF28B16E4803F024FD73
:104F80006B48AFF300806C480078012868D16B480B
:104F90000068E0B99FED6A0A6A4880ED0C0A9FED4F
:104FA000680A80ED0D0A9FED660A80ED0E0A9FEDFE
:104FB000640A80ED0F0A9FED620A80ED100A9FEDF2
:104FC000600A80ED110A01205C49086010BD5B4851
:104FD000006840F6B831884243DC58480068401CFD
:104FE00056490860514890ED000A5648D0ED000A35
:104FF00030EE200A4D4880ED000A90ED010A51483C
:10500000D0ED010A30EE200A484880ED010A90ED0B
:10501000020A4C48D0ED020A30EE200A434880EDE7
:10502000020A444890ED000A4648D0ED030A30EEEB
:10503000200A404880ED000A90ED010A4148D0ED79
:10504000040A30EE200A3B4880ED010A90ED020A86
:105050003C48D0ED050A30EE200A364880ED020AC1
:1050600060E0002035490860334908702F4890ED12
:10507000000ADFED350A80EE201A324880ED0C1A66
:105080002A4890ED010ADFED300A80EE201A2D4803
:1050900080ED0D1A254890ED020ADFED2B0A80EE17
:1050A000201A9FED2A0A31EE400A264880ED0E0AAA
:1050B000204890ED000ADFED240A80EE201A2148F6
:1050C00080ED0F1A1B4890ED010ADFED1F0A80EEFC
:1050D000201A1C4880ED101A164890ED020ADFEDE8
:1050E0001A0A80EE201A174880ED111A9FED140A53
:1050F0000E4880ED000A9FED120A80ED010A9FED37
:10510000100A80ED020A9FED0E0A0A4880ED000A9F
:105110009FED0B0A80ED010A9FED090A80ED020A5E
:1051200000F052F800BF51E7FC090020C410002035
:10513000F8090020D0100020E8090020000A002013
:10514000000000007C10002000803B4500F07F45FF
:1051500000B51820FCF7A0FCBCEEC00A10EE100A47
:105160001749487008464078012824D10020FCF7F0
:1051700093FC144880ED0C0A0420FCF78DFC1148C8
:1051800080ED0D0A0820FCF787FC0E4880ED0E0A22
:105190000C20FCF781FC0B4880ED0F0A1020FCF777
:1051A0007BFC084880ED100A1420FCF775FC0548CC
:1051B00080ED110A02E001200149087000BD0000E5
:1051C000E80900207C10002010B5FCF757FE10B94C
:1051D00002200149887010BDE809002070B51D4803
:1051E00003F011FDEE211B4803F088FD194803F080
:1051F00035FD0021174803F081FD164803F02EFD10
:10520000144803F0C2FC134803F0FDFCEF211148E1
:1052100003F074FD0F4803F021FD0E4803F047FD35
:1052200004460C4803F071FC0A4803F040FD0546B3
:10523000084803F06AFC074803F039FD06460548B4
:1052400003F0C6FC034803F0A0FC200400EB05209B
:10525000304470BD581100201CB501210220FBF71D
:10526000D3FB01210420FBF7CFFB4FF470700090BB
:1052700002208DF8040003208DF8050000208DF831
:1052800006008DF8070069461A48FBF700FB02226A
:1052900006211848FBF743FB022207211548FBF7BC
:1052A0003EFB022208211348FBF739FB02220921A9
:1052B0001048FBF734FB4FF44070009002208DF84B
:1052C000040000208DF8060003208DF80500022060
:1052D0008DF8070069460848FBF7D9FA0322082130
:1052E0000548FBF71CFB032209210348FBF717FBCA
:1052F0001CBD0000000402400008024008B51E204A
:105300008DF8000000208DF8010001208DF80200CA
:105310008DF803006846FBF72FFB2E208DF8000068
:1053200000208DF8010002208DF8020001208DF888
:1053300003006846FBF720FB08BD000010B52DED0B
:105340000C0BB8B09FEDFE0B53EC102B9DED420BF8
:1053500051EC100B05F0FEFECDE9340119A803F065
:1053600033FB16A803F030FB3B98139006F0D6FCF5
:10537000CDE920013C98139006F0D0FCCDE91E0148
:105380003D98139006F0CAFCCDE91C019DED380A4A
:10539000DFEDED0A20EE200A8DED120A9DED120AD6
:1053A00001F0C0F88DED130A139806F0B7FCCDE9B3
:1053B00026019DED390ADFEDE40A20EE200A8DED8D
:1053C000120A9DED120A01F0ADF88DED130A139843
:1053D00006F0A4FCCDE924019DED3A0ADFEDDA0ADE
:1053E00020EE200A8DED120A9DED120A01F09AF8C6
:1053F0008DED130A139806F091FCCDE922019DED85
:10540000260B51EC100B05F0B7FDD0490968086078
:105410009DED240B51EC100B05F0AEFDCB49096856
:1054200048609DED220B51EC100B05F0A5FDC7491E
:10543000096888609DED1C0B53EC102B9DED1C0B37
:1054400051EC100B06F074F9CDE90E019DED1E0B29
:1054500053EC102B9DED1E0B51EC100B06F068F970
:10546000CDE90A019DED200B53EC102B9DED200B97
:1054700051EC100B06F05CF9CDE908019DED0A0B2B
:1054800053EC102B9DED080B51EC100B05F0A6FD15
:10549000CDE90C019DED0E0B53EC102B9DED0C0B8B
:1054A00051EC100B05F09AFDCDE910019DED100BAC
:1054B00051EC100B05F060FD139037A89DED130A19
:1054C000FDF7F2F99DED370AB5EEC00AF1EE10FADC
:1054D00001D144B010BD379806F020FCCDE912018F
:1054E0009DED120B53EC102B9DED200B51EC100B8E
:1054F00005F030FECDE92001379806F00FFCCDE92C
:1055000012019DED120B53EC102B9DED1E0B51EC77
:10551000100B05F01FFECDE91E01379806F0FEFBCB
:10552000CDE912019DED120B53EC102B9DED1C0BE0
:1055300051EC100B05F00EFECDE91C01844890EDF6
:10554000010AD0ED030A20EE200AD0ED000A90ED0A
:10555000021A00EEC10AF0EE000A20EE200A8DEDDC
:10556000130A139806F0DAFBCDE93201784890ED82
:10557000000AD0ED010A20EE200AD0ED020A90EDDB
:10558000031A00EE810AF0EE000A20EE200A8DEDEB
:10559000130A139806F0C2FBCDE930016C4890ED78
:1055A000010A60EE000A90ED020A90ED021A40EE48
:1055B000010AB7EE000AB0EE001A01EE600A8DEDA6
:1055C000130A139806F0AAFBCDE92E019DED300BCE
:1055D00053EC102B9DED1C0B51EC100B06F0A8F8B2
:1055E000CDE912019DED2E0B53EC102B9DED1E0B02
:1055F00051EC100B06F09CF8CDE910019DED120B5B
:1056000053EC102B9DED100B51EC100B06F09CFA97
:10561000CDE92C019DED2E0B53EC102B9DED200BB5
:1056200051EC100B06F084F8CDE912019DED320B20
:1056300053EC102B9DED1C0B51EC100B06F078F881
:10564000CDE910019DED120B53EC102B9DED100BCD
:1056500051EC100B06F078FACDE92A019DED320BE2
:1056600053EC102B9DED1E0B51EC100B06F060F867
:10567000CDE912019DED300B53EC102B9DED200B6D
:1056800051EC100B06F054F8CDE910019DED120B12
:1056900053EC102B9DED100B51EC100B06F054FA4F
:1056A000CDE928019DED2C0B53EC102B9FED290B20
:1056B00051EC100B06F03CF8CDE912019DED260BE4
:1056C00053EC102B9DED120B51EC100B05F086FCEA
:1056D000CDE926019DED2A0B53EC102B9FED1D0B00
:1056E00051EC100B06F024F8CDE912019DED240BCE
:1056F00053EC102B9DED120B51EC100B05F06EFCD2
:10570000CDE924019DED280B53EC102B9FED110BDF
:1057100051EC100B06F00CF8CDE912019DED220BB7
:1057200053EC102B9DED120B51EC100B05F056FCB9
:10573000CDE922010648C068059006F0EFFA0DE0B9
:1057400000000000000000408DC1793D4C090020A0
:10575000A40C0020000000000000F83FCDE9060185
:105760009DED220B53EC102B9DED060B51EC100B15
:1057700005F0DEFFCDE90A01FB488068019006F0E4
:10578000CDFACDE902019DED240B53EC102B9DEDDC
:10579000020B51EC100B05F0CBFFCDE90601F248EE
:1057A00090ED010AB1EE400A8DED010A019806F074
:1057B000B5FACDE902019DED260B53EC102B9DEDC2
:1057C000020B51EC100B05F0B3FFCDE904019DED88
:1057D000060B53EC102B9DED040B51EC100B06F057
:1057E000B3F9CDE908019DED0A0B53EC102B9DEDAB
:1057F000080B51EC100B06F0A7F9CDE90C019DED5B
:10580000340B53EC102B9DED0C0B51EC100B05F0F1
:105810008FFFCDE91001D44800680D9006F07EFAA4
:10582000CDE90E019DED100B53EC102B9DED0E0BF1
:1058300051EC100B05F0D2FBCDE912019DED120BDE
:1058400051EC100B05F098FBC74908600846C0688A
:10585000059006F063FACDE906019DED240B53ECAB
:10586000102B9DED060B51EC100B05F061FFCDE9FF
:105870000A01BD488068019006F050FACDE90201A6
:105880009DED220B53EC102B9DED020B51EC100BF8
:1058900005F04EFFCDE90601B3480068019006F01F
:1058A0003DFACDE902019DED260B53EC102B9DED49
:1058B000020B51EC100B05F03BFFCDE904019DED0F
:1058C000060B53EC102B9DED040B51EC100B05F067
:1058D00085FBCDE908019DED0A0B53EC102B9DEDE6
:1058E000080B51EC100B06F02FF9CDE90C019DEDE2
:1058F000340B53EC102B9DED0C0B51EC100B05F001
:1059000017FFCDE91001984840680D9006F006FA9F
:10591000CDE90E019DED100B53EC102B9DED0E0B00
:1059200051EC100B05F05AFBCDE912019DED120B65
:1059300051EC100B05F020FB8B4948600846C0680D
:10594000059006F0EBF9CDE906019DED260B53EC31
:10595000102B9DED060B51EC100B05F0E9FECDE987
:105960000A0181484068019006F0D8F9CDE90201AA
:105970009DED220B53EC102B9DED020B51EC100B07
:1059800005F0D6FECDE9060177480068019006F0E3
:10599000C5F9CDE902019DED240B53EC102B9DEDD3
:1059A000020B51EC100B05F0C3FECDE904019DED97
:1059B000060B53EC102B9DED040B51EC100B06F075
:1059C000C3F8CDE908019DED0A0B53EC102B9DEDBA
:1059D000080B51EC100B05F001FBCDE90C019DED1E
:1059E000340B53EC102B9DED0C0B51EC100B05F010
:1059F0009FFECDE910015C4880680D9006F08EF99D
:105A0000CDE90E019DED100B53EC102B9DED0E0B0F
:105A100051EC100B05F0E2FACDE912019DED120BED
:105A200051EC100B05F0A8FA4F49886008468068D1
:105A3000059006F073F9CDE906019DED260B53ECB8
:105A4000102B9DED060B51EC100B05F071FECDE90E
:105A50000A0145484068019006F060F9CDE902016D
:105A60009DED240B53EC102B9DED020B51EC100B14
:105A700005F05EFECDE906013B480068019006F0A6
:105A80004DF9CDE902019DED220B53EC102B9DED5C
:105A9000020B51EC100B05F04BFECDE904019DED1E
:105AA000060B53EC102B9DED040B51EC100B05F085
:105AB00095FACDE908019DED0A0B53EC102B9DEDF5
:105AC000080B51EC100B06F03FF8CDE90C019DEDF1
:105AD000340B53EC102B9DED0C0B51EC100B05F01F
