:020000040800F2
:10000000181C00206D020008C1090008B909000889
:10001000BD090008D30600085F19000800000000B1
:10002000000000000000000000000000D90B0008E4
:100030004507000800000000510A0008DD0B000819
:10004000870200088702000887020008870200086C
:10005000870200088702000887020008870200085C
:10006000870200088702000887020008870200084C
:10007000870200088702000887020008870200083C
:10008000870200088702000887020008870200082C
:10009000870200088702000887020008870200081C
:1000A000870200088702000887020008870200080C
:1000B00087020008870200085D0C0008870200081C
:1000C00087020008870200088702000887020008EC
:1000D0008702000851160008C516000887020008AC
:1000E00087020008870200088702000887020008CC
:1000F0008702000887020008C50E00088702000872
:100100008702000887020008750E000887020008B1
:10011000DD15000887020008870200088702000832
:10012000870200088702000887020008870200088B
:10013000870200088702000887020008870200087B
:10014000870200088702000887020008870200086B
:10015000870200088702000887020008870200085B
:10016000870200088702000887020008870200084B
:10017000870200088702000887020008870200083B
:10018000870200088702000800F002F800F05EF81D
:100190000AA090E8000C82448344AAF10107DA45E2
:1001A00001D100F053F8AFF2090EBAE80F0013F0D6
:1001B000010F18BFFB1A43F0010318477CCF000062
:1001C0009CCF00000A444FF0000C10F8013B13F0E4
:1001D000070408BF10F8014B1D1108BF10F8015BA0
:1001E000641E05D010F8016B641E01F8016BF9D193
:1001F00013F0080F1EBF10F8014BAD1C0C1B09D1EA
:100200006D1E58BF01F801CBFAD505E014F8016B5B
:1002100001F8016B6D1EF9D59142D6D370470000ED
:100220000023002400250026103A28BF78C1FBD8FF
:10023000520728BF30C148BF0B6070471FB50CF094
:1002400008F900F0B3F81FBD10B510BD00F04AF971
:100250001146FFF7F3FF0BF0DBF800F068F903B489
:10026000FFF7F2FF03BC00F069F90000094880477E
:1002700009480047FEE7FEE7FEE7FEE7FEE7FEE788
:10028000FEE7FEE7FEE7FEE704480549054A064BA0
:1002900070470000F50B00088901000818160020BF
:1002A000181C0020181800201818002010B54C1039
:1002B00084EA530404D54042C1F1000138BF491E0D
:1002C0001B4204D55242C3F1000338BF5B1E00F04D
:1002D0007FF814F0804F04D04042C1F1000138BFD4
:1002E000491E14F0004F04D05242C3F1000338BF3E
:1002F0005B1E10BD10B5203AC0F00B80B1E818505D
:10030000203AA0E81850B1E81850A0E81850BFF4FF
:10031000F5AF5FEA027C24BFB1E81850A0E818509E
:1003200044BF18C918C0BDE810405FEA827C24BFF2
:1003300051F8043B40F8043B08BF7047D20728BF80
:1003400031F8023B48BF11F8012B28BF20F8023BCF
:1003500048BF00F8012B70474FF0000200B513466C
:1003600094469646203922BFA0E80C50A0E80C50D5
:10037000B1F12001BFF4F7AF090728BFA0E80C5086
:1003800048BF0CC05DF804EB890028BF40F8042B7F
:1003900008BF704748BF20F8022B11F0804F18BFEC
:1003A00000F8012B704770477047704770B5064CD6
:1003B0007C44064D7D4403E0206820448047241D92
:1003C000AC42F9D170BD0000A4CD0000C8CD000042
:1003D00053EA020C00F069802DE9F04B4FF0000663
:1003E000002B1FBFB3FA83F503FA05F424FA05F6D0
:1003F0005E4012BF1643B2FA82F502FA05F4C5F167
:1004000020051EBF22FA05FC44EA0C04203556EAFA
:10041000044C4FEA144418BF641C4FF000084FF01E
:100420000009904271EB030C39D3002919BFB1FACE
:1004300081F701FA07F6B0FA80F700FA07F6C7F17C
:1004400020071EBF20FA07FC46EA0C062037B6FB41
:10045000F4FCA7EB0507103F07F01F0BCBF12006BC
:100460000CFA0BFB2CFA06F644BFB3460026202FED
:10047000A4BF5E464FF0000B5BEA060C08BF4FF0CE
:10048000010B19EB0B09ABFB027C48EB0608C01B08
:1004900006FB02CC0BFB03CC71EB0C01C1E70B4656
:1004A000024641464846BDE8F08B13B54FF00000C8
:1004B0004FF00001AFF30080BDE81C40704710B55D
:1004C00000F008F8006810BD10B5044600F002F80E
:1004D000046010BD00487047B41500200048704704
:1004E000B41500207546FFF7F9FFAE4605006946D2
:1004F000534620F00700854618B020B5FFF7C4FE2C
:10050000BDE820404FF000064FF000074FF0000814
:100510004FF0000B21F00701AC46ACE8C009ACE895
:10052000C009ACE8C009ACE8C0098D467047044674
:10053000AFF300802046FFF792FE0000014918202B
:10054000ABBEFEE726000200704721B1826842F090
:100550000102826003E0826822F00102826070473B
:100560000021084A1168084A1140D0E900231A43C3
:1005700083681A43C3681A431143044AC2F8041338
:100580007047000004230140E030FCFF00200140E0
:1005900021B1826842F48072826003E0826822F4B2
:1005A00080728260704721B1826842F4007282607A
:1005B00003E0826822F400728260704730B5024620
:1005C000002000235068104C20400D790C6844EA4C
:1005D00005242043506090680C4C2040D1E903541E
:1005E0002C438D682C434D7944EA450420439060A8
:1005F000D06A20F470000C7D641EE4B2234340EA0C
:100600000350D06230BD0000FFFEFFFCFDF7FFC0CD
:10061000F0B504460D4600200021092D11DDE068EB
:10062000A5F10A0606EB4607072606FA07F18843F6
:10063000A5F10A0606EB460603FA06F10843E06058
:100640000CE0206905EB4507072606FA07F1884309
:1006500005EB450603FA06F108432061072A0FDA85
:10066000606B561E06EB86071F2606FA07F18843C5
:10067000561E06EB860605FA06F10843606322E083
:100680000D2A0FDA206BD61F06EB86071F2606FA07
:1006900007F18843D61F06EB860605FA06F10843E4
:1006A000206310E0E06AA2F10D0606EB86071F2624
:1006B00006FA07F18843A2F10D0606EB860605FA55
:1006C00006F10843E062F0BD816841F0804181603D
:1006D000704700BFFEE721B1026842F001020260EC
:1006E00003E0026822F001020260704710B50022A8
:1006F0000268134B1A40CC680B6823434C692343B0
:100700008C692343CC6923430C6A23434C6A2343FB
:100710008C6A23434C6B23438C6B23431A43026044
:10072000426922F00702D1E90B3423431A434261A4
:100730000B6943604B6883608B68C36010BD000029
:100740003F801CF0704700000149086070470000BE
:100750000C3C024070B504460A460026092502B941
:1007600009E0012A01D1160205E0022A01D1160290
:1007700001E04FF4407600F09FF80546092D28D19E
:100780001548006820F44070134908600846006866
:10079000304308600846006820F0F800086008460A
:1007A000006844F0020108430B49086008460068ED
:1007B00040F48030086000F07FF805460648006885
:1007C00020F00200044908600846006820F0F800A4
:1007D0000860284670BD0000103C02400920134903
:1007E000096801F48031B1F5803F01D101201CE09E
:1007F0000E49096801F0100109B1062015E00B4906
:10080000096801F4807109B102200EE00749096806
:1008100001F0E00109B1072007E00449096801F08F
:10082000020109B1082000E0092070470C3C024099
:100830000348006840F0004001490860704700002C
:10084000103C024030B502460C46092500F034F851
:100850000546092D19D10E48006820F440700C4956
:1008600008600846006840F40070086008460068A8
:1008700040F001000860146000F01EF805460448CE
:10088000006820F0010002490860284630BD0000E1
:10089000103C02400548006800F0004028B10448C0
:1008A00002490C390860034808607047103C024058
:1008B00023016745AB89EFCD08B509200090FFF70C
:1008C0008DFF009002E0FFF789FF00909DF8000087
:1008D0000128F8D09DF8000008BDF0B50A460021B7
:1008E0000023002400BF3DE0012505FA01F315684F
:1008F00005EA03049C4234D105684F000326BE403C
:10090000B543056015794E00B5400668354305606E
:100910001579012D02D01579022D16D185684F0069
:100920000326BE40B543856055794E00B5408668C4
:1009300035438560456801268E40B543456045686E
:1009400096798E40B6B235434560C5684F000326A0
:10095000BE40B543C560D5794E00B540C668354345
:10096000C560491C1029BFD3F0BDF0B50023002499
:100970004D07ED0E02FA05F3CE1000F1200555F8F3
:1009800026504E07F70E0F26BE40B543CF1000F19C
:10099000200646F82750CE1000F1200555F82650C5
:1009A00045EA0304CE1000F1200545F82640F0BDCD
:1009B000418370470183704700BFFEE700BFFEE739
:1009C0007047000070B5002100230F22C4781CB3CB
:1009D000174C246804F4E064C4F5E064C4F3072110
:1009E000C1F10404E3B20A4144789C40E1B2847846
:1009F000144021430C07210E0E4C057861550478F4
:100A000004F01F050124AC4005786D11AD0005F11F
:100A1000E025C5F8004109E0047804F01F05012431
:100A2000AC40054D0678761145F8264070BD0000B3
:100A30000CED00E000E400E080E100E00249014349
:100A4000024A1160704700000000FA050CED00E05A
:100A50007047000029B1064A12680243044B1A602D
:100A600004E0034A12688243014B1A607047000099
:100A70003038024029B1064A12680243044B1A601A
:100A800004E0034A12688243014B1A607047000079
:100A90004038024029B1064A12680243044B1A60EA
:100AA00004E0034A12688243014B1A607047000059
:100AB0002038024029B1064A12680243044B1A60EA
:100AC00004E0034A12688243014B1A607047000039
:100AD0004438024029B1064A12680243044B1A60A6
:100AE00004E0034A12688243014B1A607047000019
:100AF00024380240F0B500210022002402250026FF
:100B00000223324F3F6807F00C0121B1042905D0C0
:100B1000082937D105E02E4F076036E02C4F0760DB
:100B200033E02A4F3F1F3F68C7F38056274F3F1FD0
:100B30003F6807F03F036EB1254FB7FBF3F7DFF8CF
:100B40008CC0ACF1040CDCF800C0CCF3881C07FBB3
:100B50000CF40CE01E4FB7FBF3F7DFF870C0ACF1FC
:100B6000040CDCF800C0CCF3881C07FB0CF4174F16
:100B70003F1F3F68C7F301477F1C7D00B4FBF5F7BB
:100B8000076002E0124F076000BF00BF0F4F3F68D1
:100B900007F0F00109090F4F7A5C0768D7404760FA
:100BA0000A4F3F6807F4E051890A0A4F7A5C4768A8
:100BB000D7408760054F3F6807F46041490B054FF8
:100BC0007A5C4768D740C760F0BD00000838024033
:100BD0000024F400600B0020704700000448036804
:100BE00040685A1C40F1000001490A6048607047A3
:100BF000600A002010B51548006840F470001349E1
:100C000008601348006840F00100114908600020A6
:100C10000F49083108600E4800680E4908400C4929
:100C200008600D48091D0860081F006820F4802036
:100C3000091F0860002006490C31086001F090F996
:100C40004FF0006001498039086010BD88ED00E078
:100C500000380240FFFFF6FE1030002410B50221DC
:100C60007C4800F0A7FA012839D10221794800F028
:100C7000BDF97948006800F04000402810D175485F
:100C800000F08CFA7549088072482030008840F0E6
:100C900002007049203108800020714908801EE060
:100CA0006C4800F07BFA84B26C480088844205DD11
:100CB0006A480088201A6B49888007E04FF6FF7069
:100CC000204466490988401A664988806148203076
:100CD000008820F002005F492031088000BF042115
:100CE0005C4800F067FA012836D10421594800F029
:100CF0007DF95948006800F0800080280DD15548E2
:100D000000F04FFA5849088052482030008840F0DF
:100D100020005049203108801EE04E4800F041FA82
:100D200084B251480088844205DD4F480088201A6B
:100D30004C49C88007E04FF6FF7020444A490988B3
:100D4000401A4849C88043482030008820F02000DD
:100D500040492031088000BF08213E4800F02AFAAF
:100D6000012837D108213B4800F040F93A48006893
:100D700000F48070B0F5807F0DD1364800F014FA91
:100D80003A49088033482030008840F400703149E7
:100D9000203108801EE02F4800F006FA84B2334864
:100DA0000088844205DD31480088201A2D490881D9
:100DB00007E04FF6FF7020442C490988401A294962
:100DC000088124482030008820F400702149203117
:100DD000088000BF10211F4800F0ECF9012837D12E
:100DE00010211C4800F002F91B48006800F4007054
:100DF000B0F5007F0DD1174800F0D9F91C490880E3
:100E000014482030008840F40050124920310880F6
:100E10001EE0104800F0CBF984B2154800888442E7
:100E200005DD13480088201A0E49488107E04FF677
:100E3000FF7020440E490988401A0A494881054834
:100E40002030008820F4005002492031088000BF83
:100E500010BD00000008004010040240C80A002035
:100E6000B00A002094100020CA0A0020CC0A0020FA
:100E7000CE0A002010B50121104800F09BF901288E
:100E800016D10F48007810B101280FD106E006F006
:100E9000C7FB012801D10A49087008E006F03CFBB5
:100EA000012802D102200649087000E000BF00BFFF
:100EB0000121024800F09AF810BD0000000C00402B
:100EC000340A002010B508213D4800F073F90128CC
:100ED00037D108213A4800F089F83A48006800F410
:100EE0008070B0F5807F0DD1354800F05DF936494E
:100EF000088033482030008840F4007030492031A9
:100F000008801EE02E4800F04FF984B22E48008879
:100F1000844205DD2C480088201A2C49088007E00F
:100F20004FF6FF70204428490988401A2749088055
:100F300023482030008820F40070214920310880A7
:100F400000BF10211E4800F035F9012837D11021CB
:100F50001B4800F04BF81B48006800F40070B0F527
:100F6000007F0DD1164800F022F919490880144875
:100F70002030008840F400501149203108801EE0E4
:100F80000F4800F014F984B211480088844205DD4E
:100F90000F480088201A0D49488007E04FF6FF707F
:100FA00020440B490988401A0849488004482030E9
:100FB000008820F4005002492031088000BF10BD95
:100FC0000004014010080240D00A002094100020C4
:100FD000D20A002021B1028842F08002028004E09F
:100FE00002884FF67F731A4002807047CA4302821C
:100FF000704721B1028842F00102028004E00288B9
:101000004FF6FE731A4002807047000010B5044688
:101010005548844208D101210846FFF75BFD0021B5
:101020000120FFF757FD9DE0B4F1804F08D1012169
:101030000846FFF72FFD00210120FFF72BFD91E06F
:101040004A48844208D101210220FFF723FD0021F4
:101050000220FFF71FFD85E04548844208D10121A9
:101060000420FFF717FD00210420FFF713FD79E0AE
:101070004048844208D101210820FFF70BFD0021E0
:101080000820FFF707FD6DE03B48844208D10121AD
:101090001020FFF7FFFC00211020FFF7FBFC61E0B0
:1010A0003648844208D101212020FFF7F3FC0021BB
:1010B0002020FFF7EFFC55E03148844208D10121A0
:1010C0000220FFF707FD00210220FFF703FD49E0A2
:1010D0002C48844209D101210804FFF7FBFC0021C0
:1010E0004FF48030FFF7F6FC3CE02748844209D1FA
:1010F00001214804FFF7EEFC00214FF40030FFF718
:10110000E9FC2FE02148844209D101218804FFF73E
:10111000E1FC00214FF48020FFF7DCFC22E01C48BA
:10112000844208D101214020FFF7B4FC0021402077
:10113000FFF7B0FC16E01748844208D10121802057
:10114000FFF7A8FC00218020FFF7A4FC0AE012486A
:10115000844207D101218015FFF79CFC0021A015D6
:10116000FFF798FC10BD00000000014000040040A3
:1011700000080040000C0040001000400014004037
:10118000000401400040014000440140004801408B
:1011900000180040001C0040002000400146486B41
:1011A00070470146886B70470146C86B704701461F
:1011B000086C704730B50246002000230024158AD1
:1011C00005EA0103958905EA010413B10CB1012078
:1011D00000E0002030BD70B505460C46208850B9AF
:1011E0002389A2886188284600F068FDE1882846A6
:1011F00000F085F925E0208804280AD12389A288F7
:101200006188284600F077FDE188284600F080F9E3
:1012100017E0208808280AD12389A28861882846F7
:1012200000F091FDE188284600F07FF909E023896C
:10123000A2886188284600F0AAFDE188284600F0CF
:101240007DF970BD1AB183890B43838102E08389E4
:101250008B4383817047000070B500240022002377
:10126000058C4FF6FE7635400584028C8388048B0E
:101270004FF68F752C40B51E2C400D882C43751EE3
:101280002A408D892A434D882A43104DA84202D016
:101290000F4DA84213D14FF6F7752A40CD892A4346
:1012A0004FF6FB752A408D882A434FF6FF652B4089
:1012B0004FF6FF552B400D8A2B434D8A2B438380DD
:1012C00004838D684563028470BD00000000014006
:1012D000000401400A460021018B4FF6F7731940C4
:1012E000114301837047000070B5002400220023E1
:1012F000058C4FF6EF7635400584028C8388048B8D
:1013000048F6FF752C404FF6FF452C400D884FF6F0
:10131000FF7606EA05252C434FF6DF752A408D89B6
:1013200006EA05152A434D8806EA05152A43154D98
:10133000A84202D0144DA8421DD14FF67F752A4015
:10134000CD894FF6FF7606EA05152A434FF6BF759D
:101350002A408D8806EA05152A434FF6FF352B40B3
:101360004FF2FF752B400D8A06EA85052B434D8A07
:1013700006EA85052B43838004838D688563028498
:1013800070BD000000000140000401400A46002139
:10139000018B4FF2FF7319404FF6FF7303EA0223EC
:1013A000194301837047000070B500240022002318
:1013B000058C4FF6FF6635400584028C8388848B4C
:1013C0004FF68F752C404FF6FC752C400D882C4342
:1013D0004FF6FF552A408D894FF6FF7606EA052520
:1013E0002A434D8806EA05252A43154DA84202D016
:1013F000144DA8421DD14FF2FF752A40CD894FF6FA
:10140000FF7606EA05252A434FF6FF352A408D88E8
:1014100006EA05252A434EF6FF752B404DF6FF756B
:101420002B400D8A06EA05152B434D8A06EA051561
:101430002B43838084838D68C563028470BD000064
:1014400000000140000401400A460021818B4FF654
:10145000F7731940114381837047000070B5002273
:1014600000230024058C4EF6FF7635400584038C5E
:101470008488828B48F6FF752A404FF6FF452A4044
:101480000D884FF6FF7606EA05252A434DF6FF75CF
:101490002B408D8906EA05352B434D8806EA053534
:1014A0002B430A4DA84202D0094DA84208D14BF661
:1014B000FF752C400D8A4FF6FF7606EA85152C4302
:1014C000848082838D680564038470BD00000140C0
:1014D000000401400A460021818B4FF2FF7319403E
:1014E0004FF6FF7303EA0223194381837047416378
:1014F000704781637047C163704701647047028B16
:101500004FF6F3731A400283028B0A43028370473B
:10151000028B4FF2FF331A400283028B4FF6FF73A8
:1015200003EA01231A4302837047828B4FF6F37359
:101530001A408283828B0A4382837047828B4FF2E8
:10154000FF331A408283828B4FF6FF7303EA012335
:101550001A4382837047000000220288184B984289
:101560000ED0184B98420BD0B0F1804F08D0164BDC
:10157000984205D0154B984202D0154B984204D1A1
:101580004FF68F731A404B881A43124B984207D07C
:10159000114B984204D04FF6FF431A400B891A436F
:1015A00002804B68C3620B880385054B984202D0CA
:1015B000044B984201D18B7A0386012383827047C2
:1015C0000000014000040140000400400008004009
:1015D000000C0040001000400014004008B540F22C
:1015E0002771174800F0F8F890B11648164982683C
:1015F00068469047012805D19DF80010104800F07A
:10160000AAF905E0002240F227710D4800F00EF91A
:1016100040F225510A4800F0DFF878B1084800F0A0
:1016200095F9C0B2009040F22551054800F0ACF8A1
:101630000448064942689DF80000904708BD000034
:10164000004C00401C0B0020E0120020EC12002097
:1016500008B540F22771174800F0BEF890B116485F
:101660001649826868469047012805D19DF8001008
:10167000104800F070F905E0002240F227710D4893
:1016800000F0D4F840F225510A4800F0A5F878B1EE
:10169000084800F05BF9C0B2009040F225510548BF
:1016A00000F072F80448064942689DF8000090472F
:1016B00008BD0000001001401C0B0020F8140020A1
:1016C0000415002010B50821274800F078F810B163
:1016D000254800F03BF92021234800F070F801284C
:1016E00040D1214800F032F9C4B22049486880470F
:1016F0001F490968401A022810D900201D490870A6
:101700001D480078012803D100201B49087002E021
:1017100001201949087001201849087016480078FE
:10172000012808D1134801780078401C114A107034
:101730001348445407E00F4801780078401C0D4AD4
:1017400010701048445409494868804708490860A7
:1017500008480078192804D106480078401E054939
:10176000087000BF10BD000000440040680A00205F
:10177000440B0020480B0020290B0020280B0020E0
:10178000101500202915002010B50022002340F676
:101790006A14A14200D100BF0A1201249440A3B2EE
:1017A000DC43048010BD21B1828942F40052828161
:1017B00004E082894DF6FF731A4082817047024629
:1017C0000020B1F5007F00D100BF13880B400BB1A2
:1017D000012000E00020704770B50246002400237D
:1017E0000025002040F66A16B14200D100BFC1F3C7
:1017F000421501F01F03012606FA03F3012D02D161
:101800009689334006E0022D02D1168A334001E06A
:10181000968A33400C12012606FA04F416883440E6
:1018200013B10CB1012000E0002070BDF0B50346FB
:10183000002400260025002040F66A17B94200D196
:1018400000BF1846C1F3421401F01F06012707FA32
:1018500006F5012C01D10C3004E0022C01D110302E
:1018600000E014301AB107682F43076002E00768F0
:10187000AF430760F0BD00002DE9FF4705460E4667
:101880000024A14600BFA046B08900B100BF2C8A49
:1018900024F44054F08804432C82AC8941F20C605B
:1018A0008443B08831890843718908430443AC817B
:1018B000AC8A24F44074B0890443AC826846FFF7D4
:1018C00019F92048854202D01F48854202D1DDF82F
:1018D0000C9001E0DDF80890A88900F4004040B1C8
:1018E00009EBC90000EB091031684900B0FBF1F7C2
:1018F00007E009EBC90000EB091031688900B0FB73
:10190000F1F76420B7FBF0F004012009642101FB2A
:101910001078A88900F4004040B1322000EBC800E4
:10192000B0FBF1F000F00700044308E0322000EBC8
:1019300008106421B0FBF1F000F00F0004432C818B
:10194000BDE8FF870010014000140140014688886F
:10195000C0F308007047C1F308028280704700BFDF
:10196000FEE70000DFED0C0AB0EE600A0B480088CD
:1019700000EE900AF8EE600ADFED091A80EEA11A77
:10198000DFED080A61EE200AB1EE001A60EE810A6E
:101990000548C0ED000A704700000000D40A00208E
:1019A00000F07F4533335340D80A002010B54FF480
:1019B00080510248FEF7FCFF10BD00000008024005
:1019C00010B5044601498868804710BD380A0020D8
:1019D00010B504460748816A204688470649C8680A
:1019E00080470648816820468847044801692046A8
:1019F000884710BD80090020040A00202809002023
:101A000010B504460749C86880470749C868804739
:101A100006484168204688470448C16820468847F0
:101A200010BD0000E80900204C0900202809002012
:101A300010B540F206414FF08040FFF75CFD40F2E8
:101A400006410C48FFF759FD40F206410948FFF7EF
:101A500052FD40F206410748FFF74BFD40F20641B8
:101A60000448FFF744FD40F206414FF08040FFF785
:101A700044FD10BD0004004010B503F0CBF902F0A6
:101A8000F7FA00F001F810BD10B54FF4617012497B
:101A9000086048608860C8600861486101460007C6
:101AA000FFF729FD4FF461710C48FFF726FD4FF455
:101AB00061710A48FFF71FFD4FF461710748FFF796
:101AC00018FD4FF461710548FFF711FD4FF4617186
:101AD0000807FFF712FD10BD7C1000200004004035
:101AE000002100EE901A0549415800EE901AB8EE18
:101AF000E01ADFED031A81EE210A704700000E089C
:101B00000000C84238B5002000900124AA222146D6
:101B1000641C674842542146641C425403222146F7
:101B2000641C425400222146641C42540F20009041
:101B30009DF801202146641C5D4842549DF8002018
:101B40002146641C4254002000909DF8012021464B
:101B5000641C574842549DF800202146601CC4B2C2
:101B600053484254002000909DF801202046611CFB
:101B7000CCB24F490A549DF800202046611CCCB2DB
:101B80004B490A54002000909DF801202046611C1A
:101B9000CCB247490A549DF800202046611CCCB2C3
:101BA00043490A5443480068008800909DF801208A
:101BB0002046611CCCB23E490A549DF800202046C4
:101BC000611CCCB23A490A543A48006840880090F7
:101BD0009DF801202046611CCCB235490A549DF87D
:101BE00000202046611CCCB231490A5431480068BB
:101BF000808800909DF801202046611CCCB22C49C1
:101C00000A549DF800202046611CCCB228490A5491
:101C100028480068C08800909DF801202046611C7B
:101C2000CCB223490A549DF800202046611CCCB256
:101C30001F490A541F480068008900909DF8012040
:101C40002046611CCCB21A490A549DF80020204657
:101C5000611CCCB216490A541648006840890090AD
:101C60009DF801202046611CCCB211490A549DF810
:101C700000202046611CCCB20D490A54601F087137
:101C80000025012005E00A49095C2944CDB2411C28
:101C9000C8B2A042F7DB2046611CCCB204490D5407
:101CA000601E08700448214642680148904738BDCC
:101CB000F00B0020B40A0020100B0020F0B50C46F9
:101CC000154600210022068C4FF6FE773E40068422
:101CD000018B028C4FF60C7631407E1C06EA03160F
:101CE0002E4331434FF6F576324044F0010632433D
:101CF00001830284F0BDF0B50C4615460021002298
:101D00000026078C4FF6EF7C07EA0C070784018B4F
:101D1000028C4FF6FF7707EA041640F6FF4739407A
:101D20004FF6FF7707EA033739434FF6FF7707EAA5
:101D3000052739434FF65F773A4046F010073A439C
:101D400001830284F0BDF0B50C4615460021002247
:101D50000026078C4FF6FF6C07EA0C070784818B7F
:101D6000028C4FF6FF7707EA04264FF60C773940CE
:101D70004FF6FF7707EA03172F4339434FF2FF5718
:101D80003A4046F480773A4381830284F0BDF0B54F
:101D90000C461546002100220026078C4EF6FF7CDB
:101DA00007EA0C070784818B028C4FF6FF7707EA5E
:101DB000043640F6FF4739404FF6FF7707EA05271C
:101DC00039434FF6FF7707EA0337394345F6FF7784
:101DD0003A4046F480573A4381830284F0BD0000C4
:101DE0000149086849687047600A00202DE9F047FA
:101DF0002448046845684FF0E020866900272148A0
:101E00000168426884EA010085EA020108431CD1A6
:101E10001D480023026830463946FEF747FA4FF462
:101E20007A734FF0000CA4FB032805FB038304FB2B
:101E30000C3C1346181A6CEB01014FF47A7C10EB42
:101E40000C0041F10001BDE8F0874FF0E02080690F
:101E50000D490968B0FBF1F000220A4B19685B6874
:101E60004FF47A78A1FB089A03FB08A301FB023127
:101E70001346B9EB000261EB030112EB080041F1DC
:101E80000001E0E7600A0020500A00201CB5012193
:101E90000420FEF7DFFD01208DF8040000208DF8FE
:101EA00006008DF805008DF807004FF48050009073
:101EB00069460448FEF711FD4FF480510148FEF7D2
:101EC00077FD1CBD0008024010B500F099FD03F03D
:101ED0001DFA012010BD000070B506460C46002515
:101EE0000A48C079A04201DA002070BD002509E04F
:101EF000701907498A680549904708B90020F4E736
:101F0000681C85B2A542F3DB0120EEE7EC1200204D
:101F10001C0B002070B504460D460B4948688047ED
:101F2000064604F40050B0F5005F0CD10748006885
:101F3000864208D90648006880F4005004490860C9
:101F400070190249086070BD680A0020940A0020D8
:101F500014080240704700B500F0C6FC00BD000048
:101F60000CB50020019000903448006840F48030A7
:101F70003249086000BF3148006800F4003000902A
:101F80000198401C0190009818B90198B0F5A04F35
:101F9000F1D12A48006800F4003010B1012000900F
:101FA00001E0002000900098012846D123484030ED
:101FB000006840F0805021494031086020480068A6
:101FC00040F440401E4908601C48083000681B4926
:101FD000083108600846006840F400400860084680
:101FE000006840F4A05008601648091F0860081FE8
:101FF000006840F08070091F086000BF0F4800684B
:1020000000F000700028F9D040F205700E49086019
:102010000A480830006820F00300084908310860C9
:102020000846006840F00200086000BF034808301E
:10203000006800F00C000828F8D10CBD0038024000
:102040000070004010544007003C024000B50246BA
:10205000FFF7C6FE034600BFFFF7C2FE991888428D
:10206000FAD300BD70B50446FFF7C0FE054600BFB9
:10207000FFF7BCFE2A19801A71F10001F8DB70BD70
:1020800010B50124FEF706FCF320FEF75DFB0221EC
:102090005820FEF75FFB3B4890ED0C0ADFED3A0A53
:1020A00020EE200ABDEEC00A10EE101A3748FEF7E7
:1020B000C9FB092800D00024324890ED0D0ADFED5D
:1020C000320A20EE200ABDEEC00A10EE101A2F4888
:1020D000001DFEF7B7FB092800D00024294890ED29
:1020E0000E0ADFED290A20EE200ABDEEC00A10EE2E
:1020F000101A26480830FEF7A5FB092800D0002456
:10210000204890ED0F0ADFED200A20EE200ABDEEF8
:10211000C00A10EE101A1D480C30FEF793FB092878
:1021200000D00024174890ED100ADFED170A20EECA
:10213000200ABDEEC00A10EE101A14481030FEF747
:1021400081FB092800D000240E4890ED110ADFED34
:102150000E0A20EE200ABDEEC00A10EE101A0B483F
:102160001430FEF76FFB092800D0002464210748D3
:102170001830FEF767FB092800D00024FEF758FB53
:10218000204610BD240F00200000C84200000E08A9
:1021900010B58AB0044601210846FEF75BFC012118
:1021A0001020FEF787FC072209212F48FEF7DDFBF0
:1021B00007220A212C48FEF7D8FB02208DF82400C4
:1021C0008DF8250000208DF8260001208DF82700CD
:1021D0004002089008A92448FEF77FFB4FF4806076
:1021E000089008A92048FEF778FB25208DF80C0000
:1021F00000208DF80D0001208DF80E008DF80F00E5
:1022000003A8FEF7DFFB04940020ADF81400ADF83E
:102210001600ADF81800ADF81C000C20ADF81A003F
:1022200004A91248FFF728FB1148124AFF2103684E
:102230006846984710489DE80E000EC00C480F4AAB
:10224000FF210368684698470D489DE80E000EC0C0
:10225000012240F225510548FFF7E8FA0121034821
:10226000FFF7A1FA0AB010BD0000024000100140C3
:102270001C0B0020F8120020F8140020F713002097
:102280000415002070B506460C4600250F4800795D
:102290000E49C979401AA04201DA002070BD00251C
:1022A00009E0705D0A494A680849904708B900206A
:1022B000F4E7681C85B2A542F3DB012240F22771E6
:1022C0000448FFF7B3FA0120E8E70000F814002003
:1022D0001C0B00200010014000B58FB001218805C3
:1022E000FEF7B8FB012004900020009003900B90B3
:1022F0001048029000200D904FF400500890C0103C
:102300000690801009900C48019000200E904FF428
:1023100000600790002005904FF400300A90694655
:102320000648FEF7E3F901210448FEF7D4F90FB09F
:1023300000BD0000D40A00204C200140106402407F
:1023400010B50D4806F046FF7C2300223C210A48C8
:1023500006F0FAFE202301223C21074806F0F4FE95
:10236000802302223C21044806F0EEFE0348C168A7
:102370000A20884710BD0000840F0020680A002052
:1023800010B51C4806F026FF1B48C168322088475C
:1023900080236B22D021174806F0D6FE1648C1686C
:1023A0000520884700231922D021124806F0CCFED0
:1023B00000236B22D0210F4806F0C6FE00233722EF
:1023C000D0210C4806F0C0FE06231A22D02109486D
:1023D00006F0BAFE18231B22D021064806F0B4FEF0
:1023E00010231C22D021034806F0AEFE04F01CF995
:1023F00010BD0000A00E0020680A002010B50C4897
:1024000006F04BFF08B9002010BDEE21084806F089
:10241000BFFF074806F06CFF1E21054806F0B8FF15
:10242000034806F065FF024806F0F9FE0120EBE7DD
:102430000010002010B52DED048B86B00446012C51
:102440007BD1B849096801F5617009F06EFB41EC78
:10245000190BB5499FEDB52B9FEDB61BB0EE490AA0
:10246000F0EE690A08688047B0EE408AF0EE608AB4
:1024700051EC180B09F0FCFA0090AA49496801F5E3
:10248000617009F052FB41EC190BA7499FEDA72B96
:102490009FEDA81BB0EE490AF0EE690A0868804774
:1024A000B0EE408AF0EE608A51EC180B09F0E0FAC9
:1024B00001909C49896801F5617009F036FB41EC97
:1024C000190B99499FED992B9FED9A1BB0EE490A84
:1024D000F0EE690A08688047B0EE408AF0EE608A44
:1024E00051EC180B09F0C4FA02908E49C96801F545
:1024F000617009F01AFB41EC190B8B499FED8B2B96
:102500009FED8C1BB0EE490AF0EE690A086880471F
:10251000B0EE408AF0EE608A51EC180B09F0A8FA90
:1025200003908049096901F5617009F0FEFA41ECF8
:10253000190B7D499FED7D2B00E02DE09FED7D1B6C
:10254000B0EE490AF0EE690A08688047B0EE408AAA
:10255000F0EE608A51EC180B09F08AFA0490714988
:10256000496901F5617009F0E0FA41EC190B6E4917
:102570009FED6E2B9FED6F1BB0EE490AF0EE690ADE
:1025800008688047B0EE408AF0EE608A51EC180B84
:1025900009F06EFA0590A7E06249096801F56170DB
:1025A00009F0C3FA41EC190B5F499FED642B9FEDD5
:1025B000611BB0EE490AF0EE690A08688047B0EE88
:1025C000408AF0EE608A51EC180B09F051FA009045
:1025D0005449496801F5617009F0A7FA41EC190BFB
:1025E00051499FED562B9FED531BB0EE490AF0EE7B
:1025F000690A08688047B0EE408AF0EE608A51ECC4
:10260000180B09F035FA01904649896801F56170A7
:1026100009F08BFA41EC190B43499FED482B9FEDD4
:10262000451BB0EE490AF0EE690A08688047B0EE33
:10263000408AF0EE608A51EC180B09F019FA02900A
:102640003849C96801F5617009F06FFA41EC190B5E
:1026500035499FED3A2B9FED371BB0EE490AF0EE5E
:10266000690A08688047B0EE408AF0EE608A51EC53
:10267000180B09F0FDF903902A49096901F5617009
:1026800009F053FA41EC190B27499FED2C2B9FEDD4
:10269000291BB0EE490AF0EE690A08688047B0EEDF
:1026A000408AF0EE608A51EC180B09F0E1F90490D1
:1026B0001C49496901F5617009F037FA41EC190BC1
:1026C00019499FED1E2B9FED1B1BB0EE490AF0EE42
:1026D000690A08688047B0EE408AF0EE608A51ECE3
:1026E000180B09F0C5F905904FF080400099FEF7EE
:1026F00002FF14480199FEF700FF12480299FEF705
:10270000FAFE10480399FEF7F4FE0E480499FEF70E
:10271000EEFE4FF080400599FEF7EFFE06B0BDECEF
:10272000048B10BD7C100020D409002000000000A4
:10273000001890400000000000B09D400000000024
:1027400000208C400004004010B52DED0A8B04469B
:102750004A4890F8FC08012805D1494806F06AFB70
:10276000BDEC0A8B10BD454890F8FF08D8BB454921
:102770000968888809F041FA41EC1C0B9FED420B77
:1027800053EC102B09F0DAFC41EC1B0B9FED400BD6
:1027900053EC102B09F0C6FA41EC190B3748D0F86E
:1027A000E80800EE100AB8EEC00ADFED3B0A20EEA2
:1027B000200A10EE101A084609F0AAFD41EC1A0B87
:1027C00053EC192B08F004FF41EC180B09F050F9F9
:1027D0002A49C1F8E808D1F8E80809F0A6F941EC5F
:1027E000190B2E4900E015E09FED2D2B9FED2E1BC0
:1027F000B0EE490AF0EE690A08688047B0EE408AF8
:10280000F0EE608A51EC180B09F032F91B49C1F85F
:10281000E808A5E7264890ED080A10EE101A0846C9
:1028200009F076FD41EC180B1C499FED222B9FED22
:10283000231BB0EE480AF0EE680A0868804710488B
:1028400080ED020B214606F0A5F9B0EE409AF0EEBD
:10285000609A12499FED122B9FED131B0868804769
:10286000B0EE408AF0EE608A51EC180B09F000F9E6
:102870000249C1F8E80800BF72E700002800002004
:10288000E8040020B40A00200000000000407F405F
:10289000000000A09999F93FCCCC4C3ED40900200F
:1028A00000000000000000000000800C00C082401A
:1028B0008009002000000000000059C00000000056
:1028C0000000594070B504460D4603F031FF03F097
:1028D00081FF03F0F9F8B6EE000A024880ED000A25
:1028E00070BD0000AC0A002070B587B03448007895
:1028F000012862D13348007801280AD1002005E080
:102900003149095C0DF80010411CC8B21928F7DBE9
:1029100009E0002005E02D49095C0DF80010411C7C
:10292000C8B21928F7DB00202549087000BF39E03C
:102930000024002316E000EB4002254D05EB820247
:1029400002EB83018A785AB10D786D1C1DF80520C1
:102950004D78EA408D782A40CD78AA40144300BFD4
:10296000591CCBB2032BE6DBB4F5AF7F14D9A4F529
:10297000AF7100EE101AF8EE400A9FED161A9FEDA7
:10298000160A00EE810ABCEEC00A10EE101A8AB2D6
:10299000124921F8102003E00022104921F81020EC
:1029A000411CC8B20C28C3DB9DF818009DF8171015
:1029B00040EA01200A49088000BF07B070BD00004E
:1029C000280B0020290B00202915002010150020BD
:1029D000A2C600082FA13D3F000061445A15002007
:1029E0002C0B0020014640F21450814201DA0220F3
:1029F0007047B1F5E16F01DD0020F9E70120F7E74D
:102A000010B5134801780078401C114A1070062058
:102A100091FBF0F200FB1210062816D2DFE800F05E
:102A20000306090C0F1200F083FC0FE001F076FFA3
:102A30000CE0FFF767F809E000F03AFD06E003F06C
:102A400003FB03E002F0B6FA00E000BF00BF10BDD8
:102A50002100002010B50446204604F023FF204644
:102A600002F02AFB204604F0C9FF10BD70B52DED21
:102A7000048B00BF1C498868804704460D461B49EB
:102A800003C9221A65EB0101104609F0C9F89FED50
:102A9000180B53EC102B09F045F941EC180B134AB5
:102AA00030C2154B5868154B5B6803F11801134B86
:102AB0005B68B0EE485AF0EE685A90ED024AD0EDED
:102AC000013A90ED003AD1ED022A91ED012AD1EDC3
:102AD000001A93ED0B1AD3ED0A0A93ED090A03F0DD
:102AE00099FEBDEC048B70BD680A002078090020B7
:102AF0008DEDB5A0F7C6B03E040A0020E80900201D
:102B00000146B5EEC00AF1EE10FA05DBF1EEC00A9F
:102B1000C1ED000A00207047DFED030AC1ED000A95
:102B20004FF0FF30F7E70000000000001CB5012166
:102B30000846FDF78FFF03208DF804000420009065
:102B400000208DF8070003208DF805006946024833
:102B5000FDF7C3FE1CBD00000000024010B5034994
:102B60008868804702498868804710BDE8090020CE
:102B7000040A002000B52DED060B2DED068B83B069
:102B8000B0EE618AF0EE428A684606F067FA9FED81
:102B90002F0A28EE000AB0EE408A9FED2C0A28EE9C
:102BA000800AF0EE408AB0EE680A08F097FBB0EEBB
:102BB000409AB0EE480A08F091FBF0EE409AB0EE71
:102BC000680A08F0D3FBF0EE40AAB0EE480A08F01D
:102BD000CDFBB0EE40AA2AEE8A0ADDED0A0A20EE0D
:102BE000200ADDED090A09EEA00A69EE0A0A9DED48
:102BF0000B1A00EE810A8DED000A9DED0A0A20EE07
:102C0000090ADDED0B0A0AEEE00A8DED010A2AEE53
:102C1000A90ADDED0A0A20EE200ADDED090AB1EE6F
:102C20004A1A01EE200A69EE290A9DED0B1A00EE00
:102C3000810A8DED020A9DED000ADDED010A9DED90
:102C4000021A03B0BDEC068B06B000BD34FA8E3C10
:102C50002DE9F0412DED088B07469FED4D0BB0EEB1
:102C6000408AF0EE608A9FED4A0BB0EE409AF0EE9B
:102C7000609A3D4600240026285D2D2801D1601C65
:102C8000C4B221E00A2C02DC285D2A2805D19FED80
:102C9000400BBDEC088BBDE8F081295DA1F130004F
:102CA00008F043FF41EC1B0B53EC182B08F090FC91
:102CB00041EC1A0B9FED380B53EC102B09F032F856
:102CC00041EC180B601CC4B2285D2E2802D0285D90
:102CD0002C28D7D19FED320B53EC102B51EC180B55
:102CE00009F020F841EC180B285D2E2801D1601C5A
:102CF000C4B220E0142C02DC285D2A2802D19FED0A
:102D0000240BC6E7295DA1F1300008F00EFF41EC6D
:102D10001B0B53EC192B08F05BFC41EC1A0B9FEDDD
:102D20001E0B53EC102B08F0FDFF41EC190B701C2F
:102D3000C6B2601CC4B2285D2C28DBD1701CC6B2A0
:102D40000BE09FED170B53EC102B51EC190B08F017
:102D5000E9FF41EC190B701EC6B2002EF1DC287899
:102D60002D280CD153EC192B51EC180B08F030FC2A
:102D700041EC1A0B08F0EEFB41EC100B89E753EC29
:102D8000192B51EC180B08F023FC41EC100B80E7D9
:102D900000000000000000000000000000002440CF
:102DA0009A9999999999B93F10B58AB00446012129
:102DB0000846FDF74FFE0121C804FDF75BFE08221F
:102DC00000212F48FDF7D1FD082201212C48FDF7F5
:102DD000CCFD02208DF824008DF8250000208DF810
:102DE000260001208DF82700089008A92448FDF747
:102DF00074FD0220089008A92148FDF76EFD3420DB
:102E00008DF80C0000208DF80D0002208DF80E00CA
:102E100001208DF80F0003A8FDF7D4FD04940020D5
:102E2000ADF81400ADF81600ADF81800ADF81C00B0
:102E30000C20ADF81A0004A91248FEF71DFD124837
:102E4000124AFF2103686846984711489DE80E0022
:102E50000EC00D480F4AFF210368684698470E4888
:102E60009DE80E000EC0012240F225510548FEF7F4
:102E7000DDFC01210348FEF796FC0AB010BD0000FE
:102E800000000240004C00401C0B0020E01000201D
:102E9000E0120020DF110020EC12002010B50948DC
:102EA00006F098F9FFF7AAFA0748C1683220884768
:102EB00002F0CAFD0448C168C820884700F006F83F
:102EC00010BD000000100020680A00202DE9F04F1E
:102ED0002DED088B85B000208046814604460546CE
:102EE00006460746CF48007810B101280FD106E00A
:102EF00004F096FB012801D1CA49087008E004F0EB
:102F00000BFB012802D10220C649087000E000BF77
:102F100000BFC4480078022804D005B0BDEC088B7F
:102F2000BDE8F08FC04840890102C048D0E90020C8
:102F3000511A60F10000BD4AC2E90010BA48808908
:102F4000002113460CCBA0FB02CA01FB02A100FB2F
:102F50000310410241EADC5000F5FA60C117B44A9F
:102F600003C2B148808801040022AF480089AF4BFA
:102F7000D3E900CBA0FB0C3E02FB0CEC00FB0BCC1E
:102F8000D80940EA4C60081842EBEC12A94905C187
:102F9000A54840884FEAC0314FF00002A248C088DF
:102FA000A24BD3E900CBA0FB0C3E02FB0CEC00FBD8
:102FB0000BCC4FEA132040EA0C60081842EB2C229D
:102FC0009D4905C19A48D0E900304FF4FA61591A79
:102FD00070F100007EDA9548D0E90010A1FB0123D2
:102FE00000FB013301FB0030D10F41EA40084FEAFA
:102FF000E0798F48D0E900A04FF4FA61BAEB010202
:1030000060F10001104608F0A7FD41EC1B0B9FED9D
:103010008B1BB0EE4B0AF0EE6B0A07F05BFDB0EED7
:1030200040AAF0EE60AA9FED870B53EC102B51ECF9
:103030001A0B08F077FE09F017FACDE90201DDE975
:1030400002014D104FEA3004DDE902014FEA900021
:1030500040EA81764FEAA1077548D0E900107B4B22
:10306000C91A70F1FF303BDA7148D0E900205B42A9
:10307000D21840F100011046CDE9002108F06CFDA6
:1030800041EC1A0B9FED6D1BB0EE4A0AF0EE6A0A96
:1030900007F020FDB0EE409AF0EE609A51EC190B6B
:1030A00009F0E2F982468B4607210022AAFB0103C0
:1030B0000BFB01310AFB0211024614194D410B2092
:1030C00000215246A2FB00CE0BFB00E00AFB0100F0
:1030D000401000E005E04FEA3C029619474100BF6E
:1030E00000BF5348D0E90010B1EB080160EB0900C4
:1030F0004F4AC2E900104F48D0E90010091B60EBAD
:1031000005004C4AC2E900104B48D0E90010891B69
:1031100060EB0700484AC2E900104D4800680021F2
:10312000D2E9003CA0FB032A01FB03A100FB0C1128
:10313000500D40EAC12248153E49D1E90031D21A6A
:1031400060EB0101D00B40EA4140C913384AC2E9A3
:1031500002011046D0E902200023D21A984100DA79
:10316000DBE63349D1E90221104609F0FFF800EE11
:10317000100ADFED380A80EE201AB0EE419ADFED3A
:10318000360AB0EE490A07F09FF9F7EE000A30EE72
:10319000C00ADFED320A20EE200A254880ED040A3D
:1031A0002F494868804700EE100AB8EE408A204850
:1031B000D0ED040AB0EE600A2A4804F0B3FDF0EE48
:1031C000408A294903C909F0D1F800EE100A38EE07
:1031D000400A1748D0ED040A78EEE00A80EE801A23
:1031E00011EE10AA504609F093F89FED200B53EC16
:1031F000102B08F097FD08F0B9F90D4948619FEDD3
:103200001D0A38EEC00A084680ED040A18EE100ABE
:1032100009F08CF9144A03C200200249087000BF6B
:103220007BE60000340A002028100020180A002045
:1032300010100020280A0020200A002000000000B2
:1032400000000040000000000000144024FAFFFFCE
:10325000300A002080E6C547AEDC423E002A2D47FA
:10326000680A002038100020480A002000000000F2
:1032700000408F40000082C210B52DED028B044645
:10328000204608F0BAFC41EC180B9FED1A0B53ECEA
:10329000102B08F00BFD03D20120BDEC028B10BDFA
:1032A000204608F0AAFC41EC180B9FED140B53ECE0
:1032B000102B08F035FE01D20320EEE7204608F07F
:1032C0009CFC41EC180B9FED0F0B53EC102B08F0FE
:1032D000EDFC0DD2204608F090FC41EC180B9FED60
:1032E0000B0B53EC102B08F01BFE01D20220D4E78D
:1032F0000020D2E70000000000406F400000000006
:10330000007087400000000000C082400000000004
:103310000000794010B504494868804703480168B7
:103320004FF41650884710BD380A0020F00A0020DC
:103330007CB50020019000900124AA222146641C43
:10334000554842542146641C425401222146641CC3
:10335000425400222146641C42545048406890ED7B
:10336000000ADFED4F0A20EE200ABDEEC00A10EE83
:10337000100A80B201909DF805202146641C464841
:1033800042549DF804202146641C4254434840683E
:1033900090ED010ADFED420A20EE200ABDEEC00AE0
:1033A00010EE100A80B201909DF805202146641CA1
:1033B000394842549DF804202046611CCCB236495D
:1033C0000A543648406890ED020ADFED350A20EED7
:1033D000200ABDEEC00A10EE100A80B201909DF8DE
:1033E00005202046611CCCB22B490A549DF80420CC
:1033F0002046611CCCB228490A542A4890ED020AA2
:10340000DFED270A20EE200ABCEEC00A8DED000A8F
:103410009DF803202046611CCCB21F490A549DF838
:1034200002202046611CCCB21B490A549DF80120A1
:103430002046611CCCB218490A549DF80020204651
:10344000611CCCB214490A54174802782046611C0A
:10345000CCB211490A5400222046611CCCB20E495C
:103460000A54601F08710025012005E00A49095C23
:103470002944CDB2411CC8B2A042F7DB2046611CF2
:10348000CCB205490D54601E0870084821464268B8
:10349000014890477CBD0000F00B00204C09002043
:1034A0000000C84280090020E8090020100B00201D
:1034B00038B5002000900124AA222146641C45480A
:1034C00042542146641C425406222146641C425444
:1034D00000222146641C42543F480068008880B2A4
:1034E00000909DF801202146641C3A4842549DF802
:1034F00000202146641C425437480068808880B20E
:1035000000909DF801202146641C324842549DF8E9
:1035100000202046611CCCB22E490A542E48006877
:10352000008980B200909DF801202046611CCCB239
:1035300028490A549DF800202046611CCCB2254938
:103540000A5425480068808980B200909DF80120C7
:103550002046611CCCB21F490A549DF80020204629
:10356000611CCCB21B490A541C48006890ED000A4B
:10357000DFED1B0A20EE200ABCEEC00A10EE100A96
:1035800080B200909DF801202046611CCCB2114908
:103590000A549DF800202046611CCCB20D490A5403
:1035A000601F08710025012005E00A49095C2944D3
:1035B000CDB2411CC8B2A042F7DB2046611CCCB2A0
:1035C00004490D54601E08700648214642680148AF
:1035D000904738BDF00B0020980A0020E00A002038
:1035E0000000C842100B002070B504460D460720AD
:1035F0000F490870AA2048708870EF20C870022018
:103600000871084645718C710026012005E00849C3
:10361000095C3144CEB2411CC8B20728F7DB04482C
:10362000C6710448082142680148904770BD0000F7
:10363000F00B0020100B002010B52DED028B86B092
:10364000044603A805F00AFD684605F007FD684832
:1036500090F8FC08012810D1654805F0EBFB6448A0
:10366000983005F0E7FB634805F0E4FB6249C86861
:10367000804706B0BDEC028B10BD6048006890ED3D
:10368000000A10EE101A084608F042FE584AC2E935
:1036900002015A48006890ED010A10EE101A08461F
:1036A00008F036FE524A9832C2E9020153480068D7
:1036B00090ED020A10EE101A084608F029FE4D4A55
:1036C000C2E9020121464A4805F028F9B0EE408AD5
:1036D000F0EE608A51EC180B07F048FF009021468D
:1036E0004348983005F01AF9B0EE408AF0EE608A4F
:1036F00051EC180B07F03AFF019021463D4805F0C8
:103700000DF9B0EE408AF0EE608A51EC180B07F02C
:103710002DFF02909DED000AB1EE400ADDED010A99
:1037200030EE600ADDED020A70EE200A3048D0F873
:10373000E80800EE100AB8EEC00A30EE800ABDEECE
:10374000C00A2D48006880ED000A9DED000AB1EE28
:10375000400ADDED010A30EE200ADDED020A70EECE
:10376000600A2348D0F8E80800EE100AB8EEC00A54
:1037700030EE800ABDEEC00A1F48006880ED010AE5
:103780009DED000ADDED010A30EE200ADDED020AB2
:1037900070EE200A1648D0F8E80800EE100AB8EEDD
:1037A000C00A30EE800ABDEEC00A1348006880ED02
:1037B000020A9DED000ADDED010A30EE600ADDED42
:1037C000020A70EE600A0A48D0F8E80800EE100A13
:1037D000B8EEC00A30EE800ABDEEC00A06480068A6
:1037E00080ED030A044881680120884700BF40E754
:1037F0002800002058010020980A00204C090020D1
:10380000F0B52DED108B8BB005469FEDFE0B8DEDC9
:10381000080B05A805F022FC02A805F01FFCFB48D8
:1038200090F8FC08012825D1F94805F003FBF84879
:10383000983005F0FFFAF74805F0FCFAF6484068C2
:1038400090ED020AF54880ED3B0AF3484068D0ED60
:10385000020AB0EE600A03F093FF10EE106A3046E1
:1038600008F056FDE94A02F53E7203C20BB0BDEC0A
:10387000108BF0BDE848406890ED020AE748D0EDB3
:103880003B0A30EE608A9FEDE60AB4EEC08AF1EEA4
:1038900010FA06DD9FEDE30A38EE400AB0EE408AEA
:1038A00018E09FEDE10AB4EEC08AF1EE10FA06D2FC
:1038B0009FEDDC0A38EE000AB0EE408A0AE000BF55
:1038C000B0EEC80ADFEDD60AB4EEE00AF1EE10FA67
:1038D00000D200BFD5490968488808F08EF941EC4C
:1038E0001E0B9FEDD30B53EC102B08F027FC41EC83
:1038F0001D0B07F03BFE09EE100ACF49F2EE040A59
:10390000B0EE490A4868804710EE106A304608F069
:10391000FFFC41EC1C0B9FEDC90B53EC102B07F087
:1039200013FF41EC1B0B9FEDC70B53EC102B08F062
:10393000F9F941EC1A0B07F019FE08EE900AB0EE07
:10394000680A03F01DFF8DED050AB849096808886B
:1039500008F053F941EC1E0B9FEDB50B53EC102B07
:1039600008F0ECFB41EC1D0B07F000FE09EE100A1D
:10397000B149F2EE040AB0EE490A4868804710EEF9
:10398000106A304608F0C4FC41EC1C0B9FEDAB0BF9
:1039900053EC102B07F0D8FE41EC1B0B9FEDA90B4D
:1039A00053EC102B08F0BEF941EC1A0B07F0DEFDCA
:1039B00008EE900AB0EE680A03F0E2FE8DED060A0A
:1039C0009DED061AF0EE410A9DED051AB0EE410A92
:1039D0009949B0EE481AC86880478DED050ACDEDCB
:1039E000060A8DED071A9DED050ADFED980A20EE17
:1039F000200A10EE101A084608F08AFC41EC190B58
:103A0000824890ED721BB0EE410AF0EE610A53EC71
:103A1000102B9FED8F1B51EC110B08F083F941EC3B
:103A20001A0B53EC192B07F0D3FD784A02F5E47218
:103A300003C29DED060ADFED850A20EE200A10EE96
:103A4000101A084608F064FC41EC190B6F4890ED21
:103A5000981BB0EE410AF0EE610A53EC102B9FED7B
:103A60007C1B51EC110B08F05DF941EC1A0B53EC87
:103A7000192B07F0ADFD654A02F5187203C26648BE
:103A80004068D0ED000AB0EE600A03F079FE10EE57
:103A9000106A304608F03CFC5D4AC2E902015E480B
:103AA0004068D0ED010AB0EE600A03F069FE10EE46
:103AB000106A304608F02CFC554A9832C2E90201DF
:103AC0002946534804F02AFFB0EE40AAF0EE60AA5F
:103AD00059499FED612B9FED621B08688047B0EE4E
:103AE000409AF0EE609A51EC190B07F03FFD0290FE
:103AF00029464748983004F011FFB0EE40AAF0EE96
:103B000060AA4D499FED542B9FED551B08688047D7
:103B1000B0EE409AF0EE609A51EC190B07F026FDDA
:103B200003909DED020ADFED490A20EE200A10EE17
:103B3000101A084608F0ECFB41EC190B334890EDE5
:103B4000001BB0EE410AF0EE610A53EC102B9FED22
:103B5000401B51EC110B08F0E5F841EC1A0B53EC4B
:103B6000192B07F035FD294A03C29DED030ADFED4D
:103B7000370A20EE200A10EE101A084608F0C8FB9B
:103B800041EC190B214890ED261BB0EE410AF0EEF6
:103B9000610A53EC102B9FED2E1B51EC110B08F01A
:103BA000C1F841EC1A0B53EC192B07F011FD174A21
:103BB000983203C218484068D0ED020AB0EE600A9D
:103BC00003F0DEFD10EE106A304608F0A1FB114A4A
:103BD000C2E902010D4890EDC00B8DED080B90ED90
:103BE000C02BB0EE420AF0EE620A90EDBE2BB0EEB2
:103BF000421AF0EE621A53EC102B51EC110B08F044
:103C00009DFA31E0000000000000000028000020C4
:103C1000F0010020200300204C090020280800208B
:103C2000000034430000B443000034C3B40A002051
:103C30000000000000407F40D40900200000000088
:103C400000408F400000000000003440CDCCCC3D4F
:103C5000000000C0CCCCEC3F00000020FB21E9BFFD
:103C600000000020FB21E93F41EC190B9FED790B8F
:103C700053EC102B08F054F912D2784890EDC01B89
:103C8000B0EE410AF0EE610A9FED751B53EC112B6B
:103C900051EC100B07F09CFC734AC2E902012DE0C5
:103CA0006E4890EDC02BB0EE420AF0EE620A90ED45
:103CB000BE2BB0EE421AF0EE621A53EC102B51EC10
:103CC000110B08F03BFA41EC190B9FED680B53EC1C
:103CD000102B07F0EBFF11D2604890EDC01BB0EE47
:103CE000410AF0EE610A9FED5E1B53EC112B51EC83
:103CF000100B08F023FA5C4AC2E9020129465A482F
:103D000004F00CFEB0EE40AAF0EE60AA59491FED97
:103D10002E2B1FED2D1B08688047B0EE409AF0EE69
:103D2000609A51EC190B07F021FC0490524A12687A
:103D3000D088514AD16888470446022C61D09DED55
:103D4000080B464880EDBE0B4B490968C88807F050
:103D500054FF41EC1F0B1FED4A0B53EC102B08F0E6
:103D600015F941EC1E0B07F001FC08EE900A4149E1
:103D7000F2EE040AB0EE680A4868804710EE107A46
:103D8000384608F0C5FA41EC1D0B1FED540B53ECFF
:103D9000102B07F0D9FC41EC1C0B1FED560B53EC1C
:103DA000102B07F0BFFF41EC1B0B07F0DFFB01906E
:103DB0009DED010A03F0E4FC5FED5C0A20EE200AB1
:103DC00010EE106A304608F0A3FA41EC190B2348B4
:103DD00090ED4C1BB0EE410AF0EE610A53EC102B53
:103DE0001FED651B51EC110B07F09CFF41EC1A0B0A
:103DF00053EC192B07F0ECFB184A02F5987203C23A
:103E000025E09DED040A5FED6F0A20EE200A10EE1A
:103E1000101A084608F07CFA41EC190B0F4890ED97
:103E20004C1BB0EE410AF0EE610A53EC102B1FED73
:103E3000781B51EC110B07F075FF41EC1A0B53EC9A
:103E4000192B07F0C5FB054A02F5987203C200BFA3
:103E50000CE5000000000060FB2109402800002064
:103E600000000060FB2119402003002000000060DA
:103E7000FB2109C0D4090020B40A002010B586B087
:103E8000734805F00AFA3C21714805F081FA704840
:103E900005F02EFA03216E4805F07AFA6C4805F019
:103EA00027FA6B4805F0F9F93D21694805F070FAE9
:103EB000674805F01DFA002409E0654805F041FA5D
:103EC00004A90855624805F06AF9601CC4B2052CC3
:103ED000F3DB5F4805F035FA8DF815005C4805F016
:103EE000C1F95B4805F09BF99DF811009DF8101091
:103EF00040EA012000B2404200EE100AB8EEC00ACB
:103F00005448406880ED030A9DF813009DF8121094
:103F100040EA012000B2404200EE100AB8EEC00AAA
:103F20004C48406880ED050A9DF815009DF8141076
:103F300040EA012000B200EE100AB8EEC00A45487F
:103F4000406880ED040A4348406800F10C01414894
:103F5000406800F10C0291ED021AD1ED010A91EDD9
:103F6000000A3D48144604F03CF884ED000AC4ED14
:103F7000010A84ED021A01A805F070F8354840687E
:103F800090ED030A33484068D0ED090A30EE600A2C
:103F900030484068D0ED060A80EE201A8DED011AF7
:103FA0002C48406890ED040A2A484068D0ED0A0A7F
:103FB00030EE600A27484068D0ED070A80EE201AEC
:103FC0008DED021A2348406890ED050A21484068AB
:103FD000D0ED0B0A30EE600A1E484068D0ED080AAA
:103FE00080EE201A8DED031A9DED010A20EE000AE5
:103FF000DDED020A9DED021A00EE810ADDED030AF5
:104000009DED031A00EE810A1248406880ED0C0A0B
:1040100010484068D0ED0C0AB7EE001A30EEC10A25
:10402000F0EEC00A9FED0D0AF4EEC00AF1EE10FAB0
:1040300008D20020074908700846406801A90EC947
:104040000EC002E001200349087006B010BD000058
:10405000840F0020040A0020900F0020CDCC4C3E9D
:1040600010B501F0C5FB01F059FC02F0D9F910BD03
:1040700000B589B001210846FCF7FCFC4FF08040F8
:10408000FCF7C4FF4FF4FA60029053480068400800
:1040900000EE100AB8EE400A9FED501AC0EE010A79
:1040A0009FED4F0A80EE801ABCEEC10A10EE100A96
:1040B000401E80B2ADF804000020ADF80C00ADF851
:1040C000060001A94FF08040FDF746FA6020ADF8E8
:1040D00010000120ADF812004FF46170069000202E
:1040E000ADF81C0004A94FF08040FDF75DF90821F0
:1040F000C806FDF7A9F904A94FF08040FDF7AEF915
:104100000821C806FDF7E6F901218807FCF762FFE0
:1041100001218807FCF76DFF01210220FCF7AAFCB2
:104120003048FCF773FF4FF4FA6002902A480068A9
:10413000400800EE100AF8EE400A9FED281A80EEC3
:10414000810ADFED270A80EE201ABCEEC10A10EECC
:10415000100A401E80B2ADF804000020ADF80C003B
:10416000ADF8060001A91F48FDF7F6F96020ADF88B
:1041700010000120ADF812004FF46170069000208D
:10418000ADF81C0004A91748FDF766F8082115488A
:10419000FDF7A0F804A91348FDF7A6F80821114877
:1041A000FDF7F4F804A90F48FDF7FEF808210D48C3
:1041B000FDF74AF904A90B48FDF750F90821094811
:1041C000FDF788F901210748FCF704FF01210548A4
:1041D000FCF70FFF09B000BD4C0B00200000FA43B4
:1041E0000000FA440004004010B52DED048B84B0AB
:1041F000044601A804F032FF354890F8FC08012875
:1042000006D1344804F016FE04B0BDEC048B10BD9A
:104210002F4890F8FF0818B92E4804F00BFEF3E77A
:104220002D4890ED050A10EE101A084608F070F8B7
:1042300041EC180B29499FED2A2B9FED2B1BB0EE6B
:10424000480AF0EE680A08688047224880ED020BB1
:10425000214604F063FBB0EE409AF0EE609A1F49ED
:104260009FED232B9FED241B08688047B0EE408A0A
:10427000F0EE608A51EC180B07F078F903909DED91
:10428000030ADFED1F0A20EE200A10EE101A08467E
:1042900008F03EF841EC180B1A4890ED301BB0EED8
:1042A000410AF0EE610A53EC102B9FED171B51EC05
:1042B000110B07F037FD41EC190B53EC182B07F0ED
:1042C00087F9034A02F5986203C200BF9CE7000029
:1042D00028000020B006002080090020D40900201A
:1042E00000000000000044C0000000000000444046
:1042F0000000000000004EC00000000000004E4022
:10430000CDCC4C3F28040020000000809999C93F83
:1043100030B52DED0E8B83B00546684604F09EFE49
:10432000A24890F8FC0801281BD1A14804F082FDA6
:104330009F4830309F4BD3E900219B68C0E91D1393
:104340000267703090ED020A10EE101A084607F06E
:10435000DFFF974A503AC2E9140103B0BDEC0E8B5F
:1043600030BD924890F8FF0888B9924890ED020A53
:1043700010EE101A084607F0CBFF0A4601468C489B
:104380005038C0E91412503004F054FDE5E7884875
:10439000A03090ED020A10EE101A084607F0B8FFA0
:1043A00041EC180B8248A03090ED020ADFED820A42
:1043B00030EE200A10EE101A084607F0A9FF41EC73
:1043C000190B7B49503991ED141BB0EE410AF0EE08
:1043D000610A7A49B0EE482AF0EE682AB0EE491A2E
:1043E000F0EE691A086880477148503880ED140B68
:1043F000F03090ED020A10EE101A084607F088FF20
:1044000041EC180B6A48A03090ED020A10EE101A29
:10441000084607F07DFF41EC1B0B9FED690B53EC49
:10442000102B07F0D5F841EC190B624890ED020A09
:1044300010EE101A084607F06BFF41EC1A0B5F49AB
:10444000B0EE482AF0EE682AB0EE491AF0EE691A8A
:10445000B0EE4A0AF0EE6A0A08688047544880EDD8
:10446000020B294604F05AFAB0EE409AF0EE609A38
:1044700052499FED552B9FED561B08688047B0EEC3
:10448000408AF0EE608A51EC180B07F06FF802904A
:10449000514A12689088504AD16888470446022CD5
:1044A00056D0444890ED020A10EE101A084607F064
:1044B0002FFF3F4A503AC2E91401474909688888EA
:1044C00007F09BFB41EC1E0B9FED440B53EC102BB4
:1044D00007F034FE41EC1D0B9FED420B53EC102B0B
:1044E00007F032F941EC1C0B9FED400B53EC102B05
:1044F00007F018FC41EC1B0B9FED350B53EC102B18
:1045000007F010FC41EC1A0B9FED3A0B53EC102B0B
:1045100007F008FC41EC180B384890EDA21BB0EEF8
:10452000410AF0EE610A53EC102B9FED351B51EC64
:10453000110B07F0F7FB41EC190B53EC182B07F0AC
:1045400047F80A460146194800F5D16006C02AE03E
:1045500000202D4908709DED020ADFED2C0A20EEA7
:10456000200A10EE101A084607F0D2FE41EC180B94
:10457000224890EDA21BB0EE410AF0EE610A53EC26
:10458000102B9FED1F1B51EC110B07F0CBFB41ECE7
:10459000190B53EC182B07F01BF80A460146034889
:1045A00000F5D16006C000BFD7E60000280000205B
:1045B00078080020800900200000FA43D409002078
:1045C000000000000070874000000000000044C0B0
:1045D0000000000000004440B40A00200000000079
:1045E00000407F400000000000408F4000000000BD
:1045F00000000040000000A09999B93F2804002065
:10460000000000C0CCCCEC3F40090020CDCCCC3D1C
:1046100010B52DED0A8BB749088807F0EEFA41EC8A
:10462000180B9FEDB50B53EC102B07F079FC26D837
:10463000B348006807F06CFE41EC1A0BAD490888DE
:1046400007F0DBFA41EC1C0B9FEDAB0B53EC102B8E
:1046500007F074FD41EC1B0B53EC1A2B07F062FBC7
:1046600041EC190B9FEDA70B53EC102B06F0B0FF9C
:1046700041EC180B07F02CFAA449088002E0002056
:10468000A24908809B49488807F0B7FA41EC180B0B
:104690009FED990B53EC102B07F042FC26D898485D
:1046A000006807F035FE41EC1A0B9249488807F084
:1046B000A4FA41EC1C0B9FED900B53EC102B07F070
:1046C0003DFD41EC1B0B53EC1A2B07F02BFB41EC8F
:1046D000190B9FED8C0B53EC102B06F079FF41EC7E
:1046E000180B07F0F5F98949488002E00020874956
:1046F00048808049888807F080FA41EC180B9FEDCC
:104700007E0B53EC102B07F00BFC26D87C4800687E
:1047100007F0FEFD41EC1A0B7649888807F06DFA28
:1047200041EC1C0B9FED740B53EC102B07F006FDB6
:1047300041EC1B0B53EC1A2B07F0F4FA41EC190B6C
:104740009FED700B53EC102B06F042FF41EC180B61
:1047500007F0BEF96D49888002E000206B4988802F
:104760006449C88807F049FA41EC180B9FED620BC9
:1047700053EC102B07F0D4FB26D86148006807F0F3
:10478000C7FD41EC1A0B5B49C88807F036FA41ECCB
:104790001C0B9FED590B53EC102B07F0CFFC41EC99
:1047A0001B0B53EC1A2B07F0BDFA41EC190B9FEDD4
:1047B000550B53EC102B06F00BFF41EC180B07F0D8
:1047C00087F95249C88002E000205049C880494911
:1047D000088907F012FA41EC180B9FED470B53ECD8
:1047E000102B07F09DFB26D84548006807F090FD88
:1047F00041EC1A0B3F49088907F0FFF941EC1C0B0B
:104800009FED3D0B53EC102B07F098FC41EC1B0B7C
:1048100053EC1A2B07F086FA41EC190B9FED390B7C
:1048200053EC102B06F0D4FE41EC180B07F050F9B6
:104830003649088102E00020344908812D49488921
:1048400007F0DBF941EC180B9FED2B0B53EC102B11
:1048500007F066FB26D82A48006807F059FD41ECAE
:104860001A0B2449488907F0C8F941EC1C0B9FED4D
:10487000220B53EC102B07F061FC41EC1B0B53ECAB
:104880001A2B07F04FFA41EC190B9FED1E0B53EC5E
:10489000102B06F09DFE41EC180B07F019F91B498F
:1048A000488102E00020194948811848408800EEFC
:1048B000900AF8EE600AB0EE600A154803F0E6FBD5
:1048C000BCEEC00A10EE100A10494880114800885A
:1048D0000A2803DD00201049087407E00D4800880D
:1048E000401C0C49088001200B490874BDEC0A8B60
:1048F00010BD0000941000200000000000409F4008
:10490000AC0A00200000000000000000A010002001
:10491000AC100020B00A0020B40A00207CB50020B2
:10492000019000900124AA222146641C7B48425435
:104930002146641C425402222146641C4254002237
:104940002146641C42547648406890ED060ABDEE4C
:10495000C00A10EE100A00B201909DF80520214611
:10496000641C6E4842549DF804202146641C425445
:104970006B48406890ED070ABDEEC00A10EE100AC1
:1049800000B201909DF805202146641C6348425402
:104990009DF804202046611CCCB260490A5460484E
:1049A000406890ED080ABDEEC00A10EE100A00B291
:1049B00001909DF805202046611CCCB257490A544D
:1049C0009DF804202046611CCCB254490A54544836
:1049D000406890ED090ABDEEC00A10EE100A00B260
:1049E00001909DF805202046611CCCB24B490A5429
:1049F0009DF804202046611CCCB248490A5448481E
:104A0000406890ED0A0ABDEEC00A10EE100A00B22E
:104A100001909DF805202046611CCCB23F490A5404
:104A20009DF804202046611CCCB23C490A543D4804
:104A30000078642110FB01F001909DF805202046CC
:104A4000611CCCB235490A549DF804202046611CF3
:104A5000CCB232490A543348406890ED030ABDEEA7
:104A6000C00A10EE100A00B201909DF80520204601
:104A7000611CCCB229490A549DF804202046611CCF
:104A8000CCB226490A542748406890ED040ABDEE8E
:104A9000C00A10EE100A00B201909DF805202046D1
:104AA000611CCCB21D490A549DF804202046611CAB
:104AB000CCB21A490A541B48406890ED050ABDEE75
:104AC000C00A10EE100A00B201909DF805202046A1
:104AD000611CCCB211490A549DF804202046611C87
:104AE000CCB20E490A54601F08710025012005E070
:104AF0000A49095C2944CDB2411CC8B2A042F7DB87
:104B00002046611CCCB205490D54601E0870064851
:104B100021464268014890477CBD0000F00B002010
:104B2000E8090020040A0020100B002070B506469A
:104B30000C4600250A48C079A04201DA002070BD69
:104B4000002509E0701907498A680549904708B9A6
:104B50000020F4E7681C85B2A542F3DB0120EEE7F4
:104B6000041500201C0B002031B52DED040B2DED9C
:104B7000108B86B005469FED910AB0EE40FA9FED8E
:104B80008F0AF0EE408A9FED8D0A8DED040A002415
:104B90008B480088401C8A490880284607F02DF879
:104BA00041EC1A0B9FED870B53EC102B06F0CCFD5C
:104BB00041EC190B06F0DAFC08EE100A8348006895
:104BC00090ED040A10EE101A084607F0A1FB41EC24
:104BD0001A0B9FED7F0B53EC102B07F0A3F841EC61
:104BE000190B06F0C3FC04909DED180A10EE101A84
:104BF000084607F08DFB41EC1A0B9FED750B53EC4B
:104C0000102B07F08FF841EC190B06F0AFFC0FEEFC
:104C1000900A7148D0ED020A9DED040A30EE600A58
:104C2000F0EE408A9FED6D0A68EE800A6C4890EDC8
:104C3000000A00EE880A80ED000A9FED6A0A68EE1D
:104C4000800A694890ED000A00EE880A80ED000AAB
:104C50009FED660A68EE800A654890ED000A00EE56
:104C6000880A80ED000A5C4890ED080A614880EDF2
:104C7000000A5B4890ED000A3FEE800A564880ED3E
:104C8000080A90ED080A5B48D0ED000A30EE200AD1
:104C900020EE080A10EE101A084607F039FB41EC26
:104CA0001A0B9FED550B53EC102B06F04DFD41EC0C
:104CB000190B06F05BFC0FEE100A18EE100A07F055
:104CC00027FB41EC1C0B1FEE100A07F021FB9FEDA8
:104CD0004C0B53EC102BCDE900019DED000B51EC7A
:104CE000100B07F01FF841EC1E0B3B4890ED050A36
:104CF00010EE101A084607F00BFB53EC1E2BCDE903
:104D000002019DED020B51EC100B06F061FC41EC31
:104D10001D0B53EC1C2B07F005F841EC1A0B3A481D
:104D2000006807F0F5FA41EC1B0B53EC1A2B06F068
:104D30004FFC41EC190B06F019FC3349086008469A
:104D400090ED000A2A48D0ED000A30EE200A2248F1
:104D500080ED020A2D4890ED000A30EE0F0A80ED3A
:104D6000000A90ED000A2048D0ED000A30EE200A3B
:104D7000194880ED050A12480088012819DB3C24F7
:104D80000CE0601E224901EB800090ED000A08460D
:104D900000EB840080ED000A601E84B2002CF0DC81
:104DA0000D4890ED020A1A4880ED000A00200449DF
:104DB000088006B0BDEC108B05B030BD00000000CF
:104DC000C40900200000000000408F40380A002085
:104DD0000000000000005940800900206F12833D50
:104DE000AC0900208FC2F53EB0090020CDCC4C3F6D
:104DF000B4090020B80900200000000000000040B5
:104E0000000000000000E03FC0090020BC090020B5
:104E1000EC0C00201CB501210846FBF71BFE01210C
:104E20000220FBF717FEC820009002208DF8040036
:104E300003208DF8050000208DF8060001208DF874
:104E4000070069461A48FBF748FD0122032118486C
:104E5000FBF78BFD022206211548FBF786FD022297
:104E600007211348FBF781FD40F203400090022028
:104E70008DF8040003208DF8050000208DF8060051
:104E800001208DF8070069460A48FBF726FD02223B
:104E900000210848FBF769FD022201210548FBF7C4
:104EA00064FD01220A210348FBF75FFD1CBD0000E1
:104EB00000000240000402403EB5044668469FEDF3
:104EC000370A80ED000A9FED350A80ED010A9FED5B
:104ED000330A80ED020A00BF314A526892ED000A9F
:104EE000B0EE402A2E4A526892ED010AF0EE401AC6
:104EF0002C4A526802F118002B4A916890ED021A70
:104F0000D0ED010A90ED000A88478DED000ACDED45
:104F1000010A8DED021A9DED000ADFED240A80EEF4
:104F2000201A8DED001A9DED000ADFED210A20EE1A
:104F3000200A8DED000A9DED010ADFED1C0A80EECE
:104F4000201A8DED011A9DED010ADFED190A20EE00
:104F5000200A8DED010A9DED020ADFED140A30EE04
:104F6000600A8DED020A9DED020ADFED100A80EE67
:104F7000201A8DED021A9DED020ADFED0D0A20EEDA
:104F8000200A8DED020A9DED021ADDED010A9DED6C
:104F9000000A2046FFF7E8FD3EBD000000000000CB
:104FA0004C090020E8090020D409002000F07F45CA
:104FB000CDCC1C4138B5002000900124AA22214606
:104FC000641C394842542146641C4254072221463D
:104FD000641C425400222146641C42543348006839
:104FE00090ED040ADFED320A20EE200ABDEEC00A81
:104FF0008DED000A9DF803202146641C2A48425486
:105000009DF802202146641C42549DF8012021464F
:10501000641C42549DF800202046611CCCB22249F9
:105020000A542248006890ED050ADFED210A20EEBF
:10503000200ABDEEC00A8DED000A9DF8032020462F
:10504000611CCCB218490A549DF802202046611C0C
:10505000CCB215490A549DF801202046611CCCB2FF
:1050600011490A549DF800202046611CCCB20E491B
:105070000A54601F08710025012005E00A49095CF7
:105080002944CDB2411CC8B2A042F7DB2046611CC6
:10509000CCB205490D54601E08700648214642688E
:1050A0000148904738BD0000F00B0020380A00206E
:1050B00000401C46100B002070B52DED028B0446FD
:1050C00085490968488906F098FD41EC180B9FED69
:1050D000830B53EC102B06F0E9FD1BD281480068CE
:1050E00090F8FF0858B1804800880A2807DD0020A2
:1050F0007C49096881F8FF087B49088028E07948E5
:10510000006890F8FF0818B377480088401C76497B
:1051100008801DE07348006890F8FF0801280CD053
:10512000714800880A2808DD01206E49096881F865
:10513000FF0800206C4908800AE06A48006890F87F
:10514000FF08012804D068480088401C6649088090
:105150006448006890F8FC08012843D100206349A6
:1051600008805D490968888806F047FD41EC180B06
:105170009FED5F0B53EC102B06F098FD01D201253B
:1051800000E0002554490968C88806F036FD41EC66
:10519000180B9FED590B53EC102B06F0C1FE01D2FA
:1051A000012000E0002028404E49096891F8FD18D0
:1051B00009B9012100E00021084078B15048008879
:1051C00020444F49088008460088B0F5FA6F4EDD4C
:1051D00000204449096881F8FC0848E0002048495B
:1051E000088044E03F48006890F8FD08012804D199
:1051F0003C49096881F8FC0839E0002040490880F2
:1052000035490968888806F0F8FC41EC180B9FEDD9
:10521000380B53EC102B06F049FD01D2012500E0BC
:1052200000252D490968C88806F0E7FC41EC180BF9
:105230009FED310B53EC102B06F072FE01D20120D2
:1052400000E0002005402DB128480088204427496F
:10525000088002E000202549088024480088B0F535
:10526000FA6F04DD01201F49096881F8FC081D4818
:10527000006890F8FC0860B92248008840F00100FE
:10528000204908802048C82102694FF40050904707
:105290000CE01C48008820F001001A4908801A48D8
:1052A0004FF4FA7102694FF4005090470D480068BE
:1052B00090F8FD0830B11348008840F00200114911
:1052C000088005E00F48008820F002000D490880A2
:1052D000BDEC028B70BD0000B40A0020000000008D
:1052E0000000594028090020D2090020CE090020E2
:1052F0000000000000C062400000000000908A40F2
:10530000D009002014000020800A00202DE9F0437D
:1053100089B00025002400270026A046FE48202151
:10532000826801A8904701287ED100BF18E01F2D98
:1053300002D109B0BDE8F08301A8405DAA2801D1DF
:10534000012000E0002001AA691C515CAF2901D1B5
:10535000012100E00021084000B103E0681CC5B253
:10536000202DE4DB00BF01A9E81C085C001DC7B2CA
:105370002C46A81C11F80080002506E0601901A940
:10538000085C3044C6B2681CC5B2BD42F6DBE01909
:1053900001A9085CB042C7D1B8F1120F7ED00CDC75
:1053A000B8F1010F13D0B8F1020F14D0B8F1100FFB
:1053B00021D0B8F1110F72D1F6E0B8F1130F6FD010
:1053C000B8F1140F6DD0B8F1150FF4D105E201203A
:1053D000D249087007E2D24908780978491CD04BB5
:1053E000197000F00BFCCE480078032802DD012084
:1053F000CB490870F7E101AA601D125C01AB201DCA
:10540000185C42EA002000EE100AB8EEC00A10EE66
:10541000101A084606F07CFFC24A1268C2E906016B
:1054200001AAE01D125C00E0DEE101ABA01D185CEA
:1054300042EA002000EE100AB8EEC00A10EE101A80
:10544000084606F065FFB74A1268C2E9080101AADA
:1054500004F10900125C01AB401E185C42EA002016
:1054600000EE100AB8EEC00A10EE101A084606F058
:105470004FFFAC4A1268C2E90A0101AA04F10B000D
:10548000125C01AB401E185C42EA002000EE100ADC
:10549000B8EEC00A10EE101A084603E08EE1A1E152
:1054A00091E195E106F034FF9E4A12689832C2E914
:1054B000060101AA04F10D00125C01AB401E185C4C
:1054C00042EA002000EE100AB8EEC00A10EE101AF0
:1054D000084606F01DFF934A12689832C2E9080197
:1054E00001AA04F10F00125C01AB401E185C42EAF5
:1054F000002000EE100AB8EEC00A10EE101A08469E
:1055000006F006FF874A12689832C2E90A0101AA2A
:1055100004F11100125C01AB401E185C42EA00204D
:1055200000EE100AB8EEC00A10EE101A084606F097
:10553000EFFE7C4A126802F59872C2E9060101AAE0
:1055400004F11300125C01AB401E185C42EA00201B
:1055500000EE100AB8EEC00A10EE101A084606F067
:10556000D7FE704A126802F59872C2E9080101AAD2
:1055700004F11500125C01AB401E185C42EA0020E9
:1055800000EE100AB8EEC00A10EE101A084606F037
:10559000BFFE644A126802F59872C2E90A0110213E
:1055A0003046FEF721F81EE101A9601D095C01AA41
:1055B000201D105C41EA002000EE100AB8EEC00A7F
:1055C000DFED590A80EE201A11EE109A484606F0D7
:1055D0009FFE544A126802F5E472C2E9060101A96D
:1055E000E01D095C01AAA01D105C41EA002000EE4C
:1055F000100AB8EEC00ADFED4C0A80EE201A11EE58
:10560000109A484606F084FE464A126802F5E47293
:10561000C2E9080101A904F10900095C01AA401EC0
:10562000105C41EA002000EE100AB8EEC00ADFED7F
:105630003E0A80EE201A11EE109A484606F068FEE7
:10564000384A126802F5E472C2E90A0101A904F1BC
:105650000B00095C01AA401E105C41EA002000EE2C
:10566000100AB8EEC00ADFED300A80EE201A11EE03
:10567000109A484606F04CFE2A4A126802F5187243
:10568000C2E9060101A904F10D00095C01AA401E4E
:10569000105C41EA002000EE100AB8EEC00ADFED0F
:1056A000220A80EE201A11EE109A484606F030FECB
:1056B0001C4A126802F51872C2E9080101A904F136
:1056C0000F00095C01AA401E105C41EA002000EEB8
:1056D000100AB8EEC00ADFED140A80EE201A11EEAF
:1056E000109A484606F014FE0E4A126802F5187227
:1056F000C2E90A0101A904F11100095C01AA401ED6
:10570000105C41EA002000EE100AB8EEC00ADFED9E
:10571000060A80EE201A09E0100B0020E80900209C
:1057200020000020280900200000C84211EE109A35
:10573000484606F0EDFD2D4A126802F53E72C2E9B8
:10574000060101A904F11300095C01AA401E105CC6
:1057500041EA002000EE100AB8EEC00A5FED0E0A22
:1057600080EE201A11EE109A484606F0D1FD1F4A2D
:10577000126802F53E72C2E9080101A904F11500A0
:10578000095C01AA401E105C41EA002000EE100AEC
:10579000B8EEC00A5FED1C0A80EE201A11EE109AD6
:1057A000484606F0B5FD114A126802F53E72C2E99C
:1057B0000A0111213046FDF717FF14E0122130468F
:1057C000FDF712FF00BF13213046FDF70DFF0AE081
:1057D00014213046FDF708FF05E015213046FDF79E
:1057E00003FF00E000BF00BF00BFA2E528090020C2
:1057F0001FB53C22D021464803F071FCC0B28DF8A1
:1058000008003B22D021424803F069FCC0B28DF869
:1058100009009DF808009DF8091040EA012000B237
:10582000ADF800003E22D021394803F058FCC0B248
:105830008DF80A003D22D021354803F050FCC0B25B
:105840008DF80B009DF80A009DF80B1040EA01202E
:1058500000B2ADF802004022D0212D4803F03FFCF9
:10586000C0B28DF80C003F22D021294803F037FC4C
:10587000C0B28DF80D009DF80C009DF80D1040EAA7
:10588000012000B2ADF80400BDF9000000EE100ADE
:10589000B8EEC00A1F4880ED000ABDF9020000EE14
:1058A000100AB8EEC00A1B4880ED010ABDF90400D9
:1058B00000EE100AB8EEC00A164880ED020A90ED1C
:1058C000000AD0ED0C0A30EE600A80ED060A90ED79
:1058D000010AD0ED0D0A30EE600A80ED070A90ED66
:1058E000020AD0ED0E0A30EE600A80ED080A90ED53
:1058F000081AD0ED070A90ED060A074802F08CF965
:10590000044880ED060AC0ED070A80ED081A1FBDA5
:10591000A00E0020240F0020AC0E00201FB5442252
:10592000D021464803F0DBFBC0B28DF808004322CB
:10593000D021424803F0D3FBC0B28DF809009DF896
:1059400008009DF8091040EA012000B2ADF80000FF
:105950004622D021394803F0C2FBC0B28DF80A00BC
:105960004522D021354803F0BAFBC0B28DF80B00B8
:105970009DF80A009DF80B1040EA012000B2ADF836
:1059800002004822D0212D4803F0A9FBC0B28DF8B7
:105990000C004722D021294803F0A1FBC0B28DF8AA
:1059A0000D009DF80C009DF80D1040EA012000B29A
:1059B000ADF80400BDF9000000EE100AB8EEC00A10
:1059C0001F4880ED030ABDF9020000EE100AB8EE90
:1059D000C00A1B4880ED040ABDF9040000EE100A5D
:1059E000B8EEC00A164880ED050A90ED030AD0ED26
:1059F0000F0A30EE600A80ED090A90ED040AD0ED3E
:105A0000100A30EE600A80ED0A0A90ED050AD0ED2A
:105A1000110A30EE600A80ED0B0A90ED0B1AD0ED02
:105A20000A0A90ED090A074802F0DBFA044880ED03
:105A3000090AC0ED0A0A80ED0B1A1FBDA00E002056
:105A4000240F0020F00E002070B5002435E01C4823
:105A500003F023FCEE211A4803F09AFC184803F0E7
:105A600047FCA02000EB4400C1B2154803F090FCB5
:105A7000134803F03DFC124803F00FFCEF211048DF
:105A800003F086FC0E4803F033FC0D4803F059FC8C
:105A900005460B4803F083FB094803F052FC064619
:105AA000074803F0DFFB064803F0B9FB46EA052090
:105AB000044921F81400601CC4B2062CC7DD70BD77
:105AC000001000202810002000B587B0012104201C
:105AD000FAF7D0FF4748FBF799FA4FF6FF700290AC
