:020000040800F2
:10000000B01D00206D020008750900086D09000888
:100010007109000887060008131900080000000095
:100020000000000000000000000000008D0B000830
:10003000F906000800000000050A0008910B0008FE
:10004000870200088702000887020008870200086C
:10005000870200088702000887020008870200085C
:10006000870200088702000887020008870200084C
:10007000870200088702000887020008870200083C
:10008000870200088702000887020008870200082C
:10009000870200088702000887020008870200081C
:1000A000870200088702000887020008870200080C
:1000B0008702000887020008110C00088702000868
:1000C00087020008870200088702000887020008EC
:1000D0008702000805160008791600088702000844
:1000E00087020008870200088702000887020008CC
:1000F0008702000887020008790E000887020008BE
:100100008702000887020008290E000887020008FD
:10011000911500088702000887020008870200087E
:10012000870200088702000887020008870200088B
:10013000870200088702000887020008870200087B
:10014000870200088702000887020008870200086B
:10015000870200088702000887020008870200085B
:10016000870200088702000887020008870200084B
:10017000870200088702000887020008870200083B
:10018000870200088702000800F002F800F05EF81D
:100190000AA090E8000C82448344AAF10107DA45E2
:1001A00001D100F053F8AFF2090EBAE80F0013F0D6
:1001B000010F18BFFB1A43F001031847ECD20000EF
:1001C0000CD300000A444FF0000C10F8013B13F070
:1001D000070408BF10F8014B1D1108BF10F8015BA0
:1001E000641E05D010F8016B641E01F8016BF9D193
:1001F00013F0080F1EBF10F8014BAD1C0C1B09D1EA
:100200006D1E58BF01F801CBFAD505E014F8016B5B
:1002100001F8016B6D1EF9D59142D6D370470000ED
:100220000023002400250026103A28BF78C1FBD8FF
:10023000520728BF30C148BF0B6070471FB50CF094
:10024000BEFA00F08DF81FBD10B510BD00F024F906
:100250001146FFF7F3FF0BF091FA00F042F903B4F7
:10026000FFF7F2FF03BC00F043F9000009488047A4
:1002700009480047FEE7FEE7FEE7FEE7FEE7FEE788
:10028000FEE7FEE7FEE7FEE704480549054A064BA0
:1002900070470000A90B000889010008B017002072
:1002A000B01D0020B0190020B019002010B54C106E
:1002B00084EA530404D54042C1F1000138BF491E0D
:1002C0001B4204D55242C3F1000338BF5B1E00F04D
:1002D00059F814F0804F04D04042C1F1000138BFFA
:1002E000491E14F0004F04D05242C3F1000338BF3E
:1002F0005B1E10BD10B5203AC0F00B80B1E818505D
:10030000203AA0E81850B1E81850A0E81850BFF4FF
:10031000F5AF5FEA027C24BFB1E81850A0E818509E
:1003200044BF18C918C0BDE810405FEA827C24BFF2
:1003300051F8043B40F8043B08BF7047D20728BF80
:1003400031F8023B48BF11F8012B28BF20F8023BCF
:1003500048BF00F8012B7047704770477047000096
:1003600070B5064C7C44064D7D4403E02068204473
:100370008047241DAC42F9D170BD000060D100005F
:1003800084D1000053EA020C00F069802DE9F04BA3
:100390004FF00006002B1FBFB3FA83F503FA05F4F4
:1003A00024FA05F65E4012BF1643B2FA82F502FA4D
:1003B00005F4C5F120051EBF22FA05FC44EA0C0431
:1003C000203556EA044C4FEA144418BF641C4FF021
:1003D00000084FF00009904271EB030C39D300295B
:1003E00019BFB1FA81F701FA07F6B0FA80F700FAFF
:1003F00007F6C7F120071EBF20FA07FC46EA0C06E5
:100400002037B6FBF4FCA7EB0507103F07F01F0BE6
:10041000CBF120060CFA0BFB2CFA06F644BFB346D0
:100420000026202FA4BF5E464FF0000B5BEA060CAF
:1004300008BF4FF0010B19EB0B09ABFB027C48EB3B
:100440000608C01B06FB02CC0BFB03CC71EB0C01B6
:10045000C1E70B46024641464846BDE8F08B13B55E
:100460004FF000004FF00001AFF30080BDE81C40EA
:10047000704710B500F008F8006810BD10B50446CC
:1004800000F002F8046010BD0048704750170020CB
:1004900000487047501700207546FFF7F9FFAE4639
:1004A00005006946534620F00700854618B020B580
:1004B000FFF7EAFEBDE820404FF000064FF00007CE
:1004C0004FF000084FF0000B21F00701AC46ACE8FC
:1004D000C009ACE8C009ACE8C009ACE8C0098D4669
:1004E00070470446AFF300802046FFF7B8FE0000D7
:1004F00001491820ABBEFEE726000200704721B17B
:10050000826842F00102826003E0826822F0010208
:10051000826070470021084A1168084A1140D0E9FA
:1005200000231A4383681A43C3681A431143044AD9
:10053000C2F804137047000004230140E030FCFFC0
:100540000020014021B1826842F48072826003E0A1
:10055000826822F480728260704721B1826842F41E
:100560000072826003E0826822F400728260704749
:1005700030B50246002000235068104C20400D7911
:100580000C6844EA05242043506090680C4C2040DD
:10059000D1E903542C438D682C434D7944EA45043A
:1005A00020439060D06A20F470000C7D641EE4B299
:1005B000234340EA0350D06230BD0000FFFEFFFC41
:1005C000FDF7FFC0F0B504460D4600200021092DBF
:1005D00011DDE068A5F10A0606EB4607072606FAD4
:1005E00007F18843A5F10A0606EB460603FA06F171
:1005F0000843E0600CE0206905EB4507072606FA92
:1006000007F1884305EB450603FA06F1084320612C
:10061000072A0FDA606B561E06EB86071F2606FABE
:1006200007F18843561E06EB860605FA06F10843D5
:10063000606322E00D2A0FDA206BD61F06EB8607D7
:100640001F2606FA07F18843D61F06EB860605FA31
:1006500006F10843206310E0E06AA2F10D0606EB04
:1006600086071F2606FA07F18843A2F10D0606EB5E
:10067000860605FA06F10843E062F0BD816841F0A4
:1006800080418160704700BFFEE721B1026842F0FF
:100690000102026003E0026822F00102026070477A
:1006A00010B500220268134B1A40CC680B68234334
:1006B0004C6923438C692343CC6923430C6A23434D
:1006C0004C6A23438C6A23434C6B23438C6B234338
:1006D0001A430260426922F00702D1E90B34234336
:1006E0001A4342610B6943604B6883608B68C36047
:1006F00010BD00003F801CF07047000001490860F9
:10070000704700000C3C024070B504460A460026C3
:10071000092502B909E0012A01D1160205E0022AE1
:1007200001D1160201E04FF4407600F09FF8054633
:10073000092D28D11548006820F44070134908603D
:1007400008460068304308600846006820F0F8005A
:1007500008600846006844F0020108430B4908603D
:100760000846006840F48030086000F07FF80546D5
:100770000648006820F00200044908600846006846
:1007800020F0F8000860284670BD0000103C0240D0
:1007900009201349096801F48031B1F5803F01D186
:1007A00001201CE00E49096801F0100109B1062082
:1007B00015E00B49096801F4807109B102200EE0CF
:1007C0000749096801F0E00109B1072007E0044981
:1007D000096801F0020109B1082000E00920704712
:1007E0000C3C02400348006840F0004001490860AA
:1007F00070470000103C024030B502460C46092507
:1008000000F034F80546092D19D10E48006820F48F
:1008100040700C4908600846006840F400700860A9
:100820000846006840F001000860146000F01EF8FF
:1008300005460448006820F0010002490860284687
:1008400030BD0000103C02400548006800F0004048
:1008500028B1044802490C39086003480860704711
:10086000103C024023016745AB89EFCD08B5092054
:100870000090FFF78DFF009002E0FFF789FF0090E6
:100880009DF800000128F8D09DF8000008BDF0B5E3
:100890000A4600210023002400BF3DE0012505FA9F
:1008A00001F3156805EA03049C4234D105684F0042
:1008B0000326BE40B543056015794E00B540066875
:1008C000354305601579012D02D01579022D16D119
:1008D00085684F000326BE40B543856055794E00BC
:1008E000B540866835438560456801268E40B5432E
:1008F0004560456896798E40B6B235434560C56817
:100900004F000326BE40B543C560D5794E00B540C3
:10091000C6683543C560491C1029BFD3F0BDF0B58A
:10092000002300244D07ED0E02FA05F3CE1000F16E
:10093000200555F826504E07F70E0F26BE40B5434A
:10094000CF1000F1200646F82750CE1000F1200508
:1009500055F8265045EA0304CE1000F1200545F86D
:100960002640F0BD418370470183704700BFFEE71A
:1009700000BFFEE77047000070B5002100230F2282
:10098000C4781CB3174C246804F4E064C4F5E06434
:10099000C4F30721C1F10404E3B20A4144789C4046
:1009A000E1B28478144021430C07210E0E4C0578E7
:1009B0006155047804F01F050124AC4005786D11E1
:1009C000AD0005F1E025C5F8004109E0047804F028
:1009D0001F050124AC40054D0678761145F82640E8
:1009E00070BD00000CED00E000E400E080E100E0FC
:1009F00002490143024A1160704700000000FA05F5
:100A00000CED00E07047000029B1064A126802436D
:100A1000044B1A6004E0034A12688243014B1A60D7
:100A2000704700003038024029B1064A126802437C
:100A3000044B1A6004E0034A12688243014B1A60B7
:100A4000704700004038024029B1064A126802434C
:100A5000044B1A6004E0034A12688243014B1A6097
:100A6000704700002038024029B1064A126802434C
:100A7000044B1A6004E0034A12688243014B1A6077
:100A8000704700004438024029B1064A1268024308
:100A9000044B1A6004E0034A12688243014B1A6057
:100AA0007047000024380240F0B5002100220024E5
:100AB000022500260223324F3F6807F00C0121B1C6
:100AC000042905D0082937D105E02E4F076036E00C
:100AD0002C4F076033E02A4F3F1F3F68C7F3805613
:100AE000274F3F1F3F6807F03F036EB1254FB7FB0D
:100AF000F3F7DFF88CC0ACF1040CDCF800C0CCF3E9
:100B0000881C07FB0CF40CE01E4FB7FBF3F7DFF873
:100B100070C0ACF1040CDCF800C0CCF3881C07FBFF
:100B20000CF4174F3F1F3F68C7F301477F1C7D0040
:100B3000B4FBF5F7076002E0124F076000BF00BF8B
:100B40000F4F3F6807F0F00109090F4F7A5C076803
:100B5000D74047600A4F3F6807F4E051890A0A4FBF
:100B60007A5C4768D7408760054F3F6807F460416B
:100B7000490B054F7A5C4768D740C760F0BD00005D
:100B8000083802400024F4005C0B0020704700008D
:100B90000448036840685A1C40F1000001490A609B
:100BA00048607047600A002010B51548006840F49E
:100BB0007000134908601348006840F001001149B3
:100BC000086000200F49083108600E4800680E498F
:100BD00008400C4908600D48091D0860081F00689E
:100BE00020F48020091F0860002006490C310860AD
:100BF00001F0ACF84FF0006001498039086010BD89
:100C000088ED00E000380240FFFFF6FE10300024BF
:100C100010B502217C4800F0A7FA012839D1022141
:100C2000794800F0BDF97948006800F0400040289C
:100C300010D1754800F08CFA754908807248203050
:100C4000008840F00200704920310880002071497E
:100C500008801EE06C4800F07BFA84B26C48008883
:100C6000844205DD6A480088201A6B49888007E0C5
:100C70004FF6FF70204466490988401A664988800B
:100C800061482030008820F002005F492031088050
:100C900000BF04215C4800F067FA012836D1042126
:100CA000594800F07DF95948006800F0800080281C
:100CB0000DD1554800F04FFA58490880524820306D
:100CC000008840F020005049203108801EE04E4846
:100CD00000F041FA84B251480088844205DD4F4853
:100CE0000088201A4C49C88007E04FF6FF70204466
:100CF0004A490988401A4849C8804348203000883A
:100D000020F0200040492031088000BF08213E48E3
:100D100000F02AFA012837D108213B4800F040F9B9
:100D20003A48006800F48070B0F5807F0DD13648F5
:100D300000F014FA3A49088033482030008840F423
:100D400000703149203108801EE02F4800F006FA7B
:100D500084B233480088844205DD31480088201A77
:100D60002D49088107E04FF6FF7020442C4909887F
:100D7000401A2949088124482030008820F4007056
:100D800021492031088000BF10211F4800F0ECF9F4
:100D9000012837D110211C4800F002F91B480068D7
:100DA00000F40070B0F5007F0DD1174800F0D9F9BC
:100DB0001C49088014482030008840F40050124933
:100DC000203108801EE0104800F0CBF984B21548AD
:100DD0000088844205DD13480088201A0E494881A6
:100DE00007E04FF6FF7020440E490988401A0A496F
:100DF000488105482030008820F400500249203105
:100E0000088000BF10BD0000000800401004024030
:100E1000C80A0020B00A002030120020CA0A0020B0
:100E2000CC0A0020CE0A002010B50121104800F0A5
:100E30009BF9012816D10F48007810B101280FD175
:100E400006E005F07BFF012801D10A49087008E09F
:100E500005F0F0FE012802D102200649087000E0EA
:100E600000BF00BF0121024800F09AF810BD000049
:100E7000000C0040340A002010B508213D4800F065
:100E800073F9012837D108213A4800F089F83A4827
:100E9000006800F48070B0F5807F0DD1354800F017
:100EA0005DF93649088033482030008840F40070EE
:100EB0003049203108801EE02E4800F04FF984B2FE
:100EC0002E480088844205DD2C480088201A2C49D1
:100ED000088007E04FF6FF70204428490988401A2F
:100EE0002749088023482030008820F400702149D9
:100EF0002031088000BF10211E4800F035F901287C
:100F000037D110211B4800F04BF81B48006800F453
:100F10000070B0F5007F0DD1164800F022F9194994
:100F2000088014482030008840F4005011492031D6
:100F300008801EE00F4800F014F984B211480088C0
:100F4000844205DD0F480088201A0D49488007E0DB
:100F50004FF6FF7020440B490988401A0849488021
:100F600004482030008820F40050024920310880D5
:100F700000BF10BD0004014010080240D00A00204C
:100F800030120020D20A002021B1028842F08002F3
:100F9000028004E002884FF67F731A400280704797
:100FA000CA430282704721B1028842F001020280E6
:100FB00004E002884FF6FE731A400280704700007A
:100FC00010B504465548844208D101210846FFF770
:100FD0005BFD00210120FFF757FD9DE0B4F1804F3C
:100FE00008D101210846FFF72FFD00210120FFF75E
:100FF0002BFD91E04A48844208D101210220FFF7ED
:1010000023FD00210220FFF71FFD85E045488442B3
:1010100008D101210420FFF717FD00210420FFF76C
:1010200013FD79E04048844208D101210820FFF7F0
:101030000BFD00210820FFF707FD6DE03B488442CF
:1010400008D101211020FFF7FFFC00211020FFF73D
:10105000FBFC61E03648844208D101212020FFF7E3
:10106000F3FC00212020FFF7EFFC55E031488442DB
:1010700008D101210220FFF707FD00210220FFF720
:1010800003FD49E02C48844209D101210804FFF7FF
:10109000FBFC00214FF48030FFF7F6FC3CE02748D2
:1010A000844209D101214804FFF7EEFC00214FF4EE
:1010B0000030FFF7E9FC2FE02148844209D10121EB
:1010C0008804FFF7E1FC00214FF48020FFF7DCFCEF
:1010D00022E01C48844208D101214020FFF7B4FCE3
:1010E00000214020FFF7B0FC16E01748844208D1E9
:1010F00001218020FFF7A8FC00218020FFF7A4FC3D
:101100000AE01248844207D101218015FFF79CFCB8
:101110000021A015FFF798FC10BD00000000014061
:101120000004004000080040000C00400010004097
:101130000014004000040140004001400044014010
:101140000048014000180040001C00400020004002
:101150000146486B70470146886B70470146C86B73
:1011600070470146086C704730B5024600200023E6
:101170000024158A05EA0103958905EA010413B1E3
:101180000CB1012000E0002030BD70B505460C46D2
:10119000208850B92389A2886188284600F086FCFF
:1011A000E188284600F085F925E0208804280AD146
:1011B0002389A2886188284600F095FCE1882846AA
:1011C00000F080F917E0208808280AD12389A28836
:1011D0006188284600F0AFFCE188284600F07FF9DE
:1011E00009E02389A2886188284600F0C8FCE188CC
:1011F000284600F07DF970BD1AB183890B438381C5
:1012000002E083898B4383817047000070B500241E
:1012100000220023058C4FF6FE7635400584028CB3
:101220008388048B4FF68F752C40B51E2C400D889B
:101230002C43751E2A408D892A434D882A43104D20
:10124000A84202D00F4DA84213D14FF6F7752A409D
:10125000CD892A434FF6FB752A408D882A434FF6E5
:10126000FF652B404FF6FF552B400D8A2B434D8ACF
:101270002B43838004838D684563028470BD000026
:1012800000000140000401400A460021018B4FF696
:10129000F7731940114301837047000070B50024B3
:1012A00000220023058C4FF6EF7635400584028C32
:1012B0008388048B48F6FF752C404FF6FF452C4081
:1012C0000D884FF6FF7606EA05252C434FF6DF75AD
:1012D0002A408D8906EA05152A434D8806EA051538
:1012E0002A43154DA84202D0144DA8421DD14FF6F5
:1012F0007F752A40CD894FF6FF7606EA05152A4309
:101300004FF6BF752A408D8806EA05152A434FF629
:10131000FF352B404FF2FF752B400D8A06EA8505FD
:101320002B434D8A06EA85052B43838004838D6811
:101330008563028470BD000000000140000401408C
:101340000A460021018B4FF2FF7319404FF6FF73DD
:1013500003EA0223194301837047000070B500249B
:1013600000220023058C4FF6FF6635400584028C71
:101370008388848B4FF68F752C404FF6FC752C407C
:101380000D882C434FF6FF552A408D894FF6FF7686
:1013900006EA05252A434D8806EA05252A43154D08
:1013A000A84202D0144DA8421DD14FF2FF752A4029
:1013B000CD894FF6FF7606EA05252A434FF6FF351D
:1013C0002A408D8806EA05252A434EF6FF752B40F4
:1013D0004DF6FF752B400D8A06EA05152B434D8A05
:1013E00006EA05152B43838084838D68C5630284D8
:1013F00070BD000000000140000401400A460021C9
:10140000818B4FF6F77319401143818370470000B9
:1014100070B5002200230024058C4EF6FF7635407F
:101420000584038C8488828B48F6FF752A404FF62A
:10143000FF452A400D884FF6FF7606EA05252A4328
:101440004DF6FF752B408D8906EA05352B434D88F7
:1014500006EA05352B430A4DA84202D0094DA842A1
:1014600008D14BF6FF752C400D8A4FF6FF7606EA41
:1014700085152C43848082838D680564038470BD48
:1014800000000140000401400A460021818B4FF218
:10149000FF7319404FF6FF7303EA02231943818358
:1014A00070474163704781637047C163704701644F
:1014B0007047028B4FF6F3731A400283028B0A4384
:1014C00002837047028B4FF2FF331A400283028B74
:1014D0004FF6FF7303EA01231A4302837047828B9E
:1014E0004FF6F3731A408283828B0A4382837047DC
:1014F000828B4FF2FF331A408283828B4FF6FF7349
:1015000003EA01231A438283704700000022028805
:10151000184B98420ED0184B98420BD0B0F1804F28
:1015200008D0164B984205D0154B984202D0154B67
:10153000984204D14FF68F731A404B881A43124BCE
:10154000984207D0114B984204D04FF6FF431A40FF
:101550000B891A4302804B68C3620B880385054BD5
:10156000984202D0044B984201D18B7A0386012322
:1015700083827047000001400004014000040040E5
:1015800000080040000C0040001000400014004023
:1015900008B540F22771174800F0F8F890B11648E6
:1015A0001649826868469047012805D19DF80010C9
:1015B000104800F0AAF905E0002240F227710D481A
:1015C00000F00EF940F225510A4800F0DFF878B13A
:1015D000084800F095F9C0B2009040F22551054846
:1015E00000F0ACF80448064942689DF800009047B6
:1015F00008BD0000004C0040180B00207C140020A7
:101600008814002008B540F22771174800F0BEF892
:1016100090B116481649826868469047012805D15E
:101620009DF80010104800F070F905E0002240F22B
:1016300027710D4800F0D4F840F225510A4800F017
:10164000A5F878B1084800F05BF9C0B2009040F20C
:101650002551054800F072F80448064942689DF893
:101660000000904708BD000000100140180B00204A
:1016700094160020A016002010B50821274800F07D
:1016800078F810B1254800F03BF92021234800F0FC
:1016900070F8012840D1214800F032F9C4B2204945
:1016A000486880471F490968401A022810D900205D
:1016B0001D4908701D480078012803D100201B49EE
:1016C000087002E0012019490870012018490870CB
:1016D00016480078012808D1134801780078401C8A
:1016E000114A10701348445407E00F4801780078FD
:1016F000401C0D4A107010484454094948688047FE
:101700000849086008480078192804D1064800787C
:10171000401E0549087000BF10BD00000044004095
:10172000680A0020400B0020440B0020250B0020FD
:10173000240B0020AC160020C516002010B5002296
:10174000002340F66A14A14200D100BF0A1201240E
:101750009440A3B2DC43048010BD21B1828942F4DD
:101760000052828104E082894DF6FF731A40828123
:10177000704702460020B1F5007F00D100BF1388FA
:101780000B400BB1012000E00020704770B502460D
:10179000002400230025002040F66A16B14200D143
:1017A00000BFC1F3421501F01F03012606FA03F33F
:1017B000012D02D19689334006E0022D02D1168A0E
:1017C000334001E0968A33400C12012606FA04F4F5
:1017D0001688344013B10CB1012000E0002070BD28
:1017E000F0B50346002400260025002040F66A17C5
:1017F000B94200D100BF1846C1F3421401F01F06E0
:10180000012707FA06F5012C01D10C3004E0022C67
:1018100001D1103000E014301AB107682F4307607F
:1018200002E00768AF430760F0BD00002DE9FF4705
:1018300005460E460024A14600BFA046B08900B16F
:1018400000BF2C8A24F44054F08804432C82AC89D5
:1018500041F20C608443B0883189084371890843A0
:101860000443AC81AC8A24F44074B0890443AC8254
:101870006846FFF719F92048854202D01F48854283
:1018800002D1DDF80C9001E0DDF80890A88900F4A1
:10189000004040B109EBC90000EB09103168490074
:1018A000B0FBF1F707E009EBC90000EB0910316864
:1018B0008900B0FBF1F76420B7FBF0F004012009C8
:1018C000642101FB1078A88900F4004040B1322067
:1018D00000EBC800B0FBF1F000F00700044308E0A3
:1018E000322000EB08106421B0FBF1F000F00F0093
:1018F00004432C81BDE8FF87001001400014014023
:1019000001468888C0F308007047C1F3080282804E
:10191000704700BFFEE700000A48008800EE100A8A
:10192000B8EE400A9FED081AC0EE010A9FED070AC3
:1019300020EE800AF1EE000A20EE200A044880ED35
:10194000000A7047D40A002000F07F45333353402B
:10195000D80A002010B54FF480510248FFF702F872
:1019600010BD00000008024010B504460149886817
:10197000804710BD380A002010B504460748816A28
:10198000204688470649C86880470648816820463F
:101990008847044801692046884710BD8009002017
:1019A000040A00203009002010B504460749C86821
:1019B00080470749C86880470648416820468847ED
:1019C0000448C1682046884710BD0000E80900208F
:1019D0004C0900203009002010B540F206414FF0BC
:1019E0008040FFF762FD40F206410C48FFF75FFDC3
:1019F00040F206410948FFF758FD40F2064107480A
:101A0000FFF751FD40F206410448FFF74AFD40F25E
:101A100006414FF08040FFF74AFD10BD0004004032
:101A200010B503F001FB02F065F900F001F810BDFC
:101A300010B54FF461701249086048608860C86052
:101A40000861486101460007FFF72FFD4FF46171FF
:101A50000C48FFF72CFD4FF461710A48FFF725FD94
:101A60004FF461710748FFF71EFD4FF4617105489F
:101A7000FFF717FD4FF461710807FFF718FD10BD60
:101A80001812002000040040002100EE901A0549C1
:101A9000415800EE901AB8EEE01ADFED031A81EE1D
:101AA000210A704700000E080000C842F0B50C463D
:101AB000154600210022068C4FF6FE773E40068434
:101AC000018B028C4FF60C7631407E1C06EA031621
:101AD0002E4331434FF6F576324044F0010632434F
:101AE00001830284F0BDF0B50C46154600210022AA
:101AF0000026078C4FF6EF7C07EA0C070784018B62
:101B0000028C4FF6FF7707EA041640F6FF4739408C
:101B10004FF6FF7707EA033739434FF6FF7707EAB7
:101B2000052739434FF65F773A4046F010073A43AE
:101B300001830284F0BDF0B50C4615460021002259
:101B40000026078C4FF6FF6C07EA0C070784818B91
:101B5000028C4FF6FF7707EA04264FF60C773940E0
:101B60004FF6FF7707EA03172F4339434FF2FF572A
:101B70003A4046F480773A4381830284F0BDF0B561
:101B80000C461546002100220026078C4EF6FF7CED
:101B900007EA0C070784818B028C4FF6FF7707EA70
:101BA000043640F6FF4739404FF6FF7707EA05272E
:101BB00039434FF6FF7707EA0337394345F6FF7796
:101BC0003A4046F480573A4381830284F0BD0000D6
:101BD0000149086849687047600A00202DE9F0470C
:101BE0002448046845684FF0E020866900272148B2
:101BF0000168426884EA010085EA020108431CD1B9
:101C00001D480023026830463946FEF74FFB4FF46B
:101C10007A734FF0000CA4FB032805FB038304FB3D
:101C20000C3C1346181A6CEB01014FF47A7C10EB54
:101C30000C0041F10001BDE8F0874FF0E020806921
:101C40000D490968B0FBF1F000220A4B19685B6886
:101C50004FF47A78A1FB089A03FB08A301FB023139
:101C60001346B9EB000261EB030112EB080041F1EE
:101C70000001E0E7600A0020500A00201CB50121A5
:101C80000420FEF7C1FE01208DF8040000208DF82D
:101C900006008DF805008DF807004FF48050009085
:101CA00069460448FEF7F3FD4FF480510148FEF702
:101CB00059FE1CBD0008024010B504F083FE01204F
:101CC00010BD000070B506460C4600250A48C079D4
:101CD000A04201DA002070BD002509E07019074913
:101CE0008A680549904708B90020F4E7681C85B266
:101CF000A542F3DB0120EEE788140020180B00203A
:101D000070B504460D460B4948688047064604F402
:101D10000050B0F5005F0CD107480068864208D932
:101D20000648006880F400500449086070190249B0
:101D3000086070BD680A0020940A00201408024060
:101D4000704700B500F03AFD00BD00000CB5002062
:101D5000019000903448006840F4803032490860B7
:101D600000BF3148006800F4003000900198401C2A
:101D70000190009818B90198B0F5A04FF1D12A4808
:101D8000006800F4003010B10120009001E0002054
:101D900000900098012846D123484030006840F068
:101DA00080502149403108602048006840F440409C
:101DB0001E4908601C48083000681B49083108604B
:101DC0000846006840F4004008600846006840F497
:101DD000A05008601648091F0860081F006840F0FE
:101DE0008070091F086000BF0F48006800F0007095
:101DF0000028F9D040F205700E4908600A48083002
:101E0000006820F0030008490831086008460068AF
:101E100040F00200086000BF03480830006800F08E
:101E20000C000828F8D10CBD0038024000700040BA
:101E300010544007003C024000B50246FFF7C8FEC0
:101E4000034600BFFFF7C4FE99188842FAD300BDCD
:101E500070B50446FFF7C2FE054600BFFFF7BEFEA1
:101E60002A19801A71F10001F8DB70BD10B5012448
:101E7000FEF7EAFCF320FEF741FC02215820FEF7B2
:101E800043FC3B4890ED0C0ADFED3A0A20EE200AB5
:101E9000BDEEC00A10EE101A3748FEF7ADFC092857
:101EA00000D00024324890ED0D0ADFED320A20EE1A
:101EB000200ABDEEC00A10EE101A2F48001DFEF7D2
:101EC0009BFC092800D00024294890ED0E0ADFED84
:101ED000290A20EE200ABDEEC00A10EE101A26488C
:101EE0000830FEF789FC092800D00024204890ED36
:101EF0000F0ADFED200A20EE200ABDEEC00A10EE28
:101F0000101A1D480C30FEF777FC092800D0002479
:101F1000174890ED100ADFED170A20EE200ABDEEFB
:101F2000C00A10EE101A14481030FEF765FC09289C
:101F300000D000240E4890ED110ADFED0E0A20EECD
:101F4000200ABDEEC00A10EE101A0B481430FEF73E
:101F500053FC092800D00024642107481830FEF7FC
:101F60004BFC092800D00024FEF73CFC204610BDA5
:101F70007C1000200000C84200000E0810B58AB096
:101F8000044601210846FEF73FFD01211020FEF71F
:101F90006BFD072209212F48FEF7C1FC07220A2109
:101FA0002C48FEF7BCFC02208DF824008DF825009B
:101FB00000208DF8260001208DF8270040020890AF
:101FC00008A92448FEF763FC4FF48060089008A934
:101FD0002048FEF75CFC25208DF80C0000208DF8D1
:101FE0000D0001208DF80E008DF80F0003A8FEF7FC
:101FF000C3FC04940020ADF81400ADF81600ADF851
:102000001800ADF81C000C20ADF81A0004A9124805
:10201000FFF70CFC1148124AFF21036868469847F5
:1020200010489DE80E000EC00C480F4AFF210368BF
:10203000684698470D489DE80E000EC0012240F208
:1020400025510548FFF7CCFB01210348FFF785FB2D
:102050000AB010BD0000024000100140180B002023
:10206000941400209416002093150020A016002040
:1020700070B506460C4600250F4800790E49C9790F
:10208000401AA04201DA002070BD002509E0705D11
:102090000A494A680849904708B90020F4E7681CD3
:1020A00085B2A542F3DB012240F227710448FFF715
:1020B00097FB0120E8E7000094160020180B002091
:1020C0000010014000B58FB001218805FEF79CFC8F
:1020D000012004900020009003900B901048029083
:1020E00000200D904FF400500890C0100690801012
:1020F00009900C48019000200E904FF4006007906A
:10210000002005904FF400300A9069460648FEF71B
:10211000C7FA01210448FEF7B8FA0FB000BD00006D
:10212000D40A00204C2001401064024010B50D4834
:1021300007F0B8F97C2300223C210A4807F06CF92B
:10214000202301223C21074807F066F98023022260
:102150003C21044807F060F90348C1680A20884719
:1021600010BD0000DC100020680A002010B51C48DB
:1021700007F098F91B48C1683220884780236B22FA
:10218000D021174807F048F91648C168052088474C
:1021900000231922D021124807F03EF900236B22B8
:1021A000D0210F4807F038F900233722D0210C48FE
:1021B00007F032F906231A22D021094807F02CF93A
:1021C00018231B22D021064807F026F910231C22D1
:1021D000D021034807F020F903F078FC10BD00007F
:1021E000F80F0020680A002010B50C4807F0BDF970
:1021F00008B9002010BDEE21084807F031FA074861
:1022000007F0DEF91E21054807F02AFA034807F017
:10221000D7F9024807F06BF90120EBE758110020CD
:1022200010B52DED048B86B00446012C7BD1B84946
:10223000096801F5617009F02EFE41EC190BB549F2
:102240009FEDB52B9FEDB61BB0EE490AF0EE690A83
:1022500008688047B0EE408AF0EE608A51EC180BB7
:1022600009F0BCFD0090AA49496801F5617009F0C8
:1022700012FE41EC190BA7499FEDA72B9FEDA81B60
:10228000B0EE490AF0EE690A08688047B0EE408A6D
:10229000F0EE608A51EC180B09F0A0FD01909C490A
:1022A000896801F5617009F0F6FD41EC190B994957
:1022B0009FED992B9FED9A1BB0EE490AF0EE690A4B
:1022C00008688047B0EE408AF0EE608A51EC180B47
:1022D00009F084FD02908E49C96801F5617009F02A
:1022E000DAFD41EC190B8B499FED8B2B9FED8C1B7D
:1022F000B0EE490AF0EE690A08688047B0EE408AFD
:10230000F0EE608A51EC180B09F068FD03908049EB
:10231000096901F5617009F0BEFD41EC190B7D49B9
:102320009FED7D2B00E02DE09FED7D1BB0EE490A77
:10233000F0EE690A08688047B0EE408AF0EE608AE5
:1023400051EC180B09F04AFD04907149496901F5F7
:10235000617009F0A0FD41EC190B6E499FED6E2BE9
:102360009FED6F1BB0EE490AF0EE690A08688047DE
:10237000B0EE408AF0EE608A51EC180B09F02EFDA9
:102380000590A7E06249096801F5617009F083FDD5
:1023900041EC190B5F499FED642B9FED611BB0EE83
:1023A000490AF0EE690A08688047B0EE408AF0EE0C
:1023B000608A51EC180B09F011FD009054494968EE
:1023C00001F5617009F067FD41EC190B51499FED72
:1023D000562B9FED531BB0EE490AF0EE690A0868D0
:1023E0008047B0EE408AF0EE608A51EC180B09F09D
:1023F000F5FC01904649896801F5617009F04BFDD3
:1024000041EC190B43499FED482B9FED451BB0EE66
:10241000490AF0EE690A08688047B0EE408AF0EE9B
:10242000608A51EC180B09F0D9FC02903849C96850
:1024300001F5617009F02FFD41EC190B35499FED55
:102440003A2B9FED371BB0EE490AF0EE690A086897
:102450008047B0EE408AF0EE608A51EC180B09F02C
:10246000BDFC03902A49096901F5617009F013FD6B
:1024700041EC190B27499FED2C2B9FED291BB0EE4A
:10248000490AF0EE690A08688047B0EE408AF0EE2B
:10249000608A51EC180B09F0A1FC04901C494969B1
:1024A00001F5617009F0F7FC41EC190B19499FED3A
:1024B0001E2B9FED1B1BB0EE490AF0EE690A08685F
:1024C0008047B0EE408AF0EE608A51EC180B09F0BC
:1024D00085FC05904FF080400099FEF7E6FF144818
:1024E0000199FEF7E4FF12480299FEF7DEFF10485B
:1024F0000399FEF7D8FF0E480499FEF7D2FF4FF07C
:1025000080400599FEF7D3FF06B0BDEC048B10BDEB
:1025100018120020D409002000000000001890408C
:102520000000000000B09D400000000000208C4032
:102530000004004010B52DED0A8B04467F4890F84A
:10254000FC0801280CD17E4806F05AFE7C489830E1
:1025500006F056FE7B4806F053FEBDEC0A8B10BD1C
:10256000764890F80009E8BB77490968888809F03F
:10257000FAFC41EC1C0B9FED750B53EC102B09F092
:1025800093FF41EC1B0B9FED730B53EC102B09F0E9
:102590007FFD41EC190B6948D0F8E80800EE100AFD
:1025A000B8EEC00ADFED6D0A20EE200A10EE101A18
:1025B00008460AF063F841EC1A0B53EC192B09F0AA
:1025C000BDF941EC180B09F009FC5C49C1F8E808B9
:1025D000D1F8E80809F05FFC41EC190B60499FED68
:1025E000612B00E013E09FED611BB0EE490AF0EEB5
:1025F000690A08688047B0EE408AF0EE608A51ECC4
:10260000180B09F0EBFB4D49C1F8E808A5E74B486A
:1026100090F80009022854D1564890ED060A10EEB1
:10262000101A08460AF02AF841EC180B4C499FEDA5
:10263000522B9FED531BB0EE480AF0EE680A086873
:1026400080473E4880EDE60B21463D4806F088FC79
:10265000B0EE408AF0EE608A41499FED4B2B9FED32
:102660004C1B08688047354880EDE80B414890EDE9
:10267000070A10EE101A08460AF000F841EC180B91
:1026800037499FED3D2B9FED3E1BB0EE480AF0EE23
:10269000680A086880472A48983080ED020B214676
:1026A00006F05EFCB0EE408AF0EE608A2C499FEDA9
:1026B000362B9FED371B086880472148983080ED06
:1026C000040B1E4890F80009012804D01B4890F81C
:1026D0000009022830D1274890ED080A10EE101AA0
:1026E000084609F0CBFF41EC180B1D499FED222B4A
:1026F0009FED231BB0EE480AF0EE680A0868804799
:10270000104880ED020B214606F02AFCB0EE409AFC
:10271000F0EE609A12499FED132B9FED141B086891
:102720008047B0EE408AF0EE608A51EC180B09F059
:1027300055FB0249C1F8E80800BF0EE72800002059
:10274000B8030020E8040020B40A002000000000C4
:1027500000407F40000000A09999F93FCCCC4C3E4E
:10276000D409002000000000000000000000800CE0
:1027700000C082408009002000000000000059C015
:10278000000000000000594000000000000034C0BC
:10279000000000000000344070B504460D4603F010
:1027A00019FA03F069FA02F0F3FFB6EE000A0248E4
:1027B00080ED000A70BD0000AC0A002070B587B043
:1027C00034480078012862D13348007801280AD1C2
:1027D000002005E03149095C0DF80010411CC8B229
:1027E0001928F7DB09E0002005E02D49095C0DF808
:1027F0000010411CC8B21928F7DB002025490870D9
:1028000000BF39E00024002316E000EB4002254D14
:1028100005EB820202EB83018A785AB10D786D1CB8
:102820001DF805204D78EA408D782A40CD78AA40E1
:10283000144300BF591CCBB2032BE6DBB4F5AF7FCA
:1028400014D9A4F5AF7100EE101AF8EE400A9FED0E
:10285000161A9FED160A00EE810ABCEEC00A10EEB1
:10286000101A8AB2124921F8102003E00022104900
:1028700021F81020411CC8B20C28C3DB9DF81800B9
:102880009DF8171040EA01200A49088000BF07B0F0
:1028900070BD0000240B0020250B0020C516002071
:1028A000AC1600200ECA00082FA13D3F0000614475
:1028B000F6160020280B0020014640F214508142F9
:1028C00001DA02207047B1F5E16F01DD0020F9E780
:1028D0000120F7E710B50446204604F071FB2046BE
:1028E00002F080FC204604F017FC10BD70B52DED01
:1028F000048B00BF1C498868804704460D461B496D
:1029000003C9221A65EB0101104609F03FFB9FED58
:10291000180B53EC102B09F0BBFB41EC180B134ABE
:1029200030C2154B5868154B5B6803F11801134B07
:102930005B68B0EE485AF0EE685A90ED024AD0ED6E
:10294000013A90ED003AD1ED022A91ED012AD1ED44
:10295000001A93ED0B1AD3ED0A0A93ED090A03F05E
:10296000ABF9BDEC048B70BD680A0020780900202B
:102970008DEDB5A0F7C6B03E040A0020E80900209E
:102980000146B5EEC00AF1EE10FA05DBF1EEC00A21
:10299000C1ED000A00207047DFED030AC1ED000A17
:1029A0004FF0FF30F7E70000000000001CB50121E8
:1029B0000846FEF729F803208DF804000420009053
:1029C00000208DF8070003208DF8050069460248B5
:1029D000FDF75DFF1CBD00000000024010B503497B
:1029E0008868804702498868804710BDE809002050
:1029F000040A002000B52DED060B2DED0A8B83B0E7
:102A0000B0EE61BAF0EE42BAB0EE62CA684606F0C5
:102A10008DFC9FED4A0A2BEE000AB0EE40BA9FED06
:102A2000470A2BEE800AF0EE40BA9FED440A2CEEE6
:102A3000000AB0EE40CAB0EE4B0A08F005FEB0EE58
:102A4000408AB0EE6B0A08F0FFFDF0EE40AAB0EE4F
:102A50004C0A08F0F9FDF0EE408AB0EE4B0A08F09F
:102A60003BFEB0EE409AB0EE6B0A08F035FEF0EE99
:102A7000409AB0EE4C0A08F02FFEB0EE40AA28EEC5
:102A80002A0ADDED0D0A20EE200AF1EE680A60EE5A
:102A9000890A2AEE291A41EE080A9DED0E1A00EE67
:102AA000810A69EE0A0A28EEA91A41EE080A9DED8C
:102AB0000F1A00EE810A8DED000A2AEE890ADDED7B
:102AC0000D0A60EE200A28EE880A6AEE291AB0EE96
:102AD000401A01EE891ADDED0E1AB0EE600A01EE21
:102AE000210AF1EE480A60EE8A0A28EEA91A41EEA0
:102AF000090A9DED0F1A00EE810A8DED010A2AEEFA
:102B00008A0ADDED0E0A20EE200ADDED0D0AB1EE97
:102B1000691A01EE200A6AEEA80A9DED0F1A00EE6E
:102B2000810A8DED020A9DED000ADDED010A9DEDA1
:102B3000021A03B0BDEC0A8B06B000BD34FA8E3C1D
:102B40002DE9F0412DED088B07469FED4D0BB0EEC2
:102B5000408AF0EE608A9FED4A0BB0EE409AF0EEAC
:102B6000609A3D4600240026285D2D2801D1601C76
:102B7000C4B221E00A2C02DC285D2A2805D19FED91
:102B8000400BBDEC088BBDE8F081295DA1F1300060
:102B900009F081F941EC1B0B53EC182B08F0CEFE29
:102BA00041EC1A0B9FED380B53EC102B09F070FA27
:102BB00041EC180B601CC4B2285D2E2802D0285DA1
:102BC0002C28D7D19FED320B53EC102B51EC180B66
:102BD00009F05EFA41EC180B285D2E2801D1601C2B
:102BE000C4B220E0142C02DC285D2A2802D19FED1B
:102BF000240BC6E7295DA1F1300009F04CF941EC46
:102C00001B0B53EC192B08F099FE41EC1A0B9FEDAE
:102C10001E0B53EC102B09F03BFA41EC190B701C06
:102C2000C6B2601CC4B2285D2C28DBD1701CC6B2B1
:102C30000BE09FED170B53EC102B51EC190B09F027
:102C400027FA41EC190B701EC6B2002EF1DC287871
:102C50002D280CD153EC192B51EC180B08F06EFEFB
:102C600041EC1A0B08F02CFE41EC100B89E753ECF9
:102C7000192B51EC180B08F061FE41EC100B80E7AA
:102C800000000000000000000000000000002440E0
:102C90009A9999999999B93F10B58AB0044601213A
:102CA0000846FDF7B1FE0121C804FDF7BDFE08226C
:102CB00000212F48FDF733FE082201212C48FDF7A3
:102CC0002EFE02208DF824008DF8250000208DF8BE
:102CD000260001208DF82700089008A92448FDF758
:102CE000D6FD0220089008A92148FDF7D0FD342028
:102CF0008DF80C0000208DF80D0002208DF80E00DC
:102D000001208DF80F0003A8FDF736FE0494002083
:102D1000ADF81400ADF81600ADF81800ADF81C00C1
:102D20000C20ADF81A0004A91248FEF77FFD1248E6
:102D3000124AFF2103686846984711489DE80E0033
:102D40000EC00D480F4AFF210368684698470E4899
:102D50009DE80E000EC0012240F225510548FEF705
:102D60003FFD01210348FEF7F8FC0AB010BD00004A
:102D700000000240004C0040180B00207C12002094
:102D80007C1400207B1300208814002010B5094813
:102D900006F088FBFFF728FA0748C1683220884709
:102DA00002F0B6FC0448C168C820884700F006F865
:102DB00010BD000058110020680A00202DE9F04FD6
:102DC0002DED088B85B000208046814600210C4601
:102DD0000D460E460F46D448007810B101280FD199
:102DE00006E003F0ABFF012801D1CF49087008E0ED
:102DF00003F020FF012802D10220CB49087000E037
:102E000000BF00BFC8480078022804D005B0BDEC60
:102E1000088BBDE8F08FC54840890102C448D0E95D
:102E20000020511A60F10000C14AC2E90010BF48F9
:102E300080890021D2E90032A0FB03CA01FB03A173
:102E400000FB0210410241EADC5000F5FA60C117B4
:102E5000B84A03C2B548808801040022B3480089FB
:102E6000B34BD3E900C3A0FB0CBE02FB0CEC00FB90
:102E700003C34FEADB1040EA4360081842EBE31259
:102E8000AD4905C1A94840884FEAC0314FF0000262
:102E9000A648C088DFF898C2DCE9003CA0FB03BE6E
:102EA00002FB03E300FB0C334FEA1B2040EA036004
:102EB000081842EB2322A14905C19E48D0E9003001
:102EC0004FF4FA629A1A70F100007DDA9848D0E95E
:102ED0000010A1FB012300FB013301FB0030D10FE7
:102EE00041EA40084FEAE0799248D0E900A04FF467
:102EF000FA61BAEB010260F10001104608F0E2FF4E
:102F000041EC1B0B9FED8E1BB0EE4B0AF0EE6B0AF3
:102F100007F048FFB0EE40AAF0EE60AA9FED8A0BE2
:102F200053EC102B51EC1A0B09F0B2F809F052FCDB
:102F3000CDE90201DDE9021045104FEA3104DDE977
:102F400002014FEA900040EA81764FEAA1077948F2
:102F5000D0E900107E4BC91A70F1FF303DDA754898
:102F6000D0E900105B42C91840F100020846CDE9E3
:102F70000012114608F0A6FF41EC1A0B9FED701BE2
:102F8000B0EE4A0AF0EE6A0A07F00CFFB0EE409A83
:102F9000F0EE609A51EC190B09F01CFC82468B464E
:102FA00007210022AAFB01030BFB01310AFB0211DE
:102FB000024614194D410B214FF0000C5246A2FB62
:102FC000010E0BFB01E100E008E00AFB0C114910C7
:102FD0004FEA300296194F4100BF00BF5548D0E973
:102FE0000010B1EB080160EB0900524AC2E9001081
:102FF0005148D0E90010091B60EB05004E4AC2E9B8
:1030000000104E48D0E90010891B60EB07004B4AC6
:10301000C2E900104F4800680023D2E9001CA0FB61
:10302000012A03FB01A100FB0C11500D40EAC12C49
:103030004815414A06CABCEB010360EB0201D80BFC
:1030400040EA4140C9133B4AC2E902011046D0E9B7
:1030500002200023D21A984100DAD7E63549D1E997
:103060000221104609F038FB00EE100ADFED3A0AA3
:1030700080EE201AB0EE419ADFED380AB0EE490A30
:1030800007F08AFBF7EE000A30EEC00ADFED340AE3
:1030900020EE200AB0EE408AB0EE480A314804F033
:1030A0005BFAB0EE408A30494868804700EE100A6B
:1030B000F8EE408A2D4903C909F00EFB00EE100A14
:1030C00038EEC00A1B48D0ED040A78EE600A80EEA4
:1030D000801A11EE10AA504609F0D0FA9FED240B89
:1030E00053EC102B08F0D4FF08F0F6FB11494861AF
:1030F0000846D0ED050AB0EE600A1F4804F02CFA2D
:103100000C4880ED050A9FED1D0A38EE400A80ED5F
:10311000040A18EE900A09F0BFFB144A03C200200B
:103120000149087000BF71E6340A002080110020B8
:10313000180A002068110020280A0020200A002018
:1031400000000000000000400000000000001440EB
:1031500024FAFFFF300A002080E6C547AEDC423E7D
:10316000002A2D4790110020680A0020480A0020FC
:103170000000000000408F40D4110020000082C2F7
:1031800010B52DED028B0446204608F0ECFE41EC14
:10319000180B9FED1A0B53EC102B08F03DFF03D2D8
:1031A0000120BDEC028B10BD204608F0DCFE41EC96
:1031B000180B9FED140B53EC102B09F067F801D29C
:1031C0000320EEE7204608F0CEFE41EC180B9FED01
:1031D0000F0B53EC102B08F01FFF0DD2204608F008
:1031E000C2FE41EC180B9FED0B0B53EC102B09F0BA
:1031F0004DF801D20220D4E70020D2E70000000001
:1032000000406F4000000000007087400000000098
:1032100000C08240000000000000794010B5044961
:1032200048688047034801684FF41650884710BD2E
:10323000380A0020EC0A002010B52DED028B86B074
:10324000044603A806F072F8684606F06FF8664870
:1032500090F8FC08012810D1634805F0D1FF6248BE
:10326000983005F0CDFF614805F0CAFF6049C86895
:10327000804706B0BDEC028B10BD5E48006890ED43
:10328000000A10EE101A084609F0F8F9564AC2E989
:1032900002015848006890ED010A10EE101A084625
:1032A00009F0ECF9504A9832C2E90201514800682D
:1032B00090ED020A10EE101A084609F0DFF94B4AA9
:1032C000C2E902012146484805F00EFDB0EE408AF1
:1032D000F0EE608A51EC180B08F0FEFA00902146DF
:1032E0004148983005F000FDB0EE408AF0EE608A6B
:1032F00051EC180B08F0F0FA019021463B4805F01C
:10330000F3FCB0EE408AF0EE608A51EC180B08F046
:10331000E3FA02909DED000AB1EE400ADDED010AEC
:1033200030EE600ADDED020A70EE200A2E48D0F879
:10333000E80800EE100AB8EEC00A30EE800ABDEED2
:10334000C00A2B48006880ED000A9DED000AB1EE2E
:10335000400ADDED010A30EE200ADDED020A70EED2
:10336000600A2148D0F8E80800EE100AB8EEC00A5A
:1033700030EE800ABDEEC00A1D48006880ED010AEB
:103380009DED000ADDED010A30EE200ADDED020AB6
:1033900070EE200A1448D0F8E80800EE100AB8EEE3
:1033A000C00A30EE800ABDEEC00A1148006880ED08
:1033B000020A9DED000ADDED010A30EE600ADDED46
:1033C000020A70EE600A0848D0F8E80800EE100A19
:1033D000B8EEC00A30EE800ABDEEC00A04480068AC
:1033E00080ED030A00BF44E72800002058010020B8
:1033F000980A00204C090020F0B52DED108B8BB001
:1034000005469FEDFE0B8DED080B05A805F08EFF20
:1034100002A805F08BFFFB4890F8FC08012823D197
:10342000F94805F0EDFEF848983005F0E9FEF74858
:1034300005F0E6FEF648406890ED020AF54880ED9A
:103440003B0AD0ED3B0AB0EE600A03F027FD10EE18
:10345000106A304609F012F9EA4A02F53E7203C2D8
:103460000BB0BDEC108BF0BDE64890F8000920B120
:10347000E44890F8000901287DD1E74909684888A7
:1034800008F071FD41EC1E0B9FEDE40B53EC102B8B
:1034900009F00AF841EC1D0B08F01EFA09EE100ABB
:1034A000E049F2EE040AB0EE490A4868804710EE9F
:1034B000106A304609F0E2F841EC1C0B9FEDDA0B84
:1034C00053EC102B08F0F6FA41EC1B0B9FEDD80BD8
:1034D00053EC102B08F0DCFD41EC1A0B08F0FCF962
:1034E00008EE900AB0EE680A03F0D8FC8DED050AEC
:1034F000C9490968088808F036FD41EC1E0B9FEDAC
:10350000C70B53EC102B08F0CFFF41EC1D0B08F05C
:10351000E3F909EE100AC349F2EE040AB0EE490AD3
:103520004868804710EE106A304609F0A7F841EC71
:103530001C0B9FEDBD0B53EC102B08F0BBFA41ECBC
:103540001B0B9FEDBB0B53EC102B08F0A1FD41ECC6
:103550001A0B08F0C1F908EE900AB0EE680A03F001
:103560009DFC8DED060AA74890F8FF0801280BD1B5
:10357000A748406800E00EE0D0ED020AA54890EDB3
:103580003B0A30EEC08A27E09E4890F8FF0818BB3F
:103590009FEDA98A20E09B4890F8000902281BD1E2
:1035A000984890EDE81BB0EE410AF0EE610A51EC4C
:1035B000100B08F091F90590A04890ED041BB0EEB7
:1035C000410AF0EE610A51EC100B08F085F9069003
:1035D0008F48406890ED028A9FED990AB4EEC08A48
:1035E000F1EE10FA06DD9FED970A38EE400AB0EED4
:1035F000408A18E09FED940AB4EEC08AF1EE10FA0A
:1036000006D29FED900A38EE000AB0EE408A0AE03A
:1036100000BFB0EEC80ADFED8A0AB4EEE00AF1EEB0
:1036200010FA00D200BF9DED061AF0EE410A9DEDA2
:10363000051AB0EE410A7B49B0EE481AC8688047C7
:103640008DED050ACDED060A8DED071A9DED050AF3
:10365000DFED7E0A20EE200A10EE101A084609F06F
:103660000DF841EC190B674890ED721BB0EE410A62
:10367000F0EE610A53EC102B9FED751B51EC110B12
:1036800008F006FD41EC1A0B53EC192B08F056F923
:103690005C4A02F5E47203C29DED060ADFED6B0A97
:1036A00020EE200A10EE101A084608F0E7FF41EC61
:1036B000190B544890ED981BB0EE410AF0EE610AE8
:1036C00053EC102B9FED621B51EC110B08F0E0FC4A
:1036D00041EC1A0B53EC192B08F030F9494A02F56A
:1036E000187203C24A484068D0ED000AB0EE600A82
:1036F00003F0D4FB10EE106A304608F0BFFF424AD8
:10370000C2E9020142484068D0ED010AB0EE600A09
:1037100003F0C4FB10EE106A304608F0AFFF3A4ADF
:103720009832C2E902012946374805F0DDFAB0EEC9
:1037300040AAF0EE60AA3B499FED472B9FED481B46
:1037400008688047B0EE409AF0EE609A51EC190B91
:1037500008F0C2F8029029462B48983005F0C4FAC8
:10376000B0EE40AAF0EE60AA2E499FED3B2B9FEDF4
:103770003C1B08688047B0EE409AF0EE609A51EC2E
:10378000190B08F0A9F803909DED020ADFED2F0A4E
:1037900020EE200A10EE101A084608F06FFF41ECE8
:1037A000190B184890ED001BB0EE410AF0EE610ACB
:1037B00053EC102B9FED261B51EC110B08F068FC0D
:1037C00041EC1A0B53EC192B08F0B8F80D4A03C260
:1037D0009DED030ADFED1D0A20EE200A10EE101AFF
:1037E000084608F04BFF41EC190B064890ED261BEC
:1037F000B0EE410AF0EE610A36E000000000000081
:103800000000000028000020F0010020200300201C
:103810004C09002028080020B40A00200000000005
:1038200000407F40D40900200000000000408F408D
:1038300000000000000034400000000050040020A0
:10384000000034430000B443000034C3CDCCCC3D71
:10385000000000C0CCCCEC3F00000020FB21E9BF01
:1038600000000020FB21E93F53EC102B1FED081B4B
:1038700051EC110B08F00CFC41EC1A0B53EC192B1A
:1038800008F05CF8934A03C293484068D0ED020AFE
:10389000B0EE600A03F002FB10EE106A304608F04A
:1038A000EDFE8E4AC2E90201A2F53E7090EDC00B1A
:1038B0008DED080B90EDC02BB0EE420AF0EE620ADF
:1038C00090EDBE2BB0EE421AF0EE621A53EC102BC4
:1038D00051EC110B08F0E8FD41EC190B9FED800B4A
:1038E00053EC102B08F0D2FC13D27A48983890EDA4
:1038F000C01BB0EE410AF0EE610A9FED7B1B53EC5A
:10390000112B51EC100B08F019F8744AC2E90201AE
:103910002FE07048983890EDC02BB0EE420AF0EEE0
:10392000620A90EDBE2BB0EE421AF0EE621A53EC32
:10393000102B51EC110B08F0B7FD41EC190B9FED6A
:103940006C0B53EC102B08F067FB12D261489838CF
:1039500090EDC01BB0EE410AF0EE610A9FED621BD4
:1039600053EC112B51EC100B08F09EFD5B4AC2E9A1
:1039700002012946594805F0B7F9B0EE40AAF0EE29
:1039800060AA5D491FED4C2B1FED4B1B086880475B
:10399000B0EE409AF0EE609A51EC190B07F09CFFE4
:1039A0000490564A1268D088544AD1688847044621
:1039B000022C64D09DED080B4648983880EDBE0B74
:1039C0004E490968C88808F0CEFA41EC1F0B1FED7C
:1039D0006D0B53EC102B08F08FFC41EC1E0B07F025
:1039E0007BFF08EE900A4449F2EE040AB0EE680A42
:1039F0004868804710EE107A384608F03FFE41ECE8
:103A00001D0B1FED770B53EC102B08F053F841EC16
:103A10001C0B1FED790B53EC102B08F039FB41EC1C
:103A20001B0B07F059FF01909DED010A03F036FAD8
:103A30005FED7A0A20EE200A10EE106A304608F098
:103A40001DFE41EC190B2348983890ED4C1BB0EE4D
:103A5000410AF0EE610A53EC102B1FED831B51EC71
:103A6000110B08F015FB41EC1A0B53EC192B07F066
:103A700065FF184A983A02F5987203C227E09DED57
:103A8000040A5FED8E0A20EE200A10EE101A084696
:103A900008F0F4FD41EC190B0E48983890ED4C1BE2
:103AA000B0EE410AF0EE610A53EC102B1FED981BAB
:103AB00051EC110B08F0ECFA41EC1A0B53EC192BFA
:103AC00007F03CFF034A983A02F5987203C200BF20
:103AD000C6E40000C00000204C09002020030020A4
:103AE00000000060FB21094000000060FB2119403C
:103AF00000000060FB2109C0D4090020B40A0020A6
:103B000010B586B0734805F030FD3C21714805F0D2
:103B1000A7FD704805F054FD03216E4805F0A0FD97
:103B20006C4805F04DFD6B4805F01FFD3D216948CF
:103B300005F096FD674805F043FD002409E065485F
:103B400005F067FD04A90855624805F090FC601C6B
:103B5000C4B2052CF3DB5F4805F05BFD8DF8150062
:103B60005C4805F0E7FC5B4805F0C1FC9DF81100DE
:103B70009DF8101040EA012000B2404200EE100A09
:103B8000B8EEC00A5448406880ED030A9DF813005F
:103B90009DF8121040EA012000B2404200EE100AE7
:103BA000B8EEC00A4C48406880ED050A9DF8150043
:103BB0009DF8141040EA012000B200EE100AB8EEA1
:103BC000C00A4548406880ED040A4348406800F157
:103BD0000C014148406800F10C0291ED021AD1ED50
:103BE000010A91ED000A3D48144603F014FE84EDED
:103BF000000AC4ED010A84ED021A01A805F096FB43
:103C00003548406890ED030A33484068D0ED090A12
:103C100030EE600A30484068D0ED060A80EE201A87
:103C20008DED011A2C48406890ED040A2A4840683E
:103C3000D0ED0A0A30EE600A27484068D0ED070A46
:103C400080EE201A8DED021A2348406890ED050A97
:103C500021484068D0ED0B0A30EE600A1E484068EB
:103C6000D0ED080A80EE201A8DED031A9DED010AB1
:103C700020EE000ADDED020A9DED021A00EE810A37
:103C8000DDED030A9DED031A00EE810A124840683B
:103C900080ED0C0A10484068D0ED0C0AB7EE001A0F
:103CA00030EEC10AF0EEC00A9FED0D0AF4EEC00A34
:103CB000F1EE10FA08D20020074908700846406863
:103CC00001A90EC90EC002E001200349087006B028
:103CD00010BD0000DC100020040A0020E8100020C5
:103CE000CDCC4C3E10B501F0E7FB01F07BFC01F0C0
:103CF000E9FD10BD00B589B001210846FCF794FE2E
:103D00004FF08040FDF75CF94FF4FA6002905348A1
:103D10000068400800EE100AB8EE400A9FED501A05
:103D2000C0EE010A9FED4F0A80EE801ABCEEC10A78
:103D300010EE100A401E80B2ADF804000020ADF86D
:103D40000C00ADF8060001A94FF08040FDF7DEFB46
:103D50006020ADF810000120ADF812004FF4617042
:103D600006900020ADF81C0004A94FF08040FDF73C
:103D7000F5FA0821C806FDF741FB04A94FF0804081
:103D8000FDF746FB0821C806FDF77EFB01218807E9
:103D9000FDF7FAF801218807FDF705F90121022056
:103DA000FCF742FE3048FDF70BF94FF4FA60029041
:103DB0002A480068400800EE100AF8EE400A9FED1D
:103DC000281A80EE810ADFED270A80EE201ABCEE69
:103DD000C10A10EE100A401E80B2ADF804000020A7
:103DE000ADF80C00ADF8060001A91F48FDF78EFBE9
:103DF0006020ADF810000120ADF812004FF46170A2
:103E000006900020ADF81C0004A91748FDF7FEF944
:103E100008211548FDF738FA04A91348FDF73EFAC2
:103E200008211148FDF78CFA04A90F48FDF796FA0E
:103E300008210D48FDF7E2FA04A90B48FDF7E8FA5E
:103E400008210948FDF720FB01210748FDF79CF8F0
:103E500001210548FDF7A7F809B000BD480B002077
:103E60000000FA430000FA440004004010B52DEDB4
:103E7000048B84B0044601A805F058FA994890F8DC
:103E8000FC0801280DD1984805F0BAF996489830F9
:103E900005F0B6F9954805F0B3F904B0BDEC048B14
:103EA00010BD904890F8000950B98F4805F0A8F966
:103EB0008D48983005F0A4F98C4805F0A1F9ECE79D
:103EC000884890F8000902287ED1894890ED030ABD
:103ED00010EE101A084608F0D1FB41EC180B85498A
:103EE0009FED852B9FED861BB0EE480AF0EE680A29
:103EF000086880477C4880ED020B214604F0F4FE00
:103F0000B0EE409AF0EE609A7A499FED7F2B9FEDDC
:103F1000801B08688047B0EE408AF0EE608A51EC62
:103F2000180B07F0D9FC01909DED010ADFED7A0A2C
:103F300020EE200A10EE101A084608F09FFB41EC14
:103F4000180B684890EDE41BB0EE410AF0EE610AF0
:103F500053EC102B9FED711B51EC110B08F098F8EE
:103F600041EC190B53EC182B07F0E8FC5D4A02F505
:103F7000647203C25E4890ED040A10EE101A0846FF
:103F800008F07CFB41EC180B5A499FED5B2B9FED31
:103F90005C1BB0EE480AF0EE680A08688047524899
:103FA000983080ED020B214604F09EFEB0EE409A60
:103FB000F0EE609A4F499FED542B9FED551B08681A
:103FC0008047B0EE408A00E02BE0F0EE608A51ECD2
:103FD000180B07F081FC02909DED020ADFED4E0AFE
:103FE00020EE200A10EE101A084608F047FB41ECBC
:103FF000180B4C4890ED0A1BB0EE410AF0EE610A36
:1040000053EC102B9FED451B51EC110B08F040F8C1
:1040100041EC190B53EC182B07F090FC414AC2E914
:104020000A01304890F80009012804D02D4890F882
:104030000009022854D12E4890ED050A10EE101AFE
:10404000084608F01BFB41EC180B2A499FED2E2B6C
:104050009FED2F1BB0EE480AF0EE680A0868804713
:10406000224880ED020B214604F03EFEB0EE409A5D
:10407000F0EE609A1F499FED2C2B9FED2D1B0868D9
:104080008047B0EE408AF0EE608A51EC180B07F0E2
:1040900023FC03909DED030ADFED1F0A20EE200AAA
:1040A00010EE101A084608F0E9FA41EC180B1D480A
:1040B00090ED301BB0EE410AF0EE610A53EC102B8C
:1040C0009FED161B51EC110B07F0E2FF41EC190BB1
:1040D00053EC182B07F032FC024A02F5986203C237
:1040E00000BFDAE62800002080050020B00600208E
:1040F00080090020D40900200000000000003EC01C
:104100000000000000003E4000000000000044C02D
:104110000000000000004440CDCC4C3F0000008077
:104120009999C93F280400200000000000004EC0FB
:104130000000000000004E4001B598B015A805F041
:10414000F5F812A805F0F2F8FE4890F8FC080128EE
:1041500033D1FD4805F054F8FB48983005F050F88D
:10416000FA4805F04DF8F9483030F94B0ECB703075
:104170000EC0F448D0F8F008109008F07FFA0A4614
:104180000146F04800F5E46006C0EE48D0F8F408B7
:10419000109008F073FA0A460146EA4800F5F76005
:1041A00006C0E848D0F8F808109008F067FAE74A27
:1041B000503AC2E9140119B000BDE24890F8000974
:1041C00048BBE3480068109008F058FADD4A02F551
:1041D000E46203C2DE484068109008F04FFA0A46D5
:1041E0000146D84800F5F76006C0D94880681090AD
:1041F00008F044FA0A460146D4485038C0E914127F
:10420000E03804F0FDFFD048983004F0F9FFCF48C3
:1042100004F0F6FFCFE7CB4890F8000902287DD1E3
:10422000C84890F8FF0830B9C848503890ED3B0AAC
:104230008DED110A05E0C748406890ED020A8DED4A
:10424000110AC548006800880E90C348C0680D90E8
:10425000DDE90D1088471090BF48006840880E9037
:10426000BD48C0680D90DDE90D1088470F9010988B
:1042700002283FD0B84800680088039007F073FE1A
:104280009FEDB60B53EC102BCDE904019DED040B13
:1042900051EC100B08F008F99FEDB20B53EC102B0A
:1042A000CDE906019DED060B51EC100B07F002FC69
:1042B0009FEDAE0B53EC102BCDE908019DED080BE3
:1042C00051EC100B07F0E4FE9FEDAA0B53EC102B02
:1042D000CDE90A019DED0A0B51EC100B07F0D8FE59
:1042E000CDE90C019DED0C0B51EC100B07F0F4FA2D
:1042F000159003E09FEDA10A8DED150A0F98022895
:1043000041D0954800684088039007F02CFE9FED4F
:10431000930B53EC102BCDE9040100E042E29DED3C
:10432000040B51EC100B08F0BFF89FED8E0B53EC13
:10433000102BCDE906019DED060B51EC100B07F09B
:10434000B9FB9FED8A0B53EC102BCDE908019DEDD5
:10435000080B51EC100B07F09BFE9FED860B53EC06
:10436000102BCDE90A019DED0A0B51EC100B07F063
:104370008FFECDE90C019DED0C0B51EC100B07F0FD
:10438000ABFA169003E09FED7D0A8DED160A9DEDC8
:10439000160A8DED0E0A9DED150A8DED0D0A784871
:1043A000C0680C909DED111ADDED0E0A9DED0D0A11
:1043B00080478DED150ACDED160A8DED171A61486F
:1043C000D0F8F008099008F059F9CDE90C015F48E0
:1043D000503890ED3C0ADFED6B0A30EE200A8DED8F
:1043E000090A099808F04AF9CDE90A01664890EDF2
:1043F000C80B8DED080B6248006807909DED0C2BF3
:104400009DED0A1B9DED080B80475F4880EDC80BB2
:104410004C48D0F8F008079008F030F9CDE90C01CD
:104420004848D0F8F008059008F028F99FED570BA0
:1044300053EC102BCDE906019DED060B51EC100B52
:1044400007F07CFACDE90A0141480068079008F0BE
:1044500015F9CDE908014A48006807909DED0C2B3D
:104460009DED0A1B9DED080B8047374880ED020B40
:10447000189904F039FC8DED0A0B414800689FED56
:10448000452B9FED3C1B09909DED0A0B80478DED60
:104490000C0B9DED0C0B51EC100B07F01DFA12905C
:1044A0009DED150AB5EEC00AF1EE10FA39D0284894
:1044B00000680E9008F0E2F80A460146214800F52F
:1044C000E46006C09DED150ADFED340A20EE200AF7
:1044D0008DED090A099808F0D1F8CDE90C012A48B8
:1044E00090ED560B8DED080B9DED080B53EC102B4A
:1044F0009FED2B0B51EC100B07F0CAFDCDE90A0123
:104500009DED0C0B53EC102B9DED0A0B51EC100B99
:1045100007F014FA0A4601460A4800F5AB6006C0E7
:1045200060E09DED120ADFED1D0A20EE200A8DED00
:10453000090A099808F0A2F8CDE90C01124890ED9B
:10454000A20B31E028000020480700207808002056
:10455000800900204C090020B40A0020000000005F
:1045600000407F400000000000408F40000000003D
:10457000000000400000000000003E40000000007D
:10458000D409002000803B452804002000000000E2
:104590000094B1400000000000003EC0CDCCCC3DF6
:1045A000000000C0CCCCEC3F8DED080B9DED080B5E
:1045B00053EC102B1FED060B51EC100B07F068FDB0
:1045C000CDE90A019DED0C0B53EC102B9DED0A0B70
:1045D00051EC100B07F0B2F90A460146FE4800F50F
:1045E000AB6006C0FC48D0F8F408099008F046F823
:1045F000CDE90C01F94890ED010A5FED1E0A30EE9D
:10460000200A8DED090A099808F038F8CDE90A0169
:10461000F34890EDEE0B8DED080BF2480068079023
:104620009DED0C2B9DED0A1B9DED080B8047EC4882
:1046300080EDEE0BE848D0F8F408079008F01EF87B
:10464000CDE90C01E448D0F8F408059008F016F81C
:104650001FED320B53EC102BCDE906019DED060B3F
:1046600051EC100B07F06AF9CDE90A01DE48406809
:10467000079008F003F8CDE90801DA4800680790D0
:104680009DED0C2B9DED0A1B9DED080B8047D74837
:1046900080ED020B189904F027FB8DED0A0BD14831
:1046A00000681FED442B1FED4D1B09909DED0A0B7B
:1046B00080478DED0C0B9DED0C0B51EC100B07F0B2
:1046C0000BF913909DED160AB5EEC00AF1EE10FA43
:1046D00039D0C54840680E9007F0D0FF0A46014621
:1046E000BD4800F5F76006C09DED160A5FED550A5E
:1046F00020EE200A8DED090A099807F0BFFFCDE9E9
:104700000C01B74890ED7C0B8DED080B9DED080B6F
:1047100053EC102B1FED5E0B51EC100B07F0B8FCA7
:10472000CDE90A019DED0C0B53EC102B9DED0A0B0E
:1047300051EC100B07F002F90A460146A64800F5B5
:10474000BE6006C02DE09DED130A5FED6C0A20EE01
:10475000200A8DED090A099807F090FFCDE90C01B8
:104760009F4890ED7C0B8DED080B9DED080B53ECF5
:10477000102B1FED750B51EC100B07F089FCCDE9E8
:104780000A019DED0C0B53EC102B9DED0A0B51EC27
:10479000100B07F0D3F80A4601468F4800F5BE60BB
:1047A00006C000BF8C4890F80009012804D08A4850
:1047B00090F8000902287DD18748D0F8F8080B90BE
:1047C00007F05CFFCDE90E01844890ED020ADFEDB1
:1047D000880A30EE200A8DED0B0A0B9807F04EFF89
:1047E000CDE90C018148483090ED140B8DED0A0B9A
:1047F0007C48006809909DED0E2B9DED0C1B9DEDF6
:104800000A0B80477948483080ED140B7248D0F885
:10481000F808099007F032FFCDE90E016E48D0F894
:10482000F808079007F02AFF9FED720B53EC102B4E
:10483000CDE908019DED080B51EC100B07F07EF857
:10484000CDE90C0168488068099007F017FFCDE9B1
:104850000A016448006809909DED0E2B9DED0C1B2C
:104860009DED0A0B80476148983080ED020B189946
:1048700004F03AFA8DED0C0B5A4800689FED5F2B5F
:104880009FED601B0B909DED0C0B80478DED0E0B8B
:104890009DED0E0B51EC100B07F01EF814905B48C9
:1048A000006880880F905948C0680E90DDE90E10AE
:1048B000884700E0C9E01090109802286ED04A485E
:1048C00080680F9007F0DAFE484A4832C2E91401C6
:1048D0004E4800688088019007F045FB1FEDE10B12
:1048E00053EC102BCDE902019DED020B51EC100BA6
:1048F00007F0DAFD1FEDE50B53EC102BCDE90401B9
:104900009DED040B51EC100B07F0D4F81FEDE90BF3
:1049100053EC102BCDE906019DED060B51EC100B6D
:1049200007F0B6FB9FED370B53EC102BCDE90801D8
:104930009DED080B51EC100B07F0AAFB9FED340B1B
:1049400053EC102BCDE90A019DED0A0B51EC100B35
:1049500007F09EFBCDE90E01214890EDA20B8DEDF5
:104960000A0B9DED0A0B53EC102B1FEDF30B51ECD2
:10497000100B07F08DFBCDE90C019DED0E0B53ECF8
:10498000102B9DED0C0B51EC100B06F0D7FF0A46D7
:104990000146114800F5D16006C055E09DED140AAE
:1049A000DFED1D0A20EE200A8DED0B0A0B9807F0B3
:1049B00065FECDE90E010A4890EDA20B8DED0A0BC4
:1049C0009DED0A0B53EC102B9FED140B51EC100BCB
:1049D00007F05EFB26E000002800002018090020F8
:1049E00028040020D409002080090020E0070020CE
:1049F0000000FA4300000000007087400000000043
:104A0000000044C00000000000004440B40A002040
:104A1000000000A09999B93FCDCCCC3D000000C06A
:104A2000CCCCEC3FCDE90C019DED0E0B53EC102BE3
:104A30009DED0C0B51EC100B06F080FF0A46014671
:104A4000034800F5D16006C000BF00BFFFF7B3BB4D
:104A50002800002010B52DED0A8BB749088807F013
:104A600082FA41EC180B9FEDB50B53EC102B07F0BD
:104A70000DFC26D8B348006807F000FE41EC1A0B85
:104A8000AD49088807F06FFA41EC1C0B9FEDAB0BAA
:104A900053EC102B07F008FD41EC1B0B53EC1A2BC9
:104AA00007F0F6FA41EC190B9FEDA70B53EC102B16
:104AB00006F044FF41EC180B07F0C0F9A449088048
:104AC00002E00020A24908809B49488807F04BFA81
:104AD00041EC180B9FED990B53EC102B07F0D6FB14
:104AE00026D89848006807F0C9FD41EC1A0B924996
:104AF000488807F038FA41EC1C0B9FED900B53EC03
:104B0000102B07F0D1FC41EC1B0B53EC1A2B07F0D8
:104B1000BFFA41EC190B9FED8C0B53EC102B06F0F8
:104B20000DFF41EC180B07F089F98949488002E034
:104B30000020874948808049888807F014FA41ECB2
:104B4000180B9FED7E0B53EC102B07F09FFB26D824
:104B50007C48006807F092FD41EC1A0B7649888882
:104B600007F001FA41EC1C0B9FED740B53EC102B7A
:104B700007F09AFC41EC1B0B53EC1A2B07F088FA58
:104B800041EC190B9FED700B53EC102B06F0D6FE89
:104B900041EC180B07F052F96D49888002E00020C3
:104BA0006B4988806449C88807F0DDF941EC180B2F
:104BB0009FED620B53EC102B07F068FB26D8614881
:104BC000006807F05BFD41EC1A0B5B49C88807F0F1
:104BD000CAF941EC1C0B9FED590B53EC102B07F05D
:104BE00063FC41EC1B0B53EC1A2B07F051FA41EC20
:104BF000190B9FED550B53EC102B06F09FFE41EC6B
:104C0000180B07F01BF95249C88002E000205049F8
:104C1000C8804949088907F0A6F941EC180B9FEDB7
:104C2000470B53EC102B07F031FB26D845480068A2
:104C300007F024FD41EC1A0B3F49088907F093F96E
:104C400041EC1C0B9FED3D0B53EC102B07F02CFCA3
:104C500041EC1B0B53EC1A2B07F01AFA41EC190B21
:104C60009FED390B53EC102B06F068FE41EC180B4E
:104C700007F0E4F83649088102E000203449088151
:104C80002D49488907F06FF941EC180B9FED2B0B6C
:104C900053EC102B07F0FAFA26D82A48006807F0E0
:104CA000EDFC41EC1A0B2449488907F05CF941EC12
:104CB0001C0B9FED220B53EC102B07F0F5FB41EC86
:104CC0001B0B53EC1A2B07F0E3F941EC190B9FED8A
:104CD0001E0B53EC102B06F031FE41EC180B07F0C5
:104CE000ADF81B49488102E0002019494881184865
:104CF000408800EE900AF8EE600AB0EE600A1548AF
:104D000002F0DEFDBCEEC00A10EE100A1049488029
:104D1000114800880A2803DD00201049087407E0C4
:104D20000D480088401C0C49088001200B4908747C
:104D3000BDEC0A8B10BD0000301200200000000006
:104D400000409F40AC0A002000000000000000006E
:104D50003C12002048120020B00A0020B40A0020B3
:104D600070B506460C4600250A48C079A04201DA13
:104D7000002070BD002509E0701907498A680549BF
:104D8000904708B90020F4E7681C85B2A542F3DB20
:104D90000120EEE7A0160020180B002031B52DED04
:104DA000040B2DED108B86B005469FED890AB0EE01
:104DB00040FA9FED870AF0EE408A9FED850A8DED5F
:104DC000040A002483480088401C82490880284641
:104DD00007F0C9F841EC1A0B9FED7F0B53EC102B39
:104DE00006F068FE41EC190B06F076FD08EE100A9D
:104DF0007B48006890ED040A10EE101A084607F090
:104E00003DFC41EC1A0B9FED770B53EC102B07F098
:104E10003FF941EC190B06F05FFD04909DED180A77
:104E2000F0EE40FA7148D0ED020A9DED040A30EE32
:104E3000600AF0EE408A9FED6E0A68EE800A6D48C7
:104E400090ED000A00EE880A80ED000A9FED6A0AE4
:104E500068EE800A694890ED000A00EE880A80ED4D
:104E6000000A9FED670A68EE800A664890ED000A26
:104E700000EE880A80ED000A5C4890ED080A62485E
:104E800080ED000A5B4890ED000A3FEE800A57482B
:104E900080ED080A90ED080A5B48D0ED000A30EE7C
:104EA000200A20EE080A10EE101A084607F0E6FB6A
:104EB00041EC1A0B9FED550B53EC102B06F0FAFD4D
:104EC00041EC190B06F008FD0FEE100A18EE100A5F
:104ED00007F0D4FB41EC1C0B1FEE100A07F0CEFBD1
:104EE0009FED4C0B53EC102BCDE900019DED000B19
:104EF00051EC100B07F0CCF841EC1D0B3B4890ED4A
:104F0000050A10EE101A084607F0B8FB41EC1E0B1C
:104F100053EC1D2B06F012FD53EC1C2BCDE90201C6
:104F20009DED020B51EC100B07F0B2F841EC1A0B9F
:104F30003A48006807F0A2FB41EC1B0B53EC1A2B1C
:104F400006F0FCFC41EC190B06F0C6FC3349086086
:104F5000084690ED000A2B48D0ED000A30EE200AFA
:104F6000224880ED020A2E4890ED000A30EE0F0A2A
:104F700080ED000A90ED000A2048D0ED000A30EEE6
:104F8000200A1A4880ED050A12480088012819DB1A
:104F90003C240CE0601E234901EB800090ED000AE8
:104FA000084600EB840080ED000A601E84B2002CED
:104FB000F0DC0E4890ED020A1A4880ED000A00204D
:104FC0000449088006B0BDEC108B05B030BD000070
:104FD00000000000C40900200000000000408F40D5
:104FE000380A00200000000000005940800900201D
:104FF0006F12833DAC0900208FC2F53EB00900203E
:10500000CDCC4C3FB4090020B809002000000000BE
:1050100000000040000000000000E03FC009002048
:10502000BC090020B00D00201CB501210846FBF78B
:10503000EBFC01210220FBF7E7FCC82000900220D6
:105040008DF8040003208DF8050000208DF806007F
:1050500001208DF8070069461A48FBF718FC012269
:1050600003211848FBF75BFC022206211548FBF7D9
:1050700056FC022207211348FBF751FC40F2034083
:10508000009002208DF8040003208DF80500002018
:105090008DF8060001208DF8070069460A48FBF7E5
:1050A000F6FB022200210848FBF739FC022201210D
:1050B0000548FBF734FC01220A210348FBF72FFCCB
:1050C0001CBD000000000240000402403EB5044642
:1050D00068469FED3E0A80ED000A9FED3C0A80ED98
:1050E000010A9FED3A0A80ED020A00BF384A526871
:1050F00092ED000AF0EE402A354A526892ED010A1C
:10510000B0EE402A324A526892ED020AF0EE401A9E
:10511000304A526802F118002F4A916890ED021A45
:10512000D0ED010A90ED000A88478DED000ACDED23
:10513000010A8DED021A9DED000ADFED280A80EECE
:10514000201A8DED001A9DED000ADFED250A20EEF4
:10515000200A8DED000A9DED010ADFED200A80EEA8
:10516000201A8DED011A9DED010ADFED1D0A20EEDA
:10517000200A8DED010A9DED020ADFED180A30EEDE
:10518000600A8DED020A9DED020ADFED140A80EE41
:10519000201A8DED021A9DED020ADFED110A20EEB4
:1051A000200A8DED020A9DED021ADDED010A9DED4A
:1051B000000A2046FFF7F2FD9DED021ADDED010A1F
:1051C0009DED000A204602F0B5F83EBD000000004B
:1051D0004C090020E8090020D409002000F07F4598
:1051E0000000754470B52DED028B0446A349096893
:1051F000488906F0B8FE41EC180B9FEDA10B53EC6B
:10520000102B06F009FF1CD29F48006890F8000997
:1052100058B19E4800880A2807DD00209A4909688D
:1052200081F800099949088064E09748006890F87F
:10523000000900285ED095480088401C93490880EA
:1052400058E08E490968488906F08DFE41EC180B3C
:105250009FED8B0B53EC102B07F018F82CD28749DD
:105260000968488906F07FFE41EC180B9FED880B1A
:1052700053EC102B06F0D0FE1ED28348006890F845
:10528000000901280CD0814800880A2808DD012087
:105290007D49096881F8000900207C49088029E0DF
:1052A0007948006890F80009012823D077480088E1
:1052B000401C764908801DE07348006890F800099A
:1052C00002280CD0714800880A2808DD02206E49A7
:1052D000096881F8000900206C4908800AE06A48E2
:1052E000006890F80009022804D068480088401C33
:1052F000664908806448006890F8FC08012843D19A
:105300000020654908805D490968888806F02BFE01
:1053100041EC180B9FED610B53EC102B06F07CFE5B
:1053200001D2012500E0002554490968C88806F02B
:105330001AFE41EC180B9FED5B0B53EC102B06F0A3
:10534000A5FF01D2012000E0002028404E49096855
:1053500091F8FD1809B9012100E00021084078B159
:105360005248008820445149088008460088B0F51A
:10537000FA6F4EDD00204449096881F8FC0848E0D6
:1053800000204A49088044E03F48006890F8FD0842
:10539000012804D13C49096881F8FC0839E0002063
:1053A0004249088035490968888806F0DCFD41ECEF
:1053B000180B9FED3A0B53EC102B06F02DFE01D28B
:1053C000012500E000252D490968C88806F0CBFDBD
:1053D00041EC180B9FED330B53EC102B06F056FFEE
:1053E00001D2012000E0002005402DB12A480088AC
:1053F00020442949088002E00020274908802648E7
:105400000088B0F5FA6F04DD01201F49096881F8B2
:10541000FC081D48006890F8FC0860B92448008822
:1054200040F00100224908802248C82102694FF457
:10543000005090470CE01E48008820F001001C49F5
:1054400008801C484FF4FA7102694FF400509047ED
:105450000D48006890F8FD0830B11548008840F00C
:1054600002001349088005E01148008820F002007E
:105470000F490880BDEC028B70BD0000B40A00200B
:10548000000000000000594030090020D20900202F
:105490000000000000208C40CE0900200000000029
:1054A00000C062400000000000908A40D009002047
:1054B00014000020800A00201FB53C22D02146485D
:1054C00003F075FFC0B28DF808003B22D02142489E
:1054D00003F06DFFC0B28DF809009DF808009DF83B
:1054E000091040EA012000B2ADF800003E22D021B0
:1054F000394803F05CFFC0B28DF80A003D22D0218C
:10550000354803F054FFC0B28DF80B009DF80A0037
:105510009DF80B1040EA012000B2ADF802004022D5
:10552000D0212D4803F043FFC0B28DF80C003F227C
:10553000D021294803F03BFFC0B28DF80D009DF843
:105540000C009DF80D1040EA012000B2ADF80400F7
:10555000BDF9000000EE100AB8EEC00A1F4880ED49
:10556000000ABDF9020000EE100AB8EEC00A1B489E
:1055700080ED010ABDF9040000EE100AB8EEC00A81
:10558000164880ED020A90ED000AD0ED0C0A30EECC
:10559000600A80ED060A90ED010AD0ED0D0A30EEAA
:1055A000600A80ED070A90ED020AD0ED0E0A30EE97
:1055B000600A80ED080A90ED081AD0ED070A90ED18
:1055C000060A074801F042FF044880ED060AC0EDD4
:1055D000070A80ED081A1FBDF80F00207C1000207C
:1055E000041000201FB54422D021464803F0DFFEFE
:1055F000C0B28DF808004322D021424803F0D7FE04
:10560000C0B28DF809009DF808009DF8091040EA25
:10561000012000B2ADF800004622D021394803F045
:10562000C6FEC0B28DF80A004522D021354803F0ED
:10563000BEFEC0B28DF80B009DF80A009DF80B105D
:1056400040EA012000B2ADF802004822D0212D48E6
:1056500003F0ADFEC0B28DF80C004722D0212948DE
:1056600003F0A5FEC0B28DF80D009DF80C009DF86A
:105670000D1040EA012000B2ADF80400BDF90000B1
:1056800000EE100AB8EEC00A1F4880ED030ABDF90B
:10569000020000EE100AB8EEC00A1B4880ED040AB2
:1056A000BDF9040000EE100AB8EEC00A164880EDFD
:1056B000050A90ED030AD0ED0F0A30EE600A80ED86
:1056C000090A90ED040AD0ED100A30EE600A80ED70
:1056D0000A0A90ED050AD0ED110A30EE600A80ED5D
:1056E0000B0A90ED0B1AD0ED0A0A90ED090A074853
:1056F00002F091F8044880ED090AC0ED0A0A80ED35
:105700000B1A1FBDF80F00207C100020481000204D
:1057100070B5002435E01C4803F027FFEE211A483D
:1057200003F09EFF184803F04BFFA02000EB44005D
:10573000C1B2154803F094FF134803F041FF12482B
:1057400003F013FFEF21104803F08AFF0E4803F027
:1057500037FF0D4803F05DFF05460B4803F087FE59
:10576000094803F056FF0646074803F0E3FE0648E3
:1057700003F0BDFE46EA0520044921F81400601C30
:10578000C4B2062CC7DD70BD581100208011002066
:1057900000B587B001210420FBF746F94748FBF725
:1057A0000FFC4FF6FF7002902920ADF80400002096
:1057B000ADF80C00ADF8060001A94048FBF7A6FEC5
:1057C0000020ADF812000120ADF814000020ADF863
:1057D0001600ADF81800ADF8100004A93748FBF723
:1057E000D4FC0420ADF8100004A93448FBF7CDFC2C
:1057F0000820ADF8100004A93048FBF7C6FC0C20C7
:10580000ADF8100004A92D48FBF7BFFC01212B487F
:10581000FBF7C9FB012202212848FBF7EDFC01221E
:1058200004212648FBF7E8FC012208212348FBF766
:10583000E3FC012210212148FBF7DEFC01210220BC
:10584000FBF712F91E48FBF7BBFB4FF6FF70029007
:105850005320ADF804000020ADF80C00ADF80600B0
:1058600001A91748FBF752FE0020ADF812000120F5
:10587000ADF814000020ADF81600ADF818000820AF
:10588000ADF8100004A90E48FBF77FFC0C20ADF822
:10589000100004A90A48FBF778FC01210848FBF72F
:1058A00082FB012208210648FBF7A6FC01221021F9
:1058B0000348FBF7A1FC07B000BD00000008004052
:1058C0000004014010B57748007800F0010048B9A5
:1058D000744803F074FF28B1734803F027FD714842
:1058E000AFF300807148007800F0010048B96F48BC
:1058F00003F065FF28B16E4803F018FD6B48AFF365
:1059000000806C480078012868D16B480068E0B9D5
:105910009FED6A0A6A4880ED0C0A9FED680A80EDE7
:105920000D0A9FED660A80ED0E0A9FED640A80ED78
:105930000F0A9FED620A80ED100A9FED600A80ED6C
:10594000110A01205C49086010BD5B48006840F600
:10595000B831884243DC58480068401C564908600A
:10596000514890ED000A5648D0ED000A30EE200A6A
:105970004D4880ED000A90ED010A5148D0ED010A32
:1059800030EE200A484880ED010A90ED020A4C48AA
:10599000D0ED020A30EE200A434880ED020A444866
:1059A00090ED000A4648D0ED030A30EE200A404848
:1059B00080ED000A90ED010A4148D0ED040A30EE76
:1059C000200A3B4880ED010A90ED020A3C48D0EDE8
:1059D000050A30EE200A364880ED020A60E0002019
:1059E00035490860334908702F4890ED000ADFED13
:1059F000350A80EE201A324880ED0C1A2A4890EDC4
:105A0000010ADFED300A80EE201A2D4880ED0D1AD4
:105A1000254890ED020ADFED2B0A80EE201A9FED5B
:105A20002A0A31EE400A264880ED0E0A204890ED01
:105A3000000ADFED240A80EE201A214880ED0F1ABB
:105A40001B4890ED010ADFED1F0A80EE201A1C486A
:105A500080ED101A164890ED020ADFED1A0A80EE6A
:105A6000201A174880ED111A9FED140A0E4880ED98
:105A7000000A9FED120A80ED010A9FED100A80EDE9
:105A8000020A9FED0E0A0A4880ED000A9FED0B0AFC
:105A900080ED010A9FED090A80ED020A00F052F83C
:105AA00000BF51E7FC090020C4100020F8090020C5
:105AB000D0100020E8090020000A002000000000AB
:105AC0007C10002000803B4500F07F4500B5182089
:105AD000FBF7DAFFBCEEC00A10EE100A1749487057
